:100000000C945B050C9478050C9478050C94780599
:100010000C9478050C947D300C9478050C9478053C
:100020000C9478050C94974A0C94DC320C94780567
:100030000C9478050C94BE310C9478050C947805DA
:100040000C9478050C9478050C9478050C9478053C
:100050000C9442090C9478050C94AE080C94780525
:100060000C9478050C9478050C9478050C9478051C
:100070000C94C0350C9478050C94E732633C404AEC
:10008000404A404A6A3CA23CA93C533D823DD33D94
:10009000DB3D404AF93D1E3E6F3E0F3F323F4F3F32
:1000A000863F8D3FA03FB03FBD3F404A404A404A57
:1000B000404A404A404A404AA83FC93FD13FDE3FFC
:1000C000134056405E40404A404A404A6B407040B0
:1000D0008D40404A404A404A404A404A404A404A8D
:1000E000404A404A404A404A404A404A404A404AC0
:1000F000404A404A404A404A404A404A404A404AB0
:10010000404A404A404A773EBE3E083F404A404A45
:10011000404A404A404A404A404A404A404A404A8F
:10012000404A404A404A404A404A404A404A404A7F
:10013000404A404A404A404A404A404A404A404A6F
:10014000404A7F3C143DC53D613E9A40B05AC25A78
:10015000D45AE65AF85A0A5B1C5B2E5B405B525B32
:10016000645B765B885B9A5BAC5BBE5BD05BE25B9F
:10017000F45B065C185C265C345C425C505C5E5C44
:100180006C5C7A5C885C965CA45CB25CC05CCE5CA7
:10019000DC5CEA5CF85C065D145D225DD842F00A26
:1001A000050000000580F00A0400000000000000C7
:1001B000000000000000000000000000F00000004F
:1001C0000A40F00A000000000A40F00A00000000A7
:1001D000000000000000000000000000008000009F
:1001E000020000002880F00A7600000000000000F5
:1001F0000000000000000000000000004640F00A7F
:10020000050000000480F00A050000000000000066
:100210000000000000000000000000001E41F00A85
:10022000050000000480F00A050000000000000046
:100230000000000000000000000000003840F00A4C
:10024000050000003880F00A0500000000000000F2
:100250000000000000000000000000007D40F00AE7
:10026000050000000480F00A050000000000000006
:10027000000000000000000000000000D842B80BA1
:10028000050000000580F00A0400000000000000E6
:10029000000000000000000000000000D842B80B81
:1002A000050000000580F00A0400000000000000C6
:1002B000000000000000000000000000D8424006DE
:1002C000050000000580400604000000000000005A
:1002D000000000000000000000000000D842980864
:1002E00005000000058098080400000000000000E0
:1002F0000000000000000000000000007840DC0565
:1003000004000000000000000000000000000000E9
:100310000000000000000000000000009640DE0D1C
:100320000540DC05000000000000000000000000A7
:100330000000000000000000000000009680DE0DBC
:100340000580DC0500000000000000000000000047
:10035000000000000000000000000000D842FC087F
:10036000050000000580FC080400000000000000FB
:10037000000000000000000000000000987A800CDF
:10038000050000000580F00A0400000000000000E5
:100390000000000000000000000000006841B80BF1
:1003A00064441C0C050000000580F00A04000000F5
:1003B0005A421C0C0000000000000000D842540B00
:1003C000050000000580F00A0400000000000000A5
:1003D0000000000000000000000000001E00F00A05
:1003E0000480F00A0000000000000000000000008F
:1003F00000000000000000000000000014000000E9
:100400000540F00A140000000580F00A000000001A
:100410000000000000000000000000008483DE0DEA
:100420000580DC0500000000000000000000000066
:100430000000000000000000000000001E0000009E
:100440000480F00A0000000000000000000000002E
:100450000000000000000000000000006841B80B30
:100460006444B80B050000000580F00A0400000099
:100470005A421C0C000000000000000098BA98BA14
:10048000983A983A0887F0000200D48210000000E1
:1004900000000000000000000200C8851200568223
:1004A0000200000000000000D00700000000000073
:1004B0000000000000000000530057005B005F00D8
:1004C000630066006B006F00730078007C008100A1
:1004D00086008A008F0094009A009F00A400AA0062
:1004E000AF00B500BB00C100C700CD00D300D900EC
:1004F000DF00E600EC00F300F900000106010D0149
:1005000014011A01210128012F0136013C01430188
:100510004A01510157015E0165016C0173017901C6
:10052000800186018D0194019A01A001A701AD010E
:10053000B301BA01C001C601CC01D201D701DD016E
:10054000E301E801EE01F301F801FE0103020802F4
:100550000D02120217021B022002250229022D029F
:10056000320236023A023E02420246024A024D027C
:100570005102540258025B025F0262026502680285
:100580006C026E027102740277027A027C027F02B0
:1005900081028402860289028B028D028F029202FE
:1005A0009402960298029A029C029D029F02A10266
:1005B000A302A402530057005B005F0063006600C3
:1005C0006B006F00730078007C00810086008A0059
:1005D0008F0094009A009F00A400AA00AF00B5000D
:1005E000BB00C100C700CD00D300D900DF00E6008A
:1005F000EC00F300F900000106010D0114011A01DD
:10060000210128012F0136013C0143014A0151011A
:1006100057015E0165016C0173017901800186015A
:100620008D0194019A01A001A701AD01B301BA01A6
:10063000C001C601CC01D201D701DD01E301E8010F
:10064000EE01F301F801FE01030208020D0212029D
:1006500017021B022002250229022D023202360255
:100660003A023E02420246024A024D02510254023E
:1006700058025B025F026202650268026C026E024F
:100680007102740277027A027C027F028102840284
:10069000860289028B028D028F02920294029602D8
:1006A00098029A029C029D029F02A102A302A40248
:1006B0008000CC05400084404000000080013C00E8
:1006C0008141201C8000CC05400084404000000097
:1006D00080013C008141201C8000CC05200084402A
:1006E0002000000080013C008141201C8000CC05DE
:1006F000400084404000000080013C008141201CFB
:100700008700CC052700944E2000000080013C00AB
:100710008141201C8700CC054700944E400000001A
:1007200080013C008141201C8700CC054700944E8D
:100730004000000080013C008141201CE0012C01B0
:10074000E0010000E0010000E0012C01E141201C7B
:10075000E000E8FDE0000000E0000000E0013C00F7
:10076000E141201C8000E6024000623C40000000A5
:1007700080013C008141201C8900CC054900940384
:100780004A00105980013C008141201C8000CC05AA
:100790004000944E4000000080013C008141201C3C
:1007A0008000CC054000944E4000000080013C00D9
:1007B0008141201CEB007800EC000807EB007C0076
:1007C000ED00401A8141201C8400DB134400F82511
:1007D000400000008001F0008141201C8000E60202
:1007E00040005A354000000080013C008141201C3F
:1007F00075643B4B8BAEB80AFF32F0696E9278326B
:100800003F040A3F040A38100A38100A3F080A3F1A
:10081000080A3F080A00000000000020200A3F08E4
:100820000A3E080A3E080A00000038080A3E040A88
:100830001E0014001E0014000C0008000C0008002C
:100840000200020002000200020002000200020098
:1008500008000300080003000A0007000A00070060
:100860002400180024001800020002000200020008
:10087000020002000200020003000700030007005C
:100880000A0007000A0007000A0007000A00070024
:100890000F000A000F000A0002000200020002001E
:1008A0001E0014001E0014000300070003000700D0
:1008B0001E0014001E0014000C0008000C000800AC
:1008C0000200020002000200020002000200020018
:1008D00008000300080003000900050004000200EE
:1008E0002400180024001800020002000200020088
:1008F00002000200020002000300070003000700DC
:100900000A0007000A0007000A0007000A000700A3
:100910000F000A000F000A0002000200020002009D
:100920001E0014001E00140003000700030007004F
:10093000D701D7019A01D701D7019A01B301B301B9
:100940007301B301B3017301D701D7019A01D70134
:10095000D7019A01D701D7019A01B301B3017301FD
:10096000B301B3017301B301B3017301D701D7011F
:100970009A01D701D7019A01D701D7019A01E30162
:10098000E3019A01E301E3019A01B301B3017301A9
:10099000B946BE2800FFAF18B91000FF87059B04B9
:1009A00001FF7D04960601FFAF12B90800FFAF18E2
:1009B000B90E00FFAF48B93000FF64047D1201FF9B
:1009C00064047D1201FF9606AF0F01FFAF22B91537
:1009D00000FFAF14B90C00FFAF1AB91000FF960466
:1009E000AF1201FFB95ABE4600FF8C0A961001FFF4
:1009F000B946BE2800FFAF18B91000FF87059B0459
:100A000001FF7D04960601FFAF12B90800FFAA128C
:100A1000B40A00FFAF48B93000FF64047D1201FF43
:100A200064047D1201FF9606AF0F01FFAF22B915D6
:100A300000FFAF14B90C00FFAF1AB91000FF960405
:100A4000AF1201FFB95ABE4600FF8C0A961001FF93
:100A5000000099AADD058F96D1078F8CB90B8F8C7A
:100A6000750E8F8295118F7DA9168D7800008FA548
:100A700021038F78B1048A6E09078A646109885F4F
:100A8000810C885AA10F885A0000B2C35902ADBE2A
:100A9000B104ADBE0907ADB461099E96810C8F6E9D
:100AA000A10F8F640000FFFF00FF0000FFFF00FFA9
:100AB0000000FFFF00FF11241FBECFEFD0E1DEBF1B
:100AC000CDBF11E0A0E0B1E0E6E7F3ED02C0059094
:100AD0000D92A839B107D9F717E0A8E9B1E001C034
:100AE0001D92A839B107E1F70E949D630C94B96982
:100AF0000C94000088E781B985E184B98CEF87B94F
:100B00008AE38AB980E880BF089580E185BF88E7DD
:100B100081B912B81092B30585E184B915B8109265
:100B200010028CEF87B980EE88B98093A9058AE31B
:100B30008AB99AE09BB9909306021092C50029E108
:100B40002093C40082E28093C00088E18093C100BA
:100B500086E08093C2008093CD008DE68093CC0028
:100B600080E28093C80088E08093C9008EE880937B
:100B7000CA0080E680937C0084E880937A0010921B
:100B80007B00109280009093810088E092E5909322
:100B900089008093880010926F0092E09093B000DB
:100BA00084E08093B1002093B3009093700080E8BC
:100BB00080BF089590912507E5E6F4E0E90FF11D67
:100BC000808380912507E2E3F2E0E80FF11D608366
:100BD00080912507EBEAF6E0E80FF11D4083809154
:100BE00025078F5F8093250780912507823311F4B5
:100BF000109225079091250780913E04981759F48B
:100C000080913E048F5F80933E0480913E04823346
:100C100011F410923E0408959091E105EFE4F6E09E
:100C2000E90FF11D80838091E105E0EEF2E0E80F2D
:100C3000F11D60838091E1058F5F8093E1058091D4
:100C4000E105823311F41092E1059091E105809164
:100C50008403981759F4809184038F5F80938403F1
:100C600080918403823311F4109284030895EF92EB
:100C7000FF920F931F9387E0809343078DE080934B
:100C8000AB0488EE93E090939F0480939E0484E6E7
:100C90008093150283E090E090930F0280930E0200
:100CA00041E040933307109238071092370788ECE1
:100CB00090E09093CE018093CD0110922507109281
:100CC0003E041092E1051092840310929605109252
:100CD000E806109233061092AD0210922E07109281
:100CE000B70185E08093EE01409395078091EE0176
:100CF0008093B8021092C0011092BF016DE777E0B7
:100D0000FB01208107E415E0F80130811092A30671
:100D10001092E405109242071092ED061092C5025F
:100D20008CE390E09093F4018093F3011092C3045C
:100D30001092C204EBE6F3E08081806440936C0380
:100D40008E7F808310929B0610929A0680E4809397
:100D5000210580939F051092A40680E090E0A0E01A
:100D6000B0E08093660290936702A0936802B0930C
:100D700069021092A7051092A6058FEF9FEF90933E
:100D8000B4048093B3042570FB0120833973F80108
:100D900030831092460710924A0510925803ACE82F
:100DA000B3E09C919F709C93EBEBF2E080811092FA
:100DB000F7051092AB028078808310924103109265
:100DC0008207109253031092FB0110928607109233
:100DD000D40310923E0783E080933F048091FB018F
:100DE00086618093FB0182E08093FB0580918607FA
:100DF0008660809386071092AE0283E2809326037A
:100E000090619C9388E780939A051092E706109270
:100E100025071092E1051092960510923E0410925B
:100E200084031092E80680E090E029E437E0F901BD
:100E3000E80FF91F1082019683319105C1F70F2E3B
:100E4000FEEDEF2EF5E0FF2EF02DF7018081877F7C
:100E5000808310921603E6ECF5E080818F77808323
:100E6000EEE8F3E030811092AF021092520410923B
:100E700051041092AA021092A9021092A104109299
:100E8000A00410921B0310921A0388E893E1909338
:100E90006E0280936D02A0E2B3E02C912B7F226062
:100EA0001092C4021092C3021092940310929D04F7
:100EB00010924B0410924A041092F206822F877F00
:100EC0008C9310922004109290031092B904109207
:100ED000B8041092BB051092BA0510922204109229
:100EE0002104109243041092420442EE54E05093C5
:100EF000A2054093A1058EEE92E09093C3018093EA
:100F0000C2013A7F386030831092ED011092EC01FB
:100F100080ED97E0909363038093620310927D03CA
:100F2000109221031092A7011092EC061092EB068A
:100F30001092F80510920D0710920C0750930006BE
:100F40004093FF0510926402809164028093D00167
:100F500010924D0410927202EFE5F4E080818F77D9
:100F60008083EBE2F0E080818061808380818F7DEF
:100F7000808381E08093BA02EAECF0E080818860AF
:100F800080831092A4041092A30484E58093050446
:100F900010928F03EBE6F3E080818F7E80831092C6
:100FA000A6041092B30210925503109254031092AB
:100FB00042031092260527732C9384E893E09093C4
:100FC00047048093460410920D0210920C02109276
:100FD00001021092000203EF16E0F8012081246064
:100FE0008CED95E09093C0048093BF04277F20830D
:100FF0008CE980938703609187038FE141E00E9431
:101000000C068EE591E09093A00380939F038AEAFB
:1010100090E09093070480930604F80180818F7D0F
:10102000808310926C031092850710928407E5EB81
:10103000F5E080818E7F8083F70180818D7E8083C3
:101040001F910F91FF90EF90089590919605EDEC10
:10105000F4E0E90FF11D808380919605E3E7F2E06B
:10106000E80FF11D6083809196058F5F8093960550
:1010700080919605823311F4109296059091960511
:101080008091E806981759F48091E8068F5F809365
:10109000E8068091E806823311F41092E80608957C
:1010A00090913306E5EFF1E0E90FF11D8083809127
:1010B0003306E1E7F7E0E80FF11D60838091330626
:1010C0008F5F8093330680913306863011F410923F
:1010D0003306909133068091AD02981759F48091B0
:1010E000AD028F5F8093AD028091AD02863011F426
:1010F0001092AD020895982F80917D0781FD2DC03B
:101100009093FE05109202028091FE058093C60026
:10111000609317031092E50640934B068091FE05FD
:101120008093D9029091D90280911703890F8093FF
:10113000D9028091D902840F8093D9028091D9027B
:1011400080958093D902EDE7F7E080818268808303
:10115000E1ECF0E080818064808308951F920F921B
:101160000FB60F9211248F93AF93BF93EF93FF931A
:10117000809102028F5F809302028091020285308B
:1011800008F455C010920202A1ECB0E08C918F7B64
:101190008C9310923B06EDE7F7E080818E7F808391
:1011A0008C9180688C938091FE05833081F582E07C
:1011B0008093AC0480818F7A8083E7E4F5E08081BE
:1011C0008F778083809117038A3429F4EDE7F7E065
:1011D00080818061808380911703803529F4EDE759
:1011E000F7E080818064808380911703863629F43C
:1011F000E7E4F5E08081806880838091170387367B
:10120000B9F5E7E4F5E080818068808331C08091A2
:10121000FE05823021F481E08093AC0429C08091E6
:10122000FE05833229F582E08093AC0421C08091D1
:101230000202823071F0833018F4813029F406C044
:10124000833051F0843059F080E00BC08091E50686
:1012500008C08091170305C080914B0602C08091A1
:10126000D9028093C600E1ECF0E080818064808345
:10127000FF91EF91BF91AF918F910F900FBE0F90A3
:101280001F9018951F920F920FB60F9211242F9353
:101290003F934F935F936F937F938F939F93AF93FE
:1012A000BF93EF93FF932091C6001092620485E0F4
:1012B00090E09093CE018093CD0180913B068F5FAB
:1012C00080933B0680913B06813019F420933A06C7
:1012D000F3C280913B06823009F0EEC280913A065B
:1012E000820F8093C0028091C0028F3F09F0E4C258
:1012F00082E390E09093CE018093CD01109262043E
:101300008AE08093A504EDE7F7E080818D7F8083FC
:101310008091AC04813009F058C180913307882353
:1013200029F480913C058093E4051AC0809133072D
:10133000813029F480913D058093420711C080914E
:101340003307823029F480913E058093ED0608C072
:1013500080913307833021F480913F058093C5024B
:101360008091330790913A06ECE3F5E0E80FF11D28
:101370009083909133068091AD029817A9F08091E7
:10138000AD02E5EFF1E0E80FF11D60818091AD0263
:10139000E1E7F7E0E80FF11D408183E00E947B0860
:1013A00082E08093110200C18091BB0285FF0AC0D8
:1013B0004091080483E06BE40E947B088CE08093FA
:1013C0001102F2C080918C0384FF0AC04091260371
:1013D00083E067E00E947B0883E080931102E4C011
:1013E00080918C0385FF0AC04091B80283E069E4D4
:1013F0000E947B0884E080931102D6C080918C0308
:1014000086FF0AC04091530383E063E50E947B0896
:1014100085E080931102C8C080918C03882354F426
:101420004091FB0183E064E50E947B0886E08093A5
:101430001102BAC08091BB0280FF0AC040918607AA
:1014400083E065E50E947B0887E080931102ACC0D1
:101450008091BB0281FF0AC04091D40383E066E51E
:101460000E947B0888E0809311029EC08091C6058F
:1014700085FF0AC040913E0783E067E50E947B0834
:101480008DE08093110290C080915F0482FF0AC0BA
:101490004091D40183E069E50E947B0887E1809355
:1014A000110282C08091BB0282FF0AC04091E80510
:1014B00083E06CE40E947B0889E08093110274C091
:1014C0008091BB0283FF0AC04091480783E06EE42D
:1014D0000E947B088AE08093110266C08091BB0263
:1014E00084FF0AC04091A30583E06FE40E947B085B
:1014F0008BE08093110258C09091E10580918403A4
:101500009817A9F080918403EFE4F6E0E80FF11D4D
:10151000608180918403E0EEF2E0E80FF11D4081EC
:1015200083E00E947B0885E1809311023DC0909189
:10153000250780913E049817A9F080913E04E5E6C6
:10154000F4E0E80FF11D608180913E04E2E3F2E0F7
:10155000E80FF11D408183E00E947B0881E08093C9
:10156000110222C0909196058091E8069817A9F083
:101570008091E806EDECF4E0E80FF11D60818091C8
:10158000E806E3E7F2E0E80FF11D408183E20E9404
:101590007B0886E18093110207C0EDE7F7E08081C8
:1015A0008F77808310921102EDE7F7E080818160F0
:1015B000808380911102882309F47EC18AE090E043
:1015C0009093CE018093CD0177C180913A068A3AFB
:1015D00009F06DC1EDE7F7E080818160808384FFD1
:1015E00004C010923D05877E808380917D0786FF31
:1015F0000CC0ADE7B7E0982F8F7D8C93ECE3F5E05E
:101600008081817080839F799C9380914705882396
:1016100094F4E7E4F5E08F7B80838091390688239A
:1016200019F410923E0502C010923F05E7E4F5E080
:1016300080818F77808380911102813069F480915D
:101640003E048F5F80933E0480913E04823309F014
:101650002EC110923E042BC180911102853169F494
:10166000809184038F5F809384038091840382330D
:1016700009F01DC1109284031AC1809111028631B4
:1016800069F48091E8068F5F8093E8068091E80610
:10169000823309F00CC11092E80609C18091110251
:1016A000823069F48091AD028F5F8093AD028091AA
:1016B000AD02863009F0FBC01092AD02F8C08091F7
:1016C0001102833089F4ECE4F7E080818F5F80833E
:1016D0008081833009F0EBC0ECE8F3E080818F7EFD
:1016E000808310924C07E3C080911102843089F40A
:1016F000EDE4F7E080818F5F80838081833009F0A3
:10170000D6C0ECE8F3E080818F7D808310924D0796
:10171000CEC080911102853089F4EEE4F7E080813B
:101720008F5F80838081833009F0C1C0ECE8F3E0F3
:1017300080818F7B808310924E07B9C08091110207
:10174000863089F4EFE4F7E080818F5F80838081C9
:10175000833009F0ACC0ECE8F3E080818F778083C0
:1017600010924F07A4C080911102873089F4E0E500
:10177000F7E080818F5F80838081833009F097C09C
:10178000EBEBF2E080818E7F8083109250078FC058
:1017900080911102883089F4E1E5F7E080818F5F64
:1017A00080838081833009F082C0EBEBF2E080819E
:1017B0008D7F8083109251077AC0809111028D3005
:1017C00089F4E6E5F7E080818F5F80838081833054
:1017D00009F06DC0E6ECF5E080818F7D808310928A
:1017E000560765C080911102873189F4E0E6F7E081
:1017F00080818F5F80838081833009F058C0EFE55E
:10180000F4E080818B7F80831092600750C08091CC
:101810001102893089F4E2E5F7E080818F5F8083EF
:101820008081833009F043C0EBEBF2E080818B7F55
:101830008083109252073BC0809111028A3081F45C
:10184000E3E5F7E080818F5F80838081833079F5E5
:10185000EBEBF2E08081877F80831092530727C0F3
:10186000809111028B3081F4E4E5F7E080818F5F95
:10187000808380818330D9F4EBEBF2E080818F7E2E
:1018800080831092540713C0809111028C3079F438
:10189000E5E5F7E080818F5F80838081833039F4D4
:1018A000EBEBF2E080818F7D808310925507EDE7AE
:1018B000F7E080818F778083FF91EF91BF91AF91A7
:1018C0009F918F917F916F915F914F913F912F9158
:1018D0000F900FBE0F901F901895EF92FF920F93ED
:1018E0001F93CF93DF93833009F441C0843028F4F1
:1018F0008130F9F0823060F50DC0853009F455C0B3
:10190000853008F443C0863009F45EC0873009F0A2
:1019100079C069C080E680937C00C0E0D0E00F2EE3
:10192000FFEFEF2EF3E0FF2EF02D20E030E060E03F
:1019300077C081E680937C00C0E0D0E00F2EFFEFFF
:10194000EF2EF3E0FF2EF02D20E030E060E068C0E5
:1019500082E680937C00C0E0D0E00F2EFFEFEF2EF8
:10196000F3E0FF2EF02D20E030E060E059C083E688
:1019700080937C00C0E0D0E00F2EFFEFEF2EF3E06D
:10198000FF2EF02D20E030E060E04AC084E6809336
:101990007C00C0E0D0E00F2EFFEFEF2EF3E0FF2E33
:1019A000F02D20E030E060E03BC085E680937C00D5
:1019B000C0E0D0E00F2EFFEFEF2EF3E0FF2EF02D72
:1019C00020E030E060E02CC086E680937C00C0E040
:1019D000D0E00F2EFFEFEF2EF3E0FF2EF02D20E0F2
:1019E00030E060E01DC087E680937C00C0E0D0E07E
:1019F0000F2EFFEFEF2EF3E0FF2EF02D20E030E072
:101A000060E00EC080E680937C00C0E0D0E00F2E46
:101A1000FFEFEF2EF3E0FF2EF02D20E030E060E04E
:101A2000EAE7F0E008E710E080818064808380814D
:101A3000806C8083808186FDFDCF8081806480837F
:101A4000808186FDFDCFD8018D919C91AC01002451
:101A5000440F551F001C440F551F001C452F502DCF
:101A600080818F738083240F351FC417D50708F436
:101A7000EA014E155F0508F47A016F5F6A30A1F63E
:101A80002E193F092C1B3D0B36952795369527952A
:101A900036952795822F932FDF91CF911F910F912C
:101AA000FF90EF900895DF93CF9300D0CDB7DEB7CE
:101AB0008330E1F0843028F4813081F0823090F47A
:101AC00009C08530D9F08530A8F08630D9F087304C
:101AD00009F51CC080E680937C001FC081E68093DE
:101AE0007C001BC082E680937C0017C083E6809355
:101AF0007C0013C084E680937C000FC085E6809351
:101B00007C000BC086E680937C0007C087E680934C
:101B10007C0003C080E680937C0030E090E06FEFB3
:101B200040E050E0EAE7F0E0A9E7B0E080818064BF
:101B300080838081806C8083808186FDFDCF808161
:101B400080648083808186FDFDCF2C9180818F739E
:101B50008083420F511D921708F4922F261708F424
:101B6000622F3F5F3A3011F7892F90E0860F911D69
:101B70009A01281B390BC9019695879596958795EB
:101B8000969587950F900F90CF91DF910895DF92F2
:101B9000EF92FF920F931F93CF93DF9380916B038C
:101BA00084FD61C08091EE0136E0839FC001112465
:101BB00040E959E0FA01E80FF91FF4908091EE0135
:101BC000839FC00111240196FA01E80FF91FE491E7
:101BD0006AE0E69F800111248091EE01839FC0019D
:101BE00011240496FA01E80FF91FE491DE2ED69431
:101BF000D694D694D6948091EE0123E0829FC001C2
:101C000011240196880F991FFA01E80FF91F2491FA
:101C10008091EE01839FC00111240396FA01E80F21
:101C2000F91FE491E69FD00111248091EE01839F7A
:101C3000C00111240496480F591FFA0144910F2E38
:101C4000FFE0EF2EF02DE42280914A03C82FDD271C
:101C5000C7FDD09580913B05682F772767FD70956C
:101C60004F2D522F60C08091EE0136E0839FC0015E
:101C7000112440EF59E0FA01E80FF91FF490809128
:101C8000EE01839FC00111240196FA01E80FF91FAC
:101C9000E4916AE0E69F800111248091EE01839F28
:101CA000C00111240496FA01E80FF91FE491DE2E19
:101CB000D694D694D694D6948091EE0123E0829F58
:101CC000C00111240196880F991FFA01E80FF91F2E
:101CD00024918091EE01839FC00111240396FA01A3
:101CE000E80FF91FE491E69FD00111248091EE01E5
:101CF000839FC00111240496480F591FFA01449193
:101D00000F2EFFE0EF2EF02DE42280914A03C82F22
:101D1000DD27C7FDD09580913B05682F772767FDAC
:101D200070954F2D522F8091100284FD46C18091F5
:101D3000DB02882309F041C180912B03481700F58D
:101D40008091A5029091A602885E9D4F48F48091F3
:101D5000A5029091A60201969093A6028093A502F7
:101D60002091A5023091A602CB01800F911F82170E
:101D7000930788F4E9E4F4E08081846080830BC0F9
:101D8000DD2049F41092A6021092A502E9E4F4E0E5
:101D900080818B7F808380912B03581700F5809181
:101DA000560390915703885E9D4F48F480915603E7
:101DB0009091570301969093570380935603209177
:101DC000560330915703CE018A0F9B1F821793074A
:101DD00088F4E9E4F4E08081886080830BC0EE2021
:101DE00049F41092570310925603E9E4F4E080811D
:101DF000877F80838091490482FF22C083FF20C0B7
:101E00008091EE01E8E8F1E0E80FF11D8081882380
:101E100074F481E0809388058091EE01E8E8F1E0B8
:101E2000E80FF11D80818F778093290609C01092F9
:101E300088051092290680E480934107809353041B
:101E40008091A704882361F528EA39E0F90184919B
:101E500080930E073196E4914AE0E49FC00111247B
:101E60009093A1018093A001F9013296E491E0934F
:101E7000E906F9013396E491E49FA00111245093FF
:101E80005704409356042C5F3F4FF9012491822F51
:101E900082958F708093B9012F70209332062BC0EA
:101EA0002CE939E0F901849180930E073196E49191
:101EB0004AE0E49FC00111249093A1018093A00106
:101EC000F9013296E491E093E906F9013396E49141
:101ED000E49FA001112450935704409356042C5FB3
:101EE0003F4FF9012491822F82958F708093B90121
:101EF0002F702093320690912B0380910E07891743
:101F000018F580912C0790912D07885E9D4F48F41D
:101F100080912C0790912D07019690932D07809327
:101F20002C078091A0019091A10120912C07309164
:101F30002D07860F971F8217930770F4E9E4F4E0EA
:101F400080818061808308C08091B901882321F459
:101F500010922D0710922C0790912B038091E90687
:101F6000891718F58091790790917A07885E9D4FBF
:101F700048F48091790790917A07019690937A07B7
:101F800080937907809156049091570420917907A6
:101F900030917A078C0F9D1F8217930770F4E9E444
:101FA000F4E080818062808308C0809132068823BB
:101FB00021F410927A0710927907DF91CF911F9147
:101FC0000F91FF90EF90DF900895EF92FF920F93A3
:101FD0001F9380916C02823021F01092A60610921D
:101FE000A50610926C02EFE3F6E0808180648083A6
:101FF000109285038EE705EA16E0F80161918F01E2
:1020000041E00E940C068FE7F801608141E00E94E8
:102010000C068091F205882301F130E048EF56E08C
:10202000FA01E30FF11D20818091120390911303B7
:10203000A0911403B0911503820F911DA11DB11D34
:102040008093120390931303A0931403B09315038A
:102050003F5F8091F205381718F360911203709179
:10206000130380911403909115032091F20530E041
:1020700040E050E00E9481692093C9056091C90544
:102080008CE641E00E940C060F2EF6E4EF2EF3E002
:10209000FF2EF02D89E7F70161918F0141E00E9449
:1020A0000C068AE7F801608141E00E940C068BE78C
:1020B000F701628141E00E940C068EE705EA16E016
:1020C000F80161918F0141E00E940C068FE7F80151
:1020D000608141E00E940C061092120310921303DB
:1020E00010921403109215031092C5041092C404A8
:1020F000109248048FEF8093850610929A031092F5
:102100009B0310929C0310929D031092BD021092AB
:10211000BC021092B20580932C031092DF0610923D
:10212000E0061092E1061092E20610923D04109231
:102130003C041092F5061092F4068FEF9FEF9093F7
:102140002903809328031092C9011092CA011092AA
:10215000CB011092CC011092E3051092E20520E031
:1021600030E0A8EDB1E061E177E048ED53E0FD013A
:10217000E20FF31F1082FB01E20FF31F1082C9016F
:10218000880F991FFA01E80FF91F118210822F5F43
:102190003F4F2431310559F7E9E4F4E08081826052
:1021A000808310928D031F910F91FF90EF900895FF
:1021B0000F931F938AE601E114E0F80161918F010A
:1021C00041E00E940C068BE6F801608141E00E942C
:1021D0000C06609112037091130380911403909187
:1021E00015032091C4043091C50440E050E00E94E2
:1021F00081692093EF06609148048DE641E00E94DA
:102200000C06609185068EE641E00E940C06609106
:10221000EF068FE641E00E940C0660919A037091F0
:102220009B0380919C0390919D032091BC0230916F
:10223000BD0240E050E00E94816920934405609116
:10224000B20580E741E00E940C0660912C0381E713
:1022500041E00E940C066091440582E741E00E9443
:102260000C066091DF067091E0068091E106909186
:10227000E20620913C0430913D0440E050E00E9491
:102280008169309399052093980583E704EF16E060
:10229000F80161918F0141E00E940C0684E7F8018A
:1022A000608141E00E940C0685E708E213E0F80136
:1022B00061918F0141E00E940C0686E7F801608180
:1022C00041E00E940C0687E708E915E0F8016191FA
:1022D0008F0141E00E940C0688E7F801608141E02F
:1022E0000E940C068091BC018C3030F080E866ECD6
:1022F00041E00E940C0603C08AE080939C0110928A
:10230000460310924703109248031092490310921B
:102310005A031092F205109283061092A6061092AC
:10232000A50681E080936C02EFE3F6E08081806493
:102330008083109285031F910F9108951F93CF936F
:10234000DF93182F853109F48DC08631B0F48A30BF
:1023500009F456C08B3040F48830B1F1893008F070
:1023600041C0833031F528C08C3009F465C08C3011
:1023700008F454C08231E9F46DC08C3209F4A4C071
:102380008D3248F4803209F489C08B3209F494C04C
:10239000863179F475C0843309F4B2C0853318F4FA
:1023A000833339F49FC08C3309F4B8C0823509F403
:1023B000C3C042E150E0C7C0ECE2F6E0808180613A
:1023C000808342E150E0BFC0EAE2F6E080818160B4
:1023D000808384EF91E0909305068093040642E1A8
:1023E00050E0B1C0EAE2F6E080818260808384EF51
:1023F00091E0909309068093080642E150E0A3C063
:10240000EAE2F6E080818460808384EF91E090933B
:102410000D0680930C0642E150E095C0EAE2F6E03A
:1024200080818860808384EF91E09093110680938F
:10243000100642E150E087C0EAE2F6E08081806168
:10244000808384EF91E0909315068093140642E117
:1024500050E079C0ECE2F6E080818160808342E167
:1024600050E071C0EAE2F6E080818062808384EF10
:1024700091E0909319068093180642E150E063C002
:10248000EAE2F6E080818064808384EF91E09093BB
:102490001D0680931C0642E150E055C0EAE2F6E0DA
:1024A00080818068808384EF91E0909321068093FF
:1024B000200642E150E047C0ECE2F6E08081826015
:1024C000808342E150E03FC0EBE2F6E08081816032
:1024D000808384EF91E0909307068093060642E1A3
:1024E00050E031C0EBE2F6E080818260808384EFCF
:1024F00091E090930B0680930A0642E150E023C0DE
:10250000EBE2F6E080818460808384EF91E0909339
:102510000F0680930E0642E150E015C0EBE2F6E0B4
:1025200080818860808384EF91E09093130680938C
:10253000120642E150E007C0ECE2F6E080818460E0
:10254000808342E150E0C8EDD1E0A1E1B7E068ED61
:1025500073E09A012F5F3F4FFE01E40FF51F80816A
:10256000FE01E20FF31F8083FD01E40FF51F808160
:10257000FD01E20FF31F8083CA01880F991FFB0141
:10258000E80FF91F80819181220F331FFB01E20FB9
:10259000F31F91838083415050408FEF4F3F580786
:1025A000C1F61093D8018091EE01809311078091BC
:1025B0008A0790918B079093D9038093D803E9E41D
:1025C000F4E080818260808310928D031092BC01C0
:1025D000DF91CF911F91089588E080936C03EBE623
:1025E000F3E080818064808308958130E9F58091F3
:1025F000820780FF06C08091D40380628093D40359
:1026000005C08091D4038F7D8093D403809182078D
:1026100081FF06C08091D40380618093D40305C0FC
:102620008091D4038F7E8093D4038091820782FFB0
:1026300006C08091860781608093860705C08091DF
:1026400086078E7F809386078091820783FF06C06E
:102650008091FB0188608093FB0115C08091FB0194
:10266000877F8093FB010FC08091FB01877F809360
:10267000FB01809186078E7F809386078091D4032B
:102680008F7C8093D403ECE8F3E08081806C8083BE
:10269000EBEBF2E080818360808308950F931F93BA
:1026A0008091430388230CF09EC28091D60280FF64
:1026B0009AC280918703863389F480E10E949E113B
:1026C00080912603883409F489C286E08093080447
:1026D000EBEBF2E080818062808380C280912603F0
:1026E0008C3B09F061C08091B602883019F40E94D9
:1026F000EC1243C08091430382FF0AC080913B04E7
:10270000883330F0E5EBF5E080818061808335C06F
:1027100087E180932603ECE8F3E080818061808389
:10272000E3E5F3E080818E7F8460808384E10E9412
:102730009E118EE18093E7068CE390E09093C304B2
:102740008093C204EEE8F3E080818460808381E0BE
:10275000809390038091200381FD07C0E0E2F3E0C5
:102760008460808381E08093AF0283E080930804DB
:10277000EBEBF2E0808180628083ECE8F3E0808123
:1027800080648083E0E1F2E080818B7E8083109220
:102790006C00E8E6F0E080818D7F8083EBEBF2E077
:1027A00080818F7B80831AC2809126038A3771F5DE
:1027B00089E680932603ACE8B3E09C91E3E5F3E07F
:1027C00080818E7F8460808390659C9310927B03D0
:1027D00010927A03EEE8F3E080818460808381E0E8
:1027E000809390038091200381FD07C0E0E2F3E035
:1027F0008460808381E08093AF0283E0809308044B
:10280000EBEBF2E0808180628083E8C18091260357
:10281000883409F051C08091000490910104892B03
:10282000F1F5809187038C39D1F5E9E4F4E08081FA
:102830008F7780838091EA06843028F080916B0343
:1028400088230CF4CBC18091EA068F3071F480911B
:10285000DE0583FD0AC086E48093EA066091EA06FD
:102860008AE541E00E940C06B9C18091EA068834ED
:1028700051F480E18093EA066091EA068AE541E03E
:102880000E940C06ABC18091EA068F5F8093EA0636
:102890006091EA068AE541E00E940C069FC18091A2
:1028A000DE0582FF9BC186E080930804EBEBF2E03B
:1028B00080818062808392C1809126038C3509F0EB
:1028C00051C080916B0380FD41C085EE809326034B
:1028D000ACE8B3E09C91E3E5F3E0808181608B7F1D
:1028E000808390659C93EEEDF5E080818F7B808303
:1028F0008091D4038E7F8093D403ABEBB2E09C91A4
:10290000892F82608C93EBE6F3E080818D7F80835A
:10291000109252031092510310922B0710922A0723
:10292000E0E1F2E080818461808388E080936C0044
:10293000E8E6F0E08081826080838EE18093E706A4
:1029400082E08093080492669C9348C186E30E94CB
:102950009E1186E080930804EBEBF2E080818062B8
:1029600080833CC180912603853E09F04CC087E1FD
:10297000809326030CE813E0F80180818061808356
:10298000E3E5F3E080818E7F8460808384E10E94B0
:102990009E118EE18093E706F80180818064808338
:1029A000E0E1F2E080818B7E808310926C00E8E6AB
:1029B000F0E080818D7F8083EBEBF2E080818F7B84
:1029C0008083EEE8F3E020818CE390E09093C304F1
:1029D0008093C2042560208381E0809390038091DE
:1029E000200381FD07C0E0E2F3E08460808381E0A2
:1029F0008093AF0283E080930804EBEBF2E08081E8
:102A000080628083EBC0809126038E3A49F48AE08D
:102A100080936C03EBE6F3E0808180648083DEC00A
:102A2000809187038C3909F0D9C08091EE018431FF
:102A300009F4D4C080916B0380FDC8C080919A05D1
:102A40008C32B9F480912603833211F40E94E50F91
:102A50008AE780932603ECE8F3E08081806180833D
:102A600082E080930804EBEBF2E080818062808357
:102A700077C080912603873109F04AC080918E0388
:102A800080FF46C085EE80932603ACE8B3E09C91BE
:102A9000E3E5F3E0808181608B7F808390659C9388
:102AA000EEEDF5E080818F7B80838091D4038E7F73
:102AB0008093D403ABEBB2E09C91892F82608C931E
:102AC000EBE6F3E080818D7F8083109252031092B9
:102AD000510310922B0710922A07E0E1F2E0808167
:102AE0008461808388E080936C00E8E6F0E0808178
:102AF000826080838EE18093E706EEE8F3E08081D8
:102B00008E7F808382E08093080492669C9328C025
:102B1000809126038C3511F48093E605809126037D
:102B2000833211F40E94E50F8CEB80932603ECE8CE
:102B3000F3E080818061808382E080930804EBEB86
:102B4000F2E08081806280838EE18093E706EEE888
:102B5000F3E080818B7F80831092340510923305DF
:102B6000E3E5F3E0808181608B7F8083ECE8F3E034
:102B70008081806480830BE613E0F8018081877F89
:102B80008083E0E1F2E080818061808388E080934F
:102B90006C00E8E6F0E0808182608083EBEBF2E09D
:102BA00080818064808310926C03E2E8F7E080818A
:102BB000897F808381E00E94F512F80180818F7BFC
:102BC000808310927B0310927A0308C086E0809382
:102BD0000804EBEBF2E0808180628083E3E4F3E0C1
:102BE00080818B7F8083E3E4F3E080818F77808333
:102BF0001F910F9108958AE0809329078091EE0537
:102C0000823018F482E08093EE0508958038D1F583
:102C10008091B204843181F5809176038C3861F51E
:102C20008091B50584FD28C08091F3019091F40155
:102C3000892BE1F48091C2049091C304892BB1F4F3
:102C40008091A701882391F480916B03882374F00D
:102C50008091F30685FD0AC08091C60581FD06C0FE
:102C6000E3EBF5E080818061808311C0E3EBF5E068
:102C700080818F7E80830BC0E3EBF5E080818F7EC7
:102C8000808305C0E3EBF5E080818F7E80838091B7
:102C900026038C3B09F0E1C08091B602863008F033
:102CA000DCC08091F3019091F401892B09F0D5C02B
:102CB00080916B0388230CF4CAC08091F30685FDD4
:102CC000C6C08FEF80932B0580933A078091B602A0
:102CD000843050F48091EE018A3031F4E3EBF5E07A
:102CE000808180648083089580918E0381FD04C07B
:102CF0008091B50584FF06C0E3EBF5E08081806438
:102D00008083089580915F0485FF2BC08091030428
:102D1000909104048639910530F090913B048091A4
:102D20002B05981730F0E3EBF5E080818064808319
:102D3000089580910304909104048C52914060F4B2
:102D400090913B0480913A07891730F0E3EBF5E06E
:102D500080818F7B80830895109204041092030475
:102D600008958091C8049091C9048559924008F152
:102D700080918307803360F490913B0480913A07FF
:102D8000891730F0E3EBF5E080818F7B8083089535
:102D900080918307813338F490913B0480912B0517
:102DA000981708F477C0E3EBF5E0808180648083B6
:102DB0000895809170029091710281359105D8F04B
:102DC00080917002909171022091AB053091AC0519
:102DD000805590408217930771F4809103068823F1
:102DE00051F480918307893230F084E690E090932B
:102DF000C7048093C6048091C6049091C704892BB0
:102E000031F0E3EBF5E08081806480830895809168
:102E10008307803360F490913B0480913A078917CF
:102E200030F0E3EBF5E080818F7B80830895809123
:102E30008307813330F490913B0480912B059817E0
:102E400048F1E3EBF5E08081806480830895E3EB53
:102E5000F5E080818F7B80830895E3EBF5E080814E
:102E60008F7B80838091F3019091F401892B91F005
:102E700080916B03882324F08091F30685FF0AC0BC
:102E80008CE390E09093F4018093F3011092C304DB
:102E90001092C204089580915304803490F180917F
:102EA0002603873121F0809126038C3571F48091BF
:102EB0008E0384FD04C0EEE8F3E080628083EEE8D8
:102EC000F3E08081806180830895809116038536C8
:102ED00008F4A2C0EEE8F3E080818F7E80838091C9
:102EE0003E078F7B80933E0780913E0788638093E7
:102EF0003E07E6ECF5E08081806280831092160345
:102F00000895809153048032F0F18091100284FF83
:102F100003C085E08093DB02E0E1F2E080818F7EF8
:102F2000808380912603873121F0809126038C35A0
:102F300071F480918E0384FD04C0EEE8F3E08062BA
:102F40008083EEE8F3E08081806180830895809142
:102F50001603853608F460C0EEE8F3E080818F7ECA
:102F6000808380913E078F7980933E0780913E0752
:102F7000886180933E07E6ECF5E080818062808383
:102F80001092160308958091C8029091C9028A3A5E
:102F9000910568F08091C8029091C9028F559140C7
:102FA00030F4E0E1F2E080818F7E808305C0E0E1D3
:102FB000F2E080818061808380912603873121F057
:102FC000809126038C3571F480918E0384FD04C0BA
:102FD000EEE8F3E080628083EEE8F3E080818061D8
:102FE00080830895809116038536B0F0EEE8F3E013
:102FF00080818F7E808380913E078F7880933E070B
:1030000080913E07886080933E07E6ECF5E0808182
:1030100080628083109216030895CF93DF93DC01C2
:103020004FE35EE360E071E0C4EBD5E0573010F0B1
:10303000569508C06F5F6A30E1F04D37D1F04423F8
:10304000C1F0572F842F90E0880F991F9E01280F01
:10305000391FF901859194918A179B0710F4450F48
:10306000E5CFF90185919491A817B90710F4451B94
:10307000DDCF842FDF91CF910895CF93DF93DC01D3
:103080004FE35EE360E071E0C8EBD4E0573010F04E
:10309000569508C06F5F6A30E1F04D37D1F0442398
:1030A000C1F0572F842F90E0880F991F9E01280FA1
:1030B000391FF901859194918A179B0710F4450FE8
:1030C000E5CFF90185919491A817B90710F4451B34
:1030D000DDCF842FDF91CF9108950F931F93CF936E
:1030E000DF9380E00E946D0C2FEF33E08901081B15
:1030F000190BC8010E940D1880933B0460913B049A
:1031000082E241E00E940C0620913B048091120370
:1031100090911303A0911403B0911503820F911D98
:10312000A11DB11D8093120390931303A093140368
:10313000B09315038091C4049091C50401969093B7
:10314000C5048093C40490913B048091480489177E
:1031500020F480913B048093480490913B0480913B
:103160008506981720F480913B0480938506809112
:10317000F3019091F401892BA9F080919C058C3387
:1031800008F044C08091910790919207800F911FA1
:10319000909392078093910780919C058F5F809315
:1031A0009C0534C08091910790919207892B71F111
:1031B000809191079091920760919C0570E00E9428
:1031C0006D69862F972F9093920780939107809136
:1031D0009107909192078C3E910530F0EEE8F3E074
:1031E0008081826080830CC08091910790919207CA
:1031F000833D910528F0EFE5F4E0808180628083D3
:10320000109292071092910710929C050A321105B4
:10321000B0F48091B2048E3471F080EF90E090931E
:10322000D8028093D702809175038F5F80937503D6
:1032300088E00E949E118EE48093B20419C082E05F
:10324000033B1807A8F08091B2048E3471F080EF30
:1032500090E09093D8028093D702809175038F5F9E
:103260008093750389E00E949E118EE48093B204DE
:1032700081E00E946D0C2FEF33E0E901C81BD90BF0
:10328000CE010E943D18809383076091830783E2FB
:1032900041E00E940C062091830780919A0390914F
:1032A0009B03A0919C03B0919D03820F911DA11DD2
:1032B000B11D80939A0390939B03A0939C03B093BA
:1032C0009D038091BC029091BD0201969093BD0236
:1032D0008093BC02909183078091B205891720F4F6
:1032E000809183078093B2059091830780912C038E
:1032F000981720F48091830780932C03CA32D1055C
:10330000B0F480917603883571F080EF90E090936F
:10331000D8028093D702809175038F5F80937503E5
:103320008AE00E949E1188E58093760319C082E0AE
:10333000C33BD807A8F080917603883571F080EF01
:1033400090E09093D8028093D702809175038F5FAD
:10335000809375038BE00E949E1188E5809376032D
:103360008091B204843141F580913C0790913D07F2
:1033700008171907C8F184E00E949E1186E3809324
:10338000B2048CE291E09093D8028093D7028091AE
:1033900075038F5F8093750380917503863021F4E8
:1033A00085E10E949E1120C0809175038832E0F073
:1033B00086E10E949E1118C08091B204863321F0EC
:1033C0008091B2048E3481F48091D7029091D8021A
:1033D000892B51F48091800390918103081719077C
:1033E00018F484E18093B204809176038C3821F53F
:1033F000C658D140A8F185E00E949E1189E38093D0
:10340000760380EF90E09093D8028093D70280916A
:1034100075038F5F8093750380917503863021F467
:1034200085E10E949E111CC0809175038832C0F016
:1034300086E10E949E1114C080917603893321F0A9
:1034400080917603883561F4C658D14048F4809164
:10345000D7029091D802892B19F48CE880937603D7
:10346000DF91CF911F910F9108950F931F9396B104
:103470009695917080913F06869586958695817088
:10348000981709F446C0809107028F5F8093070266
:1034900096B1EFE3F6E0990F990F98708081877FDE
:1034A000892B808310923607109235078091D101C5
:1034B0008A3F28F48091D1018F5F8093D101809160
:1034C000D1018D3308F41EC1809187038633D9F46E
:1034D000809126038E3A41F486E180936C03EBE6FB
:1034E000F3E08081806480838CE98093870360911E
:1034F00087038FE141E00E94DA0582E08093420376
:103500008EE18093E706E3EFF6E080818F7D808394
:10351000F9C08091350790913607845F914048F457
:1035200080913507909136070196909336078093E6
:1035300035078091350790913607869738F0E3EF8D
:10354000F6E08081806280831092D10180913507FE
:10355000909136078451914008F4D4C0809187033C
:10356000863309F4CFC080916C02813051F482E03F
:1035700080936C02EFE3F6E0808180648083109298
:10358000850386E380938703609187038FE141E0A1
:103590000E94DA05E6ECF5E0808180688E7F80830A
:1035A0001092D7031092810710923806EFE5F4E0ED
:1035B00080818E7F80838091D4038B7F8093D4031E
:1035C000EBEBF2E080818260808380913F0684FD96
:1035D00004C0EFE3F6E08F7D80831092B90410926F
:1035E000B8041092BB051092BA05109222041092F2
:1035F0002104809126038C3B29F58091B602883006
:1036000049F485E080936C03EBE6F3E0808180640D
:10361000808371C081E10E949E1187E1809326031F
:10362000ACE8B3E09C91E3E5F3E080818E7F8460B9
:10363000808390659C938CE390E09093C304809387
:10364000C20459C0809126038A3779F489E68093B1
:103650002603ACE8B3E09C91E3E5F3E080818E7F44
:103660008460808390659C9346C080912603853E4C
:10367000B1F587E1809326030CE813E0F80180811F
:1036800080618083E3E5F3E080818E7F84608083C6
:1036900084E10E949E118EE18093E706F80180810B
:1036A00080648083E0E1F2E080818B7E80831092F1
:1036B0006C00E8E6F0E080818D7F8083EBEBF2E048
:1036C00080818F7B8083EEE8F3E08081816080835E
:1036D0008CE390E09093C3048093C2040CC080916B
:1036E00026038E3A41F486E080936C03EBE6F3E028
:1036F0008081806480838091D60280FF03C086E948
:103700008093E7061F910F9108950F931F93809167
:103710000D04882309F0FBC01D99A3C080915103BB
:1037200090915203885E934048F4809151039091A8
:103730005203019690935203809351038091510359
:1037400090915203069720F010922B0710922A07AF
:1037500080915103909152038E55914009F0D7C04A
:1037600080918C0381FF04C08091AF05813550F4B6
:1037700080912603853E09F064C08091A3018823CF
:1037800009F05FC08CE5809326030CE813E0F80194
:1037900080818061808310922B0710922A0781E03C
:1037A0000E949E11E3E5F3E080818E7F8460808338
:1037B000F8018081806480838091D403816080934C
:1037C000D403EBEBF2E08081826080838091DE05A0
:1037D00086FD05C0EEE8F3E0808180688083EEED31
:1037E000F5E08081806C808310922F06E0E1F2E0AA
:1037F00080818B7E808310926C00E8E6F0E080810F
:103800008D7F8083EBEBF2E080818F7B80838CE384
:1038100090E09093C3048093C204EEE8F3E08081CB
:103820008460808381E0809390038091200381FDF8
:103830006EC0E0E2F3E08460808381E08093AF02B9
:1038400066C0ECE8F3E08081826080838DE591E0E2
:10385000909352038093510310922B0710922A07E2
:1038600056C080912A0790912B07885E934048F4B8
:1038700080912A0790912B07019690932B078093B4
:103880002A0780912A0790912B070697D8F010926B
:1038900052031092510380912603853E99F48CEBDC
:1038A00080932603ECE8F3E0808180618083EEE87A
:1038B000F3E080818B7F8083109234051092330572
:1038C0001092A30180918C0381FF21C08091AF05EC
:1038D000883220F08091AF05893220F08091AF05C9
:1038E0008135A8F0ECE8F3E09081892F8D7F80830B
:1038F00092FF06C0E9EAF5E080818F7D808305C0F4
:10390000E9EAF5E08081806280831092AF051F9123
:103910000F910895AF92BF92CF92DF92EF92FF92F4
:103920000F931F9387E00E946D0C90935503809333
:1039300054032091540330915503E0904C03F090D0
:103940004D0300914E0310914F036FEF73E0621B24
:10395000730B80E090E00E94B768A80197010E9475
:10396000BF6760934C0370934D0380934E03909315
:103970004F03809193058F5F80939305809193050A
:10398000843608F450C160914C0370914D038091CE
:103990004E0390914F0320E030E048EC52E40E9447
:1039A00023680E948B6870936A036093690380E0C8
:1039B00090E0A0E0B0E080934C0390934D03A0937F
:1039C0004E03B0934F0310929305209169033091F9
:1039D0006A0382E490E0289FB001299F700D389F10
:1039E000700D112480E090E00E94B7685B016C01CB
:1039F00020E030E049E453E40E9423680E948B6891
:103A00007093C2026093C1022091C1023091C20240
:103A100089EC90E0289FB001299F700D389F700DB0
:103A2000112480E090E00E94B7687B018C01C60100
:103A3000B501A80197010E9445691816ACF4C601AA
:103A4000B501A80197010E94BE670E948B68663687
:103A50007105F0F08091C1029091C202019690939D
:103A6000C2028093C10214C0C601B501A80197012A
:103A70000E94BE670E948B686636710548F080918F
:103A8000C1029091C20201979093C2028093C10239
:103A900084E201EC12E0F80161918F0141E00E94A3
:103AA0000C0685E2F801608141E00E940C068091DD
:103AB000C1029091C202863F9105C0F080916402DC
:103AC0008031A1F48091C1029091C2028D50914049
:103AD00010F021E00CC08091C1029091C2020397C6
:103AE0009093AA068093A90621E001C020E080916E
:103AF0006B0388230CF445C08091350790913607FD
:103B0000899708F03EC0809142038823D1F58091C7
:103B1000C1029091C202843A910548F08091C1029D
:103B20009091C2028D50914010F4222331F1809186
:103B30007703882351F08091C1029091C2028D5287
:103B4000914018F4222309F46EC0EBE6F3E0808183
:103B5000806880838091C1029091C202843A91056D
:103B600020F48FE00E949E1103C08EE00E949E11FF
:103B7000109245041092440456C084E08093770369
:103B800052C08091C1029091C202873A910508F417
:103B900046C08091C1029091C2028A50914008F0C3
:103BA0003EC080913507909136078997C0F5222352
:103BB000B1F52091C1023091C2028091A906909185
:103BC000AA062817390758F58091440490914504B6
:103BD0008051974248F480914404909145040196A5
:103BE000909345048093440480914404909145044B
:103BF0008897C9F484E080937703EBE6F3E0808153
:103C00008F7780838CE390E09093C3048093C20409
:103C10008AE091E09093AA068093A90604C01092CE
:103C20004504109244041F910F91FF90EF90DF9094
:103C3000CF90BF90AF900895FC018FEFEF3FF80752
:103C400069F185E0E03AF80740F0CF01805A9540ED
:103C500060EA75E00E946D69FC0180919A058C32E2
:103C600029F4309719F4E0EAF5E003C0EC33F105EC
:103C700040F0CF016CE370E00E946D6960934807EB
:103C800002C0109248072091480784EC9FEF289FBC
:103C9000202D11242E0F2093A30505C08FEF8093B4
:103CA00048078093A305EBEBF2E080818861808375
:103CB00008958091EE01843129F41092D701109279
:103CC000D6011CC280912603833241F080912603E5
:103CD0008E3A21F08091490486FF10C2EEEDF5E0A6
:103CE00080818F7B8083EFE5F4E08081867F808315
:103CF0008091EE012AE0829FC001112490939407E5
:103D0000809393071092D7011092D6011092B602B9
:103D10006091B60288E041E00E940C0641E050E06C
:103D200060EB76E08091930790919407840F951F44
:103D3000880F991FFB01E80FF91F8591949120913D
:103D4000D6013091D701820F931F9093D7018093B2
:103D5000D6014E5F5F4F4B30510521F72091D601C0
:103D60003091D70180919307909194070996880F1D
:103D7000991F40EB56E0FA01E80FF91F85919491E5
:103D8000281B390B3093D7012093D6012091D601FF
:103D90003091D70180919307909194070796880FEF
:103DA000991FFA01E80FF91F85919491281B390B8F
:103DB0003093D7012093D601ECE8F3E08081806254
:103DC00080838091B5058823C4F48091EE01E0EFF3
:103DD000F7E0E80FF11DE49180912C0290912D0203
:103DE00020913F0730914007821B930B8E0F911D4E
:103DF00090932D0280932C020DC08091EE01E0EF94
:103E0000F7E0E80FF11DE4918E2F90E090932D02E2
:103E100080932C028091EE01E0EFF7E0E80FF11DB6
:103E2000E4918E2F90E09093400780933F0780911C
:103E30002C0290912D028E9730F0EFE5F4E0808116
:103E40008064808305C0EFE5F4E080818F7B808310
:103E500080916C03833039F08091B50588231CF084
:103E60008FEF809382078091EE01883081F48091FA
:103E70000A0290910B0290932D0280932C02809164
:103E80002C0290912D029093400780933F078091E0
:103E90002C0290912D020E941C1E80916C03833095
:103EA00009F4ABC08091B50588230CF4A6C08091BD
:103EB000EE0123E0829FC001112440E058E0FA01A6
:103EC000E80FF91FE491E093D5038091EE01829F02
:103ED000C00111240196FA01E80FF91FE491E09363
:103EE0002E0280912E02809324058091D503882391
:103EF00031F4809153038F7E8093530305C08091EA
:103F00005303806180935303ECE8F3E08081806485
:103F100080836091240588E40E9450088091D50335
:103F2000882329F4E2E8F7E080818D7F8083809107
:103F3000D40388778093D403EBEBF2E08081826036
:103F40008083E091EE0183E0E89FF0011124EE5FB1
:103F5000F74FE491E0933B0780913B078823D1F032
:103F600082E080939D058093C7028091FB018F7D45
:103F70008093FB0180918607866080938607ECE83A
:103F8000F3E0808180688083EBEBF2E080818160E8
:103F9000808307C010929D05E2E8F7E080818B7F67
:103FA000808380913E07877080933E0780913E0713
:103FB00080933E07A6ECB5E09C919062EEE8F3E0BA
:103FC00080818F7E808310927F039F7B9C9383E010
:103FD00080933F048091FB0186618093FB01809177
:103FE000FB018E7B8093FB01ECE8F3E0808180682D
:103FF000808381E00E94F5120AC08091FB018E7FD0
:104000008093FB01ECE8F3E08081806880838091FD
:10401000EE01833021F08091EE01823021F481E0C5
:104020008093A70402C01092A7048091EE0123E0C0
:10403000829FC00111240196880F991F20E339E067
:10404000F901E80FF91F8591949190933D078093B2
:104050003C078091EE0146E0849FC0011124049644
:10406000F901E80FF91F8591949190938103809352
:1040700080038091EE01849FC0011124F901E80FB3
:10408000F91F859194919093410680934006109278
:1040900041078091B505882324F01092B101109258
:1040A000B00110927503E6ECF5E08081887F808393
:1040B0001092D7031092810710922E058091F30180
:1040C0009091F401CC9730F48CE390E09093F4015C
:1040D0008093F3011092C3041092C20410929C05C5
:1040E0001092920710929107EEE8F3E080818D7FA5
:1040F0008083EFE5F4E080818F7D808381E00E9402
:10410000F512E5EBF5E080818F77808308951F93AA
:104110008091D60290918C03892780FF82C08AEF1C
:104120008093F7058091D60280FD52C080912603CE
:104130008C3BA1F080912603873181F0809126038A
:104140008A3761F080912603893641F080912603F9
:104150008C3521F080912603853E49F48091B6028A
:10416000883028F483E10E949E110E94D8108CE9C7
:1041700080938703609187038FE141E00E940C06E2
:104180008091AB028F5F8093AB021092E70612E042
:1041900010936C03EBE6F3E080818064808380E021
:1041A0000E94F51285E08093EE01ECE8F3E0808157
:1041B00080628083109395078091EE018093B8020E
:1041C000E5EBF5E080818E7F80830E94591E20C040
:1041D0001092E805EBEBF2E0808184608083E3E5F8
:1041E000F3E080818A7F8083ECE8F3E08081806463
:1041F00080838EE18093E70685E08093EE018091D5
:10420000EE018093B80283E0809395070E94591EC7
:10421000ECE8F3E09091D602917080818E7F892B3B
:1042200080831F910895AF92BF92CF92DF92EF9259
:10423000FF920F931F9310921204109211048CE8B6
:10424000809376030F2EF4E1FF2EF02DF092B2044E
:104250008093DB051092D7011092D60110924F0483
:1042600010924E048FE00EE414E0F80161918F018A
:1042700041E00E940C0680E1F801608141E00E946B
:104280000C061092CB041092CA0410927102109284
:1042900070021092AC051092AB051092F7061092C6
:1042A000F6061092800710927F0710925E0410921B
:1042B0005D041092B1051092B00510929703109210
:1042C000960310920404109203041092C9041092F1
:1042D000C80410922E0410922D041092C70410925C
:1042E000C6041092BF021092BE0210924A061092AB
:1042F000490610921F0410921E041092AC021092F4
:1043000052031092510310922B0710922A07F09239
:104310000D041092A3011092340710920702ABE62D
:10432000B3E09C9110926104109260041092D3014A
:104330001092D20110922E051092D703109281078D
:10434000E6ECF5E08081109243061092420610924E
:10435000380610929405847F8083EFE3F6E0808135
:104360008D7F80831092720310921F0510921E059C
:1043700081E08093A10310923205109231051092D2
:10438000B80510925703109256031092A60210928D
:10439000A50210927A071092790710922D071092B9
:1043A0002C0710926B0210926A0210927C031092FA
:1043B000C9021092C8021092410710925304109241
:1043C0002B031092FD0110926503109229061092A2
:1043D0008805109201041092000410924606109273
:1043E00045068AE080932907F092EE050EED15E070
:1043F000F80180818160808310924F0510924E05F4
:10440000E9E4F4E08081837C8083957F9C93E0E104
:10441000F2E080818B7E808310926C00E8E6F0E011
:1044200080818D7F8083EBEBF2E080818F7B8083C6
:1044300080E29EE49093FA058093F90588EC90E081
:1044400090937C0780937B071092AF050F2EFCE8BA
:10445000EF2EF3E0FF2EF02DF70180818D7F80831A
:10446000109292061092B2021092320310927903C7
:10447000109264031092DF058AE090E090930B02A3
:1044800080930A0288E780939A051092B1011092F6
:10449000B00180915303877F809353030E94591E7C
:1044A0001092DB020F2EF0E0AF2EF0E0BF2EF0E016
:1044B000CF2EF0E0DF2EF02DA0924C03B0924D03F2
:1044C000C0924E03D0924F0310929305F801808161
:1044D0008F7B8083AFE5B4E09C91E3E5F3E08081DE
:1044E0008A7F8083F7015081506410922F041092CC
:1044F000BC011092280610922005109227031092FA
:104500001F021092BB041092970510926E03E7E40D
:10451000F5E08081877F80831092E5051092A601E7
:104520001092900710928F07109223051092220587
:104530001092F40510922D06967B9C93E0E2F3E036
:1045400080818E7D808310924504109244041092E5
:10455000FE01E3EFF6E04081109248061092470614
:104560001092B7041092B60410925C0410925B048F
:104570001092CD051092CC05109231021092ED01EF
:104580001092EC0120ED37E0309363032093620337
:10459000109221031092A7011092EC061092EB06E4
:1045A00010920D0710920C0782EE94E09093000693
:1045B0008093FF0510927D031092A6041092B3021F
:1045C0001092940310929D0410924B0410924A048E
:1045D0001092F2061092200488E99AE390938206E2
:1045E0008093810690932707809326071092BE043C
:1045F0001092D8021092D7021092DA02309363031D
:1046000020936203109274038AE091E09093AA06CB
:104610008093A9064C72408310923906109293033E
:104620001092640410926304A092EF01B092F00122
:10463000C092F101D092F201109223031092220352
:104640001092A5011092A401109278031092E00537
:10465000577FF7015083E5EBF5E080811092B102BE
:104660001092B00210921903109218031092AA012E
:104670001092A9011092F20510928306817C80832A
:1046800010929B0110929A01109209021092080256
:1046900010920206109201061F910F91FF90EF9069
:1046A000DF90CF90BF90AF9008950F931F938091AC
:1046B000430381FF85C0809126038C3B21F48091C8
:1046C000B602883021F0809126038E3A19F40E94B8
:1046D000EC1271C08091EE01883009F06CC08091BD
:1046E0002603833229F0809126038E3A09F063C0B5
:1046F00080910A0290910B02803A910539F48AE088
:1047000090E090930B0280930A0219C080910A02F4
:1047100090910B02CC9750F080910A0290910B027D
:10472000449690930B0280930A0209C080910A027A
:1047300090910B020A9690930B0280930A02E5EB8C
:10474000F5E08081806880830E94591E80919A05DF
:104750008C3261F588E780939A051092B10110922E
:10476000B00180915303877F809353038091B00100
:104770009091B1016CE370E00E946D69609339071C
:104780008091B0019091B1016CE370E00E946D697D
:104790008093D5016091390780E441E00E940C06C6
:1047A0006091D50181E441E00E940C06ECE8F3E061
:1047B000808180648083E3E4F3E080818D7F808367
:1047C0008091430382FF18C0809126038C3B21F423
:1047D0008091B602883021F0809126038E3A39F418
:1047E0000E94EC12E3E4F3E080818B7F8083E3E4BA
:1047F000F3E080818B7F80838091430383FF13C02C
:10480000809126038C3B21F48091B602883021F000
:10481000809126038E3A11F40E94EC12E3E4F3E057
:104820008081877F80838091430384FFCEC0809105
:1048300026038C3B21F48091B602883021F08091D0
:1048400026038E3A19F40E94EC12BAC08091260316
:10485000833209F0B5C080913B07882309F4B0C0CA
:1048600080912C0290912D02805A954008F0A8C0AA
:104870008091FB018F7D8093FB0180918607897F6A
:104880008093860780919D05813009F582E08093B1
:104890009D058091860786608093860720913B075F
:1048A00080912C0290912D02820F911D90932D02E8
:1048B00080932C0220913B0780910C0290910D0275
:1048C000820F911D90930D0280930C0256C080912F
:1048D0009D05823031F583E080939D0580918607A8
:1048E0008660809386078091FB0180628093FB0144
:1048F00020913B0780912C0290912D02820F911DF7
:1049000090932D0280932C0220913B0780910C0202
:1049100090910D02820F911D90930D0280930C02D5
:104920002CC080919D05833041F581E080939D05E9
:104930008091860782608093860740913B07209193
:104940002C0230912D02842F90E0880F991F281B94
:10495000390B30932D0220932C0240913B0720917C
:104960000C0230910D02842F90E0880F991F281BB4
:10497000390B30930D0220930C0280912C02909100
:104980002D020E941C1E80919D058093C70280E22B
:104990008093E805ABEBB2E09C91892F84608C9307
:1049A00080919D058093D401EFE5F4E080818460DF
:1049B0008083ECE8F3E080818068808395609C933D
:1049C000E3E4F3E080818F7E80838091430385FF61
:1049D0006EC0809126038C3B21F48091B602883012
:1049E00021F0809126038E3A19F40E94EC125AC0ED
:1049F0008091FB01897E8093FB0181E28093E80531
:104A0000EBEBF2E080818460808380913F04882317
:104A100089F481E080933F048091FB018061809361
:104A2000FB018EE18093D401EFE5F4E080818460A6
:104A3000808333C080913F04813089F482E0809389
:104A40003F048091FB0182618093FB018CE38093A2
:104A5000D401EFE5F4E08081846080831EC0809102
:104A60003F04823089F483E080933F048091FB010E
:104A700086618093FB0188E78093D401EFE5F4E041
:104A800080818460808309C010923F041092D40119
:104A9000EFE5F4E0808184608083ECE8F3E08081DE
:104AA00080688083E3E4F3E080818F7D8083809160
:104AB000430386FFABC1809126038C3B21F4809198
:104AC000B602883021F0809126038E3A19F40E94B4
:104AD000EC1297C180912603833229F0809126033E
:104AE0008E3A09F08EC180919A05883709F045C049
:104AF0008091AE02882309F029C18CE280939A0547
:104B000080912C0290912D024E9790F480912C026E
:104B100090912D022EE130E0A901481B590B5093D2
:104B2000B1014093B00130932D0220932C020EC1AD
:104B300020912C0230912D022E31310538F0C9011F
:104B40004E976EE170E00E946D699C018EE190E0ED
:104B5000821B930B9093B1018093B0012091B0011F
:104B60003091B10180912C0290912D02820F931F00
:104B700090932D0280932C02E9C080912C02909199
:104B80002D028856914008F053C080912C029091DC
:104B90002D026EE170E00E946D69892B99F480917D
:104BA000B0019091B1014E969093B1018093B00104
:104BB00080912C0290912D024E9690932D0280931D
:104BC0002C02C4C040912C0250912D024E3151054F
:104BD00038F0CA014E976EE170E00E946D69AC0139
:104BE00080912C0290912D022091B0013091B10161
:104BF000821B930B90932D0280932C028091B00125
:104C00009091B1014E96841B950B9093B1018093C6
:104C1000B0012091B0013091B10180912C029091AE
:104C20002D02820F931F90932D0280932C028EC031
:104C300080912C0290912D02805A954008F053C02B
:104C400080912C0290912D026CE370E00E946D69BE
:104C5000892B99F48091B0019091B101CC969093F9
:104C6000B1018093B00180912C0290912D02CC96DD
:104C700090932D0280932C0269C040912C02509198
:104C80002D024C33510538F0CA01CC976CE370E02B
:104C90000E946D69AC0180912C0290912D022091AF
:104CA000B0013091B101821B930B90932D02809340
:104CB0002C028091B0019091B101CC96841B950B90
:104CC0009093B1018093B0012091B0013091B10176
:104CD00080912C0290912D02820F931F90932D02B0
:104CE00080932C0233C080912C0290912D02209150
:104CF000B0013091B101821B930B90932D028093F0
:104D00002C0288E780939A050E94591E8091B00179
:104D10009091B1016CE370E00E946D696093390776
:104D20008091B0019091B1016CE370E00E946D69D7
:104D30008093D5016091390780E441E00E940C0620
:104D40006091D50181E441E00E940C0680919A05B2
:104D50008837A9F480915303877F80935303ECE84D
:104D6000F3E080818064808388E660E041E00E9417
:104D70000C0689E660E041E00E940C0619C08091B3
:104D80005303886080935303ECE8F3E080818064F0
:104D9000808388E600EB11E0F80161918F0141E02A
:104DA0000E940C0689E6F801608141E00E940C0631
:104DB0008091B0019091B1016CE370E00E946D6947
:104DC000609339078091B0019091B1016CE370E07C
:104DD0000E946D698093D5016091390780E441E0BC
:104DE0000E940C066091D50181E441E00E940C060E
:104DF00080912C0290912D020E941C1E8AEF8093BC
:104E0000AE02E3E4F3E080818F7B80831F910F91FA
:104E100008958091AA04882309F459C48091AA04B2
:104E2000982F907C8091AA04282F2F73992309F042
:104E300002C12A3108F07EC080912603883409F42B
:104E400079C0293119F41092360302C02093360339
:104E500080919303813009F069C080912C02909178
:104E60002D022091B0013091B101821B930B9093E0
:104E70002D0280932C028091360330916D032CE338
:104E8000829FC0011124830F911D9093B1018093E3
:104E9000B00120912C0230912D028091B0019091AF
:104EA000B101820F931F8556954060F020912C022E
:104EB00030912D0284E695E0821B930B9093B10113
:104EC0008093B0012091B0013091B10180912C020A
:104ED00090912D02820F931F90932D0280932C02AC
:104EE0008CE280939A05109293038091B001909187
:104EF000B1016CE370E00E946D69609339078091A5
:104F0000B0019091B1016CE370E00E946D698093F3
:104F1000D5016091390780E441E00E940C06609160
:104F2000D50181E441E00E940C0660C082E08093DC
:104F300093035CC02B31A9F480912603883489F453
:104F4000E5EBF5E0808180628083E3EBF5E0808132
:104F50008F7D808388EE9DEF90939B0180939A01D3
:104F600045C02C3151F480912603883431F4E5EBAF
:104F7000F5E080818F7D808339C080912C029091F3
:104F80002D022091B0013091B101821B930B9093BF
:104F90002D0280932C021092B1011092B00188E78B
:104FA00080939A0510929303109244068091B00169
:104FB0009091B1016CE370E00E946D6960933907D4
:104FC0008091B0019091B1016CE370E00E946D6935
:104FD0008093D5016091390780E441E00E940C067E
:104FE0006091D50181E441E00E940C068091260386
:104FF000883409F46AC380919A05883759F48091FE
:105000005303877F80935303ECE8F3E0808180644F
:1050100080830AC080915303886080935303ECE837
:10502000F3E080818064808380912C0290912D0236
:105030000E941C1E4AC3903409F000C180912603CF
:10504000883409F4FBC08091EE01883009F078C003
:10505000222309F421E08AE0289FC00111249093C3
:105060000B0280930A02E5EBF5E080818068808383
:105070000E94591E80919A058C3261F588E78093D1
:105080009A051092B1011092B00180915303877F6D
:10509000809353038091B0019091B1016CE370E073
:1050A0000E946D69609339078091B0019091B101C0
:1050B0006CE370E00E946D698093D50160913907BF
:1050C00080E441E00E940C066091D50181E441E05A
:1050D0000E940C06ECE8F3E0808180648083F5C2D6
:1050E0008091240586958093240580912C029091CF
:1050F0002D020A9790932D0280932C02809100023A
:10510000909101020A97909301028093000280918E
:1051100024058823B1F43093240580912C029091CA
:105120002D02CC9690932D0280932C028091000248
:1051300090910102CC96909301028093000201C0ED
:1051400030E280912405821759F680912C029091CB
:105150002D020E941C1E82E28093E805EBEBF2E038
:1051600080818460808380912405813049F480EAC5
:105170008093D401EFE5F4E080818460808340C0B7
:1051800080912405823049F48CE88093D401EFE5C6
:10519000F4E080818460808333C080912405843072
:1051A00049F488E78093D401EFE5F4E080818460DE
:1051B000808326C080912405883049F484E680935A
:1051C000D401EFE5F4E080818460808319C0809190
:1051D0002405803149F480E58093D401EFE5F4E0C3
:1051E0008081846080830CC080912405803241F4EA
:1051F0008CE38093D401EFE5F4E0808184608083C8
:105200009091240580912E02981759F08091D40333
:1052100080688093D403EBEBF2E08081826080832E
:1052200054C28091D4038F778093D403EBEBF2E0E8
:105230008081826080831092320347C2903809F0E7
:10524000E9C180912603883409F4E4C1243008F0D0
:10525000D2C020939D058091FB018F7D8093FB013F
:1052600080918607897F8093860780919D05823093
:1052700061F58091860786608093860710920D0203
:1052800010920C028091C702813069F420913B0793
:1052900080912C0290912D02820F911D90932D02EE
:1052A00080932C0284C08091C702833009F07FC0B4
:1052B00080912C0290912D0220913B07821B910935
:1052C00090932D0280932C0272C080919D058330B3
:1052D000B1F5809186078660809386078091FB01F7
:1052E00080628093FB018091C702813081F48091BC
:1052F0003B0720912C0230912D0290E0880F991FDE
:10530000820F931F90932D0280932C0210C08091E6
:10531000C702823061F420913B0780912C0290916A
:105320002D02820F911D90932D0280932C0280916B
:105330003B0790E090930D0280930C0238C080915F
:105340009D058130A1F58091860782608093860754
:105350008091C702833089F440913B0720912C0251
:1053600030912D02842F90E0880F991F281B390B54
:1053700030932D0220932C0210C08091C7028230FE
:1053800061F480912C0290912D0220913B07821BA9
:10539000910990932D0280932C0280913B0790E01D
:1053A000909581959F4F90930D0280930C02809170
:1053B0002C0290912D020E941C1E80919D058093CD
:1053C000C70280E28093E805ABEBB2E09C91892FA5
:1053D00084608C9380919D058093D401EFE5F4E087
:1053E000808184608083ECE8F3E080818068808342
:1053F00095609C936AC180912603833209F065C150
:1054000080912C0290912D02805A954008F05DC148
:105410008091D503882309F458C1263009F049C08A
:1054200036C08091240586958093240580912C02B6
:1054300090912D020A9790932D0280932C028091D7
:105440000002909101020A9790930102809300025A
:10545000809124058823A1F42093240580912C02B7
:1054600090912D02CC9690932D0280932C028091E6
:10547000000290910102CC96909301028093000269
:10548000909124058091D503892359F201C020E22F
:105490009091240580912E02981719F68091D403DB
:1054A0008F778093D403EBEBF2E08081826080837E
:1054B000AAC02530B1F520E280912405869580931D
:1054C000240580912C0290912D020A9790932D0231
:1054D00080932C0280910002909101020A97909390
:1054E000010280930002809124058823A1F4209377
:1054F000240580912C0290912D02CC9690932D0240
:1055000080932C028091000290910102CC9690939E
:10551000010280930002909124058091D503892394
:1055200059F282E28093E805EBEBF2E0808184603F
:10553000808380912405813049F480EA8093D401EE
:10554000EFE5F4E080818460808340C08091240591
:10555000823049F48CE88093D401EFE5F4E0808157
:105560008460808333C080912405843049F488E7C7
:105570008093D401EFE5F4E080818460808326C0CD
:1055800080912405883049F484E68093D401EFE5C6
:10559000F4E080818460808319C08091240580318B
:1055A00049F480E58093D401EFE5F4E080818460E4
:1055B00080830CC080912405803241F48CE3809379
:1055C000D401EFE5F4E0808184608083909124052C
:1055D00080912E02981759F08091D40380688093AF
:1055E000D403EBEBF2E08081826080830CC0809179
:1055F000D4038F778093D403EBEBF2E08081826059
:1056000080831092320380912C0290912D020E948F
:105610001C1E5BC0903C09F058C080912603883462
:1056200009F453C020933F048091FB01897E80934D
:10563000FB0181E28093E805EBEBF2E0808184607E
:10564000808380913F04813071F48091FB018061FF
:105650008093FB018EE18093D401EFE5F4E080813B
:10566000846080832DC080913F04823071F48091EA
:10567000FB0182618093FB018CE38093D401EFE511
:10568000F4E08081846080831BC080913F0483307C
:1056900071F48091FB0186618093FB0188E7809320
:1056A000D401EFE5F4E080818460808309C010922A
:1056B0003F041092D401EFE5F4E0808184608083A0
:1056C000ECE8F3E08081806880831092AA048091E6
:1056D0004406882309F4C7C080912603883409F45E
:1056E000C2C080914406982F907C80914406282F58
:1056F0002F73903C21F48AEA8093990108C0992382
:1057000031F080912603883411F010929901222300
:1057100009F4A9C02D3308F079C02C3319F4109284
:105720006D0302C020936D0380919303823009F0D2
:1057300069C080912C0290912D022091B00130918E
:10574000B101821B930B90932D0280932C028091C8
:10575000360330916D032CE3829FC0011124830F27
:10576000911D9093B1018093B00120912C02309152
:105770002D028091B0019091B101820F931F855647
:10578000954060F020912C0230912D0284E695E046
:10579000821B930B9093B1018093B0012091B001D3
:1057A0003091B10180912C0290912D02820F931FB4
:1057B00090932D0280932C028CE280939A05109294
:1057C00093038091B0019091B1016CE370E00E946D
:1057D0006D69609339078091B0019091B1016CE3DC
:1057E00070E00E946D698093D5016091390780E473
:1057F00041E00E940C066091D50181E441E00E94E5
:105800000C0612C081E0809393030EC02D3321F467
:1058100081E50E949E1108C02E3321F482E50E948A
:105820009E1102C01092930380919A05883759F413
:1058300080915303877F80935303ECE8F3E08081EA
:10584000806480830AC080915303886080935303EF
:10585000ECE8F3E080818064808380912C02909159
:105860002D020E941C1E109244060895809141074B
:10587000803208F0D9C38091A704813009F0C6C0F6
:105880008091A103882309F061C080917203803266
:1058900008F44BC080911E0590911F059695879541
:1058A000929582958F7089279F70892790931F0505
:1058B00080931E0580911E058093440380914403CC
:1058C00080958093A1038091A1038695869580930E
:1058D000A1039091A10380914403890F8093A103B8
:1058E000EEE6FAE045915491CA018F7790709C01E1
:1058F000220F331F880F991F880F991F880F991F38
:10590000280F391F3093E4062093E3064078507047
:10591000440F452F441F550B519540939D01809195
:105920004403869580938B0311C080912B032091B3
:105930001E0530911F05280F311D30931F05209340
:105940001E05809172038F5F809372038091A10383
:10595000882309F4F8C187E080939E0164E87AE027
:1059600046E050E0FB012591349180911104909123
:1059700012042817390708F03DC0CA01880F991F83
:10598000880F991F02966CE67AE0FB01E80FF91F79
:10599000859194919093A10340919E0150E0440F12
:1059A000551F440F551F42505040FB01E40FF51F97
:1059B000859194918F7790709C01220F331F880FEF
:1059C000991F880F991F880F991F280F391F30932F
:1059D000E4062093E306FB01E40FF51F8591949103
:1059E00080789070880F892F881F990B91958093EC
:1059F0009D01A9C140939E014150504064507040A8
:105A00002FEF4F3F520709F0ADCF9DC18091A70402
:105A1000823029F08091EE018F3009F0C6C080916C
:105A2000A103882309F061C080917203803208F4D9
:105A30004BC080911E0590911F0596958795929574
:105A400082958F7089279F70892790931F05809377
:105A50001E0580911E058093440380914403809528
:105A60008093A1038091A103869586958093A103DD
:105A70009091A10380914403890F8093A103EAE8E8
:105A8000FAE045915491CA018F7790709C01220FE2
:105A9000331F880F991F880F991F880F991F280F90
:105AA000391F3093E4062093E30640785070440F8A
:105AB000452F441F550B519540939D018091440300
:105AC000869580938B0311C080912B0320911E0536
:105AD00030911F05280F311D30931F0520931E059F
