:040000030000A23E19
:100000000C941F51189518951895189518951895D2
:100010001895189518951895189518951895189578
:100020001895189518951895189518951895189568
:100030001895189518951895189518950C94C81436
:1000400018951895189518950C94D05018951895E2
:100050000C94AA50189518951895189518951895F8
:1000600018951895189518950C9458131895189577
:1000700018951895189518950C94F343189518959C
:100080000C949D4318951895189518950000012F0C
:100090000335053B073F09430B450D47154F195BDA
:1000A0001D5F1F612B6D000000031E000000000497
:1000B0001E00000000031E00000000031E000000E0
:1000C00000031E00000000031E00000000035E018C
:1000D000009600035E0100E803035E010096000342
:1000E0005E01000000033200000A0003320000003D
:1000F00000031E00004B00041E000000000364000B
:100100000000000396000032000496000032000553
:100110002C0100EE0203960000320002960000322D
:1001200000012C01000000031E00004B00031E0014
:10013000000000077800000A00067800000A0008A6
:100140007800000000077800000A00087800000A24
:1001500000067800000000066400001E00099600FA
:10016000000000096400001E000696000000000761
:100170003200000000071E00000000075E0100962C
:1001800000075E0100E803075E01009600075E01BC
:1001900000000007960000320008640000C8000854
:1001A0002C0100E80307640000320008640000C866
:1001B00000082C01000000073200004B000832004C
:1001C00000000007900100000007960000320008C0
:1001D00096000032000A2C0100EE02079600003261
:1001E000000896000032000A2C01000000073200CF
:1001F000004B0007320000000000008A3FF83B700F
:1002000035A02F102DB823E01F101EA81DC81A00FE
:1002100000000300000000000000000000000000DB
:1002200000000000000000000000000000000000CE
:1002300000000000000000000000000000000000BE
:1002400000000000000000000000000000000000AE
:10025000000000000000000000000000000000009E
:1002600000000000FFFFFF04FFFFFFFFFFFFFFFF95
:10027000FFFFFFFFFFFFFFFFFFFFFFFFFFFFFFFF8E
:10028000FFFFFFFFFFFFFFFFFFFFFFFFFFFFFFFF7E
:10029000FFFFFFFFFFFFFFFFFFFFFFFFFFFFFFFF6E
:1002A000FFFFFFFFFF1010101010101010101010A3
:1002B000101010101010101010080832003200C872
:1002C0000014005E0100D00703102701D0070310BF
:1002D0002702B80B03102700D00703102701D0070F
:1002E00003102702B80B03102700D00703102701C3
:1002F000D00703102702B80B03102702B80B031016
:100300002702B80B03102702B80B0310274803007D
:1003100000E80301000000000000000000000000F1
:1003200000000000000000000000000000000000CD
:10033000F000000000000058020000E80301000087
:1003400000000000000000000000000000000000AD
:100350000000001700E8030000001E000000E80392
:1003600000E0012C01E803011E000000E80300008A
:10037000000000000000B40000000000001700E8CA
:10038000030000001E000000E80300A4012C01E8A7
:1003900003011E000000E8030078000000000000D8
:1003A0001700E8030000001E000000E803006801D9
:1003B0002C01E803011E000000E8030000530001C7
:1003C0005700025B00035F00046300056600066BD4
:1003D00000076F000873000978000A7C000B810099
:1003E0000C86000D8A000E8F000F9400109A0011E9
:1003F0009F0012A40013AA0014AF0015B50016BB8D
:100400000017C10018C70019CD001AD3001BD9006E
:100410001CDF001DE6001EEC001FF30020F9002188
:100420000001220601230D01241401251A012621B1
:1004300001272801282F012936012A3C012B4301DD
:100440002C4A012D51012E57012F5E0130650131DB
:100450006C01327301337901348001358601368DA8
:1004600001379401389A0139A0013AA7013BAD0147
:100470003CB3013DBA013EC0013FC60140CC014141
:10048000D20142D70143DD0144E30145E80146EED4
:100490000147F30148F80149FE014A03024B0802F3
:1004A0004C0D024D12024E17024F1B0250200251FA
:1004B0002502522902532D02543202553602563A71
:1004C00002573E025842025946025A4A025B4D0206
:1004D0005C51025D54025E58025F5B02605F026124
:1004E0006202626502636802646C02656E02667194
:1004F00002677402687702697A026A7C026B7F0283
:100500006C81026D84026E86026F8902708B0271AB
:100510008D02728F0273920274940275960276981D
:1005200002779A02789C02799D027A9F027BA1024F
:100530007CA3027DA402000E00010F000210000344
:100540001100041200051300061400071500081618
:10055000000917000A18000B19000C1A000D1C00E6
:100560000E1D000F1E001020001121001223001389
:100570002400142600152800162A00172B00182D19
:1005800000192F001A31001B33001C36001D3800E3
:100590001E3A001F3C00203F00214100224400235E
:1005A0004600244900254C00264E002751002854BF
:1005B000002957002A5A002B5E002C61002D640090
:1005C0002E67002F6B00306E0031720032750033E1
:1005D0007900347C00358000368300378700388B03
:1005E00000398F003A93003B97003C9B003D9F00F1
:1005F0003EA3003FA70040AB0041AF0042B3004321
:10060000B70044BC0045C00046C40047C80048CC01
:100610000049D1004AD5004BD9004CDD004DE10026
:100620004EE5004FE90050ED0051F10052F5005346
:10063000F90054FD00550101560501570901580CF8
:10064000015910015A14015B18015C1B015D1F0167
:100650005E22015F2601602901612D016230016384
:100660003401643701653A01663D01674101684420
:10067000016947016A4A016B4D016C4F016D5201DE
:100680006E55016F5801705A01715D01725F0173FF
:100690006201746401756701766901776C01786E97
:1006A000017970017A72017B75017C77017D790196
:1006B0007E7B017F7D01807E0181800182820183BA
:1006C0008401848601858701868901878B01888C56
:0D06D00001898E018A8F018B91018C9201AE
:1006DE000000750E08000A0D100D160D1C0D220DD2
:1006EE00280D2E0D340D0000750E08003E0D440D24
:1006FE004A0D500D560D5C0D620D680D0000750E05
:10070E000800720D780D7E0D840D8A0D900D960DDC
:10071E009C0D0000750E0800A60DAC0DB20DB80DA7
:10072E00BE0DC40DCA0DD00D0000750E0800DA0DF9
:10073E00E00DE60DEC0DF20DF80DFE0D040E0000B1
:10074E00750E08000E0E140E1A0E200E260E2C0E0E
:10075E00320E380E0000750E0800440E4A0E500E72
:10076E00560E5C0E620E680E6E0E0000DD2310003B
:10077E00AD23AF23B623B823BA23BC23BE23C02395
:10078E00C223C523C823CB23CE23D123D423D723DF
:10079E00000044271E0072267426762678267A26B6
:1007AE007C267E2680268426CD2692269A26A32671
:1007BE00A526A926B626CD26D626DE26E926F0269D
:1007CE0004270A27102717272F273D273F274127C2
:1007DE0043270000DD2824008A278C278E279027A8
:1007EE009227942796279A279F27B527D927E2275E
:1007FE00BC27C027CA27D927E227EC2701282A2899
:10080E00312835285E286C2876287B288228962861
:10081E006628A428AA28C828D628D828DA28DC28AA
:10082E000100BC3A0800923A953A983A9B3A9E3AA1
:10083E00A13AA13AB93A00E000933404009335048A
:10084E00009336040093370400933A0400933B045C
:10085E000FEF13E000936F021093700207B1007E4A
:10086E0007B900916302077017B1102B17B906B1C3
:10087E00006C06B90895369998C00091350400238E
:10088E00C1F146E004B115B10E94515100933804F4
:10089E00109339040091380410913904E6E3F4E022
:1008AE0020813181200F311F2083318300913A0442
:1008BE0010913B042091380430913904021713072C
:1008CE00009138041091390428F400933A041093DF
:1008DE003B040FC020916F02309170020217130774
:1008EE0040F4009138041091390400936F02109374
:1008FE007002009135040395009335040091350480
:10090E000B3020F406B1006C06B908950091360440
:10091E001091370420913A0430913B04021B130BC3
:10092E0020916F0230917002021B130B43E00E9464
:10093E00515198014091340450E003E010E00E94C0
:10094E004751F801ED59FD4F218332830091340454
:10095E0003950093340400913404043010F0509346
:10096E00340407B1007E07B94091340403E010E06F
:10097E000E944751F801ED59FD4F0081077017B1E4
:10098E00102B17B9509335045093360450933704F7
:10099E0050933A0450933B040FEF13E000936F0211
:1009AE001093700206B1006C06B9089500E607B9FF
:1009BE000CE806B900E000938E000895402F50E039
:1009CE0003E010E00E944751F801ED59FD4F0181FF
:1009DE001281089500913F040330E0F40091400429
:1009EE000330C0F4ECE3F4E001A101FF13C0009169
:1009FE005C04002379F401A104FF0EC000913C04B5
:100A0E000C3341F40091440410914504083B2BE053
:100A1E00120730F400E0089500913C040C33D1F736
:100A2E0001E00895ECE3F4E001A101FD0EC0009198
:100A3E00460410914704012B41F400915D04037F9D
:100A4E0000935D0401A1026001A308950FE00093DD
:100A5E003C0400E000933D0400933E0400933F04E9
:100A6E000093400400934104009342040093430416
:100A7E0000934404009345040093460400934704F6
:100A8E0000934804009349040093540400935504C2
:100A9E00009356040093570400935804009359048E
:100AAE0000935A0400935B0400935C0400915D0470
:100ABE00007F00935D04ECE3F4E001A1006101A36B
:100ACE0008950FE000933C0400E000933D04009372
:100ADE003E0400933F0400934004009342040093AD
:100AEE00430400934404009345040093460400938A
:100AFE0047040093480400934904ECE3F4E001A199
:100B0E00006101A308950FE000933C0400E0009300
:100B1E003D0400933E0400933F0400934004009371
:100B2E00420400934304009344040093450400934D
:100B3E00460400934704009348040093490400912F
:100B4E005D04017F00935D04ECE3F4E001A100611C
:100B5E0001A308950091460410914704012B41F022
:100B6E00ECE3F4E0028513850150104002871387F1
:100B7E0000915D040A700230F1F4ECE3F4E00681BA
:100B8E0017810F5F1F4F0683178300914204109148
:100B9E004304043C29E0120718F001A108600AC0C2
:100BAE0000914204109143040C3D25E0120718F009
:100BBE0001A1046001A3ECE3F4E001A103FF0EC068
:100BCE000091440410914504003727E1120730F4D8
:100BDE00008511850F5F1F4F0087118708951091B3
:100BEE003C041017A9F440913D0450913E04421765
:100BFE00530771F400915E04002329F401E0009381
:100C0E005E040DE21BC000E000935E040AE516C010
:100C1E0010913C041F3039F40C3329F4ECE3F4E06A
:100C2E0011A1106104C0ECE3F4E011A11F7E11A329
:100C3E0000933C0420933D0430933E0400934F04F4
:100C4E00005D61F0035391F00C5041F00E5131F004
:100C5E000F5061F00F5011F00F50B9F400E00093F7
:100C6E0050040093510400935204089503E000933E
:100C7E0050048901109351040093520400E0009334
:100C8E00440400934504009349040895ECE3F4E012
:100C9E0001A101FFB4C000E000933F0400914F0496
:100CAE000D5221F00D5209F445C054C030914A0442
:100CBE0000914B04009354043093550400914D045D
:100CCE000093590400914C0400935B04008900FFCB
:100CDE0002C001E001C000E000935C04008907FB44
:100CEE0001A100F901A300914C0406950695069505
:100CFE00077000935F0400915F04015059F00A954C
:100D0E0059F00A9559F00A9559F00A9559F00A9535
:100D1E0059F00CC001E00BC002E009C003E007C0AF
:100D2E0004E005C005E003C006E001C000E000934A
:100D3E00480410C000914A040093560400914B04DD
:100D4E000093570400914C040093580400914D04F5
:100D5E0000935A0400913C040C3321F000913C04A2
:100D6E000330C1F50091440410914504085B1B400B
:100D7E00083B2BE0120750F40091540410915504D7
:100D8E000A3F20E0120718F504E022C00091440447
:100D9E0010914504003727E11207C8F000913D0479
:100DAE0010913E04209154043091550402171307FC
:100DBE0038F5009154041091550420913D04309162
:100DCE003E04021B130B093C20E0120738F500E02D
:100DDE000093490400914804002389F000914904CE
:100DEE00002369F40091440410914504003727E173
:100DFE00120728F000E00093400400934104089588
:100E0E0000913D0410913E042091540430915504FC
:100E1E00021B130B093C20E01207C8F203E0D8CFE7
:100E2E00192F482F80E090E009C0FC01EC59FB4FD0
:100E3E000181FC01EC59FB4F00830196E0916304A4
:100E4E00F0E031978E179F0784F300E02091630442
:100E5E0030E0F901ED59FB4F00830091630400234C
:100E6E0029F0009163040A9500936304842F912F57
:100E7E000895009163040023B1F4009160040330DF
:100E8E000091610412E029F4019FF001E357FF4F36
:100E9E0004C0019FF001E457FF4F049100936404D6
:100EAE0001E000936304089500916104002321F092
:100EBE00E0DF00E000936104009165041091660488
:100ECE00012B49F0E5E6F4E000811181015010405C
:100EDE00008311830895009162040023A1F0E5E0E0
:100EEE00F2E00591149117BD06BD06B517B516951E
:100EFE000795109379000093780000916004002309
:100F0E0009F040C0089500916304002309F442C023
:100F1E004091640450E003E010E00E944751F80154
:100F2E00E955FF4F059114910093650410936604E3
:100F3E000091650410916604012B41F14091640407
:100F4E0003E010E00E944751F801EA55FF4F04916B
:100F5E0012E0019FF001E750FE4F0591149117BD6D
:100F6E0006BD06B517B51695079510937900009333
:100F7E00780000916404039500936404009160046A
:100F8E00002359F00FB508600FBD0895509361040A
:100F9E0047DF08950FB5077F0FBD0895B80100E034
:100FAE0003C00091720403950093720400917204C1
:100FBE000330D8F5A89503E000936F0400917204F6
:100FCE0010E0AB01400F511F0E943951021719F169
:100FDE000FB700937104F89400917204AB01400FA7
:100FEE00511F022F0E944351009171040FBF1093A5
:100FFE00700400917204AB01400F511F0E943951D1
:10100E00021749F000916F04102F1A9510936F0478
:10101E000023A1F603C001E0009370040091700458
:10102E00002309F0BECF00E0089501E008951B2EC5
:10103E002A2EB801D901FA01AB010E943951102FA5
:10104E00AB014F5F5F4F0E9439511017A9F4AB01EE
:10105E004F5F5F4F0E943951102FAB014E5F5F4FB4
:10106E000E943951101741F4AB010E9439510C9373
:10107E0001E0A22DB12D0895AB010E943951102F20
:10108E00AB014E5F5F4F0E9439511017B1F40FB78D
:10109E0000936E04F894AB010E943951AB014F5F7F
:1010AE005F4F0E94435100916E040FBFAB010E942F
:1010BE0039510C93AB014F5F20C0AB010E943951E7
:1010CE00102FAB014F5F5F4F0E943951101701F582
:1010DE000FB700936E04F894AB010E943951AB0127
:1010EE004E5F5F4F0E94435100916E040FBFAB01E4
:1010FE000E9439510C93AB014E5F5F4F0E943951E4
:10110E00102FAB010E943951101709F4B1CF2EC028
:10111E00AB014F5F5F4F0E943951102FAB014E5FF5
:10112E005F4F0E943951101739F50FB700936E04B7
:10113E00F894AB014F5F5F4F0E943951AB010E9493
:10114E00435100916E040FBFAB014F5F5F4F0E9482
:10115E0039510C93AB014F5F5F4F0E943951102FE5
:10116E00AB010E943951101709F482CF0081002380
:10117E0009F07ECF01E0008300E07BCF8A93302E12
:10118E00812F46E752E02DE634E000E010E04FDF1D
:10119E00002341F400E08991089500916D040395B8
:1011AE0000936D04282F65E071E040916D0450E0CE
:1011BE0003E010E00E944751600F711F8B01EEDEBD
:1011CE00002359F320916D04239500E010E0E6DE34
:1011DE00002331F43092710202E000937202DACFF2
:1011EE0020916D0466E070E0032D10E043E050E0C6
:1011FE000E944751600F711F8B01D0DE002321F436
:10120E003092710203E0E9CF01E0C5CF9A938A9341
:10121E00802F312E00916704002339F52AE634E041
:10122E00E6E0F0E0082F10E043E050E00E94475166
:10123E00E00FF11F8F0144E752E0F9DE0023B9F011
:10124E00232D65E071E040916A0450E003E010E068
:10125E000E944751600F711F8B01A0DE002329F4FD
:10126E00132D082F8BDF0023D9F001E01AC0282F91
:10127E0066E070E0082F10E043E050E00E94475116
:10128E00600F711F8B018ADE90E0FC01E15FFD4F64
:10129E001491082FBBDF8093710201E0009372025C
:1012AE0000E08991999108959A938A93802F2BE665
:1012BE0034E0E6E0F0E010E043E050E00E944751F9
:1012CE00E00FF11F8F0145E752E0B1DE0023F9F187
:1012DE0000E0009375022CE634E0E5E0F1E0409189
:1012EE006B0450E003E010E00E944751E00FF11F45
:1012FE008F0145E752E09BDE0023E9F40091750271
:10130E00002361F490E0FC01E15FFD4F0491009336
:10131E006C0410916C04082F79DF0DC010916C04D1
:10132E00082F2CDF002339F490E0FC01E15FFD4F24
:10133E00049100936C0490E0FC01EC59FD4F049174
:10134E0010916C040117E0F000916C041DC0282F61
:10135E0066E070E0082F10E043E050E00E94475135
:10136E00600F711F8B011ADE90E0FC01E15FFD4FF3
:10137E001491082F4BDF8093710201E000937202EB
:10138E00FC01E15FFD4F049189919991089543E726
:10139E0052E029E634E003E010E049DE002381F15B
:1013AE0000916904013061F125E500E010E0F6DD01
:1013BE0000E01CC02091680466E070E04091680473
:1013CE0050E003E010E00E944751600F711F8B0147
:1013DE00E5DD0091680410E0F801E15FFD4F149126
:1013EE000091680413DF009168040395009368046C
:1013FE00009168040535F0F221E003E010E0CEDD47
:10140E000895392F682F80E090E034C020E007E087
:10141E0010E0AC010E944751F801E958FD4F2483BA
:10142E00258307E010E00E944751F801E958FD4F6F
:10143E000681027C068307E010E00E944751F80106
:10144E00E958FD4F06810260068307E010E00E9416
:10145E004751F801E958FD4F008100FF0AC007E02F
:10146E0010E00E944751F801E958FD4F0281087FB4
:10147E0002830196893000E0900744F2862F932F65
:10148E000895F801268125FF05C006810F7D06838C
:10149E0001E0089500E00895B801FB010481158173
:1014AE00EBEBF2E02591349102171307B0F144E60D
:1014BE0050E0E3ECF2E0059114910E94595198012D
:1014CE00FB0104811581EBEBF2E045915491041B75
:1014DE00150B44E650E00E945951201B310B20930E
:1014EE007304309374040091730410917404012BEF
:1014FE00A1F044E650E0E3ECF2E0059114910E9475
:10150E00595120917304309174040217130728F077
:10151E00009173041091740408950FEF1FEF089556
:10152E00F801268122FF05C006810B7F068301E0AC
:10153E00089500E00895BD01D801FD01068100FF68
:10154E00B2C004811581012B19F4068101FF06C07A
:10155E00048115810F5F1F4F04831583248135810C
:10156E00E9EBF2E0049110E020173107D8F0FD010D
:10157E0004811581EBEBF2E02591349102171307EC
:10158E0088F4FD01068101FFBCC002810695069517
:10159E0006950370033019F00681046006830681F8
:1015AE000D7FAEC0FD0104811581EBEBF2E02591BC
:1015BE0034910217130708F4A4C0FD0102810695A9
:1015CE00069506950370013059F404811581EBEBF5
:1015DE00F2E0259134910217130708F492C01BC054
:1015EE0002810695069506950370023009F047C0F4
:1015FE0004811581EBEBF2E025913491021713076C
:10160E00E8F0FD0104811581EFEBF2E025913491B4
:10161E000217130798F4FD0104811581EDEBF2E03A
:10162E00459154910E945951412909F06AC0FD011A
:10163E000681046006830681086062C0FD01048194
:10164E001581EFEBF2E0259134910217130708F4A0
:10165E0058C0FD0104811581E1ECF2E045915491F1
:10166E000E945951412909F04CC0FD0106810460C8
:10167E0006830681077F06830681006141C00281D1
:10168E0006950695069503700330D9F504811581EC
:10169E00E3ECF2E0259134910217130791F5FD0169
:1016AE000681006227C00281069506950695037095
:1016BE000330D1F4068101FD17C024813581E9EB99
:1016CE00F2E0049110E02017310770F0FD01048163
:1016DE001581EBEBF2E0259134910217130720F4FC
:1016EE00FD0106810460068300E0FD01048305838D
:1016FE000681026006830681077F068306810F7EC0
:10170E000683DB010895F90144815581F801648156
:10171E0075814617570740F404811581F90124811C
:10172E003581021B130B0895F90124813581F801CF
:10173E0004811581201B310B890108951C0180E065
:10174E0090E048C007E010E0AC010E944751F8015C
:10175E00E958FD4F06810E7F068307E010E00E94D8
:10176E004751F801E958FD4F0281087F028307E0D7
:10177E0010E00E944751F801E958FD4F0481158190
:10178E00012B39F107E010E00E944751F801E958AA
:10179E00FD4F418150E007E010E00E944751F801F3
:1017AE00E958FD4F06810D7F068307E010E0AC017E
:1017BE000E944751F801E958FD4F438150E007E080
:1017CE0010E00E944751F801E958FD4F06810D7F48
:1017DE0006830196893000E090070CF0E2C007E026
:1017EE0010E0AC010E944751F801E958FD4F00810D
:1017FE0000FFEFCF07E010E00E944751F801E958D3
:10180E00FD4F418150E007E010E00E944751F80182
:10181E00E958FD4F068100FF95CF07E010E0AC01BF
:10182E000E944751F801E958FD4F438150E007E00F
:10183E0010E00E944751F801E958FD4F068100FF64
:10184E0081CF07E010E0AC010E944751F801E95842
:10185E00FD4F418150E007E010E00E944751F80132
:10186E00E958FD4F06810E7F068307E010E0AC01BC
:10187E000E944751F801E958FD4F438150E007E0BF
:10188E0010E00E944751F801E958FD4F06810E7F86
:10189E00068307E010E0AC010E944751F801E958B9
:1018AE00FD4F0281077009F053C007E010E00E945F
:1018BE004751F801E958FD4F438150E007E010E031
:1018CE000E94475127E732E0200F311F07E010E05A
:1018DE00AC010E944751F801E958FD4F418150E09B
:1018EE0007E010E00E944751A80107E712E0040F3D
:1018FE00151F09DFEAEBF2E0249130E0021713071F
:10190E0007E010E0AC0190F40E944751F801E9584D
:10191E00FD4F0281097F028307E010E00E944751CC
:10192E00F801E958FD4F0281016011C00E94475134
:10193E00F801E958FD4F02810A7F028307E010E0AB
:10194E000E944751F801E958FD4F0281026002835F
:10195E0007E010E00E944751F801E958FD4F02815F
:10196E000770013007E010E041F40E944751F80182
:10197E00E958FD4F068101602BCF0E944751F801B7
:10198E00E958FD4F02810770023009F022CF07E0BF
:10199E0010E00E944751F801E958FD4F06810E7F75
:1019AE0017CF80E090E00CC007E010E0AC010E9481
:1019BE004751980107E712E0020F131FBCDD019695
:1019CE00893000E0900784F3C10108958A93302F87
:1019DE00012F822F305099F03A9509F444C03A9570
:1019EE0009F475C03A9509F4A6C03A9509F4D7C022
:1019FE003A9509F408C13A9509F43BC16FC1EEED71
:101A0E00F6E00C94B151082F00FDD89A00FFD8983B
:101A1E0065C1082F00FDD99A00FFD9985FC1082F24
:101A2E0000FDDA9A00FFDA9859C1082F00FDDB9A03
:101A3E0000FFDB9853C1082F00FDDC9A00FFDC98F5
:101A4E004DC1082F00FDDD9A00FFDD9847C1082F1C
:101A5E0000FDDE9A00FFDE9841C1082F00FDDF9ADF
:101A6E0000FFDF983BC1E4EFF6E00C94B151082F74
:101A7E0000FDC09A00FFC09831C1082F00FDC19A29
:101A8E0000FFC1982BC1082F00FDC29A00FFC2981B
:101A9E0025C1082F00FDC39A00FFC3981FC1082F50
:101AAE0000FDC49A00FFC49819C1082F00FDC59A05
:101ABE0000FFC59813C1082F00FDC69A00FFC698F7
:101ACE000DC1082F00FDC79A00FFC79807C1EAE0B5
:101ADE00F7E00C94B151082F00FDA89A00FFA898CA
:101AEE00FDC0082F00FDA99A00FFA998F7C0082F86
:101AFE0000FDAA9A00FFAA98F1C0082F00FDAB9A2C
:101B0E0000FFAB98EBC0082F00FDAC9A00FFAC981D
:101B1E00E5C0082F00FDAD9A00FFAD98DFC0082F7D
:101B2E0000FDAE9A00FFAE98D9C0082F00FDAF9A07
:101B3E0000FFAF98D3C0E0E2F7E00C94B151082F4C
:101B4E0000FD909A00FF9098C9C0082F00FD919A51
:101B5E0000FF9198C3C0082F00FD929A00FF929843
:101B6E00BDC0082F00FD939A00FF9398B7C0082FB1
:101B7E0000FD949A00FF9498B1C0082F00FD959A2D
:101B8E0000FF9598ABC0082F00FD969A00FF96981F
:101B9E00A5C0082F00FD979A00FF97989FC0E6E317
:101BAE00F7E00C94B151082F00FD189A00FF189819
:101BBE0095C0082F00FD199A00FF19988FC0082FA5
:101BCE0000FD1A9A00FF1A9889C0082F00FD1B9A73
:101BDE0000FF1B9883C0082F00FD1C9A00FF1C9865
:101BEE007DC0082F00FD1D9A00FF1D9877C0082F9D
:101BFE0000FD1E9A00FF1E9871C0082F00FD1F9A4F
:101C0E0000FF1F986BC0ECE4F7E00C94B151082F65
:101C1E0000FB0091620000F929C0082F00FB009123
:101C2E00620001F923C0082F00FB0091620002F947
:101C3E001DC0082F00FB0091620003F917C0082F8A
:101C4E0000FB0091620004F911C0082F00FB009107
:101C5E00620005F90BC0082F00FB0091620006F927
:101C6E0005C0082F00FB0091620007F90093620087
:101C7E0035C0E2E6F7E00C94B151082F00FB00915D
:101C8E00650000F929C0082F00FB0091650001F9DD
:101C9E0023C0082F00FB0091650002F91DC0082F1C
:101CAE0000FB0091650003F917C0082F00FB00919F
:101CBE00650004F911C0082F00FB0091650005F9BD
:101CCE000BC0082F00FB0091650006F905C0082F18
:101CDE0000FB0091650007F9009365008991089556
:101CEE00BA93AA93D801FD010285013029F422810D
:101CFE0023FB20E020F908C00285002349F422814D
:101D0E0023FB20E020F920951281177001815EDE01
:101D1E00FD0104810023A1F00285013029F4258103
:101D2E0023FB20E020F908C00285002349F4258119
:101D3E0023FB20E020F9209515811770048146DEE3
:101D4E00FD0102850387A991B99108959A938A930B
:101D5E0080E090E015C020E002E110E0AC010E94AE
:101D6E004751F801EA54FD4F228702E110E00E942C
:101D7E004751980106EB12E0020F131FB1DF0196D7
:101D8E00893000E090073CF389919991089530E0F5
:101D9E00F801348722872081223019F020812330E8
:101DAE0009F49EDF0895BA93AA93D80116960D9161
:101DBE001D912D913C910F5F1F4F2F4F3F4F3C9325
:101DCE002E931E930E9316971E960D911C911F9790
:101DDE0048E250E00E94595120E030E016964D91B5
:101DEE005D916D917C91199704171507260737079A
:101DFE0048F01A960C911A97002379F501E01A967D
:101E0E000C9322C01E960D911C911F9750962D91EA
:101E1E003C915197020F131F48E250E00E94595116
:101E2E0020E030E016964D915D916D917C91199761
:101E3E00041715072607370758F01A960C911A97AC
:101E4E00013059F41A962C931A978D0149DF05C06B
:101E5E0016962D932D932D932C93A991B9910895A8
:101E6E009A938A9300917E04002309F441C0409115
:101E7E00750450E002E110E00E944751980106EB14
:101E8E0012E0020F131F2CDF4091750450E002E1A7
:101E9E0010E00E944751F801EA54FD4F05850E7F70
:101EAE00058700E010E005C0EB58FB4F50830F5F35
:101EBE001F4F20917E040217150784F480917E0433
:101ECE0090E0019708171907F80171F3EB58FB4FD3
:101EDE002181F801EB58FB4F2083E9CF00917E045E
:101EEE000A9500937E0404E600937F0450938004C9
:101EFE00899199910895392F682F202F10E042E192
:101F0E0050E00E944751F801EA54FD4F05850E7FBF
:101F1E00058780E090E004C00A9500937E04019648
:101F2E0000917E0410E08017910764F5FC01EB58D8
:101F3E00FB4F0081021799F7022F42E150E00E94F9
:101F4E004751F801EA54FD4F05850E7F0587AC0118
:101F5E0007C000E0FA01EB58FB4F00834F5F5F4F65
:101F6E0000917E0410E04017510700917E04A4F604
:101F7E00015010404017510761F3FA01EB58FB4F27
:101F8E000181E8CF862F932F089520917E0430E0B3
:101F9E00F901EB58FB4F008310917E0413951093BB
:101FAE007E04402F50E002E110E00E944751F801FC
:101FBE00EA54FD4F058501600587089500917F0461
:101FCE0010918004012B49F0EFE7F4E000811181BC
:101FDE00015010400083118308950091B306013023
:101FEE0051F5E2EBF6E0008100FF11C0409175045F
:101FFE0050E002E110E00E944751F801EA54FD4F13
:10200E0000810023C1F401E0009382040895009141
:10201E008204002389F000918104039500938104CA
:10202E0000918104053040F000E00093820400939B
:10203E00810416DF089514DF08950E94FA5180E09E
:10204E0090E02AC00E944751F801EA54FD4F0585E1
:10205E0000FD02C0082F99DF02E110E0AC010E94E2
:10206E004751F801EA54FD4F03810130A1F402E11A
:10207E0010E00E944751F801EA54FD4F04850130EB
:10208E0051F402E110E00E944751980106EB12E074
:10209E00020F131F88DE0196893000E090070CF0C6
:1020AE0069C002E110E0AC010E944751F801EA5408
:1020BE00FD4F0485002381F602E110E00E94475196
:1020CE00F801EA54FD4F0081002359F002E110E0BF
:1020DE000E944751F801EA54FD4F0081013009F08A
:1020EE00BBCF442402E110E00E944751F801EA54AC
:1020FE00FD4F468247824086418602E110E00E94F3
:10210E004751F801EA54FD4F4686478602E110E03A
:10211E000E944751F801EA54FD4F408A418A02E17C
:10212E0010E00E944751F801EA54FD4F238502E169
:10213E0010E00E944751F801EA54FD4F0285201726
:10214E0002E110E009F07ECF0E944751980106EBA4
:10215E0012E0020F131FC4DD02E110E0AC010E9479
:10216E004751F801EA54FD4F058500FF75CF082F42
:10217E00C2DE72CFE5E00C94015200E00093DA0467
:10218E00ECEDF4E0008111810F5F1F4F008311838E
:10219E000091DC041091DD04093621E0120780F471
:1021AE00E091DC04F091DD04749778F000918404E2
:1021BE00053B58F42093DB0402E00093D804089505
:1021CE0000E00093DB042093DE0408950091850463
:1021DE00109186042091C5043091C604021713078E
:1021EE0018F003E00093D8040895EDECF4E00081BC
:1021FE0011810F5F1F4F008311830091CD04109149
:10220E00CE0420918F04309190040217130718F01A
:10221E0007E00093D804089501E00093DA040091DA
:10222E00C7041091C8042091BB043091BC0402175E
:10223E0013070091840408F047C01091BD040117E4
:10224E0048F0E9ECF4E0008111810F5F1F4F00832D
:10225E00118309C00091C004002329F400E000930B
:10226E00C9040093CA04009184041091C10401179B
:10227E0048F0EBECF4E0008111810F5F1F4F0083FB
:10228E00118309C00091C404002329F400E00093D7
:10229E00CB040093CC040091C9041091CA04209180
:1022AE00BE043091BF040217130708F45EC00091FC
:1022BE00CB041091CC042091C2043091C3040217B8
:1022CE00130708F452C044C010918704011748F058
:1022DE00E9ECF4E0008111810F5F1F4F0083118341
:1022EE0009C000918A04002329F400E00093C90478
:1022FE000093CA040091840410918B04011748F0D6
:10230E00EBECF4E0008111810F5F1F4F008311830E
:10231E0009C000918E04002329F400E00093CB0441
:10232E000093CC040091C9041091CA042091880432
:10233E003091890402171307C0F00091CB0410915D
:10234E00CC0420918C0430918D040217130768F091
:10235E0000918F0410919004012B21F006E0009360
:10236E00D804089507E00093D8040895EFECF4E044
:10237E00008111810F5F1F4F008311830091CF04E5
:10238E001091D0042091B9043091BA0402171307AA
:10239E0058F000918504109186040093C7041093A1
:1023AE00C80405E00093D8040895AC01009185049B
:1023BE001091860420919104309192040217130714
:1023CE0038F4E3E8F4E0028D138D248D358D3EC094
:1023DE0080E090E00BC0000F111FF801ED57FB4F8E
:1023EE00068517852017310730F50196863000E0F7
:1023FE00900794F5853090072091850430918604DE
:10240E008C014CF7000F111FF801ED57FB4F06859D
:10241E0017852017310748F32091850430918604E3
:10242E008C01000F111FF801ED57FB4F0089118928
:10243E0020173107D0F6880F991F880F991FFC01BE
:10244E00ED57FB4F068D178D20A131A1E3EDF4E082
:10245E000083118322833383009184041091D3046B
:10246E00011748F0E9ECF4E0008111810F5F1F4F76
:10247E000083118309C00091D604002329F400E0E3
:10248E000093C9040093CA040091C9041091CA04B0
:10249E002091D4043091D50402171307C0F000E048
:1024AE000093C9040093CA040091B9041091BA04B0
:1024BE00012B11F004E009C00091850410918604EF
:1024CE000093C7041093C80405E00093D804CA0112
:1024DE000895209183042223D9F12091DE04222332
:1024EE00B9F500938504109386040091D804013049
:1024FE0011F443DE08950091D804023011F466DE23
:10250E0008950091D804033011F44FDF089500911F
:10251E00D804043011F42ADF08950091D804053050
:10252E0051F40091D904053081F00091D90407309F
:10253E0079F472DE08950091D804063011F455DE58
:10254E0008950091D804073019F401E00093DE04D9
:10255E00089500E000937D0000938B000AE0009345
:10256E008A0008E012E5109387000093860000E0D1
:10257E000093E00420E0EFEDF4E004870587068782
:10258E0007870093E4040093EF040093E90400939B
:10259E00EA040FEF0093E7040093E8042093E204AB
:1025AE002093E3042093F00401E00093DF040895E8
:1025BE0000E00093DF041C981A9808950091E5043A
:1025CE001091E60420E0EFEDF4E044855585668534
:1025DE007785400F511F621F721F4487558766878C
:1025EE0077870091E9041091EA042091E504309177
:1025FE00E604021713070091E5041091E60428F48F
:10260E000093E9041093EA040FC02091E70430917F
:10261E00E8040217130740F40091E5041091E60454
:10262E000093E7041093E8040091E40403950093EB
:10263E00E4040091E404023398F10485158526859F
:10264E0037854091E9045091EA0460E070E0041B84
:10265E00150B204030404091E7045091E804041BD4
:10266E00150B2040304040E350E00E948C5144E670
:10267E0050E060E070E00E948C510093EF0400E0A7
:10268E00EFED04870587068707870093E404009320
:10269E00E9040093EA040FEF0093E7040093E804C3
:1026AE0008952A931A930A932FB70091E1040A3FD3
:1026BE0028F40091E10403950093E10400E21EE486
:1026CE000093E5041093E60401E00093F0042FBF9D
:1026DE0009911991299118950091DF04002389F031
:1026EE000091E00403950093E0040091E0040832A9
:1026FE0040F000E00093E0041C9B02C01C9801C057
:10270E001C9A00E00B9901E01091E304011709F403
:10271E0041C00B9B02C001E001C000E00093E20447
:10272E000091E2040093E304009188001091890067
:10273E000093E5041093E60400E000937D000093FF
:10274E0089000093880000E100937D000091E2046F
:10275E000023E9F00091E1040023C9F40091E5049F
:10276E001091E604053F21E0120788F00091E50480
:10277E001091E60401322EE4120728F000E20093D5
:10278E00E5042093E60401E00093F004089500E0D0
:10279E000093E10408950091EF0408950091F00470
:1027AE00002321F000E00093F00408DF089500E01C
:1027BE000093F1040093F2040093FF040093FE04CF
:1027CE000093000501E00093010500E0009303056E
:1027DE000093020500930405009305059698AB98A7
:1027EE0000930605009307050093080508950093CE
:1027FE00F204089501E00093F10408950E94F95146
:10280E00C8012901DA010091F104002309F48AC0FC
:10281E0000910105002301F1883601E09007B0F028
:10282E0000E00093010500910405601758F070E078
:10283E000091040510E0601B70400091FD046017CC
:10284E00710754F401E00093020506C08C3300E0DA
:10285E00900711F4609304051091F50401E00E94B5
:10286E00F44EA017B10710F001E009C01091F60464
:10287E0001E00E94F44EA017B10718F400E0009397
:10288E0007051091F30400E00E94F44E4016510625
:10289E0010F001E009C01091F40400E00E94F44E23
:1028AE004016510618F400E0009308050091070544
:1028BE00002321F400910805002311F001E001C06E
:1028CE0000E0009306050091FE04002399F40091A8
:1028DE000205002379F40091F9041091FA0480178F
:1028EE00910740F400910005002321F000910605A8
:1028FE00002311F000E001C001E0009305050091F6
:10290E00F204002319F000E000930505E1EFF4E076
:10291E00048900FD969A00FF9698048900FDAB9AF3
:10292E0000FFAB98E6E00C940052392F682F202F51
:10293E00C39880E090E00AC0C09800000000C39ADF
:10294E0000000000C398000000000196883000E0EF
:10295E0090074CF4022F10E0482F0E945651017040
:10296E0059F3C09AEACF862F932F08950091E90567
:10297E0010915D06011721F000915D060093E905A7
:10298E0008958A93FA93EA933A922A921A920A92A5
:10299E007A936A935A934A933A932A931A930A9381
:1029AE008FB700912B05039500932B05043018F07B
:1029BE0000E000932B0500912B050050C1F10A9504
:1029CE0029F00A9579F00A9559F161C00E946E4777
:1029DE000E9473130E945B0703E00E94E5040E94AD
:1029EE00254822C00E946E470E9473130E9494478E
:1029FE000E94E50F0E942B4200919305013011F4C5
:102A0E000E94B1050E94E044E0915803F0915903F1
:102A1E00E651F34E0491007139F00E94494D04C005
:102A2E000E946E470E9473130E94814733C00E941A
:102A3E006E470E9473130E947F500E94814700913F
:102A4E002C05039500932C050A3020F100E000932D
:102A5E002C0501E00093280500912D0503950093A8
:102A6E002D050430B8F000E000932D0501E0009331
:102A7E00290500912E05039500932E05093150F07E
:102A8E0000E000932E0501E000932A0503C000E04C
:102A9E0000932B058FBF0991199129913991499175
:102AAE005991699179910990199029903990E991EC
:102ABE00F99189911895F89400E00BBB0FE70ABBCA
:102ACE0000E708BB0DEF07BB00E405BB00EF04BB3E
:102ADE000CE002BB08EB01BB02EE03B906EF02B934
:102AEE0000E00093620000EF0093610002E00093AB
:102AFE0065000EEF0093640000E808B90AEF01BF0D
:102B0E000AE003BF0CE00FBD01E10EBD00E010E0D6
:102B1E0020E030E005C0A8950F5F1F4F2F4F3F4FAD
:102B2E000F3F4FEF140748E0240740E034079CF3B3
:102B3E007894089501E000934F050093500500939B
:102B4E0051050093530500E00093E80608959A930B
:102B5E008A9300E000936A0600936B0600936C065E
:102B6E0040917A0550E00EEC11E00E944751E09141
:102B7E005803F0915903E00FF11FE553FE4F0491F6
:102B8E000830A9F5EEE8F5E0008104FF30C0409171
:102B9E007A050EEC11E00E944751E0915803F09136
:102BAE005903E00FF11FEB5CFE4F049100936D068D
:102BBE0040917A050EEC11E00E944751E0915803C6
:102BCE00F0915903E00FF11FEA5CFE4F0491009360
:102BDE006E0640917A050EEC11E00E944751E0918D
:102BEE005803F0915903E00FF11FE95C2FC040919B
:102BFE007A050EEC11E00E944751E0915803F091D6
:102C0E005903E00FF11FEE5CFE4F049100936D0629
:102C1E0040917A050EEC11E00E944751E091580365
:102C2E00F0915903E00FF11FED5CFE4F04910093FC
:102C3E006E0640917A050EEC11E00E944751E0912C
:102C4E005803F0915903E00FF11FEC5CFE4F049115
:102C5E0000936F0650937006E0915803F09159035C
:102C6E00EB5CF24E0491009371060FEF0093720627
:102C7E0050937306509374065093750650937606D0
:102C8E0050937706E0915803F0915903ED51F34EAE
:102C9E0004910130E0915803F0915903A1F4E051F1
:102CAE00F34E049100937806E0915803F091590386
:102CBE00EF50F34E049100937906E0915803F09192
:102CCE005903EE501CC0ED51F34E04910023D9F47C
:102CDE00E0915803F0915903ED50F34E0491009397
:102CEE007806E0915803F0915903ED50F34E04919C
:102CFE0000937906E0915803F0915903ED50F34E8D
:102D0E00049100937A0650937B06E0915803F0915C
:102D1E005903EC5CF24E049100937C060FEF009386
:102D2E007D0650937E0650937F06E0915803F091F6
:102D3E005903EB50F34E049100938B06E091580328
:102D4E00F0915903EA50F34E049100938C06E091F2
:102D5E005803F0915903E950F34E049100938D06F8
:102D6E00E0915803F0915903E850F34E049100930B
:102D7E008E0680E090E005C0FC01E659F94F55A3A0
:102D8E00019684319507C4F35093A3065093A4067D
:102D9E005093A506E0915803F0915903ED51F34E6F
:102DAE000491013021F401E00093A6060BC0E091DE
:102DBE005803F0915903ED51F34E0491002311F491
:102DCE005093A6065093A706E0915803F09159032D
:102DDE00E750F34E04910093AA06E0915803F09148
:102DEE005903E650F34E04910093AB06E09158035D
:102DFE00F0915903E550F34E04910093AC06E09127
:102E0E005803F0915903ED51F34E0491013021F422
:102E1E0001E00093AD060BC0E0915803F091590309
:102E2E00ED51F34E0491002311F45093AD06E09151
:102E3E005803F0915903E151F34E04910093A80603
:102E4E005093A9065093BB06E0915803F091590395
:102E5E00E651F34E0491007621F001E00093BA069C
:102E6E0002C05093BA06E5EBF6E000810E7F0083B8
:102E7E00E0915803F0915903ED51F34E0491002364
:102E8E0009F0DCC0E0915803F0915903E65EF24E72
:102E9E0004910093BC06E0915803F0915903E55E4E
:102EAE00F24E04910093BD06E0915803F091590340
:102EBE00E45EF24E04910093BE06E0915803F09149
:102ECE005903E35EF24E04910093BF065093C00681
:102EDE00E0915803F0915903E25EF24E0491009393
:102EEE00C1065093C20640917A050EEC11E00E9485
:102EFE004751E0915803F0915903E00FF11FE85C40
:102F0E00FE4F059114910093C3061093C406409191
:102F1E007A050EEC11E00E944751E0915803F091B2
:102F2E005903E00FF11FE65CFE4F059114910093DB
:102F3E00C5061093C60640917A050EEC11E00E946C
:102F4E004751E0915803F0915903E00FF11FE45CF3
:102F5E00FE4F059114910093C7061093C806E09199
:102F6E005803F0915903E15EF24E059114910093CE
:102F7E00C9061093CA06E0915803F0915903EF5D0C
:102F8E00F24E059114910093CB061093CC06E0916E
:102F9E005803F0915903ED5DF24E04910093CD0666
:102FAE00E0915803F0915903EC5DF24E04910093B9
:102FBE00CE0640917A050EEC11E00E944751E09149
:102FCE005803F0915903E00FF11FE25CFE4F04919C
:102FDE000093CF0640917A050EEC11E00E94475106
:102FEE00E0915803F0915903E00FF11FE15CFE4FA1
:102FFE0004910093D006E0915803F0915903EB5DD4
:10300E00F24E04910093D106E0915803F0915903CA
:10301E00EA5DF24E0491002321F401E00093D20602
:10302E000BC0E0915803F0915903EA5DF24E049102
:10303E00013011F45093D2060E945C4A40917A05F9
:10304E0050E00EEC11E00E944751E0915803F091D0
:10305E005903E00FF11FE553FE4F0491083009F0BC
:10306E0047C0E0915803F0915903E45DF24E05918B
:10307E0014910093F7041093F804E0915803F09123
:10308E005903EE5CF24E04910093FD04E091580357
:10309E00F0915903E65DF24E04910093F504E09130
:1030AE005803F0915903E25DF24E0591149100938D
:1030BE00F9041093FA04E0915803F0915903E55D79
:1030CE00F24E04910093F604E0915803F0915903E7
:1030DE00E05DF24E059114910093FB041093FC04F5
:1030EE0000916E060093F30400916D060093F404B4
:1030FE0089919991089540917A0550E00EEC11E076
:10310E000E944751E0915803F0915903E00FF11FCF
:10311E00E553FE4F0491033089F040917A050EEC91
:10312E0011E00E944751E0915803F0915903E00FCE
:10313E00F11FE553FE4F0491053029F400917305FC
:10314E00002309F0E3C3509383045093DA045093A1
:10315E00DE0440917A050EEC11E00E944751E09199
:10316E005803F0915903E00FF11FE455FE4F0491FF
:10317E00002329F45093D8045093D70405C001E0DE
:10318E000093D8040093D70440917A050EEC11E019
:10319E000E944751E0915803F0915903E00FF11F3F
:1031AE00E455FE4F0491002319F45093D90427C01F
:1031BE0040917A050EEC11E00E944751E0915803C0
:1031CE00F0915903E00FF11FE455FE4F04910130C9
:1031DE0011F405E012C040917A050EEC11E00E9448
:1031EE004751E0915803F0915903E00FF11FE45558
:1031FE00FE4F0491023019F407E00093D904509366
:10320E0084045093C9045093CA045093CB04509332
:10321E00CC045093CD045093CE045093CF045093CE
:10322E00D0040FEF0093D3040093D4040093D5047D
:10323E005093D60440917A050EEC11E00E9447514E
:10324E00E0915803F0915903E00FF11FE553FE4F43
:10325E000491083009F05BC3EEE8F5E0008104FF4D
:10326E0056C340917A050EEC11E00E944751E09151
:10327E005803F0915903E00FF11FE256FE4F0491EF
:10328E000093870440917A050EEC11E00E9447519D
:10329E00E0915803F0915903E00FF11FE156FE4FF4
:1032AE0005911491009388041093890440917A0536
:1032BE000EEC11E00E944751E0915803F091590332
:1032CE00E00FF11FEF55FE4F0491002319F45093B8
:1032DE008A0403C001E000938A0440917A050EEC43
:1032EE0011E00E944751E0915803F0915903E00F0D
:1032FE00F11FEE55FE4F049100938B0440917A0519
:10330E000EEC11E00E944751E0915803F0915903E1
:10331E00E00FF11FED55FE4F0591149100938C04B3
:10332E0010938D0440917A050EEC11E00E944751E6
:10333E00E0915803F0915903E00FF11FEB55FE4F4A
:10334E000491002319F450938E0403C001E00093FE
:10335E008E0440917A050EEC11E00E944751E091E7
:10336E005803F0915903E00FF11FE655FE4F0591FA
:10337E00149100938F041093900440917A050EECF3
:10338E0011E00E944751E0915803F0915903E00F6C
:10339E00F11FE954FE4F059114910093BB04109355
:1033AE00BC0440917A050EEC11E00E944751E09169
:1033BE005803F0915903E00FF11FE754FE4F0491AB
:1033CE000093BD0440917A050EEC11E00E94475126
:1033DE00E0915803F0915903E00FF11FE654FE4FB0
:1033EE00059114910093BE041093BF0440917A0589
:1033FE000EEC11E00E944751E0915803F0915903F1
:10340E00E00FF11FE454FE4F0491002319F4509382
:10341E00C00403C001E00093C00440917A050EEC95
:10342E0011E00E944751E0915803F0915903E00FCB
:10343E00F11FE354FE4F04910093C10440917A05AD
:10344E000EEC11E00E944751E0915803F0915903A0
:10345E00E00FF11FE254FE4F059114910093C20448
:10346E001093C30440917A050EEC11E00E9447516F
:10347E00E0915803F0915903E00FF11FE054FE4F15
:10348E000491002319F45093C40403C001E0009387
:10349E00C40440917A050EEC11E00E944751E09170
:1034AE005803F0915903E00FF11FE859FE4F0591B3
:1034BE001491009391041093920440917A050EECAE
:1034CE0011E00E944751E0915803F0915903E00F2B
:1034DE00F11FE659FE4F059114910093930410933A
:1034EE00940440917A050EEC11E00E944751E09150
:1034FE005803F0915903E00FF11FE459FE4F059167
:10350E001491009395041093960440917A050EEC55
:10351E0011E00E944751E0915803F0915903E00FDA
:10352E00F11FE259FE4F05911491009397041093E9
:10353E00980440917A050EEC11E00E944751E091FB
:10354E005803F0915903E00FF11FE059FE4F05911A
:10355E0014910093990410939A0440917A050EECFD
:10356E0011E00E944751E0915803F0915903E00F8A
:10357E00F11FEE58FE4F0591149100939B0410938A
:10358E009C0440917A050EEC11E00E944751E091A7
:10359E005803F0915903E00FF11FEC58FE4F0491C0
:1035AE0000939D0440917A050EEC11E00E94475164
:1035BE00E0915803F0915903E00FF11FEB58FE4FC5
:1035CE000591149100939E0410939F0440917A05E7
:1035DE000EEC11E00E944751E0915803F09159030F
:1035EE00E00FF11FE958FE4F0491002319F4509398
:1035FE00A00403C001E00093A00440917A050EECF4
:10360E0011E00E944751E0915803F0915903E00FE9
:10361E00F11FE858FE4F04910093A10440917A05E2
:10362E000EEC11E00E944751E0915803F0915903BE
:10363E00E00FF11FE758FE4F059114910093A2047D
:10364E001093A30440917A050EEC11E00E944751AD
:10365E00E0915803F0915903E00FF11FE558FE4F2A
:10366E000491002319F45093A40403C001E00093C5
:10367E00A40440917A050EEC11E00E944751E091AE
:10368E005803F0915903E00FF11FE458FE4F0491D7
:10369E000093A50440917A050EEC11E00E9447516B
:1036AE00E0915803F0915903E00FF11FE358FE4FDC
:1036BE00059114910093A6041093A70440917A05E6
:1036CE000EEC11E00E944751E0915803F09159031E
:1036DE00E00FF11FE158FE4F0491002319F45093AF
:1036EE00A80403C001E00093A80440917A050EECF3
:1036FE0011E00E944751E0915803F0915903E00FF9
:10370E00F11FE058FE4F04910093A90440917A05F1
:10371E000EEC11E00E944751E0915803F0915903CD
:10372E00E00FF11FEF57FE4F059114910093AA047D
:10373E001093AB0440917A050EEC11E00E944751B4
:10374E00E0915803F0915903E00FF11FED57FE4F32
:10375E000491002319F45093AC0403C001E00093CC
:10376E00AC0440917A050EEC11E00E944751E091B5
:10377E005803F0915903E00FF11FEC57FE4F0491DF
:10378E000093AD0440917A050EEC11E00E94475172
:10379E00E0915803F0915903E00FF11FEB57FE4FE4
:1037AE00059114910093AE041093AF0440917A05E5
:1037BE000EEC11E00E944751E0915803F09159032D
:1037CE00E00FF11FE957FE4F0491002319F45093B7
:1037DE00B00403C001E00093B00440917A050EECF2
:1037EE0011E00E944751E0915803F0915903E00F08
:1037FE00F11FE857FE4F04910093B10440917A05F2
:10380E000EEC11E00E944751E0915803F0915903DC
:10381E00E00FF11FE757FE4F059114910093B2048C
:10382E001093B30440917A050EEC11E00E944751BB
:10383E00E0915803F0915903E00FF11FE557FE4F49
:10384E000491002319F45093B40403C001E00093D3
:10385E00B40440917A050EEC11E00E944751E091BC
:10386E005803F0915903E00FF11FE457FE4F0491F6
:10387E000093B50440917A050EEC11E00E94475179
:10388E00E0915803F0915903E00FF11FE357FE4FFB
:10389E00059114910093B6041093B70440917A05E4
:1038AE000EEC11E00E944751E0915803F09159033C
:1038BE00E00FF11FE157FE4F0491002309F456C3A8
:1038CE0001E00093B80440917A050EEC11E00E94DD
:1038DE004751E0915803F0915903E00FF11FE45363
:1038EE00FE4F059114910093C5041093C604509396
:1038FE00C7045093C8045093B9045093BA0401E01E
:10390E000093DB045093DC045093DD040895409142
:10391E007A050EEC11E00E944751E0915803F091A8
:10392E005903E00FF11FE057FE4F049100938704F7
:10393E0040917A050EEC11E00E944751E091580338
:10394E00F0915903E00FF11FEF56FE4F05911491C0
:10395E00009388041093890440917A050EEC11E0CF
:10396E000E944751E0915803F0915903E00FF11F67
:10397E00ED56FE4F0491002319F450938A0403C0B0
:10398E0001E000938A0440917A050EEC11E00E944A
:10399E004751E0915803F0915903E00FF11FEC5697
:1039AE00FE4F049100938B0440917A050EEC11E0CA
:1039BE000E944751E0915803F0915903E00FF11F17
:1039CE00EB56FE4F0591149100938C0410938D04C9
:1039DE0040917A050EEC11E00E944751E091580398
:1039EE00F0915903E00FF11FE956FE4F04910023A9
:1039FE0019F450938E0403C001E000938E0440919D
:103A0E007A050EEC11E00E944751E0915803F091B7
:103A1E005903E00FF11FE456FE4F059114910093E8
:103A2E008F041093900440917A050EEC11E00E94E1
:103A3E004751E0915803F0915903E00FF11FE35500
:103A4E00FE4F059114910093BB041093BC0440915A
:103A5E007A050EEC11E00E944751E0915803F09167
:103A6E005903E00FF11FE155FE4F04910093BD0481
:103A7E0040917A050EEC11E00E944751E0915803F7
:103A8E00F0915903E00FF11FE055FE4F059114918F
:103A9E000093BE041093BF0440917A050EEC11E022
:103AAE000E944751E0915803F0915903E00FF11F26
:103ABE00EE54FE4F0491002319F45093C00403C03A
:103ACE0001E00093C00440917A050EEC11E00E94D3
:103ADE004751E0915803F0915903E00FF11FED5457
:103AEE00FE4F04910093C10440917A050EEC11E053
:103AFE000E944751E0915803F0915903E00FF11FD6
:103B0E00EC54FE4F059114910093C2041093C3041C
:103B1E0040917A050EEC11E00E944751E091580356
:103B2E00F0915903E00FF11FEA54FE4F0491002368
:103B3E0019F45093C40403C001E00093C4044091EF
:103B4E007A050EEC11E00E944751E0915803F09176
:103B5E005903E00FF11FE05CFE4F059114910093A5
:103B6E0091041093920440917A050EEC11E00E949C
:103B7E004751E0915803F0915903E00FF11FEE5BAE
:103B8E00FE4F059114910093930410939404409169
:103B9E007A050EEC11E00E944751E0915803F09126
:103BAE005903E00FF11FEC5BFE4F0591149100934A
:103BBE0095041093960440917A050EEC11E00E9444
:103BCE004751E0915803F0915903E00FF11FEA5B62
:103BDE00FE4F059114910093970410939804409111
:103BEE007A050EEC11E00E944751E0915803F091D6
:103BFE005903E00FF11FE85BFE4F059114910093FE
:103C0E00990410939A0440917A050EEC11E00E94EB
:103C1E004751E0915803F0915903E00FF11FE65B15
:103C2E00FE4F0591149100939B0410939C044091B8
:103C3E007A050EEC11E00E944751E0915803F09185
:103C4E005903E00FF11FE45BFE4F049100939D04B6
:103C5E0040917A050EEC11E00E944751E091580315
:103C6E00F0915903E00FF11FE35BFE4F05911491A4
:103C7E0000939E0410939F0440917A050EEC11E080
:103C8E000E944751E0915803F0915903E00FF11F44
:103C9E00E15BFE4F0491002319F45093A00403C07E
:103CAE0001E00093A00440917A050EEC11E00E9411
:103CBE004751E0915803F0915903E00FF11FE05B7B
:103CCE00FE4F04910093A10440917A050EEC11E091
:103CDE000E944751E0915803F0915903E00FF11FF4
:103CEE00EF5AFE4F059114910093A2041093A30472
:103CFE0040917A050EEC11E00E944751E091580375
:103D0E00F0915903E00FF11FED5AFE4F049100237D
:103D1E0019F45093A40403C001E00093A40440914D
:103D2E007A050EEC11E00E944751E0915803F09194
:103D3E005903E00FF11FEC5AFE4F04910093A504B6
:103D4E0040917A050EEC11E00E944751E091580324
:103D5E00F0915903E00FF11FEB5AFE4F05911491AC
:103D6E000093A6041093A70440917A050EEC11E07F
:103D7E000E944751E0915803F0915903E00FF11F53
:103D8E00E95AFE4F0491002319F45093A80403C07E
:103D9E0001E00093A80440917A050EEC11E00E9418
:103DAE004751E0915803F0915903E00FF11FE85A83
:103DBE00FE4F04910093A90440917A050EEC11E098
:103DCE000E944751E0915803F0915903E00FF11F03
:103DDE00E75AFE4F059114910093AA041093AB0479
:103DEE0040917A050EEC11E00E944751E091580384
:103DFE00F0915903E00FF11FE55AFE4F0491002395
:103E0E0019F45093AC0403C001E00093AC0440914C
:103E1E007A050EEC11E00E944751E0915803F091A3
:103E2E005903E00FF11FE45AFE4F04910093AD04C5
:103E3E0040917A050EEC11E00E944751E091580333
:103E4E00F0915903E00FF11FE35AFE4F05911491C3
:103E5E000093AE041093AF0440917A050EEC11E07E
:103E6E000E944751E0915803F0915903E00FF11F62
:103E7E00E15AFE4F0491002319F45093B00403C08D
:103E8E0001E00093B00440917A050EEC11E00E941F
:103E9E004751E0915803F0915903E00FF11FE05A9A
:103EAE00FE4F04910093B10440917A050EEC11E09F
:103EBE000E944751E0915803F0915903E00FF11F12
:103ECE00EF59FE4F059114910093B2041093B30471
:103EDE0040917A050EEC11E00E944751E091580393
:103EEE00F0915903E00FF11FED59FE4F049100239D
:103EFE0019F45093B40403C001E00093B40440914C
:103F0E007A050EEC11E00E944751E0915803F091B2
:103F1E005903E00FF11FEC59FE4F04910093B504C5
:103F2E0040917A050EEC11E00E944751E091580342
:103F3E00F0915903E00FF11FEB59FE4F05911491CB
:103F4E000093B6041093B70440917A050EEC11E07D
:103F5E000E944751E0915803F0915903E00FF11F71
:103F6E00E959FE4F0491002309F0AACC5093B804EE
:103F7E00AACCBC0140917A0550E00EEC11E00E94F3
:103F8E004751E0915803F0915903E00FF11FF3965A
:103F9E0005911491009394051093950582E090E09D
:103FAE001FC040917A0550E00EEC11E00E9447517F
:103FBE00E0915803F0915903E00FF11F03E310E075
:103FCE00AC010E944751E00FF11F05911491E4E9F5
:103FDE00F5E020813181200F311F2083318301963E
:103FEE00863000E09007ECF2009194051091950553
:103FFE002091090730910A07021B130B4CE350E086
:10400E000E945951C801019680939405909395058D
:10401E00CB0108950E94B34CACDF089508954091F2
:10402E007A0550E00EEC11E00E944751E0915803E2
:10403E00F0915903E00FF11FE553FE4F049101304B
:10404E0061F400917B0510E0F801E65AFC4F008107
:10405E00009363055093640508C000919705109175
:10406E0098050093630510936405E0915803F09151
:10407E005903E651F34E04910071A9F0009109071E
:10408E0010910A07012B79F00091090710910A0788
:10409E004CE30E945951E0E3F5E023A934A9201B1B
:1040AE00310B23AB34AB0091630510916405009383
:1040BE008A0510938B05089508950E94DF120E94C1
:1040CE00A11500E000935505009356050093570582
:1040DE00009358050093590500935A0500935B050C
:1040EE0000935C0500935D0500935E0500936105EA
:1040FE000093620500935F050093600500936305CE
:10410E0000936405009365050093660500936705AB
:10411E0000936805E0915803F0915903E75DF24E64
:10412E0004910093690508E512E000936A05109367
:10413E006B0500E000936C0500936D0500936E0512
:10414E0000936F050093700500937105009372053F
:10415E00009373050093740500937505009376051F
:10416E0000937B0500937C0500937D0500937E05EF
:10417E0000937F05009380050093810500938205CF
:10418E0000938305009384050093880500938A05A8
:10419E0000938B0500938C0500938D0500918E0581
:1041AE00017900938E0500E21CE100938F051093B8
:1041BE00900500EF10E00093910510939205409149
:1041CE007A0550E00EEC11E00E944751E091580341
:1041DE00F0915903E00FF11FE553FE4F04910830A3
:1041EE0021F5EEE8F5E0008104FF1FC040917A054D
:1041FE000EEC11E00E944751E0915803F0915903E3
:10420E00E00FF11FEA53FE4F049100939605409183
:10421E007A050EEC11E00E944751E0915803F0919F
:10422E005903E00FF11FED531EC040917A050EECBD
:10423E0011E00E944751E0915803F0915903E00FAD
:10424E00F11FEB53FE4F04910093960540917A05B2
:10425E000EEC11E00E944751E0915803F091590382
:10426E00E00FF11FEF53FE4F059114910093970548
:10427E0010939805D4DE20DFE0915803F091590396
:10428E00E651F34E0491007139F10E94384C409181
:10429E007A0550E00EEC11E00E944751E091580370
:1042AE00F0915903E00FF11FE553FE4F04910350B7
:1042BE0049F00A9549F00A9549F00A9549F00A9590
:1042CE0049F00AC000E007C001E005C002E003C0EB
:1042DE0003E001C004E09EDE00E0009324050E948E
:1042EE00AE150E94821801E00093540500919305CB
:1042FE00013011F40E942D050895EEE8F5E00081DD
:10430E000260008300E000936E0500938805089517
:10431E008A93802F0091890514E0019FF001E756E2
:10432E00FA4F00810817E1F400918905019FF00111
:10433E00E656FA4F00811181209185053091860550
:10434E000217130769F40091890514E0019FF0012B
:10435E00E456FA4F008110917A05011709F463C0F3
:10436E000091890503950093890500918905043113
:10437E0018F000E0009389051091890504E00E9471
:10438E000D090091890514E0019FF001E756FA4FDF
:10439E00808300918505109186052091890534E072
:1043AE00239FF001E656FA4F0083118300917A05A0
:1043BE0010918905139FF001E456FA4F0083009186
:1043CE008905039FF001E656FA4F11810091890588
:1043DE00075E0E940D090091890514E0019FF0010E
:1043EE00E656FA4F0081102F00918905035D0E9459
:1043FE000D090091890514E0019FF001E756FA4F6F
:10440E001081009189050B5F0E940D0900918905AD
:10441E0014E0019FF001E456FA4F108100918905D6
:10442E000F5B0E940D098991089508950895BC01AE
:10443E00E0E3F5E0038100FF70C000916305109189
:10444E0064052091610530916205020F131F0093E0
:10445E0015051093160505E00093610400911505EE
:10446E0010911605003A25E0120708F051C0009190
:10447E00150510911605083621E012072091150535
:10448E003091160510F54EE150E000911505109192
:10449E0016050E9459514EE150E00E944751201BD3
:1044AE00310B20931705309318058091610590917B
:1044BE0062054E960091170510911805801B910B01
:1044CE00809361059093620528C04CE350E0009103
:1044DE001505109116050E9459514CE350E00E94AB
:1044EE004751201B310B209317053093180500916F
:1044FE00610510916205045C1F4F209117053091E4
:10450E001805021B130B009361051093620505C07D
:10451E0000E00093610500936205CB010895E0E38E
:10452E00F5E0018500FF16C000E00093600405E091
:10453E00009361041091770503E00E940D09E0914C
:10454E005803F0915903E651F34E0491007611F0A1
:10455E000E946044089540917A0550E00EEC11E0FF
:10456E000E944751E0915803F0915903E00FF11F5B
:10457E00E553FE4F04910130C1F4E0E3F5E006810E
:10458E0000FFA0C005E00093610400917B05039538
:10459E0000937B0500917B05003110F050937B0555
:1045AE005093610550936205089540917A050EEC83
:1045BE0011E00E944751E0915803F0915903E00F2A
:1045CE00F11FE553FE4F0491033009F444C04091AE
:1045DE007A050EEC11E00E944751E0915803F091DC
:1045EE005903E00FF11FE553FE4F0491043099F18A
:1045FE0040917A050EEC11E00E944751E09158036C
:10460E00F0915903E00FF11FE553FE4F0491053071
:10461E0011F140917A050EEC11E00E944751E091A4
:10462E005803F0915903E00FF11FE553FE4F04912B
:10463E00063089F040917A050EEC11E00E94475148
:10464E00E0915803F0915903E00FF11FE553FE4F2F
:10465E000491073061F4E0E3F5E0068100FF32C01B
:10466E0005E0009361040E948C4C83DC0895409118
:10467E007A050EEC11E00E944751E0915803F0913B
:10468E005903E00FF11FE553FE4F04910830E0E3AC
:10469E00F5E0068191F400FF15C005E0009361047A
:1046AE00EEE8F5E0008104FF03C000810F7E02C03A
:1046BE0000810061008301DD089500FF03C00AE060
:1046CE00009361040895E0E3F5E0048500FF03C064
:1046DE0005E00093610408950895E0E3F5E0078591
:1046EE0001FF11C0EEE8F5E0008100FD0CC00CE00A
:1046FE000093610400810160008302E310E00093E7
:10470E005F051093600500914005109141050F3F24
:10471E002FEF120729F000914005109141057EDC24
:10472E00089500E00093090500930A0508950FEF20
:10473E000093090500930A05089520E020930905CA
:10474E0020930A05E8E7F7E00C94B15101E001C0AF
:10475E0002E010E00093090510930A05089504E0A5
:10476E00F8CF08E0F6CF00E1F4CF00E2F2CF00E49C
:10477E00F0CF00E8EECF00E010E8ECCF00E010E460
:10478E00E9CF00E010E2E6CF00E010E1E3CF00E079
:10479E0018E0E0CF00E014E0DDCF00E012E0DACF69
:1047AE0000E011E00093090510930A0508950091A9
:1047BE004E050023A9F006E00093610400915D060A
:1047CE0000937A0500E00093610500936205009165
:1047DE007A05B3DFEEE8F5E000810F7E00836DDC35
:1047EE000895392F682FEEE8F5E00081077F0083EA
:1047FE0000E000934E05ECE5F6E000810F7E0083AD
:10480E0000915F060C7F00935F06EEE8F5E00081F5
:10481E000B7F008380E090E016C003E010E0AC0157
:10482E000E944751F801E05DFA4F00810C7F008332
:10483E002FEF03E010E00E944751F801E05DFA4FC0
:10484E00218322830196893000E0900734F3862F6E
:10485E00932F08950E94FB5101E00093B8060E9429
:10486E0022040E947147E0915803F0915903E251DE
:10487E00F34E049100937A0503E00E945B090093C6
:10488E00770500E00E945B09902F01E00E945B0912
:10489E00009385059093860502E00E945B090093C4
:1048AE00870504E00E945B090093890580E090E093
:1048BE0030C0082F075E0E945B09B02FA0E0082FC2
:1048CE00035D0E945B09A00F8C01000F111F000FEA
:1048DE00111FF801E656FA4FA083B183082F0B5F24
:1048EE000E945B099C01220F331F220F331FF90117
:1048FE00E756FA4F0083082F0F5B0E945B099C015D
:10490E00220F331F220F331FF901E456FA4F008393
:10491E000196833100E0900764F200917A050DDF75
:10492E0000E00093600401E000936104EEE8F5E01E
:10493E0000810E7F00830EE110E00093B606109307
:10494E00B7066DDBB9DBE0915803F0915903E551E1
:10495E00F34E0491023011F401E001C000E0009327
:10496E002604E0915803F0915903E451F34E04915B
:10497E00023011F401E001C000E000932B04E0913D
:10498E005803F0915903E351F34E0491023011F4A0
:10499E0001E001C000E00093300400E00093280421
:1049AE0000932D04009332040093290400932E04E7
:1049BE0000933304EEE8F5E000810F7E00837DDB8B
:1049CE0002E007BF01E000931E05E4E00C940252E2
:1049DE0002E00093610405DFA4DE0091930501302F
:1049EE0011F40E942D0500E000935405009322055A
:1049FE000895F7DE0E94080A0EE110E00093B60655
:104A0E001093B70601E00093B806E0915803F091B9
:104A1E005903E251F34E049100937A05EEE8F5E066
:104A2E0000810E7F0083FBDA47DB00917A0585DE7D
:104A3E0000E00093600401E000936104EEE8F5E00D
:104A4E0000810F7E008339DB01E000931E0508957F
:104A5E000091590510915A052091910530919205BA
:104A6E000217130788F000E010E000935905009339
:104A7E005A050091840503950093840500918405E1
:104A8E00043010F01093840500918405005049F015
:104A9E000A9529F00A9529F00A9541F011C002E015
:104AAE0006C001E00093510500EF04C003E000933F
:104ABE0051050AE010E000939105109392050895B8
:104ACE0000919305013011F40E942D0501E0009331
:104ADE00510500E00093910500939205089500E0C2
:104AEE0000930B0500930C0500930D0500930E0526
:104AFE0000930F0500931005009311050093120506
:104B0E00009313050093140500919305013011F4E1
:104B1E000E941905089507E00093610400E00093D8
:104B2E00600400917E05039500937E050895EEE8DE
:104B3E00F5E0008106FF0FC000810F7B008300911E
:104B4E007F05039500937F0500917F05023018F0D5
:104B5E0000E000937F0500917F05002311F4E1DD55
:104B6E0005C000917F05013009F4E1DD008100628E
:104B7E0000830895D6DDEEE8F5E000810062008343
:104B8E000895EEE8F5E00081006200830895CFDD20
:104B9E000AE000936104EEE8F5E000810062008314
:104BAE0008950091280400931F0500912D04009391
:104BBE002005EEE8F5E0008106FF0FC000810F7BB7
:104BCE00008300917F05039500937F0500917F057B
:104BDE00023018F000E000937F0500911F050023BE
:104BEE0039F400912005002319F40081006202C0FF
:104BFE0000810F7D008308950091B906013041F4C4
:104C0E0001E000934F05EEE8F5E000810F7D07C04F
:104C1E0000E000934F05EEE8F5E0008100620083AE
:104C2E000895EEE8F5E000810F7D008300E000932B
:104C3E00810500918905009382050091800500236E
:104C4E0029F400917E05039500937E050895EEE804
:104C5E00F5E0008100620083009180050023D1F40D
:104C6E000091810503950093810500918105043122
:104C7E0018F000E00093810500918205002321F0D9
:104C8E00009182050A9501C003E10093820501E0BF
:104C9E00009380050895EEE8F5E000810F7D008316
:104CAE0003E00093800500917E05039500937E0539
:104CBE000895EEE8F5E000810F7D008300918005F8
:104CCE00002309F496DE08950ADF00917E05EEE9D1
:104CDE00F7E00C94B1511FDFD0C029DFCEC04ADF00
:104CEE00CCC04FDFCAC053DFC8C05BDFBBC003E020
:104CFE001BC00EE100938005A5C003E00093510593
:104D0E00EEE8F5E000810F7D008300918404053B01
:104D1E00B8F10AE09AC003E00093610400935105D4
:104D2E00009380054AC001E000935105EEE8F5E0DE
:104D3E0000810F7D008324C001E001C002E00093DA
:104D4E0051053BC002E00093510506E0009350056B
:104D5E00EEE8F5E00081006200830EE184C002E01F
:104D6E000093510501E000935005EEE8F5E0008157
:104D7E000F7D008300918404083710F401E165C0B3
:104D8E0000918005002309F078C05CC0EEE8F5E0E4
:104D9E0000810F7D008301E0009351056EC003E09A
:104DAE000093610402E00093510501E004C002E0AB
:104DBE000093510505E000935005EEE8F5E0008103
:104DCE00006225C001E0009351050093500514DFE9
:104DDE0049C001E000934F05E0915803F09159034B
:104DEE00E651F34E0491007131F000917E0503956A
:104DFE0000937E0513C00AE128C00E94844C002354
:104E0E0009F507E122C0EEE8F5E000810F7D008391
:104E1E0034C0EEE8F5E000810062008305E023C0B7
:104E2E0000910207002329F401E000930C07969AE3
:104E3E00AB9AEEE8F5E000810F7D008300918005CE
:104E4E000023D9F400917E05039500937E0515C0CD
:104E5E0000E000930C079698AB98EEE8F5E0008121
:104E6E000062008303E00093800507C0DADE05C010
:104E7E00EEDE03C010DF01C01CDF0091B30600237D
:104E8E00A1F40E94A115E0915803F0915903E65147
:104E9E00F34E0491007171F000E000930F07AA9A8F
:104EAE0000930C079698AB9805C000E00093B606E9
:104EBE000093B706009126050023D9F000E0009379
:104ECE002605EEE8F5E0008105FF10C00091B3065F
:104EDE00013061F400917E05039500937E0500E09C
:104EEE0000937F0505E00093610408950AE00093A6
:104EFE00610408959A938A93F2DD00917E05E0EEA7
:104F0E00F7E00C94B15107DE51C111DE4FC132DE14
:104F1E004DC137DE4BC13BDE49C143DE47C100E028
:104F2E00009353050AC101E00093530565DE01C1EC
:104F3E0001E000934F0502E000935105EEE8F5E025
:104F4E0000810F7D008300918005002309F02EC1A2
:104F5E0000917E05039500937E0513C00091840495
:104F6E00083708F0ACC00BE017C101E00093510503
:104F7E00CBC001E000935105EEE8F5E00081006240
:104F8E0000830EE1D7C002E000935105EEE8F5E094
:104F9E0000810F7D008300918404053B08F48FC0CF
:104FAE0000E1FAC0EEE8F5E000810F7D008301E03C
:104FBE0000935105FBC003E00093610402E00093EF
:104FCE00510503E000938005B8C000E00093500542
:104FDE0001E000935105EEE8F5E000810F7D0083BE
:104FEE0000918005002309F0E1C000917506009341
:104FFE002105CFC000E000935005EEE8F5E00081FA
:10500E000F7D008300915405073059F480912105DE
:10501E0090E002960091750610E0801791070CF44F
:10502E00B8C000915405063009F0C0C0E091580395
:10503E00F0915903EC50F34E04911091750601173F
:10504E0008F0B4C0A6C001E00093500503E0009341
:10505E00610473C003E00093510566C001E0009344
:10506E005105E0915803F0915903E651F34E049126
:10507E00007151F000917E05039500937E05EEE8D8
:10508E00F5E000810F7D34C0E0915803F091590393
:10509E00E651F34E0491007841F00CE100937E0549
:1050AE00EEE8F5E000810F7D43C000E275C000918F
:1050BE000207002321F401E000930F07AA98009144
:1050CE008005002309F072C064C000E000930F0752
:1050DE00AA9A0E94844C0023B9F709E15DC0EEE85C
:1050EE00F5E000810F7D2DC0EEE8F5E00081006255
:1050FE00008305E01FC000910207002329F401E0A0
:10510E0000930C07969AAB9AEEE8F5E000810F7DBE
:10511E00008300918005002309F048C03AC000E0EA
:10512E0000930C079698AB98EEE8F5E000810062CC
:10513E00008303E00093800539C0EEE8F5E00081BE
:10514E000062008333C0EEE8F5E000810062008368
:10515E0002E0009351050091F204002339F500910D
:10516E009305002341F0009193050130F9F40E945C
:10517E00F1040023D9F001E000930505969AAB9A4D
:10518E0015C001E00093510500E0009305059698C7
:10519E00AB9800917E05039500937E0507C041DD17
:1051AE0005C055DD03C077DD01C083DD0091B30678
:1051BE00002309F50E94A115E0915803F0915903BF
:1051CE00E651F34E0491007139F000E000930F07A1
:1051DE00AA9A00930C070CC0E0915803F091590362
:1051EE00E651F34E0491007859F000E00093050566
:1051FE009698AB9805C000E00093B6060093B706EC
:10520E00009126050023C9F000E000932605EEE884
:10521E00F5E0008105FF0EC00091B306013051F498
:10522E0000917E05039500937E0500E000937F05B7
:10523E0005E001C00AE000936104899199910895F7
:10524E0008950091DF04013011F40E94DF1200E096
:10525E00009383040093E806FBDB00E00E94C14C40
:10526E00E0915803F0915903E651F34E0491007802
:10527E0011F00E94DE1300E0E3DF00919305013090
:10528E0011F40E94190500E000930B0500930C0524
:10529E0001E000930D0500E000930E0500930F054D
:1052AE000093100501E00093110500E00093120534
:1052BE0001E0009313050093140500916105109110
:1052CE006205012BF1F400E00093840510E00093D9
:1052DE00590500935A050093570500935805E09120
:1052EE005803F0915903ED51F34E0491002329F424
:1052FE000CE300936F05109370050E94604102E06D
:10530E0016C000912605002329F000E00093260523
:10531E0004E008C00091B306002361F401E00E948E
:10532E008F2107E0009361040E94A11503E0009312
:10533E005405089500914E05002319F00AE00093DC
:10534E00610408950091DF04013011F40E94DF1210
:10535E0000E0009383040E94A11500917E060330A5
:10536E0029F400E000937E0600937B0602E00E9483
:10537E00C14C00E065DF01E000930B0500E00093F7
:10538E000C0501E000930D0500E000930E0500935F
:10539E000F050093100501E00093110500E0009346
:1053AE00120501E0009313050093140500912605E4
:1053BE00002309F4B8C000E000932605E0915803DD
:1053CE00F0915903E651F34E0491007449F001999E
:1053DE0007C00DE10E948F2107E00093610408953C
:1053EE000091B306013009F098C003E00093610408
:1053FE0000E000932E050091610510916205012BCE
:10540E0011F004E087C00EE110E00093B606109391
:10541E00B70600919305013011F40E941905E09131
:10542E005803F0915903ED51F34E0491002331F4DA
:10543E000CE310E000936F05109370050E9460411D
:10544E0040917A0550E00EEC11E00E944751E09138
:10545E005803F0915903E00FF11FE553FE4F0491ED
:10546E00033089F040917A050EEC11E00E9447510D
:10547E00E0915803F0915903E00FF11FE553FE4FF1
:10548E000491053051F400917305002309F441C0D5
:10549E000E94844C0130E9F537C040917A050EEC3C
:1054AE0011E00E944751E0915803F0915903E00F2B
:1054BE00F11FE553FE4F0491043011F140917A052E
:1054CE000EEC11E00E944751E0915803F091590300
:1054DE00E00FF11FE553FE4F0491063089F0409125
:1054EE007A050EEC11E00E944751E0915803F091BD
:1054FE005903E00FF11FE553FE4F0491073049F4B5
:10550E000E94844C013029F401E00E94C14C01E05C
:10551E0097DE02E000935405089504E00E948F2167
:10552E0007E00093610408950091DF04013011F447
:10553E000E94DF1200E0009383040093E80601E06E
:10554E0000934F050093500500919305013011F41F
:10555E000E941905009157051091580520918F054D
:10556E00309190050217130710F472DA09C00091FA
:10557E009305013011F40E942D0508E000935405A7
:10558E0000E00E94C14CE0915803F0915903E6519E
:10559E00F34E0491007811F00E94DE1300E050DE0D
:1055AE0000E000930B0500930C0501E000930D0540
:1055BE0000E000930E0500930F0500931005009375
:1055CE001105009312050093130501E000931405D5
:1055DE000091B306002321F000918E050C7051F05E
:1055EE00EEE8F5E000810F7E00830E94642005E066
:1055FE000093610408950091DF04013011F40E94BC
:10560E00DF1200E0009383040E94A11500E00E94C7
:10561E00C14CE0915803F0915903E651F34E0491B9
:10562E00007811F00E94DE1300E00ADE00E0009325
:10563E000B0500930C0501E000930D0500E00093AF
:10564E000E0500930F0500931005009311050093AE
:10565E0012050093130501E0009314050091B306A3
:10566E00002321F000918E050C7051F0EEE8F5E06C
:10567E0000810F7E00830E94642005E00093610488
:10568E0008959A938A930091DF04002311F40E94E7
:10569E00B01200917305053058F40091D90400231F
:1056AE0039F00091DE04002319F401E00093830425
:1056BE00E0915803F0915903ED51F34E04910023FC
:1056CE0019F401E00093E80600919305013011F4FE
:1056DE000E94190540917A0550E00EEC11E00E94EF
:1056EE004751E0915803F0915903E00FF11FE55334
:1056FE00FE4F0491083039F4EEE8F5E0008104FF26
:10570E0002C00E94011440917A0550E00EEC11E0A7
:10571E000E944751E0915803F0915903E00FF11F99
:10572E00E553FE4F0491013031F5009173050023CE
:10573E0011F500917B0510E0F801E65AFC4F40810F
:10574E000CE30E944751980140917A050EEC11E04E
:10575E000E944751E0915803F0915903E00FF11F59
:10576E00E150FF4F05911491201B310B2093190529
:10577E0030931A054FC0E0915803F0915903E6514A
:10578E00F34E0491007131F100910107013011F5D2
:10579E0040917A050EEC11E00E944751E0915803BA
:1057AE00F0915903E00FF11F4091730503E310E0F0
:1057BE000E944751E00FF11F8591949100910907C6
:1057CE0010910A07801B910B0197809319059093F6
:1057DE001A0520C040917A050EEC11E00E94475147
:1057EE00E0915803F0915903E00FF11F40917305BA
:1057FE0003E310E00E944751E00FF11F0591149151
:10580E0020916C0530916D05020F131F0093190541
:10581E0010931A0500917305053061F4009171051E
:10582E0010917205E9E1F5E020813181200F311FE1
:10583E002083318300912405002361F000914506F9
:10584E00002341F40091190510911A050093570594
:10585E001093580500915705109158052091190580
:10586E0030911A050217130708F051C240917A05BC
:10587E000EEC11E00E944751E0915803F09159034C
:10588E00E00FF11F4091730503E310E00E944751B2
:10589E00E00FF11FF296149100E00E94F44E209159
:1058AE006B0630916C062017310708F030C200915C
:1058BE0069050023F1F50091BB06002361F12091EB
:1058CE005D0530915E05E0915803F0915903E95D55
:1058DE00F24E049110E02017310718F140915D054A
:1058EE0050915E05E0915803F0915903E95DF24E37
:1058FE00249130E0E0915803F0915903E85DF24EA7
:10590E000491200F311F4217530798F010935D0535
:10591E0010935E051AC0E0915D05F0915E057497D7
:10592E0010F400E007C0E0915D05F0915E05B897B8
:10593E0020F401E000934F0508C001E00093BB0680
:10594E0000E000935D0500935E05009167051091E0
:10595E006805012B09F44AC000917D05E0915803BA
:10596E00F0915903EC5EF24E1491011708F08FC0BE
:10597E002091590530915A054091750550E003E08C
:10598E0010E00E944751E0915803F0915903E00F47
:10599E00F11FE350F34E059114912017310780F457
:1059AE004091750503E010E00E944751E0915803C5
:1059BE00F0915903E00FF11FE450F34E049168C0CB
:1059CE005093590550935A0500917505073030F4E0
:1059DE0000917505039500937505D8C000917D055E
:1059EE00039500937D0550937505D0C02091590500
:1059FE0030915A0540917A0550E00EEC11E00E946C
:105A0E004751E0915803F0915903E00FF11F409177
:105A1E00730503E310E00E944751E00FF11F409120
:105A2E00750503E010E00E944751E00FF11F339619
:105A3E00059114912017310770F540917A050EECFF
:105A4E0011E00E944751E0915803F0915903E00F85
:105A5E00F11F4091730503E310E00E944751E00FE0
:105A6E00F11F4091750503E010E00E944751E00FD1
:105A7E00F11F3296049100935105009145060023C3
:105A8E0009F484C000914C06043009F07FC002E096
:105A9E00009351057BC010E01093590510935A05E1
:105AAE0000917505073030F400917505039500934C
:105ABE00750502C010937505E0915803F0915903D6
:105ACE00E651F34E0491007E09F460C000919305F7
