:040000030000A4FA5B
:100000000C947D5218951895189518951895189573
:100010001895189518951895189518951895189578
:100020001895189518951895189518951895189568
:100030001895189518951895189518950C948B1077
:1000400018951895189518950C943A521895189576
:100050000C9414521895189518951895189518958C
:1000600018951895189518950C94051018951895CD
:1000700018951895189518950C9487441895189507
:100080000C94314418951895189518950000012F77
:100090000335053B073F09430B450D47154F195BDA
:1000A0001D5F1F612B6D000000031E000000000497
:1000B0001E00000000031E00000000031E000000E0
:1000C00000031E00000000031E00000000035E018C
:1000D000009600035E0100E803035E010096000342
:1000E0005E01000000033200000A0003320000003D
:1000F00000031E00004B00041E000000000364000B
:100100000000000396000032000496000032000553
:100110002C0100EE0203960000320002960000322D
:1001200000012C01000000031E00004B00031E0014
:10013000000000077800000A00067800000A0008A6
:100140007800000000077800000A00087800000A24
:1001500000067800000000066400001E00099600FA
:10016000000000096400001E000696000000000761
:100170003200000000071E00000000075E0100962C
:1001800000075E0100E803075E01009600075E01BC
:1001900000000007960000320008640000C8000854
:1001A0002C0100E80307640000320008640000C866
:1001B00000082C01000000073200004B000832004C
:1001C00000000007900100000007960000320008C0
:1001D00096000032000A2C0100EE02079600003261
:1001E000000896000032000A2C01000000073200CF
:1001F000004B0007320000000000008A3FF83B700F
:1002000035A02F102DB823E01F101EA81DC81A00FE
:1002100000000300000000000000000000000000DB
:1002200000000000000000000000000000000000CE
:1002300000000000000000000000000000000000BE
:1002400000000000000000000000000000000000AE
:10025000000000000000000000000000000000009E
:1002600000000000FFFFFF04FFFFFFFFFFFFFFFF95
:10027000FFFFFFFFFFFFFFFFFFFFFFFFFFFFFFFF8E
:10028000FFFFFFFFFFFFFFFFFFFFFFFFFFFFFFFF7E
:10029000FFFFFFFFFFFFFFFFFFFFFFFFFFFFFFFF6E
:1002A000FFFFFFFFFF1010101010101010101010A3
:1002B000101010101010101010080832003200C872
:1002C0000014005E01005300015700025B00035F51
:1002D00000046300056600066B00076F00087300EA
:1002E0000978000A7C000B81000C86000D8A000E44
:1002F0008F000F9400109A00119F0012A40013AAFF
:100300000014AF0015B50016BB0017C10018C700D8
:1003100019CD001AD3001BD9001CDF001DE6001EFA
:10032000EC001FF30020F900210001220601230D3B
:1003300001241401251A01262101272801282F0153
:100340002936012A3C012B43012C4A012D51012E53
:1003500057012F5E01306501316C01327301337931
:1003600001348001358601368D01379401389A01B8
:1003700039A0013AA7013BAD013CB3013DBA013EB2
:10038000C0013FC60140CC0141D20142D70143DD4B
:100390000144E30145E80146EE0147F30148F80155
:1003A00049FE014A03024B08024C0D024D12024E57
:1003B00017024F1B02502002512502522902532DD1
:1003C00002543202553602563A02573E0258420251
:1003D0005946025A4A025B4D025C51025D54025E6C
:1003E00058025F5B02605F026162026265026368DD
:1003F00002646C02656E02667102677402687702BD
:10040000697A026A7C026B7F026C81026D84026EE3
:1004100086026F8902708B02718D02728F02739255
:1004200002749402759602769802779A02789C027A
:10043000799D027A9F027BA1027CA3027DA4020027
:100440000E00010F0002100003110004120005133A
:10045000000614000715000816000917000A180006
:100460000B19000C1A000D1C000E1D000F1E0010B1
:100470002000112100122300132400142600152847
:1004800000162A00172B00182D00192F001A310012
:100490001B33001C36001D38001E3A001F3C002094
:1004A0003F00214100224400234600244900254CFE
:1004B00000264E002751002854002957002A5A00D0
:1004C0002B5E002C61002D64002E67002F6B003026
:1004D0006E00317200327500337900347C00358053
:1004E00000368300378700388B00398F003A93003D
:1004F0003B97003C9B003D9F003EA3003FA7004070
:10050000AB0041AF0042B30043B70044BC0045C05C
:100510000046C40047C80048CC0049D1004AD50075
:100520004BD9004CDD004DE1004EE5004FE9005095
:10053000ED0051F10052F50053F90054FD00550152
:1005400001560501570901580C015910015A1401AF
:100550005B18015C1B015D1F015E22015F260160CB
:100560002901612D01623001633401643701653A6C
:1005700001663D016741016844016947016A4A011A
:100580006B4D016C4F016D52016E55016F5801703A
:100590005A01715D01725F017362017464017567D4
:1005A00001766901776C01786E017970017A7201C8
:1005B0007B75017C77017D79017E7B017F7D0180E8
:1005C0007E01818001828201838401848601858786
:1005D00001868901878B01888C01898E018A8F01B0
:1005E0008B91018C92010000220B0800B709BD0914
:1005F000C309C909CF09D509DB09E1090000220BAC
:100600000800EB09F109F709FD09030A090A0F0AB5
:10061000150A0000220B08001F0A250A2B0A310ABE
:10062000370A3D0A430A490A0000220B0800530A10
:10063000590A5F0A650A6B0A710A770A7D0A000087
:10064000220B0800870A8D0A930A990A9F0AA50AB5
:10065000AB0AB10A0000220B0800BB0AC10AC70A94
:10066000CD0AD30AD90ADF0AE50A0000220B0800E6
:10067000F10AF70AFD0A030B090B0F0B150B1B0BF5
:10068000000015281E0010271227142716271827E8
:100690001A271C2722272627392743274F275C277D
:1006A00062276A277B279627A327AF27BE27C52760
:1006B000FB27D927E327EE2701280E281028122828
:1006C00014280000692F24005C28BE28D728EF28B2
:1006D00031297A29C929D629E529F729062A182A8C
:1006E000F62A9A2BB02BCE2BEC2B322C462C952CA9
:1006F000C12C312D602D8F2D0B2E4B2E9B2EA82E15
:10070000B72EC42ED32EE02EFF2E242F382F442FA9
:100710000000E2302400762F792F7C2F7F2F822F4C
:10072000852F882F902F962FB02FB72FC12FC32F33
:10073000CB2FD92FEC2FF92F0730203049305430F0
:100740005C308530D130873090309B30A530B2306E
:10075000BB30C130CE30D730DA30DD30E030010090
:10076000DC3C0A00AA3CAC3CAF3CB23CB53CB83CDB
:10077000B83CD03CD33CD63CFFE40034511C001ABA
:100780005112510A5105510051FE50345134513229
:100790005122512A51E250DD50CE50C950C450BCB4
:1007A00050B450AF503451B450F150EC50EA50E8CE
:1007B00050F950D850D3500000E000937D030093CF
:1007C0007E0300937F0300938003009383030093D1
:1007D00084030FEF13E000934C0110934D0107B118
:1007E000007E07B900914001077017B1102B17B9AF
:1007F00006B1006C06B90895369998C000917E0341
:100800000023C1F146E004B115B10E94B452009337
:100810008103109382030091810310918203EFE71B
:10082000F3E020813181200F311F2083318300913B
:100830008303109184032091810330918203021776
:100840001307009181031091820328F4009383031E
:10085000109384030FC020914C0130914D01021779
:10086000130740F4009181031091820300934C011F
:1008700010934D0100917E03039500937E03009138
:100880007E030B3020F406B1006C06B90895009188
:100890007F03109180032091830330918403021B16
:1008A000130B20914C0130914D01021B130B43E0BF
:1008B0000E94B452980140917D0350E003E010E0A3
:1008C0000E94AA52F801E05CFE4F2183328300911E
:1008D0007D03039500937D0300917D03043010F0A8
:1008E00050937D0307B1007E07B940917D0303E07B
:1008F00010E00E94AA52F801E05CFE4F00810770F0
:1009000017B1102B17B950937E0350937F03509368
:10091000800350938303509384030FEF13E00093FD
:100920004C0110934D0106B1006C06B9089500E624
:1009300007B90CE806B900E000938E000895402F37
:1009400050E003E010E00E94AA52F801E05CFE4F84
:10095000018112810895E5E8F3E001A101FD0EC0D7
:1009600000918F0310919003012B41F40091A60395
:10097000037F0093A60301A1026001A308950FE085
:100980000093850300E000938603009387030093A0
:1009900088030093890300938A0300938B030093D9
:1009A0008C0300938D0300938E0300938F030093B9
:1009B0009003009391030093920300939D0300938F
:1009C0009E0300939F030093A0030093A103009351
:1009D000A2030093A3030093A4030093A503009133
:1009E000A603007F0093A603E5E8F3E001A1006100
:1009F00001A308950FE00093850300E000938603B0
:100A000000938703009388030093890300938B036B
:100A100000938C0300938D0300938E0300938F0348
:100A2000009390030093910300939203E5E8F3E0B1
:100A300001A1006101A308950FE00093850300E088
:100A40000093860300938703009388030093890330
:100A500000938B0300938C0300938D0300938E030C
:100A600000938F03009390030093910300939203EC
:100A70000091A603017F0093A603E5E8F3E001A13E
:100A8000006101A3089500918F0310919003012B41
:100A900041F0E5E8F3E0028513850150104002873C
:100AA00013870091A6030A700230F1F4E5E8F3E041
:100AB000068117810F5F1F4F0683178300918B03F9
:100AC00010918C03043C29E0120718F001A1086082
:100AD0000AC000918B0310918C030C3D25E0120796
:100AE00018F001A1046001A3E5E8F3E001A103FF10
:100AF0000EC000918D0310918E03003727E112077D
:100B000030F4008511850F5F1F4F0087118708950E
:100B1000109185031017A9F4409186035091870323
:100B20004217530771F40091A703002329F401E051
:100B30000093A7030DE21BC000E00093A7030AE5A2
:100B400016C0109185031F3039F40C3329F4E5E801
:100B5000F3E011A1106104C0E5E8F3E011A11F7EEC
:100B600011A300938503209386033093870300939A
:100B70009803005D61F0035391F00C5041F00E5169
:100B800031F00F5061F00F5011F00F50B9F400E048
:100B90000093990300939A0300939B03089503E045
:100BA00000939903890110939A0300939B0300E03B
:100BB00000938D0300938E03009392030895E5E85C
:100BC000F3E001A101FFB4C000E0009388030091AD
:100BD00098030D5221F00D5209F445C054C03091D4
:100BE00093030091940300939D0330939E0300911F
:100BF00096030093A203009195030093A403008938
:100C000000FF02C001E001C000E00093A5030089DD
:100C100007FB01A100F901A3009195030695069534
:100C2000069507700093A8030091A803015059F09E
:100C30000A9559F00A9559F00A9559F00A9559F014
:100C40000A9559F00CC001E00BC002E009C003E0B6
:100C500007C004E005C005E003C006E001C000E0F5
:100C60000093910310C00091930300939F030091A0
:100C700094030093A003009195030093A1030091B6
:100C800096030093A303009185030C3321F0009198
:100C900085030330C1F500918D0310918E03085B2D
:100CA0001B40083B2BE0120750F400919D0310916C
:100CB0009E030A3F20E0120718F504E022C00091CD
:100CC0008D0310918E03003727E11207C8F00091C1
:100CD00086031091870320919D0330919E03021794
:100CE000130738F500919D0310919E032091860310
:100CF00030918703021B130B093C20E0120738F5E3
:100D000000E00093920300919103002389F0009189
:100D10009203002369F400918D0310918E03003734
:100D200027E1120728F000E00093890300938A036B
:100D30000895009186031091870320919D033091BF
:100D40009E03021B130B093C20E01207C8F203E0CC
:100D5000D8CF192F482F80E090E009C0FC01E3555F
:100D6000FC4F0181FC01E355FC4F00830196E091AB
:100D7000AC03F0E031978E179F0784F300E02091D9
:100D8000AC0330E0F901E455FC4F00830091AC0363
:100D9000002329F00091AC030A950093AC03842F43
:100DA000912F08950091AC030023B1F40091A903A1
:100DB00003300091AA0312E029F4019FF001E357E8
:100DC000FF4F04C0019FF001E457FF4F04910093CF
:100DD000AD0301E00093AC0308950091AA03002342
:100DE00021F0E0DF00E00093AA030091AE03109130
:100DF000AF03012B49F0EEEAF3E0008111810150CD
:100E000010400083118308950091AB030023A1F0EB
:100E1000E5E0F2E00591149117BD06BD06B517B5E2
:100E20001695079510937900009378000091A90317
:100E3000002309F040C008950091AC03002309F499
:100E400042C04091AD0350E003E010E00E94AA527E
:100E5000F801E955FF4F059114910093AE031093EB
:100E6000AF030091AE031091AF03012B41F140910C
:100E7000AD0303E010E00E94AA52F801EA55FF4FCB
:100E8000049112E0019FF001E750FE4F059114918B
:100E900017BD06BD06B517B51695079510937900D1
:100EA000009378000091AD0303950093AD0300918A
:100EB000A903002359F00FB508600FBD08955093A2
:100EC000AA0347DF08950FB5077F0FBD0895B80146
:100ED00000E003C00091BB0303950093BB030091A6
:100EE000BB030330D8F5A89503E00093B803009145
:100EF000BB0310E0AB01400F511F0E949752021735
:100F000019F10FB70093BA03F8940091BB03AB013A
:100F1000400F511F022F0E94A1520091BA030FBF30
:100F20001093B9030091BB03AB01400F511F0E9406
:100F30009752021749F00091B803102F1A95109399
:100F4000B8030023A1F603C001E00093B9030091A8
:100F5000B903002309F0BECF00E0089501E0089531
:100F60001B2E2A2EB801D901FA01AB010E9497521B
:100F7000102FAB014F5F5F4F0E9497521017A9F4DB
:100F8000AB014F5F5F4F0E949752102FAB014E5F36
:100F90005F4F0E949752101741F4AB010E94975285
:100FA0000C9301E0A22DB12D0895AB010E94975240
:100FB000102FAB014E5F5F4F0E9497521017B1F494
:100FC0000FB70093B703F894AB010E949752AB019F
:100FD0004F5F5F4F0E94A1520091B7030FBFAB015B
:100FE0000E9497520C93AB014F5F20C0AB010E944F
:100FF0009752102FAB014F5F5F4F0E94975210170F
:1010000001F50FB70093B703F894AB010E94975214
:10101000AB014E5F5F4F0E94A1520091B7030FBF1B
:10102000AB010E9497520C93AB014E5F5F4F0E9441
:101030009752102FAB010E949752101709F4B1CFAD
:101040002EC0AB014F5F5F4F0E949752102FAB0134
:101050004E5F5F4F0E949752101739F50FB70093FC
:10106000B703F894AB014F5F5F4F0E949752AB01FB
:101070000E94A1520091B7030FBFAB014F5F5F4FBA
:101080000E9497520C93AB014F5F5F4F0E949752A3
:10109000102FAB010E949752101709F482CF0081E4
:1010A000002309F07ECF01E0008300E07BCF8A932C
:1010B000302E812F43E551E026EB33E000E010E0D5
:1010C0004FDF002341F400E0899108950091B603B9
:1010D00003950093B603282F65E071E04091B603B5
:1010E00050E003E010E00E94AA52600F711F8B01D4
:1010F000EEDE002359F32091B603239500E010E0C3
:10110000E6DE002331F430924E0102E000934F01FD
:10111000DACF2091B60366E070E0032D10E043E0E3
:1011200050E00E94AA52600F711F8B01D0DE002395
:1011300021F430924E0103E0E9CF01E0C5CF9A934C
:101140008A93802F312E0091B003002339F523EBD1
:1011500033E0E6E0F0E0082F10E043E050E00E94CA
:10116000AA52E00FF11F8F0141E551E0F9DE0023A3
:10117000B9F0232D65E071E04091B30350E003E046
:1011800010E00E94AA52600F711F8B01A0DE0023A5
:1011900029F4132D082F8BDF0023D9F001E01AC0AA
:1011A000282F66E070E0082F10E043E050E00E9436
:1011B000AA52600F711F8B018ADE90E0FC01E15F93
:1011C000FD4F1491082FBBDF80934E0101E0009387
:1011D0004F0100E08991999108959A938A93802F05
:1011E00024EB33E0E6E0F0E010E043E050E00E9462
:1011F000AA52E00FF11F8F0142E551E0B1DE00235A
:10120000F9F100E00093520125EB33E0E5E0F1E075
:101210004091B40350E003E010E00E94AA52E00FB6
:10122000F11F8F0142E551E09BDE0023E9F40091BC
:101230005201002361F490E0FC01E15FFD4F049155
:101240000093B5031091B503082F79DF0DC01091FD
:10125000B503082F2CDF002339F490E0FC01E15F97
:10126000FD4F04910093B50390E0FC01EC59FD4F54
:1012700004911091B5030117E0F00091B5031DC072
:10128000282F66E070E0082F10E043E050E00E9455
:10129000AA52600F711F8B011ADE90E0FC01E15F22
:1012A000FD4F1491082F4BDF80934E0101E0009316
:1012B0004F01FC01E15FFD4F0491899199910895DF
:1012C00040E551E022EB33E003E010E049DE00238B
:1012D00081F10091B203013061F125E500E010E0F9
:1012E000F6DD00E01CC02091B10366E070E04091A3
:1012F000B10350E003E010E00E94AA52600F711F9A
:101300008B01E5DD0091B10310E0F801E15FFD4FD5
:1013100014910091B10313DF0091B1030395009381
:10132000B1030091B1030535F0F221E003E010E0D4
:10133000CEDD08958A93302F012F822F305099F0FF
:101340003A9509F444C03A9509F475C03A9509F400
:10135000A6C03A9509F4D7C03A9509F408C13A9560
:1013600009F43BC16FC1E6EEF5E00C941553082F6C
:1013700000FDD89A00FFD89865C1082F00FDD99AC2
:1013800000FFD9985FC1082F00FDDA9A00FFDA98B4
:1013900059C1082F00FDDB9A00FFDB9853C1082FCD
:1013A00000FDDC9A00FFDC984DC1082F00FDDD9A9E
:1013B00000FFDD9847C1082F00FDDE9A00FFDE9890
:1013C00041C1082F00FDDF9A00FFDF983BC1ECEF21
:1013D000F5E00C941553082F00FDC09A00FFC0984B
:1013E00031C1082F00FDC19A00FFC1982BC1082F01
:1013F00000FDC29A00FFC29825C1082F00FDC39AC4
:1014000000FFC3981FC1082F00FDC49A00FFC498B5
:1014100019C1082F00FDC59A00FFC59813C1082FF8
:1014200000FDC69A00FFC6980DC1082F00FDC79A9F
:1014300000FFC79807C1E2E1F6E00C941553082FAE
:1014400000FDA89A00FFA898FDC0082F00FDA99AEA
:1014500000FFA998F7C0082F00FDAA9A00FFAA98DC
:10146000F1C0082F00FDAB9A00FFAB98EBC0082F2E
:1014700000FDAC9A00FFAC98E5C0082F00FDAD9AC6
:1014800000FFAD98DFC0082F00FDAE9A00FFAE98B8
:10149000D9C0082F00FDAF9A00FFAF98D3C0E8E293
:1014A000F6E00C941553082F00FD909A00FF9098D9
:1014B000C9C0082F00FD919A00FF9198C3C0082F62
:1014C00000FD929A00FF9298BDC0082F00FD939AEC
:1014D00000FF9398B7C0082F00FD949A00FF9498DE
:1014E000B1C0082F00FD959A00FF9598ABC0082F5A
:1014F00000FD969A00FF9698A5C0082F00FD979AC8
:1015000000FF97989FC0EEE3F6E00C941553082F68
:1015100000FD189A00FF189895C0082F00FD199A31
:1015200000FF19988FC0082F00FD1A9A00FF1A9823
:1015300089C0082F00FD1B9A00FF1B9883C0082F4D
:1015400000FD1C9A00FF1C987DC0082F00FD1D9A0D
:1015500000FF1D9877C0082F00FD1E9A00FF1E98FF
:1015600071C0082F00FD1F9A00FF1F986BC0E4E5B3
:10157000F6E00C941553082F00FB0091620000F96F
:1015800029C0082F00FB0091620001F923C0082F39
:1015900000FB0091620002F91DC0082F00FB0091C2
:1015A000620003F917C0082F00FB0091620004F9E4
:1015B00011C0082F00FB0091620005F90BC0082F35
:1015C00000FB0091620006F905C0082F00FB0091A6
:1015D000620007F90093620035C0EAE6F6E00C9479
:1015E0001553082F00FB0091650000F929C0082F52
:1015F00000FB0091650001F923C0082F00FB00915A
:10160000650002F91DC0082F00FB0091650003F979
:1016100017C0082F00FB0091650004F911C0082FC6
:1016200000FB0091650005F90BC0082F00FB00913D
:10163000650006F905C0082F00FB0091650007F959
:101640000093650089910895BA93AA93D801FD018A
:101650000285013029F4228123FB20E020F908C013
:101660000285002349F4228123FB20E020F9209504
:101670001281177001815EDEFD0104810023A1F05B
:101680000285013029F4258123FB20E020F908C0E0
:101690000285002349F4258123FB20E020F92095D1
:1016A00015811770048146DEFD0102850387A9912B
:1016B000B99108959A938A9380E090E015C020E054
:1016C00002E110E0AC010E94AA52F801EC5AFE4F70
:1016D000228702E110E00E94AA52980104E511E07D
:1016E000020F131FB1DF0196893000E090073CF331
:1016F00089919991089530E0F801348722872081FB
:10170000223019F02081233009F49EDF0895BA9326
:10171000AA93D80116960D911D912D913C910F5FC2
:101720001F4F2F4F3F4F3C932E931E930E931697B0
:101730001E960D911C911F9748E250E00E94BC52EA
:1017400020E030E016964D915D916D917C91199756
:10175000041715072607370748F01A960C911A97B1
:10176000002379F501E01A960C9322C01E960D9184
:101770001C911F9750962D913C915197020F131F6A
:1017800048E250E00E94BC5220E030E016964D91B5
:101790005D916D917C9119970417150726073707FE
:1017A00058F01A960C911A97013059F41A962C9306
:1017B0001A978D0149DF05C016962D932D932D9311
:1017C0002C93A991B99108959A938A930091C50396
:1017D000002309F441C04091BC0350E002E110E055
:1017E0000E94AA52980104E511E0020F131F2CDF9A
:1017F0004091BC0350E002E110E00E94AA52F801BF
:10180000EC5AFE4F05850E7F058700E010E005C00D
:10181000E454FC4F50830F5F1F4F2091C503021704
:10182000150784F48091C50390E001970817190704
:10183000F80171F3E454FC4F2181F801E454FC4FAA
:101840002083E9CF0091C5030A950093C50304E600
:101850000093C6035093C703899199910895392F36
:10186000682F202F10E042E150E00E94AA52F801B8
:10187000EC5AFE4F05850E7F058780E090E004C09E
:101880000A950093C50301960091C50310E08017E7
:10189000910764F5FC01E454FC4F0081021799F7AD
:1018A000022F42E150E00E94AA52F801EC5AFE4F8A
:1018B00005850E7F0587AC0107C000E0FA01E454FE
:1018C000FC4F00834F5F5F4F0091C50310E040174E
:1018D00051070091C503A4F601501040401751076D
:1018E00061F3FA01E454FC4F0181E8CF862F932F76
:1018F00008952091C50330E0F901E454FC4F0083C2
:101900001091C50313951093C503402F50E002E1D9
:1019100010E00E94AA52F801EC5AFE4F05850160C2
:10192000058708950091C6031091C703012B49F064
:10193000E6ECF3E000811181015010400083118337
:1019400008950091D105013051F5E0EDF5E00081F9
:1019500000FF11C04091BC0350E002E110E00E9482
:10196000AA52F801EC5AFE4F00810023C1F401E0B5
:101970000093C90308950091C903002389F00091E1
:10198000C80303950093C8030091C803053040F0D5
:1019900000E00093C9030093C80316DF089514DF25
:1019A00008950E94555380E090E02AC00E94AA52F8
:1019B000F801EC5AFE4F058500FD02C0082F99DFA3
:1019C00002E110E0AC010E94AA52F801EC5AFE4F6D
:1019D00003810130A1F402E110E00E94AA52F80153
:1019E000EC5AFE4F0485013051F402E110E00E94F0
:1019F000AA52980104E511E0020F131F88DE019638
:101A0000893000E090070CF069C002E110E0AC0101
:101A10000E94AA52F801EC5AFE4F0485002381F679
:101A200002E110E00E94AA52F801EC5AFE4F008138
:101A3000002359F002E110E00E94AA52F801EC5A8A
:101A4000FE4F0081013009F0BBCF442402E110E0D9
:101A50000E94AA52F801EC5AFE4F46824782408605
:101A6000418602E110E00E94AA52F801EC5AFE4FB2
:101A70004686478602E110E00E94AA52F801EC5A1D
:101A8000FE4F408A418A02E110E00E94AA52F8010A
:101A9000EC5AFE4F238502E110E00E94AA52F801A1
:101AA000EC5AFE4F0285201702E110E009F07ECFCC
:101AB0000E94AA52980104E511E0020F131FC4DD31
:101AC00002E110E0AC010E94AA52F801EC5AFE4F6C
:101AD000058500FF75CF082FC2DE72CFE5E00C94BC
:101AE0005B5300E000932104E3E2F4E00081118104
:101AF0000F5F1F4F00831183009123041091240472
:101B0000093621E0120780F4E0912304F0912404C7
:101B1000749778F00091CB03053B58F4209322048E
:101B200002E000931F04089500E000932204209334
:101B3000250408950091CC031091CD0320910C044D
:101B400030910D040217130718F003E000931F04EF
:101B50000895E4E1F4E0008111810F5F1F4F0083DD
:101B6000118300911404109115042091D603309133
:101B7000D7030217130718F007E000931F04089516
:101B800001E00093210400910E0410910F042091B4
:101B9000020430910304021713070091CB0308F0ED
:101BA00047C010910404011748F0E0E1F4E000811F
:101BB00011810F5F1F4F0083118309C0009107043B
:101BC000002329F400E00093100400931104009115
:101BD000CB0310910804011748F0E2E1F4E0008122
:101BE00011810F5F1F4F0083118309C000910B0407
:101BF000002329F400E000931204009313040091E1
:101C0000100410911104209105043091060402176C
:101C1000130708F45EC00091120410911304209180
:101C2000090430910A040217130708F452C044C093
:101C30001091CE03011748F0E0E1F4E0008111813A
:101C40000F5F1F4F0083118309C00091D103002350
:101C500029F400E000931004009311040091CB03D9
:101C60001091D203011748F0E2E1F4E00081118104
:101C70000F5F1F4F0083118309C00091D50300231C
:101C800029F400E00093120400931304009110045F
:101C9000109111042091CF033091D0030217130744
:101CA000C0F000911204109113042091D3033091DD
:101CB000D4030217130768F00091D6031091D703DD
:101CC000012B21F006E000931F04089507E0009324
:101CD0001F040895E6E1F4E0008111810F5F1F4FBA
:101CE00000831183009116041091170420910004C1
:101CF000309101040217130758F00091CC031091A2
:101D0000CD0300930E0410930F0405E000931F040D
:101D10000895AC010091CC031091CD032091D8031C
:101D20003091D9030217130738F4EAECF3E0028D7F
:101D3000138D248D358D3EC080E090E00BC0000FE8
:101D4000111FF801E653FC4F068517852017310750
:101D500030F50196863000E0900794F585309007C5
:101D60002091CC033091CD038C014CF7000F111F53
:101D7000F801E653FC4F068517852017310748F315
:101D80002091CC033091CD038C01000F111FF8017D
:101D9000E653FC4F0089118920173107D0F6880FD0
:101DA000991F880F991FFC01E653FC4F068D178D74
:101DB00020A131A1EAE1F4E000831183228333837F
:101DC0000091CB0310911A04011748F0E0E1F4E010
:101DD000008111810F5F1F4F0083118309C00091A3
:101DE0001D04002329F400E0009310040093110463
:101DF000009110041091110420911B0430911C04D7
:101E000002171307C0F000E00093100400931104C0
:101E10000091000410910104012B11F004E009C0AD
:101E20000091CC031091CD0300930E0410930F0486
:101E300005E000931F04CA0108952091CA032223DC
:101E4000D9F1209125042223B9F50093CC031093F6
:101E5000CD0300911F04013011F443DE0895009179
:101E60001F04023011F466DE089500911F04033050
:101E700011F44FDF089500911F04043011F42ADF9C
:101E8000089500911F04053051F40091200405309D
:101E900081F000912004073079F472DE08950091FA
:101EA0001F04063011F455DE089500911F04073019
:101EB00019F401E000932504089500E000937D00EB
:101EC00000938B000AE000938A0008E012E510936B
:101ED00087000093860000E00093270420E0E6E2FC
:101EE000F4E0048705870687078700932B04009397
:101EF000360400933004009331040FEF00932E0456
:101F000000932F042093290420932A04209337045C
:101F100001E000932604089500E0009326041C9835
:101F20001A98089500912C0410912D0420E0E6E207
:101F3000F4E04485558566857785400F511F621F03
:101F4000721F448755876687778700913004109108
:101F5000310420912C0430912D04021713070091B5
:101F60002C0410912D0428F40093300410933104B4
:101F70000FC020912E0430912F040217130740F454
:101F800000912C0410912D0400932E0410932F0423
:101F900000912B04039500932B0400912B04023332
:101FA00098F1048515852685378540913004509138
:101FB000310460E070E0041B150B2040304040917C
:101FC0002E0450912F04041B150B2040304040E399
:101FD00050E00E94EF5244E650E060E070E00E9462
:101FE000EF520093360400E0E6E204870587068797
:101FF000078700932B0400933004009331040FEF04
:1020000000932E0400932F0408952A931A930A93A1
:102010002FB7009128040A3F28F400912804039563
:102020000093280400E21EE400932C0410932D0476
:1020300001E0009337042FBF099119912991189558
:1020400000912604002389F0009127040395009352
:10205000270400912704083240F000E00093270491
:102060001C9B02C01C9801C01C9A00E00B9901E067
:1020700010912A04011709F441C00B9B02C001E032
:1020800001C000E0009329040091290400932A0470
:10209000009188001091890000932C0410932D0466
:1020A00000E000937D00009389000093880000E128
:1020B00000937D00009129040023E9F00091280499
:1020C0000023C9F400912C0410912D04053F21E058
:1020D000120788F000912C0410912D0401322EE497
:1020E000120728F000E200932C0420932D0401E055
:1020F00000933704089500E00093280408950091A8
:102100003604089500913704002321F000E0009385
:10211000370408DF08958A93FA93EA933A922A9251
:102120001A920A927A936A935A934A933A932A9309
:102130001A930A938FB70091610403950093610489
:10214000043018F000E00093610400916104005035
:1021500069F10A9529F00A9579F00A95F1F056C0CF
:102160000E94E6450E9420100E94ED0603E00E94B6
:102170009F040E94984617C00E94E6450E942010C6
:102180000E9407460E94920C0E94BF420091C9041F
:10219000013049F40E94430506C00E94E6450E94B2
:1021A0002B500E9420100E94F44533C00E94E64547
:1021B0000E9420100E94E7510E94F44500916204A1
:1021C0000395009362040A3020F100E0009362045A
:1021D00001E000935E04009163040395009363049F
:1021E0000430B8F000E00093630401E000935F0462
:1021F00000916404039500936404093150F000E0F9
:102200000093640401E00093600403C000E00093C5
:1022100061048FBF0991199129913991499159917F
:10222000699179910990199029903990E991F991E2
:1022300089911895F89400E00BBB0FE70ABB04E7FF
:1022400008BB0DEF07BB00E405BB00EF04BB0BE0D0
:1022500002BB08EB01BB02EE03B906EF02B908E1CD
:102260000093620000EF0093610002E000936500BC
:102270000EEF0093640000E808B90AEF01BF0AE01E
:1022800003BF0CE00FBD01E10EBD00E010E020E057
:1022900030E005C0A8950F5F1F4F2F4F3F4F0F3FF6
:1022A0004FEF140748E0240740E034079CF378948C
:1022B000089501E000938504009386040093870449
:1022C0000093890400E00093060608959A938A9388
:1022D00000E0009388050093890500938A054091EA
:1022E000B00450E00EEC11E00E94AA52E091F60119
:1022F000F091F701E00FF11FE553FE4F0491083014
:10230000A9F5E4ECF4E0008104FF30C04091B00492
:102310000EEC11E00E94AA52E091F601F091F70153
:10232000E00FF11FEB5CFE4F049100938B05409191
:10233000B0040EEC11E00E94AA52E091F601F09177
:10234000F701E00FF11FEA5CFE4F049100938C054A
:102350004091B0040EEC11E00E94AA52E091F60107
:10236000F091F701E00FF11FE95C2FC04091B0043C
:102370000EEC11E00E94AA52E091F601F091F701F3
:10238000E00FF11FEE5CFE4F049100938B0540912E
:10239000B0040EEC11E00E94AA52E091F601F09117
:1023A000F701E00FF11FED5CFE4F049100938C05E7
:1023B0004091B0040EEC11E00E94AA52E091F601A7
:1023C000F091F701E00FF11FEC5CFE4F04910093D8
:1023D0008D0550938E05E091F601F091F701EB5CCD
:1023E000F24E049100938F050FEF009390055093E8
:1023F00091055093920550939305509394055093F3
:102400009505E091F601F091F701ED51F34E04913D
:102410000130E091F601F091F701A1F4E051F34EA3
:10242000049100939605E091F601F091F701EF50C9
:10243000F34E049100939705E091F601F091F701B6
:10244000EE501CC0ED51F34E04910023D9F4E091FD
:10245000F601F091F701ED50F34E049100939605CB
:10246000E091F601F091F701ED50F34E04910093E5
:102470009705E091F601F091F701ED50F34E0491CC
:102480000093980550939905E091F601F091F701BA
:10249000EC5CF24E049100939A050FEF00939B05BC
:1024A00050939C0550939D05E091F601F091F70142
:1024B000EB50F34E04910093A905E091F601F091E1
:1024C000F701EA50F34E04910093AA05E091F6015A
:1024D000F091F701E950F34E04910093AB05E091C0
:1024E000F601F091F701E850F34E04910093AC052A
:1024F00080E090E005C0FC01E857FA4F55A3019633
:1025000084319507C4F35093C1055093C20550938D
:10251000C305E091F601F091F701ED51F34E0491FE
:10252000013021F401E00093C4050BC0E091F601F5
:10253000F091F701ED51F34E0491002311F4509303
:10254000C4055093C505E091F601F091F701E750FD
:10255000F34E04910093C805E091F601F091F70164
:10256000E650F34E04910093C905E091F601F09115
:10257000F701E550F34E04910093CA05E091F6018E
:10258000F091F701ED51F34E0491013021F401E097
:102590000093CB050BC0E091F601F091F701ED51EE
:1025A000F34E0491002311F45093CB05E091F60112
:1025B000F091F701E151F34E04910093C605509359
:1025C000C7055093D905E091F601F091F701E65166
:1025D000F34E0491007621F001E00093D80502C08B
:1025E0005093D805E3EDF5E000810E7F0083E09184
:1025F000F601F091F701ED51F34E0491002309F03B
:10260000DCC0E091F601F091F701E65EF24E049134
:102610000093DA05E091F601F091F701E55EF24EE4
:1026200004910093DB05E091F601F091F701E45E7F
:10263000F24E04910093DC05E091F601F091F70170
:10264000E35EF24E04910093DD055093DE05E091C8
:10265000F601F091F701E25EF24E04910093DF057E
:102660005093E0054091B0040EEC11E00E94AA5294
:10267000E091F601F091F701E00FF11FE85CFE4FE9
:10268000059114910093E1051093E2054091B00487
:102690000EEC11E00E94AA52E091F601F091F701D0
:1026A000E00FF11FE65CFE4F059114910093E305E6
:1026B0001093E4054091B0040EEC11E00E94AA5280
:1026C000E091F601F091F701E00FF11FE45CFE4F9D
:1026D000059114910093E5051093E605E091F6014C
:1026E000F091F701E15EF24E059114910093E70538
:1026F0001093E805E091F601F091F701EF5DF24EDD
:10270000059114910093E9051093EA05E091F60113
:10271000F091F701ED5DF24E04910093EB05E0912D
:10272000F601F091F701EC5DF24E04910093EC0597
:102730004091B0040EEC11E00E94AA52E091F60123
:10274000F091F701E00FF11FE25CFE4F049100935E
:10275000ED054091B0040EEC11E00E94AA52E09108
:10276000F601F091F701E00FF11FE15CFE4F0491DB
:102770000093EE05E091F601F091F701EB5DF24E6A
:1027800004910093EF05E091F601F091F701EA5D05
:10279000F24E0491002321F401E00093F0050BC0F8
:1027A000E091F601F091F701EA5DF24E04910130FB
:1027B00011F45093F0050E94D3488991999108959E
:1027C0004091B00450E00EEC11E00E94AA52E0915A
:1027D000F601F091F701E00FF11FE553FE4F049170
:1027E000033089F04091B0040EEC11E00E94AA522F
:1027F000E091F601F091F701E00FF11FE553FE4F74
:102800000491053029F40091A904002309F0E3C3E1
:102810005093CA0350932104509325044091B0046F
:102820000EEC11E00E94AA52E091F601F091F7013E
:10283000E00FF11FE455FE4F0491002329F450935B
:102840001F0450931E0405C001E000931F04009371
:102850001E044091B0040EEC11E00E94AA52E091D7
:10286000F601F091F701E00FF11FE455FE4F0491DE
:10287000002319F45093200427C04091B0040EECBB
:1028800011E00E94AA52E091F601F091F701E00FE9
:10289000F11FE455FE4F0491013011F405E012C020
:1028A0004091B0040EEC11E00E94AA52E091F601B2
:1028B000F091F701E00FF11FE455FE4F0491023053
:1028C00019F407E0009320045093CB0350931004B5
:1028D0005093110450931204509313045093140412
:1028E0005093150450931604509317040FEF009360
:1028F0001A0400931B0400931C0450931D04409180
:10290000B0040EEC11E00E94AA52E091F601F091A1
:10291000F701E00FF11FE553FE4F0491083009F075
:102920005BC3E4ECF4E0008104FF56C34091B004C3
:102930000EEC11E00E94AA52E091F601F091F7012D
:10294000E00FF11FE256FE4F04910093CE03409139
:10295000B0040EEC11E00E94AA52E091F601F09151
:10296000F701E00FF11FE156FE4F0591149100931E
:10297000CF031093D0034091B0040EEC11E00E94FD
:10298000AA52E091F601F091F701E00FF11FEF5527
:10299000FE4F0491002319F45093D10303C001E0CA
:1029A0000093D1034091B0040EEC11E00E94AA52B2
:1029B000E091F601F091F701E00FF11FEE55FE4FA7
:1029C00004910093D2034091B0040EEC11E00E94F8
:1029D000AA52E091F601F091F701E00FF11FED55D9
:1029E000FE4F059114910093D3031093D4034091AB
:1029F000B0040EEC11E00E94AA52E091F601F091B1
:102A0000F701E00FF11FEB55FE4F0491002319F47D
:102A10005093D50303C001E00093D5034091B00467
:102A20000EEC11E00E94AA52E091F601F091F7013C
:102A3000E00FF11FE655FE4F059114910093D60368
:102A40001093D7034091B0040EEC11E00E94AA52FB
:102A5000E091F601F091F701E00FF11FE954FE4F0C
:102A60000591149100930204109303044091B00463
:102A70000EEC11E00E94AA52E091F601F091F701EC
:102A8000E00FF11FE754FE4F0491009304044091BE
:102A9000B0040EEC11E00E94AA52E091F601F09110
:102AA000F701E00FF11FE654FE4F059114910093DA
:102AB0000504109306044091B0040EEC11E00E944E
:102AC000AA52E091F601F091F701E00FF11FE454F2
:102AD000FE4F0491002319F45093070403C001E052
:102AE000009307044091B0040EEC11E00E94AA523A
:102AF000E091F601F091F701E00FF11FE354FE4F72
:102B00000491009308044091B0040EEC11E00E947F
:102B1000AA52E091F601F091F701E00FF11FE254A3
:102B2000FE4F059114910093090410930A044091FB
:102B3000B0040EEC11E00E94AA52E091F601F0916F
:102B4000F701E00FF11FE054FE4F0491002319F448
:102B500050930B0403C001E000930B044091B004B8
:102B60000EEC11E00E94AA52E091F601F091F701FB
:102B7000E00FF11FE859FE4F059114910093D8031F
:102B80001093D9034091B0040EEC11E00E94AA52B8
:102B9000E091F601F091F701E00FF11FE659FE4FC9
:102BA000059114910093DA031093DB034091B00474
:102BB0000EEC11E00E94AA52E091F601F091F701AB
:102BC000E00FF11FE459FE4F059114910093DC03CF
:102BD0001093DD034091B0040EEC11E00E94AA5264
:102BE000E091F601F091F701E00FF11FE259FE4F7D
:102BF000059114910093DE031093DF034091B0041C
:102C00000EEC11E00E94AA52E091F601F091F7015A
:102C1000E00FF11FE059FE4F059114910093E0037E
:102C20001093E1034091B0040EEC11E00E94AA520F
:102C3000E091F601F091F701E00FF11FEE58FE4F21
:102C4000059114910093E2031093E3034091B004C3
:102C50000EEC11E00E94AA52E091F601F091F7010A
:102C6000E00FF11FEC58FE4F04910093E4034091F4
:102C7000B0040EEC11E00E94AA52E091F601F0912E
:102C8000F701E00FF11FEB58FE4F059114910093EF
:102C9000E5031093E6034091B0040EEC11E00E94AE
:102CA000AA52E091F601F091F701E00FF11FE95807
:102CB000FE4F0491002319F45093E70303C001E091
:102CC0000093E7034091B0040EEC11E00E94AA5279
:102CD000E091F601F091F701E00FF11FE858FE4F87
:102CE00004910093E8034091B0040EEC11E00E94BF
:102CF000AA52E091F601F091F701E00FF11FE758B9
:102D0000FE4F059114910093E9031093EA0340915B
:102D1000B0040EEC11E00E94AA52E091F601F0918D
:102D2000F701E00FF11FE558FE4F0491002319F45D
:102D30005093EB0303C001E00093EB034091B00418
:102D40000EEC11E00E94AA52E091F601F091F70119
:102D5000E00FF11FE458FE4F04910093EC03409103
:102D6000B0040EEC11E00E94AA52E091F601F0913D
:102D7000F701E00FF11FE358FE4F05911491009306
:102D8000ED031093EE034091B0040EEC11E00E94AD
:102D9000AA52E091F601F091F701E00FF11FE1581E
:102DA000FE4F0491002319F45093EF0303C001E098
:102DB0000093EF034091B0040EEC11E00E94AA5280
:102DC000E091F601F091F701E00FF11FE058FE4F9E
:102DD00004910093F0034091B0040EEC11E00E94C6
:102DE000AA52E091F601F091F701E00FF11FEF57C1
:102DF000FE4F059114910093F1031093F20340915B
:102E0000B0040EEC11E00E94AA52E091F601F0919C
:102E1000F701E00FF11FED57FE4F0491002319F465
:102E20005093F30303C001E00093F3034091B00417
:102E30000EEC11E00E94AA52E091F601F091F70128
:102E4000E00FF11FEC57FE4F04910093F403409103
:102E5000B0040EEC11E00E94AA52E091F601F0914C
:102E6000F701E00FF11FEB57FE4F0591149100930E
:102E7000F5031093F6034091B0040EEC11E00E94AC
:102E8000AA52E091F601F091F701E00FF11FE95726
:102E9000FE4F0491002319F45093F70303C001E09F
:102EA0000093F7034091B0040EEC11E00E94AA5287
:102EB000E091F601F091F701E00FF11FE857FE4FA6
:102EC00004910093F8034091B0040EEC11E00E94CD
:102ED000AA52E091F601F091F701E00FF11FE757D8
:102EE000FE4F059114910093F9031093FA0340915A
:102EF000B0040EEC11E00E94AA52E091F601F091AC
:102F0000F701E00FF11FE557FE4F0491002319F47C
:102F10005093FB0303C001E00093FB034091B00416
:102F20000EEC11E00E94AA52E091F601F091F70137
:102F3000E00FF11FE457FE4F04910093FC03409112
:102F4000B0040EEC11E00E94AA52E091F601F0915B
:102F5000F701E00FF11FE357FE4F05911491009325
:102F6000FD031093FE034091B0040EEC11E00E94AB
:102F7000AA52E091F601F091F701E00FF11FE1573D
:102F8000FE4F0491002309F456C301E00093FF03B0
:102F90004091B0040EEC11E00E94AA52E091F601BB
:102FA000F091F701E00FF11FE453FE4F05911491EA
:102FB00000930C0410930D0450930E0450930F04CF
:102FC000509300045093010401E0009322045093B5
:102FD00023045093240408954091B0040EEC11E0B2
:102FE0000E94AA52E091F601F091F701E00FF11F63
:102FF000E057FE4F04910093CE034091B0040EECD5
:1030000011E00E94AA52E091F601F091F701E00F61
:10301000F11FEF56FE4F059114910093CF031093CB
:10302000D0034091B0040EEC11E00E94AA52E0914E
:10303000F601F091F701E00FF11FED56FE4F0491FC
:10304000002319F45093D10303C001E00093D1038E
:103050004091B0040EEC11E00E94AA52E091F601FA
:10306000F091F701E00FF11FEC56FE4F0491009331
:10307000D2034091B0040EEC11E00E94AA52E091FC
:10308000F601F091F701E00FF11FEB56FE4F0591AD
:1030900014910093D3031093D4034091B0040EEC29
:1030A00011E00E94AA52E091F601F091F701E00FC1
:1030B000F11FE956FE4F0491002319F45093D503F4
:1030C00003C001E00093D5034091B0040EEC11E081
:1030D0000E94AA52E091F601F091F701E00FF11F72
:1030E000E456FE4F059114910093D6031093D70335
:1030F0004091B0040EEC11E00E94AA52E091F6015A
:10310000F091F701E00FF11FE355FE4F0591149187
:1031100000930204109303044091B0040EEC11E0FC
:103120000E94AA52E091F601F091F701E00FF11F21
:10313000E155FE4F0491009304044091B0040EEC5D
:1031400011E00E94AA52E091F601F091F701E00F20
:10315000F11FE055FE4F0591149100930504109363
:1031600006044091B0040EEC11E00E94AA52E091D6
:10317000F601F091F701E00FF11FEE54FE4F0491BC
:10318000002319F45093070403C001E000930704DF
:103190004091B0040EEC11E00E94AA52E091F601B9
:1031A000F091F701E00FF11FED54FE4F04910093F1
:1031B00008044091B0040EEC11E00E94AA52E09184
:1031C000F601F091F701E00FF11FEC54FE4F05916D
:1031D00014910093090410930A044091B0040EEC7A
:1031E00011E00E94AA52E091F601F091F701E00F80
:1031F000F11FEA54FE4F0491002319F450930B047D
:1032000003C001E000930B044091B0040EEC11E008
:103210000E94AA52E091F601F091F701E00FF11F30
:10322000E05CFE4F059114910093D8031093D903ED
:103230004091B0040EEC11E00E94AA52E091F60118
:10324000F091F701E00FF11FEE5BFE4F0591149135
:103250000093DA031093DB034091B0040EEC11E00D
:103260000E94AA52E091F601F091F701E00FF11FE0
:10327000EC5BFE4F059114910093DC031093DD038A
:103280004091B0040EEC11E00E94AA52E091F601C8
:10329000F091F701E00FF11FEA5BFE4F05911491E9
:1032A0000093DE031093DF034091B0040EEC11E0B5
:1032B0000E94AA52E091F601F091F701E00FF11F90
:1032C000E85BFE4F059114910093E0031093E10336
:1032D0004091B0040EEC11E00E94AA52E091F60178
:1032E000F091F701E00FF11FE65BFE4F059114919D
:1032F0000093E2031093E3034091B0040EEC11E05D
:103300000E94AA52E091F601F091F701E00FF11F3F
:10331000E45BFE4F04910093E4034091B0040EEC93
:1033200011E00E94AA52E091F601F091F701E00F3E
:10333000F11FE35BFE4F059114910093E503109399
:10334000E6034091B0040EEC11E00E94AA52E09115
:10335000F601F091F701E00FF11FE15BFE4F0491E0
:10336000002319F45093E70303C001E00093E7033F
:103370004091B0040EEC11E00E94AA52E091F601D7
:10338000F091F701E00FF11FE05BFE4F0491009315
:10339000E8034091B0040EEC11E00E94AA52E091C3
:1033A000F601F091F701E00FF11FEF5AFE4F059182
:1033B00014910093E9031093EA034091B0040EECDA
:1033C00011E00E94AA52E091F601F091F701E00F9E
:1033D000F11FED5AFE4F0491002319F45093EB03B3
:1033E00003C001E00093EB034091B0040EEC11E048
:1033F0000E94AA52E091F601F091F701E00FF11F4F
:10340000EC5AFE4F04910093EC034091B0040EEC93
:1034100011E00E94AA52E091F601F091F701E00F4D
:10342000F11FEB5AFE4F059114910093ED03109399
:10343000EE034091B0040EEC11E00E94AA52E0911C
:10344000F601F091F701E00FF11FE95AFE4F0491E8
:10345000002319F45093EF0303C001E00093EF033E
:103460004091B0040EEC11E00E94AA52E091F601E6
:10347000F091F701E00FF11FE85AFE4F049100931D
:10348000F0034091B0040EEC11E00E94AA52E091CA
:10349000F601F091F701E00FF11FE75AFE4F059199
:1034A00014910093F1031093F2034091B0040EECD9
:1034B00011E00E94AA52E091F601F091F701E00FAD
:1034C000F11FE55AFE4F0491002319F45093F303C2
:1034D00003C001E00093F3034091B0040EEC11E04F
:1034E0000E94AA52E091F601F091F701E00FF11F5E
:1034F000E45AFE4F04910093F4034091B0040EECA3
:1035000011E00E94AA52E091F601F091F701E00F5C
:10351000F11FE35AFE4F059114910093F5031093A8
:10352000F6034091B0040EEC11E00E94AA52E09123
:10353000F601F091F701E00FF11FE15AFE4F0491FF
:10354000002319F45093F70303C001E00093F7033D
:103550004091B0040EEC11E00E94AA52E091F601F5
:10356000F091F701E00FF11FE05AFE4F0491009334
:10357000F8034091B0040EEC11E00E94AA52E091D1
:10358000F601F091F701E00FF11FEF59FE4F0591A1
:1035900014910093F9031093FA034091B0040EECD8
:1035A00011E00E94AA52E091F601F091F701E00FBC
:1035B000F11FED59FE4F0491002319F45093FB03C2
:1035C00003C001E00093FB034091B0040EEC11E056
:1035D0000E94AA52E091F601F091F701E00FF11F6D
:1035E000EC59FE4F04910093FC034091B0040EECA3
:1035F00011E00E94AA52E091F601F091F701E00F6C
:10360000F11FEB59FE4F059114910093FD031093A8
:10361000FE034091B0040EEC11E00E94AA52E0912A
:10362000F601F091F701E00FF11FE959FE4F049107
:10363000002309F0AACC5093FF03AACC4091B00418
:1036400050E00EEC11E00E94AA52E091F601F091D8
:10365000F701E00FF11FE553FE4F0491013061F4D3
:103660000091B10410E0F801E850FE4F0081009392
:10367000990450939A0408C00091CD041091CE048F
:103680000093990410939A040091AF040230B1F4AE
:103690002091CD043091CE044091B0040EEC11E0A5
:1036A0000E94AA52E091F601F091F701E00FF11F9C
:1036B000E853FE4F0491200F351F30C00091AF0436
:1036C000033081F54091B0040EEC11E00E94AA5243
:1036D000E091F601F091F701E00FF11FE853FE4F82
:1036E000049110E02091CD043091CE04021713070D
:1036F000C8F42091CD043091CE044091B0040EEC7A
:1037000011E00E94AA52E091F601F091F701E00F5A
:10371000F11FE853FE4F0491201B30402093990481
:1037200030939A040091990410919A040093C00474
:103730001093C104089500917304109174040F3F15
:103740002FEF120729F000917304109174040AC03E
:103750000091990410919A04209197043091980453
:10376000020F131F0E94A85008950E948C0F0E9400
:10377000591100E000938B0400938C0400938D0496
:1037800000938E0400938F0400939004009391049F
:10379000009392040093930400939404009397047D
:1037A0000093980400939504009396040093990461
:1037B00000939A0400939B0400939C0400939D043F
:1037C00000939E04E091F601F091F701E75DF24E5F
:1037D000049100939F0408E512E00093A004109365
:1037E000A10400E00093A2040093A3040093A404A6
:1037F0000093A5040093A6040093A7040093A804D3
:103800000093A9040093AA040093AB040093AC04B2
:103810004091B00450E00EEC11E00E94AA52E091F9
:10382000F601F091F701E00FF11FE553FE4F04910F
:10383000023021F003E00093AE0402C05093AE04C6
:103840004091B0040EEC11E00E94AA52E091F60102
:10385000F091F701E00FF11FE953FE4F0491017061
:1038600019F001E00093AF045093B1045093B204F7
:103870005093B3045093B4045093B5045093B604DA
:103880005093B7045093B8045093B9045093BA04BA
:103890005093BE045093C0045093C1045093C2048B
:1038A0005093C3040091C40401790093C40400E25E
:1038B0001CE10093C5041093C60400EF0093C704F5
:1038C0005093C8044091B0040EEC11E00E94AA523B
:1038D000E091F601F091F701E00FF11FE553FE4F83
:1038E0000491083021F5E4ECF4E0008104FF1FC0EE
:1038F0004091B0040EEC11E00E94AA52E091F60152
:10390000F091F701E00FF11FEA53FE4F049100938D
:10391000CC044091B0040EEC11E00E94AA52E09158
:10392000F601F091F701E00FF11FED531EC0409139
:10393000B0040EEC11E00E94AA52E091F601F09161
:10394000F701E00FF11FEB53FE4F04910093CC04FD
:103950004091B0040EEC11E00E94AA52E091F601F1
:10396000F091F701E00FF11FEF53FE4F0591149115
:103970000093CD041093CE0461DE009113030C7FFD
:1039800000931303009116030C7F0093160300911C
:1039900019030C7F0093190300E000935C040E945C
:1039A00066110E94E0130091C904013011F40E94D5
:1039B000BF040895E4ECF4E000810260008300E0BD
:1039C0000093A4040093BE0408958A93802F00916D
:1039D000BF0414E0019FF001E153FB4F0081081781
:1039E000E1F40091BF04019FF001E053FB4F00811F
:1039F00011812091BB043091BC040217130769F4B4
:103A00000091BF0414E0019FF001EE52FB4F0081D2
:103A10001091B004011709F463C00091BF0403952D
:103A20000093BF040091BF04043118F000E000933C
:103A3000BF041091BF0404E00E949F080091BF04DE
:103A400014E0019FF001E153FB4F80830091BB0420
:103A50001091BC042091BF0434E0239FF001E05397
:103A6000FB4F008311830091B0041091BF04139F9A
:103A7000F001EE52FB4F00830091BF04039FF00161
:103A8000E053FB4F11810091BF04075E0E949F0825
:103A90000091BF0414E0019FF001E053FB4F00814F
:103AA000102F0091BF04035D0E949F080091BF0486
:103AB00014E0019FF001E153FB4F10810091BF041E
:103AC0000B5F0E949F080091BF0414E0019FF0016A
:103AD000EE52FB4F10810091BF040F5B0E949F08C4
:103AE00089910895009152030C7F00935203009135
:103AF0004F030C7F00934F0300914C030C7F009306
:103B00004C03009149030C7F009349030091430348
:103B10000C7F00934303009146030C7F0093460300
:103B200000918A04023009F050C0E2E5F3E0008120
:103B300001600083EFE4F3E0008101600083009105
:103B40005A04002339F10091990410919A042091AC
:103B5000C0043091C10436952795369527950217F4
:103B6000130750F12091990430919A040091C004F8
:103B70001091C104000F111F43E050E00E94BC529D
:103B80002017310708F04FC0E1E1F3E003AD016019
:103B900003AF089500911F04053021F000911F0428
:103BA000063031F400810D7F0083008101601BC06D
:103BB00000911F040730B9F5E1E1F3E003AD0160C6
:103BC00003AF00AD016000AF089500918A04033097
:103BD00061F40091970410919804012B21F5E2E51E
:103BE000F3E0008102600083089500918A040530AB
:103BF00069F4E1E1F3E002A9016002AB05A901600B
:103C000005AB0EEE1FEF0E94A850089500918A04A4
:103C1000083049F4E1E1F3E005A9016005AB0EEEDF
:103C20001FEF0E94A8500895BC01E6E6F4E003816E
:103C300000FF70C00091990410919A04209197049C
:103C400030919804020F131F00934D0410934E04FB
:103C500005E00093AA0300914D0410914E040C312D
:103C600022E0120708F051C000914D0410914E045B
:103C7000083621E0120720914D0430914E0410F5D2
:103C80004EE150E000914D0410914E040E94BC5250
:103C90004EE150E00E94AA52201B310B20934F04AA
:103CA0003093500480919704909198044E9600911F
:103CB0004F0410915004801B910B809397049093B4
:103CC000980428C04CE350E000914D0410914E043C
:103CD0000E94BC524CE350E00E94AA52201B310BC0
:103CE00020934F043093500400919704109198044E
:103CF000045C1F4F20914F0430915004021B130BA2
:103D0000009397041093980405C000E00093970473
:103D100000939804CB010895E6E6F4E0018500FFE6
:103D20002BC00091AD04013011F403E005C00091F7
:103D3000AD04033019F401E00093AD040091AD042B
:103D4000033049F4E1E1F3E006850D7F068706853F
:103D50000160068705C000911F030C7F00931F03BD
:103D60000091AD040093A90305E00093AA0310910C
:103D7000AD0403E00E949F0808950895E6E6F4E08C
:103D8000068100FF57C00091AF04002309F44FC023
:103D900005E00093AA030091AF0403950093AF04DC
:103DA0000091AF04043018F001E00093AF040091DB
:103DB000AF04023071F4E1E1F3E0028D0D7F028F78
:103DC000028D0160028F009131030C7F009331035B
:103DD00011C00091AF04033099F400912B030C7FC4
:103DE00000932B03E1E1F3E000A10D7F00A300A10C
:103DF000016000A300912E030C7F00932E03089511
:103E00000091AF040130B1F400912B030C7F0093BB
:103E10002B03009131030C7F00933103E1E1F3E0C8
:103E2000058D0D7F058F058D0160058F08950AE0D2
:103E30000093AA0308950091AF04013029F0009186
:103E4000AF04002309F0B3C04091B00450E00EEC81
:103E500011E00E94AA52E091F601F091F701E00F03
:103E6000F11FE553FE4F0491083009F04FC0E4EC18
:103E7000F4E0008104FF4AC04091B0040EEC11E070
:103E80000E94AA52E091F601F091F701E00FF11FB4
:103E9000E156FE4F059114910093CF031093D00388
:103EA0004091B0040EEC11E00E94AA52E091F6019C
:103EB000F091F701E00FF11FED55FE4F05911491C0
:103EC0000093D3031093D4034091B0040EEC11E09F
:103ED0000E94AA52E091F601F091F701E00FF11F64
:103EE000E654FE4F059114910093050410930604C7
:103EF0004091B0040EEC11E00E94AA52E091F6014C
:103F0000F091F701E00FF11FE25449C04091B00475
:103F10000EEC11E00E94AA52E091F601F091F70137
:103F2000E00FF11FEF56FE4F059114910093CF0360
:103F30001093D0034091B0040EEC11E00E94AA52FD
:103F4000E091F601F091F701E00FF11FEB56FE4F03
:103F5000059114910093D3031093D4034091B004BE
:103F60000EEC11E00E94AA52E091F601F091F701E7
:103F7000E00FF11FE055FE4F0591149100930504E9
:103F8000109306044091B0040EEC11E00E94AA5276
:103F9000E091F601F091F701E00FF11FEC54FE4FB4
:103FA000059114910093090410930A040895009157
:103FB000AF04033009F05BC24091B00450E00EEC56
:103FC00011E00E94AA52E091F601F091F701E00F92
:103FD000F11FE553FE4F0491083009F022C1E4ECD3
:103FE000F4E0008104FF1DC14091B0040EEC11E02B
:103FF0000E94AA52E091F601F091F701E00FF11F43
:10400000EA55FE4F259134914091B0040EEC11E039
:104010000E94AA52E091F601F091F701E00FF11F22
:10402000E156FE4F059114912017310730F540916C
:10403000B0040EEC11E00E94AA52E091F601F0915A
:10404000F701E00FF11FE156FE4F259134914091A9
:10405000B0040EEC11E00E94AA52E091F601F0913A
:10406000F701E00FF11FEA55FE4F05911491201B57
:10407000310B2093CF033093D0034091B0040EEC6A
:1040800011E00E94AA52E091F601F091F701E00FD1
:10409000F11FE855FE4F259134914091B0040EEC8C
:1040A00011E00E94AA52E091F601F091F701E00FB1
:1040B000F11FED55FE4F059114912017310730F592
:1040C0004091B0040EEC11E00E94AA52E091F6017A
:1040D000F091F701E00FF11FED55FE4F259134915E
:1040E0004091B0040EEC11E00E94AA52E091F6015A
:1040F000F091F701E00FF11FE855FE4F0591149183
:10410000201B310B2093D3033093D4034091B00490
:104110000EEC11E00E94AA52E091F601F091F70135
:10412000E00FF11FEA55FE4F259134914091B00404
:104130000EEC11E00E94AA52E091F601F091F70115
:10414000E00FF11FE654FE4F05911491201731073F
:1041500030F54091B0040EEC11E00E94AA52E091BB
:10416000F601F091F701E00FF11FE654FE4F2591A3
:1041700034914091B0040EEC11E00E94AA52E091FB
:10418000F601F091F701E00FF11FEA55FE4F05919E
:104190001491201B310B20930504309306044091A9
:1041A000B0040EEC11E00E94AA52E091F601F091E9
:1041B000F701E00FF11FE855FE4F25913491409132
:1041C000B0040EEC11E00E94AA52E091F601F091C9
:1041D000F701E00FF11FE254FE4F059114912017F3
:1041E000310708F08EC24091B0040EEC11E00E943D
:1041F000AA52E091F601F091F701E00FF11FE254AD
:10420000FE4F259134914091B0040EEC11E00E94D4
:10421000AA52E091F601F091F701E00FF11FE85585
:104220001CC14091B0040EEC11E00E94AA52E09132
:10423000F601F091F701E00FF11FE856FE4F2591CE
:1042400034914091B0040EEC11E00E94AA52E0912A
:10425000F601F091F701E00FF11FEF56FE4F0591C7
:1042600014912017310730F54091B0040EEC11E0A5
:104270000E94AA52E091F601F091F701E00FF11FC0
:10428000EF56FE4F259134914091B0040EEC11E0B1
:104290000E94AA52E091F601F091F701E00FF11FA0
:1042A000E856FE4F05911491201B310B2093CF034C
:1042B0003093D0034091B0040EEC11E00E94AA525A
:1042C000E091F601F091F701E00FF11FE656FE4F85
:1042D000259134914091B0040EEC11E00E94AA5255
:1042E000E091F601F091F701E00FF11FEB56FE4F60
:1042F000059114912017310730F54091B0040EEC70
:1043000011E00E94AA52E091F601F091F701E00F4E
:10431000F11FEB56FE4F259134914091B0040EEC05
:1043200011E00E94AA52E091F601F091F701E00F2E
:10433000F11FE656FE4F05911491201B310B20937F
:10434000D3033093D4034091B0040EEC11E00E94EB
:10435000AA52E091F601F091F701E00FF11FE85643
:10436000FE4F259134914091B0040EEC11E00E9473
:10437000AA52E091F601F091F701E00FF11FE0552C
:10438000FE4F059114912017310730F54091B0048C
:104390000EEC11E00E94AA52E091F601F091F701B3
:1043A000E00FF11FE055FE4F259134914091B0048C
:1043B0000EEC11E00E94AA52E091F601F091F70193
:1043C000E00FF11FE856FE4F05911491201B310BB1
:1043D00020930504309306044091B0040EEC11E0E4
:1043E0000E94AA52E091F601F091F701E00FF11F4F
:1043F000E656FE4F259134914091B0040EEC11E049
:104400000E94AA52E091F601F091F701E00FF11F2E
:10441000EC54FE4F059114912017310708F071C13B
:104420004091B0040EEC11E00E94AA52E091F60116
:10443000F091F701E00FF11FEC54FE4F25913491FC
:104440004091B0040EEC11E00E94AA52E091F601F6
:10445000F091F701E00FF11FE656FE4F0591149120
:10446000201B310B2093090430930A040895009116
:10447000AF04023009F045C14091B00450E00EECA9
:1044800011E00E94AA52E091F601F091F701E00FCD
:10449000F11FE553FE4F0491083009F09AC0E4EC97
:1044A000F4E0008104FF95C04091B0040EEC11E0EF
:1044B0000E94AA52E091F601F091F701E00FF11F7E
:1044C000E156FE4F259134914091B0040EEC11E07D
:1044D0000E94AA52E091F601F091F701E00FF11F5E
:1044E000EA55FE4F05911491200F311F2093CF0301
:1044F0003093D0034091B0040EEC11E00E94AA5218
:10450000E091F601F091F701E00FF11FED55FE4F3C
:10451000259134914091B0040EEC11E00E94AA5212
:10452000E091F601F091F701E00FF11FE855FE4F21
:1045300005911491200F311F2093D3033093D4039E
:104540004091B0040EEC11E00E94AA52E091F601F5
:10455000F091F701E00FF11FE654FE4F25913491E1
:104560004091B0040EEC11E00E94AA52E091F601D5
:10457000F091F701E00FF11FEA55FE4F05911491FC
:10458000200F311F20930504309306044091B0049E
:104590000EEC11E00E94AA52E091F601F091F701B1
:1045A000E00FF11FE254FE4F259134914091B00489
:1045B0000EEC11E00E94AA52E091F601F091F70191
:1045C000E00FF11FE855FE4F05911491200F311FA8
:1045D00049CF4091B0040EEC11E00E94AA52E09144
:1045E000F601F091F701E00FF11FEF56FE4F259114
:1045F00034914091B0040EEC11E00E94AA52E09177
:10460000F601F091F701E00FF11FE856FE4F05911A
:104610001491200F311F2093CF033093D00340918A
:10462000B0040EEC11E00E94AA52E091F601F09164
:10463000F701E00FF11FEB56FE4F259134914091A9
:10464000B0040EEC11E00E94AA52E091F601F09144
:10465000F701E00FF11FE656FE4F05911491200F70
:10466000311F2093D3033093D4034091B0040EEC58
:1046700011E00E94AA52E091F601F091F701E00FDB
:10468000F11FE055FE4F259134914091B0040EEC9E
:1046900011E00E94AA52E091F601F091F701E00FBB
:1046A000F11FE856FE4F05911491200F311F209302
:1046B0000504309306044091B0040EEC11E00E9412
:1046C000AA52E091F601F091F701E00FF11FEC54CE
:1046D000FE4F259134914091B0040EEC11E00E9400
:1046E000AA52E091F601F091F701E00FF11FE656B2
:1046F000FE4F05911491200F311F20930904309330
:104700000A040895E6E6F4E0048501FF1FC0E4EC26
:10471000F4E0008100FD1AC00CE00093AA03E1E17F
:10472000F3E003850D7F0387038501600387E4ECD5
:10473000F4E00081016000830DEE1FEF0E94A8509D
:1047400002E310E0009395041093960408950091FD
:104750008404002399F006E00093AA0300917B05EE
:104760000093B00400E00093970400939804E4ECF5
:10477000F4E000810F7E00830E94B51B0895392F5D
:10478000682FE4ECF4E00081077F008300E00093F1
:104790008404EAE7F5E000810F7E008300917D0547
:1047A0000C7F00937D05E4ECF4E000810B7F008337
:1047B00080E090E016C003E010E0AC010E94AA5235
:1047C000F801EA59FB4F00810C7F00832FEF03E0D3
:1047D00010E00E94AA52F801EA59FB4F218322837C
:1047E0000196893000E0900734F3862F932F0895C7
:1047F0000E94565301E00093D6050E94DC030E94FC
:10480000E945E091F601F091F701E251F34E049190
:104810000093B00403E00E94ED080093AD0403E0B0
:104820000093AE0400E00E94ED08902F01E00E948A
:10483000ED080093BB049093BC0402E00E94ED08D5
:104840000093BD0404E00E94ED080093BF0480E0E3
:1048500090E030C0082F075E0E94ED08B02FA0E066
:10486000082F035D0E94ED08A00F8C01000F111F9F
:10487000000F111FF801E053FB4FA083B183082FF5
:104880000B5F0E94ED089C01220F331F220F331F84
:10489000F901E153FB4F0083082F0F5B0E94ED08E5
:1048A0009C01220F331F220F331FF901EE52FB4FE1
:1048B00000830196833100E0900764F200911303B6
:1048C0000C7F00931303009116030C7F00931603D3
:1048D000009119030C7F0093190300911C030C7FB6
:1048E00000931C030091AD040093A90301E0009321
:1048F000AA03E4ECF4E000810E7F00830EE110E0F7
:104900000093D4051093D5050E941E1BE091F6017B
:10491000F091F701E551F34E0491023011F401E0FA
:1049200001C000E000930303E091F601F091F7016C
:10493000E451F34E0491023011F401E001C000E0B3
:1049400000930803E091F601F091F701E351F34E73
:104950000491023011F401E001C000E000930D0366
:1049600000E00093050300930A0300930F030093F4
:10497000060300930B0300931003E4ECF4E00081C2
:104980000F7E00830E94B51B02E007BF01E0009389
:104990005604E4E00C945C5302E00093AA03EFDEBB
:1049A0000E9444500E947A500091C904013011F4D1
:1049B0000E94BF0400E000935A040895E0DE0E94C4
:1049C000AF4A0EE110E00093D4051093D50501E045
:1049D0000093D60500917B050093B004009113036A
:1049E0000C7F00931303009116030C7F00931603B2
:1049F000009119030C7F0093190300911C030C7F95
:104A000000931C03E4ECF4E000810E7F00830E941D
:104A10001E1B0091AD040093A90301E00093AA03BB
:104A2000E4ECF4E000810F7E00830E94B51B01E0FE
:104A300000935604089500918F04109190042091E2
:104A4000C7043091C8040217130788F000E010E093
:104A500000938F04009390040091BA04039500938F
:104A6000BA040091BA04043010F01093BA04009113
:104A7000BA04005049F00A9529F00A9529F00A95E0
:104A800041F011C002E006C001E00093870400EF8E
:104A900004C003E0009387040AE010E00093C70419
:104AA0001093C80408950091C904013011F40E94C4
:104AB000BF0401E00093870400E00093C704009363
:104AC000C804089500E00093430400934404009355
:104AD0004504009346040093470400934804009360
:104AE000490400934A0400934B0400934C04009142
:104AF000C904013011F40E94AB04089507E000934B
:104B0000AA03009119030C7F009319030091160367
:104B10000C7F00931603009113030C7F0093130383
:104B200000911C030C7F00931C03E1E1F3E0068578
:104B30000D7F068706850160068703E00093A903C1
:104B40000091B40403950093B4040895E4ECF4E0F8
:104B5000008106FF0FC000810F7B00830091B50428
:104B600003950093B5040091B504023018F000E0FD
:104B70000093B5040091B504002329F40E947A50F3
:104B80000E94445008C00091B504013021F40E94F5
:104B900091500E945A50E4ECF4E0008100620083DE
:104BA00008950E947A500E944450E4ECF4E00081A1
:104BB000006200830895E4ECF4E000810062008369
:104BC00008950E9491500E945A500AE00093AA034F
:104BD000E4ECF4E000810062008308950E947A50C2
:104BE0000E944450009105030093570400910A036A
:104BF00000935804E4ECF4E0008106FF0FC000814C
:104C00000F7B00830091B50403950093B5040091D8
:104C1000B504023018F000E00093B5040091570489
:104C2000002339F400915804002319F40081006234
:104C300069C000915704002329F400915804013001
:104C400009F444C000915704002329F4009158044A
:104C5000023009F44FC000915704013021F4009153
:104C600058040023C9F000915704013049F4009121
:104C70005804013029F40091B504002319F50CC043
:104C800000915704013051F400915804023031F47E
:104C90000091B504002351F50AEF2DC0009157048F
:104CA000023021F4009158040023F1F000915704E0
:104CB000023071F400915804013051F40091B504B0
:104CC000002391F00091B5040130C1F40CEF13C042
:104CD00000915704023091F400915804023071F4AD
:104CE0000091B504002311F409EF05C00091B5044B
:104CF000013021F40BEF1FEF0E94A850E4ECF4E028
:104D000000810F7D008308950091D7050130A1F443
:104D100008EF1FEF0E94A850E1E1F3E002810E7F4F
:104D2000028302810260028301E000938504E4ECC7
:104D3000F4E000810F7D10C007EF1FEF0E94A85024
:104D400000E000938504009113030C7F009313038C
:104D5000E4ECF4E000810062008308950DEF1FEFA2
:104D60000E94A850E4ECF4E000810F7D008300E095
:104D70000093B7040091BF040093B8040091B604F7
:104D8000002329F40091B40403950093B40408951A
:104D9000E4ECF4E00081006200830091B60400239B
:104DA000D1F40091B70403950093B7040091B704C0
:104DB000043118F000E00093B7040091B804002318
:104DC00021F00091B8040A9501C003E10093B804F2
:104DD00001E00093B6040895E4ECF4E000810F7D57
:104DE00000830EEE1FEF0E94A85003E00093B6046C
:104DF0000091B40403950093B4040895E4ECF4E046
:104E000000810F7D00830091B604002309F4D6DDF4
:104E1000089558DE0091B404E0E8F6E00C941553D0
:104E20006DDE03C193DE01C1BCDEFFC0C4DEFDC088
:104E3000C8DEFBC0D3DEEEC000EF1FEF0E94A8501B
:104E400003E032C00EE10093B604D5C000EF1FEFBF
:104E50000E94A85003E000938704E4ECF4E0008192
:104E60000F7D00830091CB03053B08F459C00AE095
:104E7000C5C0E4ECF4E000810F7D008301E0009305
:104E800087040FEF5CC001EF1FEF0E94A85003E002
:104E90000093AA03009387040093B6046AC005EF49
:104EA0001FEF0E94A85001E000938704E4ECF4E0B7
:104EB00000810F7D008334C005EF1FEF0E94A850D2
:104EC00001E005C00FEE1FEF0E94A85002E0009322
:104ED00087044FC003EF1FEF0E94A85002E0009329
:104EE000870406E000938604E4ECF4E000810062AD
:104EF00000830EE190C004EF1FEF0E94A85002E073
:104F00000093870401E000938604E4ECF4E0008160
:104F10000F7D00830091CB03083710F401E16EC0D0
:104F20000091B604002309F080C065C0E4ECF4E011
:104F300000810F7D008301E0009387040EEF1FEFD7
:104F40000E94A85072C006EF1FEF0E94A85003E015
:104F50000093AA0302E00093870401E008C002EF77
:104F60001FEF0E94A85002E00093870405E0009321
:104F70008604E4ECF4E00081006223C001E00093C9
:104F8000870400938604C0DE45C001E000938504D9
:104F9000E091F601F091F701E651F34E04910071B2
:104FA00031F00091B40403950093B40415C00AE1F4
:104FB00025C004EE1FEF0E94A850E4ECF4E000814D
:104FC0000F7D008332C005EE1FEF0E94A850E4EC75
:104FD000F4E000810062008305E01DC003EE1FEFD6
:104FE0000E94A850E4ECF4E000810F7D0083009162
:104FF000B6040023D1F40091B40403950093B404E3
:1050000014C002EE1FEF0E94A850E4ECF4E000810F
:105010000062008303E00093B60407C09FDE05C072
:10502000B7DE03C0D9DE01C0E9DE0091D10500235F
:1050300019F40E94591105C000E00093D4050093B3
:10504000D505E6E6F4E0008100FF08C0E1E1F3E009
:1050500002810D7F0283028101600283E4ECF4E0AF
:10506000008105FF0EC00091D105013051F400917F
:10507000B40403950093B40400E00093B50405E084
:1050800001C00AE00093AA030895E199FECF1FBB77
:105090000EBBE09A0DB30895E199FECF1FBB0EBB86
:1050A0002DBBE29AE19A08959A938A9300915D0448
:1050B000E2ECF6E00C94155300914006033011F534
:1050C000009141060130F1F4009143060E3FD1F406
:1050D00003E000933C060FEF009340062091420648
:1050E00000ED17E0D9DF0091410600933D060091E5
:1050F0003C0600933E0600ED17E0C7DF00933F0635
:105100000E94A65100914006013009F0E2C600ED70
:1051100017E0BBDF083F01E000933C060FEF009370
:1051200040060091410609F5013011F400E00BC082
:1051300000914106023011F401E005C000914106E2
:10514000033019F402E0009340040E945A500E9478
:1051500091500091410600933D0600913C0600935A
:105160003E0600ED17E091DF44C600933D06009136
:105170003C0600933E060E94A651ABC60091400635
:10518000023009F0A6C602E000933C060FEF009340
:1051900040060E947A500E944450009141060093BC
:1051A0003D0600913C0600933E0604E622C60091AF
:1051B0004006033009F08DC603E000933C060FEF74
:1051C000009340060091410600933D0600913C0685
:1051D00000933E0608EC00933F0603E02DC60091C5
:1051E0004006043009F075C600914106013009F00F
:1051F00070C600913B04039500933B0400913B046F
:105200000A3190F000E000933B0400913C040395C8
:1052100000933C0400913C04063030F000E0009321
:105220003C0401E000933D040091CB03053B08F4EE
:105230005BC300913D04002309F056C304E00093D2
:105240003C060FEF009340060091410600933D0697
:1052500000913C0600933E0601E000933F0604E007
:1052600041C000914006043009F033C60091410668
:10527000023009F02EC600913B04039500933B04D5
:1052800000913B040A3190F000E000933B04009150
:105290003C04039500933C0400913C040B3030F037
:1052A00000E000933C0401E000933D040091CB0337
:1052B000043608F019C300913D04002309F014C31B
:1052C00004E000933C060FEF009340060091410676
:1052D00000933D0600913C0600933E0602E00093D9
:1052E0003F0605E000935D040E94A65105E000938F
:1052F000AA0313C300914006043009F0EAC50091E7
:105300004106033009F0E5C500913B040395009385
:105310003B0400913B040A31C8F000E000933B04D9
:1053200000913C04039500933C0400913C0406303A
:1053300068F001E000933F0400913C04093030F034
:1053400000E000933C0401E000933D0400913F0421
:10535000002309F43DC400913D04002309F038C442
:1053600004E000933C060FEF0093400600914106D5
:1053700000933D0600913C0600933E060091CB034E
:1053800000933F0606E000935D0405E00093AA0346
:1053900036C400914006053009F09BC505E0009336
:1053A0003C060FEF0093400621E00CC00091400640
:1053B000063009F08EC506E000933C060FEF00931F
:1053C000400620E004E511E009C5009140060730E1
:1053D00009F07FC507E000933C060FEF00934006FD
:1053E00021E004E511E00E947B0B21E00CC000915C
:1053F0004006083009F06DC508E000933C060FEF49
:105400000093400620E000EC11E0E8C40091400663
:10541000093009F05EC509E000933C060FEF0093E8
:10542000400600914004002321E009F02CC226C26E
:10543000009140060A3009F04CC500913B040395E9
:1054400000933B0400913B040A31F0F000E000932C
:105450003B0400913C04039500933C0400913C0400
:10546000063090F000E000933C0400914104039565
:1054700000934104009141040D3330F000E00093AB
:10548000410401E000933E0400914004013011F416
:1054900004E005C000914004023019F403E00093D9
:1054A000390400914004002311F50AE000933C0602
:1054B0000FEF009340060091410600933D060091D6
:1054C0003C0600933E0608EF00933F060E94A6515B
:1054D00000915D04039500935D0400E000933B049C
:1054E00000933C040093410400933E04A9C400913E
:1054F0003F06109138040117B1F00AE000933C0612
:105500000091410600933D0600913C0600933E0643
:105510000091380400933F060E94A65100913A047E
:10552000039500933A0400913A041091390401174D
:10553000B8F100913E04002399F5009140060093D4
:105540003C060091410600933D0600913C06009305
:105550003E0600913A04039500933A048091390481
:1055600090E00A9600913A0410E0801791070CF041
:10557000B0C408EF00933F0610933B0410933C0423
:105580001093410400915D04039500935D040E9413
:10559000A6510FEF0093400605E00093AA0322C036
:1055A00000913E04002309F494C400914006009346
:1055B0003C060FEF009340060091410600933D0624
:1055C00000913C0600933E060FEF00933F0600E07B
:1055D00000933B0400933C040093410400933E0479
:1055E0000E94A65100E000933A0473C40091400663
:1055F0000B3009F06EC400913B04039500933B040B
:1056000000913B040A31F0F000E000933B0400916C
:105610003C04039500933C0400913C04063090F058
:1056200000E000933C040091410403950093410481
:10563000009141040D3330F000E00093410401E09B
:1056400000933E0400913F0610917B050117B1F0D5
:105650000BE000933C060091410600933D0600914B
:105660003C0600933E0600917B0500933F060E9496
:10567000A651009142040395009342040091420414
:10568000003190F100913E04002371F50091400635
:1056900000933C060091410600933D0600913C06B4
:1056A00000933E060091420403950093420400914A
:1056B00042040B3108F40DC408EF00933F0600E0EC
:1056C00000933B0400933C040093410400915D046B
:1056D000039500935D040E94A6510FEF00934006CE
:1056E00000E000934204ACC300913E04002309F49F
:1056F000F0C30091400600933C060FEF0093400674
:105700000091410600933D0600913C0600933E0641
:105710000FEF00933F0600E000933B0400933C042E
:105720000093410400933E040E94A65100E00093C0
:105730004204CFC3009140060C3009F0CAC30CE00C
:1057400000933C060FEF00934006009140040023B5
:1057500020E029F406E611E00E947B0B20E093C0D4
:10576000009140060D3009F0B4C3009141060130AC
:1057700009F0AFC30DE000933C060FEF0093400625
:105780000E9491500E945A500091410600933D069C
:1057900000913C0600933E0601E02BC300914006B9
:1057A0000D3009F096C300914106023009F091C313
:1057B0000DE000933C060FEF009340060E947A50E4
:1057C0000E9444500091410600933D0600913C0622
:1057D00000933E0602E00DC3009140060D3009F033
:1057E00078C300914106033009F073C30DE00093C4
:1057F0003C060FEF0093400601E00093530302E0E4
:105800000093580303E000935D03E1E1F3E00281BC
:105810000D7F028302810160028300850D7F008776
:1058200000850160008705810D7F0583058101608A
:10583000058306850D7F068706850160068703853B
:105840000D7F038703850160038700914106009364
:105850003D0600913C0600933E0603E000933F06A0
:1058600001E1EAC2009140060E3009F032C30EE0B9
:1058700000933C060FEF0093400621E006E611E09E
:105880000E947B0B21E008E711E0A8C200914006CE
:105890000F3009F01EC300914106013009F019C311
:1058A000009105030093570400913B040395009376
:1058B0003B0400913B040A3190F000E000933B046C
:1058C00000913C04039500933C0400913C040B3090
:1058D00030F000E000933C0401E000933D040091AF
:1058E0005704013009F4C1C100913D04002309F4BB
:1058F000F0C20091400600933C060FEF0093400673
:105900000091410600933D0600913C0600933E063F
:105910000FEF00933F060E94A65100E000933C0465
:1059200000933B0400933D04D4C2009140060F3025
:1059300009F0CFC200914106023009F0CAC20091BD
:1059400005030093570400913B04039500933B0427
:1059500000913B040A3190F000E000933B04009179
:105960003C04039500933C0400913C040B3030F060
:1059700000E000933C0401E000933D0400915704D3
:10598000CAC0009140060F3009F0A3C20091410641
:10599000033009F09EC200913B04039500933B0441
:1059A00000913B040A31C8F000E000933B040091F1
:1059B0003C04039500933C0400913C04043068F0DF
:1059C00001E000933F0400913C040E3030F000E011
:1059D00000933C0401E000933D0400913F04002348
:1059E000E9F000913D040023C9F4009188050051BD
:1059F0000133A0F40FE000933C060FEF0093400644
:105A00000091410600933D0600913C0600933E063E
:105A10000091880500933F0605E1CCC000913D044C
:105A2000002309F456C20FE000933C060FEF0093E9
:105A300040060091410600933D0600913C0600930C
:105A40003E060091880500933F060E94A65100E0A3
:105A500000933C0400933B0400933D0400933F04F7
:105A60000DC200914006003109F033C20091410699
:105A7000013009F02EC200910A03009358040091EE
:105A80003B04039500933B0400913B040A3190F0E2
:105A900000E000933B0400913C04039500933C0418
:105AA00000913C040B3030F000E000933C0401E036
:105AB00000933D0400915804013009F015CFD5C082
:105AC00000914006003109F004C200914106023005
:105AD00009F0FFC100910A030093580400913B04B0
