:100000000C9417070C9434070C9434070C943407A1
:100010000C9434070C94C8350C9434070C943407B2
:100020000C9434070C94A2500C9427380C94340789
:100030000C9434070C9409370C9434070C9434074F
:100040000C9434070C9434070C9434070C94340744
:100050000C94FC0A0C9434070C94680A0C94340732
:100060000C9434070C9434070C9434070C94340724
:100070000C940B3B0C9434070C943238AE414B502B
:100080004B504B50B541ED41F4419A42C9421A439D
:1000900022434B5040436543B6435644794496440B
:1000A000CD44D444E74448455A454B504B504B50FF
:1000B0004B504B504B504B50EF4466456E4580457E
:1000C000BA45FD4505464B504B504B50124617461E
:1000D00034464B504B504B504B504B504B50F744C9
:1000E0004B501A4532454B504B504B504B504B5098
:1000F0004B504B504B504B504B504B504B504B5028
:100100004B504B504B50BE4305444F444B504B500B
:100110004B504B504B504B504B504B504B504B5007
:100120004B504B504B504B504B504B504B504B50F7
:100130004B504B504B504B504B504B504B504B50E7
:100140004B50CA415B420C43A8434146C560D7604F
:10015000E960FB600D611F61316143615561676159
:1001600079618B619D61AF61C161D361E561F761C7
:1001700009621B622D623B6249625762656273626B
:1001800081628F629D62AB62B962C762D562E362CF
:10019000F162FF620D631B6329633763D842F00A83
:1001A000050000000580F00A0400000000000000C7
:1001B000000000000000000000000000F00000004F
:1001C0000A40F00A000000000A40F00A00000000A7
:1001D000000000000000000000000000008000009F
:1001E000020000002880F00A7600000000000000F5
:1001F0000000000000000000000000004640F00A7F
:10020000050000000480F00A050000000000000066
:100210000000000000000000000000001E41F00A85
:10022000050000000480F00A050000000000000046
:100230000000000000000000000000003840F00A4C
:10024000050000003880F00A0500000000000000F2
:100250000000000000000000000000007D40F00AE7
:10026000050000000480F00A050000000000000006
:10027000000000000000000000000000D842B80BA1
:10028000050000000580F00A0400000000000000E6
:10029000000000000000000000000000D842B80B81
:1002A000050000000580F00A0400000000000000C6
:1002B000000000000000000000000000D8424006DE
:1002C000050000000580400604000000000000005A
:1002D000000000000000000000000000D842980864
:1002E00005000000058098080400000000000000E0
:1002F0000000000000000000000000007840DC0565
:1003000004000000000000000000000000000000E9
:100310000000000000000000000000009640DE0D1C
:100320000540DC05000000000000000000000000A7
:100330000000000000000000000000009680DE0DBC
:100340000580DC0500000000000000000000000047
:10035000000000000000000000000000D842FC087F
:10036000050000000580FC080400000000000000FB
:10037000000000000000000000000000987A800CDF
:10038000050000000580F00A0400000000000000E5
:100390000000000000000000000000006841B80BF1
:1003A00064441C0C050000000580F00A04000000F5
:1003B0005A421C0C0000000000000000D842540B00
:1003C000050000000580F00A0400000000000000A5
:1003D0000000000000000000000000001E00F00A05
:1003E0000480F00A0000000000000000000000008F
:1003F00000000000000000000000000014000000E9
:100400000540F00A140000000580F00A000000001A
:100410000000000000000000000000008483DE0DEA
:100420000580DC0500000000000000000000000066
:100430000000000000000000000000001E0000009E
:100440000480F00A0000000000000000000000002E
:100450000000000000000000000000006841B80B30
:100460006444B80B050000000580F00A0400000099
:100470005A421C0C000000000000000098BA98BA14
:10048000983A983A0887F0000200D48210000000E1
:1004900000000000000000000200C8851200568223
:1004A0000200000000000000D00700000000000073
:1004B0000000000000000000530057005B005F00D8
:1004C000630066006B006F00730078007C008100A1
:1004D00086008A008F0094009A009F00A400AA0062
:1004E000AF00B500BB00C100C700CD00D300D900EC
:1004F000DF00E600EC00F300F900000106010D0149
:1005000014011A01210128012F0136013C01430188
:100510004A01510157015E0165016C0173017901C6
:10052000800186018D0194019A01A001A701AD010E
:10053000B301BA01C001C601CC01D201D701DD016E
:10054000E301E801EE01F301F801FE0103020802F4
:100550000D02120217021B022002250229022D029F
:10056000320236023A023E02420246024A024D027C
:100570005102540258025B025F0262026502680285
:100580006C026E027102740277027A027C027F02B0
:1005900081028402860289028B028D028F029202FE
:1005A0009402960298029A029C029D029F02A10266
:1005B000A302A402530057005B005F0063006600C3
:1005C0006B006F00730078007C00810086008A0059
:1005D0008F0094009A009F00A400AA00AF00B5000D
:1005E000BB00C100C700CD00D300D900DF00E6008A
:1005F000EC00F300F900000106010D0114011A01DD
:10060000210128012F0136013C0143014A0151011A
:1006100057015E0165016C0173017901800186015A
:100620008D0194019A01A001A701AD01B301BA01A6
:10063000C001C601CC01D201D701DD01E301E8010F
:10064000EE01F301F801FE01030208020D0212029D
:1006500017021B022002250229022D023202360255
:100660003A023E02420246024A024D02510254023E
:1006700058025B025F026202650268026C026E024F
:100680007102740277027A027C027F028102840284
:10069000860289028B028D028F02920294029602D8
:1006A00098029A029C029D029F02A102A302A40248
:1006B0008008CC05200884402008000020080000A5
:1006C0002008000095093C008149201C8008CC05C9
:1006D0004008844040080000400800004008000036
:1006E00095093C008149201C8708CC052708944EB9
:1006F00020080000200800002008000095093C00A8
:100700008149201C9008340850082C4C40080000F7
:10071000400800004008000095093C008149201C69
:100720008708CC054708944E4008000040080000A8
:100730004008000095093C008149201CEB09780025
:10074000EC080807EB087C00ED08401AE008000000
:10075000F5093C00E14900008908CC0549089403EB
:100760004A081059400800004008000095093C0064
:100770008149201CE0092C01E0090000E00900008B
:10078000E0090000E0090000E0092C01E149201C1B
:100790008008E60240085A35400800004008000082
:1007A0004008000095093C008149201C8008CC05C8
:1007B0004008844040080000400800004008000055
:1007C00095093C008149201C8008CC054008944EC6
:1007D00040080000400800004008000095093C0067
:1007E0008149201C8008CC054008944E4008000038
:1007F000400800004008000095093C008149201C89
:100800008008CC05400884404008000040080000F3
:100810004008000095093C008149201C8408DB1336
:100820004408F82540080000400800004008000087
:100830009509F0008149201C8008E6024008623CCE
:1008400040080000400800004008000095093C00F6
:100850008149201CE008E8FDE0080000E0080000F5
:10086000E0080000E0080000F5093C00E149201C18
:100870008000CC05200084402008000020080000F3
:100880002008000095093C008149201C8000CC050F
:10089000400084404008000040080000400800007C
:1008A00095093C008149201C8700CC0527001C309D
:1008B00020080000200800002008000095093C00E6
:1008C0008149201C900434085004B42D40080000D5
:1008D000400800004008000095093C008149201CA8
:1008E0008700CC0547001C3040080000400800008D
:1008F0004008000095093C008149201C8000E60268
:1009000040005A3540080000400800004008000040
:1009100095093C008149201C8000CC0540008440A2
:1009200040080000400800004008000095093C0015
:100930008149201C8000CC054000944E40080000F6
:10094000400800004008000095093C008149201C37
:100950008000CC054000944E400800004008000094
:100960004008000095093C008149201C8000CC050E
:10097000400084404008000040080000400800009B
:1009800095093C008149201C3B4B7C98AF92F00AB2
:1009900032756E69647832FF22325F738223554B61
:1009A000464138100A38100A3F080A3F080A3F0833
:1009B0000A2020003F080A0000003E040A3F040A03
:1009C0003E080A3E080A3F040A38080A20200A00A6
:1009D000000038100A38100A3F080A3F080A3F088A
:1009E0000A3E040A3F040A3E080A3E080A3F040A77
:1009F00002000200020002000200020002000200E7
:100A000008000300080003000A0007000A000700AE
:100A10002400180024001800020002000200020056
:100A20000A0007000A00070002000200020002009C
:100A300003000700030007001E0014001E0014003E
:100A40000F000A000F000A000A0007000A00070052
:100A50000C0008000C0008001E0014001E0014000A
:100A6000030007000300070002000200020002006A
:100A70000200020002000200020002000200020066
:100A800008000300080003000A0007000A0007002E
:100A900024001800240018000300070003000700CA
:100AA0001E0014001E0014000F000A000F000A00B0
:100AB0000A0007000A0007000C0008000C000800EC
:100AC0000200020002000200020002000200020016
:100AD00008000300080003000700060003000300ED
:100AE0002400180024001800020002000200020086
:100AF0000A0007000A0007000200020002000200CC
:100B000003000700030007001E0014001E0014006D
:100B10000F000A000F000A000A0007000A00070081
:100B20000C0008000C0008001E0014001E00140039
:100B30000300070003000700020002000200020099
:100B40000200020002000200020002000200020095
:100B50000800030008000300040006000200030070
:100B600024001800240018000300070003000700F9
:100B70001E0014001E0014000F000A000F000A00DF
:100B80000A0007000A0007000C0008000C0008001B
:100B9000B301B3017301B301B3017301D701D701ED
:100BA0009A01D701D7019A01D701D7019A015E01B5
:100BB0005E014A01D701D7019A01B301B301730164
:100BC000B301B3017301D701D7019A01D701D7014E
:100BD0009A01D701D7019A01D701D7019A01E30100
:100BE000E3019A01B301B3017301B301B3017301CE
:100BF000EE01F8017301EE01F80173010302200216
:100C00009A01030220029A01030220029A010302C0
:100C100017027301030217029A01E301F3019A011B
:100C2000C601DD019A01170220029A0187059B0483
:100C300001FF7D04960601FFAF12B90800FFA01A5C
:100C4000AA1100FFAF48B93000FF9604AF1201FFB0
:100C5000AF22B91500FF64047D1201FF8C0A9610C3
:100C600001FFB946BE2800FFAF1AB91000FFAF144C
:100C7000B90C00FFAF18B91000FFB95ABE4600FF0B
:100C80009606AF0F01FF64047D1201FF87059B04E8
:100C900001FF7D04960601FFAF12B90800FFA01AFC
:100CA000AA1100FFAF48B93000FF8C0A961001FF6F
:100CB000B946BE2800FFAF1AB91000FFAF14B90C37
:100CC00000FFAF18B91000FF87059B0401FF7D04EA
:100CD000960601FFAF12B90800FF960F9B0D00FFAB
:100CE000AF48B93000FF9604AF1201FFAF22B9152B
:100CF00000FF64047D1201FF8C0A961001FFB946C3
:100D0000BE2800FFAF1AB91000FFAF14B90C00FFE6
:100D1000AF18B91000FFB95ABE4600FF9606AF0FD4
:100D200001FF64047D1201FF87059B0401FF7D0420
:100D3000960601FFAF12B90800FF5A09460D00FFE1
:100D4000AF48B93000FF8C0A961001FFB946BE28A3
:100D500000FFAF1AB91000FFAF14B90C00FFAF18B5
:100D6000B91000FF000099AADD058F96D1078F8C7E
:100D7000B90B8F8C750E8F8295118C6EA9168C6EA7
:100D800000008FA521038F78B1048A6E09078A6459
:100D90006109885F810C885AA10F885A0000B2C38C
:100DA0005902ADBEB104ADBE0907ADB461099E964E
:100DB000810C8F6EA10F8F64000099AADD058F96BC
:100DC000D1078F8CB90B8F8C750E8F8295118C6E1D
:100DD000A9168C6E00008FA521038F78B1048A6E4E
:100DE0000907872D6109872D810C8728A10F872886
:100DF0000000B2C35902ADBEB104ADBE0907ADB427
:100E000061099E96810C8F6EA10F8F640000FFFF19
:100E100000FF0000FFFF00FF0000FFFF00FFB41411
:100E20001400F8110F00D80E0A000000050011246C
:100E30001FBECFEFD0E1DEBFCDBF11E0A0E0B1E03B
:100E4000E2EAFFED02C005900D92A63BB107D9F78B
:100E500017E0A6EBB1E001C01D92A73BB107E1F797
:100E60000E94B2690C94CF6F0C94000088E781B99E
:100E700085E184B98CEF87B98AE38AB980E880BFBD
:100E8000089580E185BF88E781B912B81092D20534
:100E900085E184B915B810922E028CEF87B980EEE7
:100EA00088B98093C8058AE38AB99AE09BB9909380
:100EB00024021092C50029E12093C40082E28093AD
:100EC000C00088E18093C10086E08093C2008093D7
:100ED000CD008DE68093CC0080E28093C80088E04E
:100EE0008093C9008EE88093CA0080E680937C00DE
:100EF00084E880937A0010927B0010928000909397
:100F0000810088E092E59093890080938800109298
:100F10006F0092E09093B00084E08093B100209342
:100F2000B3009093700080E880BF089590914407CB
:100F3000E4E8F4E0E90FF11D808380914407E0E5E7
:100F4000F2E0E80FF11D608380914407EAECF6E0DF
:100F5000E80FF11D4083809144078F5F8093440721
:100F600080914407823311F4109244079091440712
:100F700080915D04981759F480915D048F5F809390
:100F80005D0480915D04823311F410925D04089534
:100F900090910006EEE6F6E0E90FF11D8083809166
:100FA0000006EFEFF2E0E80FF11D6083809100068C
:100FB0008F5F8093000680910006823311F41092B7
:100FC0000006909100068091A303981759F4809130
:100FD000A3038F5F8093A3038091A303823311F453
:100FE0001092A3030895EF92FF920F931F9353E083
:100FF0005093620781E48093CA0488EE93E0909353
:10100000BE048093BD0484E68093330283E090E0C5
:1010100090932D0280932C0241E04093520710924E
:1010200057071092560788EC90E09093EC0180935C
:10103000EB011092440710925D041092000610928A
:10104000A3031092B5051092070710925206109252
:10105000CB0210924D071092D50150930C02409391
:10106000B40780910C028093D6021092DE01109298
:10107000DD016CE977E0FB01208106E615E0F8016F
:1010800030811092C20610920306109261071092EE
:101090000C071092E4028CE390E09093120280938C
:1010A00011021092E2041092E104EAE8F3E0808178
:1010B000806440938B038E7F80831092BA061092D7
:1010C000B90680E4809340058093BE051092C30664
:1010D00080E090E0A0E0B0E08093840290938502ED
:1010E000A0938602B09387021092C6051092C505A0
:1010F0008FEF9FEF9093D3048093D2042570FB0170
:1011000020833973F80130831092650710926905C6
:1011100010927703ABEAB3E09C919F709C93EAED49
:10112000F2E08081109216061092C90280788083C6
:10113000109260031092A10710927203109219028C
:101140001092A5071092F30310925D0750935E046E
:101150008091190286618093190282E080931A06B9
:101160008091A50786608093A5071092CC0283E248
:101170008093450390619C9388E78093B905109212
:10118000060710924407109200061092B5051092BF
:101190005D041092A3031092070780E090E028E618
:1011A00037E0F901E80FF91F1082019683319105AC
:1011B000C1F70F2EFDEFEF2EF5E0FF2EF02DF7011A
:1011C0008081877F808310923503E5EEF5E0808192
:1011D0008F778083EDEAF3E030811092CD02109298
:1011E0007104109270041092C8021092C7021092FB
:1011F000C0041092BF0410923A031092390388E899
:1012000093E190938C0280938B02AFE3B3E02C9137
:101210002B7F22601092E3021092E2021092B3033D
:101220001092BC0410926A04109269041092110783
:10123000822F877F8C9310923F041092AF031092FD
:10124000D8041092D7041092DA051092D9051092A2
:10125000410410924004109262041092610442EE24
:1012600054E05093C1054093C0058EEE92E09093F8
:10127000E1018093E0013A7F3860308310920B02E5
:1012800010920A0280ED97E090938203809381038D
:1012900010929C03109240031092C50110920B070C
:1012A00010920A071092170610922C0710922B0723
:1012B00050931F0640931E06109282028091820274
:1012C0008093EE0110926C0410929002EEE7F4E02D
:1012D00080818F778083EBE2F0E080818061808382
:1012E00080818F7D808381E08093D902EAECF0E0F9
:1012F0008081886080831092C3041092C20484E5C8
:10130000809324041092AE03EAE8F3E080818F7E9C
:1013100080831092C5041092D1021092740310922F
:101320007303109261031092450527732C9384E890
:1013300093E0909366048093650410922B021092C0
:101340002A0210921F0210921E0202E117E0F80119
:10135000208124608CED95E09093DF048093DE047F
:10136000277F20838CE98093A6036091A6038FE1F9
:1013700041E00E94C8078EE591E09093BF038093FF
:10138000BE038AEA90E09093260480932504F80136
:1013900080818F7D808310928B031092A40710921E
:1013A000A307E4EDF5E080818E7F8083F7018081E3
:1013B0008D7E80831F910F91FF90EF900895909103
:1013C000B505ECEEF4E0E90FF11D80838091B505E1
:1013D000E1E9F2E0E80FF11D60838091B5058F5FD0
:1013E0008093B5058091B505823311F41092B5054F
:1013F0009091B50580910707981759F480910707D8
:101400008F5F8093070780910707823311F4109252
:101410000707089590915206E3E1F2E0E90FF11D0C
:10142000808380915206E0E9F7E0E80FF11D6083C8
:10143000809152068F5F80935206809152068630CB
:1014400011F410925206909152068091CB02981797
:1014500059F48091CB028F5F8093CB028091CB02B5
:10146000863011F41092CB020895982F80919C073A
:1014700081FD2DC090931D061092200280911D06C3
:101480008093C600609336031092040740936A0667
:1014900080911D068093F8029091F80280913603A6
:1014A000890F8093F8028091F802840F8093F802EC
:1014B0008091F80280958093F802ECE9F7E0808152
:1014C00082688083E1ECF0E080818064808308950D
:1014D0001F920F920FB60F9211248F93AF93BF9369
:1014E000EF93FF93809120028F5F80932002809181
:1014F0002002853008F455C010922002A1ECB0E023
:101500008C918F7B8C9310925A06ECE9F7E08081E6
:101510008E7F80838C9180688C9380911D068330B0
:1015200081F582E08093CB0480818F7A8083E6E628
:10153000F5E080818F778083809136038A3429F4A7
:10154000ECE9F7E08081806180838091360380350B
:1015500029F4ECE9F7E08081806480838091360390
:10156000863629F4E6E6F5E0808180688083809104
:1015700036038736B9F5E6E6F5E08081806880833A
:1015800031C080911D06823021F481E08093CB042C
:1015900029C080911D06833229F582E08093CB0417
:1015A00021C080912002823071F0833018F48130A4
:1015B00029F406C0833051F0843059F080E00BC02C
:1015C0008091040708C08091360305C080916A06A7
:1015D00002C08091F8028093C600E1ECF0E08081C7
:1015E00080648083FF91EF91BF91AF918F910F90B5
:1015F0000FBE0F901F9018951F920F920FB60F926B
:1016000011242F933F934F935F936F937F938F9307
:101610009F93AF93BF93EF93FF932091C6001092D7
:10162000810485E090E09093EC018093EB01809140
:101630005A068F5F80935A0680915A06813019F4BA
:1016400020935906F3C280915A06823009F0EEC207
:1016500080915906820F8093DF028091DF028F3FD5
:1016600009F0E4C282E390E09093EC018093EB01F7
:10167000109281048AE08093C404ECE9F7E0808151
:101680008D7F80838091CB04813009F058C1809197
:101690005207882329F480915B05809303061AC0C2
:1016A00080915207813029F480915C058093610715
:1016B00011C080915207823029F480915D0580939A
:1016C0000C0708C080915207833021F480915E0599
:1016D0008093E4028091520790915906EBE5F5E082
:1016E000E80FF11D9083909152068091CB029817DC
:1016F000A9F08091CB02E3E1F2E0E80FF11D6081F7
:101700008091CB02E0E9F7E0E80FF11D408183E032
:101710000E94350A82E080932F0200C18091DA0294
:1017200085FF0AC04091270483E06BE40E94350ADC
:101730008CE080932F02F2C08091AB0384FF0AC03B
:101740004091450383E067E00E94350A83E080937F
:101750002F02E4C08091AB0385FF0AC04091D602FE
:1017600083E069E40E94350A84E080932F02D6C0AA
:101770008091AB0386FF0AC04091720383E063E56A
:101780000E94350A85E080932F02C8C08091AB0388
:10179000882354F44091190283E064E50E94350ADD
:1017A00086E080932F02BAC08091DA0280FF0AC0DF
:1017B0004091A50783E065E50E94350A87E08093A4
:1017C0002F02ACC08091DA0281FF0AC04091F3037E
:1017D00083E066E50E94350A88E080932F029EC070
:1017E0008091E50585FF0AC040915D0783E067E5CC
:1017F0000E94350A8DE080932F0290C080917E0474
:1018000082FF0AC04091F20183E069E50E94350A37
:1018100087E180932F0282C08091DA0282FF0AC0A2
:101820004091070683E06CE40E94350A89E08093CA
:101830002F0274C08091DA0283FF0AC040916707CB
:1018400083E06EE40E94350A8AE080932F0266C02E
:101850008091DA0284FF0AC04091C20583E06FE400
:101860000E94350A8BE080932F0258C090910006A9
:101870008091A3039817A9F08091A303EEE6F6E008
:10188000E80FF11D60818091A303EFEFF2E0E80F14
:10189000F11D408183E00E94350A85E180932F028B
:1018A0003DC09091440780915D049817A9F0809104
:1018B0005D04E4E8F4E0E80FF11D608180915D04CF
:1018C000E0E5F2E0E80FF11D408183E00E94350A77
:1018D00081E080932F0222C09091B5058091070787
:1018E0009817A9F080910707ECEEF4E0E80FF11DDE
:1018F000608180910707E1E9F2E0E80FF11D408186
:1019000083E20E94350A86E180932F0207C0ECE94A
:10191000F7E080818F77808310922F02ECE9F7E067
:1019200080818160808380912F02882309F47EC1A9
:101930008AE090E09093EC018093EB0177C1809175
:1019400059068A3A09F06DC1ECE9F7E080818160BF
:10195000808384FF04C010925C05877E8083809121
:101960009C0786FF0CC0ACE9B7E0982F8F7D8C9365
:10197000EBE5F5E08081817080839F799C93809175
:101980006605882394F4E6E6F5E08F7B80838091FA
:101990005806882319F410925D0502C010925E0566
:1019A000E6E6F5E080818F77808380912F02813099
:1019B00069F480915D048F5F80935D0480915D0484
:1019C000823309F02EC110925D042BC180912F0249
:1019D000853169F48091A3038F5F8093A303809185
:1019E000A303823309F01DC11092A3031AC1809191
:1019F0002F02863169F4809107078F5F8093070774
:101A000080910707823309F00CC11092070709C1C2
:101A100080912F02823069F48091CB028F5F809396
:101A2000CB028091CB02863009F0FBC01092CB0232
:101A3000F8C080912F02833089F4EBE6F7E08081D3
:101A40008F5F80838081833009F0EBC0EBEAF3E0A5
:101A500080818F7E808310926B07E3C080912F027C
:101A6000843089F4ECE6F7E080818F5F80838081A9
:101A7000833009F0D6C0EBEAF3E080818F7D80836C
:101A800010926C07CEC080912F02853089F4EDE66C
:101A9000F7E080818F5F80838081833009F0C1C04F
:101AA000EBEAF3E080818F7B808310926D07B9C0F1
:101AB00080912F02863089F4EEE6F7E080818F5F17
:101AC00080838081833009F0ACC0EBEAF3E0808151
:101AD0008F77808310926E07A4C080912F02873089
:101AE00089F4EFE6F7E080818F5F80838081833027
:101AF00009F097C0EAEDF2E080818E7F808310923A
:101B00006F078FC080912F02883089F4E0E7F7E0FB
:101B100080818F5F80838081833009F082C0EAED0D
:101B2000F2E080818D7F8083109270077AC080916F
:101B30002F028D3089F4E5E7F7E080818F5F8083A5
:101B40008081833009F06DC0E5EEF5E080818F7D06
:101B500080831092750765C080912F02873189F4C8
:101B6000EFE7F7E080818F5F80838081833009F029
:101B700058C0EEE7F4E080818B7F808310927F076E
:101B800050C080912F02893089F4E1E7F7E080812D
:101B90008F5F80838081833009F043C0EAEDF2E0FB
:101BA00080818B7F8083109271073BC080912F02D0
:101BB0008A3081F4E2E7F7E080818F5F8083808163
:101BC000833079F5EAEDF2E08081877F808310929F
:101BD000720727C080912F028B3081F4E3E7F7E092
:101BE00080818F5F808380818330D9F4EAEDF2E0D9
:101BF00080818F7E80831092730713C080912F02A3
:101C00008C3079F4E4E7F7E080818F5F8083808116
:101C1000833039F4EAEDF2E080818F7D8083109289
:101C20007407ECE9F7E080818F778083FF91EF9173
:101C3000BF91AF919F918F917F916F915F914F91E4
:101C40003F912F910F900FBE0F901F9018951F93EB
:101C5000CF93DF938330A1F1843028F48130D1F029
:101C6000823018F50CC0853009F440C0853098F1F9
:101C7000863009F446C0873009F059C04DC080E66F
:101C800080937C0010E0A0E0B0E06FEF73E020E014
:101C900030E057C081E680937C0010E0A0E0B0E027
:101CA0006FEF73E020E030E04CC082E680937C0070
:101CB00010E0A0E0B0E06FEF73E020E030E041C062
:101CC00083E680937C0010E0A0E0B0E06FEF73E06B
:101CD00020E030E036C084E680937C0010E0A0E095
:101CE000B0E06FEF73E020E030E02BC085E680933A
:101CF0007C0010E0A0E0B0E06FEF73E020E030E0A7
:101D000020C086E680937C0010E0A0E0B0E06FEF9A
:101D100073E020E030E015C087E680937C0010E09F
:101D2000A0E0B0E06FEF73E020E030E00AC080E6B2
:101D300080937C0010E0A0E0B0E06FEF73E020E063
:101D400030E0EAE7F0E0C8E7D0E08081806480839B
:101D50008081806C8083808186FDFDCF808180645E
:101D60008083808186FDFDCF88819981AC0100242C
:101D7000440F551F001C440F551F001C452F502DAC
:101D800080818F738083240F351FA417B50708F453
:101D9000DA014617570708F4BA011F5F1A30A9F68F
:101DA000261B370B2A1B3B0B369527953695279517
:101DB00036952795822F932FDF91CF911F9108950C
:101DC000DF93CF9300D0CDB7DEB78330E1F084301E
:101DD00028F4813081F0823090F409C08530D9F048
:101DE0008530A8F08630D9F0873009F51CC080E630
:101DF00080937C001FC081E680937C001BC082E63C
:101E000080937C0017C083E680937C0013C084E637
:101E100080937C000FC085E680937C000BC086E633
:101E200080937C0007C087E680937C0003C080E637
:101E300080937C0090E06FEF30E040E050E0EAE714
:101E4000F0E0A9E7B0E08081806480838081806CCD
:101E50008083808186FDFDCF808180648083808146
:101E600086FDFDCF2C9180818F738083420F511DA1
:101E7000921708F4922F261708F4622F3F5F3A302A
:101E800011F7892F90E0860F911D9A01281B390BBD
:101E9000C9019695879596958795969587950F9004
:101EA0000F90CF91DF910895DF92EF92FF920F9301
:101EB0001F93CF93DF9380918A0384FD61C080914B
:101EC0000C0236E0839FC00111244CE25CE0FA0171
:101ED000E80FF91FF49080910C02839FC001112438
:101EE0000196FA01E80FF91FE4916AE0E69F80018C
:101EF000112480910C02839FC00111240496FA01E1
:101F0000E80FF91FE491DE2ED694D694D694D69499
:101F100080910C0223E0829FC00111240196880F5A
:101F2000991FFA01E80FF91F249180910C02839FF9
:101F3000C00111240396FA01E80FF91FE491E69F0E
:101F4000D001112480910C02839FC00111240496BA
:101F5000480F591FFA0144910F2EFFE0EF2EF02D8C
:101F6000E42280916903C82FDD27C7FDD0958091B9
:101F70005A05682F772767FD70954F2D522F60C047
:101F800080910C0236E0839FC001112448EC5CE094
:101F9000FA01E80FF91FF49080910C02839FC001B1
:101FA00011240196FA01E80FF91FE4916AE0E69F17
:101FB0008001112480910C02839FC001112404969A
:101FC000FA01E80FF91FE491DE2ED694D694D69448
:101FD000D69480910C0223E0829FC00111240196C7
:101FE000880F991FFA01E80FF91F249180910C02C4
:101FF000839FC00111240396FA01E80FF91FE491B1
:10200000E69FD001112480910C02839FC00111240E
:102010000496480F591FFA0144910F2EFFE0EF2E4E
:10202000F02DE42280916903C82FDD27C7FDD095EC
:1020300080915A05682F772767FD70954F2D522F95
:1020400080912E0284FD46C18091FA02882309F016
:1020500041C180914A03481700F58091C3029091D5
:10206000C402885E9D4F48F48091C3029091C402DF
:1020700001969093C4028093C3022091C3023091D1
:10208000C402CB01800F911F8217930788F4E8E602
:10209000F4E08081846080830BC0DD2049F41092DD
:1020A000C4021092C302E8E6F4E080818B7F808353
:1020B00080914A03581700F580917503909176033B
:1020C000885E9D4F48F48091750390917603019648
:1020D0009093760380937503209175033091760376
:1020E000CE018A0F9B1F8217930788F4E8E6F4E07D
:1020F0008081886080830BC0EE2049F410927603C3
:1021000010927503E8E6F4E08081877F80838091F8
:10211000680482FF22C083FF20C080910C02E8E89F
:10212000F1E0E80FF11D8081882374F481E0809351
:10213000A70580910C02E8E8F1E0E80FF11D80812D
:102140008F778093480609C01092A7051092480621
:1021500080E480936007809372048091C604882392
:1021600061F528E33CE0F901849180932D073196D5
:10217000E4914AE0E49FC00111249093BF01809351
:10218000BE01F9013296E491E0930807F901339614
:10219000E491E49FA00111245093760440937504C8
:1021A0002C5F3F4FF9012491822F82958F7080938D
:1021B000D7012F70209351062BC02CE23CE0F9018F
:1021C000849180932D073196E4914AE0E49FC00109
:1021D00011249093BF018093BE01F9013296E491DE
:1021E000E0930807F9013396E491E49FA0011124DC
:1021F00050937604409375042C5F3F4FF90124916E
:10220000822F82958F708093D7012F702093510673
:1022100090914A0380912D07891718F580914B07FB
:1022200090914C07885E9D4F48F480914B079091A8
:102230004C07019690934C0780934B078091BE0109
:102240009091BF0120914B0730914C07860F971F4B
:102250008217930770F4E8E6F4E080818061808360
:1022600008C08091D701882321F410924C07109266
:102270004B0790914A0380910807891718F58091C0
:10228000980790919907885E9D4F48F48091980730
:102290009091990701969093990780939807809160
:1022A00075049091760420919807309199078C0FCE
:1022B0009D1F8217930770F4E8E6F4E08081806246
:1022C000808308C080915106882321F410929907D9
:1022D00010929807DF91CF911F910F91FF90EF908F
:1022E000DF900895EF92FF920F931F9380918A02DF
:1022F000823021F01092C5061092C40610928A0214
:10230000EEE5F6E08081806480831092A4038EE77E
:1023100004EC16E0F80161918F0141E00E94C807CA
:102320008FE7F801608141E00E94C80780911106A3
:10233000882301F130E047E157E0FA01E30FF11D96
:1023400020818091310390913203A0913303B091A9
:102350003403820F911DA11DB11D80933103909311
:102360003203A0933303B09334033F5F809111068F
:10237000381718F360913103709132038091330361
:10238000909134032091110630E040E050E00E942B
:10239000976F2093E8056091E8058CE641E00E9484
:1023A000C8070F2EF5E6EF2EF3E0FF2EF02D89E79C
:1023B000F70161918F0141E00E94C8078AE7F801A7
:1023C000608141E00E94C8078BE7F701628141E02C
:1023D0000E94C8078EE704EC16E0F80161918F01B6
:1023E00041E00E94C8078FE7F801608141E00E9448
:1023F000C8071092310310923203109233031092E7
:1024000034031092E4041092E304109267048FEFF7
:102410008093A4061092B9031092BA031092BB03E2
:102420001092BC031092DC021092DB021092D105D4
:1024300080934B031092FE061092FF061092000745
:102440001092010710925C0410925B041092140722
:10245000109213078FEF9FEF9093480380934703E9
:102460001092E7011092E8011092E9011092EA013E
:10247000109202061092010620E030E0A6EFB1E0D3
:1024800060E377E047EF53E0FD01E20FF31F1082B6
:10249000FB01E20FF31F1082C901880F991FFA0197
:1024A000E80FF91F118210822F5F3F4F2431310551
:1024B00059F7E8E6F4E08081826080831092AC03F3
:1024C0001F910F91FF90EF9008950F931F938AE64D
:1024D00000E314E0F80161918F0141E00E94C80718
:1024E0008BE6F801608141E00E94C80760913103EA
:1024F0007091320380913303909134032091E3046F
:102500003091E40440E050E00E94976F20930E0762
:10251000609167048DE641E00E94C8076091A406BF
:102520008EE641E00E94C80760910E078FE641E009
:102530000E94C8076091B9037091BA038091BB03F0
:102540009091BC032091DB023091DC0240E050E02E
:102550000E94976F209363056091D10580E741E069
:102560000E94C80760914B0381E741E00E94C807C1
:102570006091630582E741E00E94C8076091FE0612
:102580007091FF06809100079091010720915B04F4
:1025900030915C0440E050E00E94976F3093B805A2
:1025A0002093B70583E703E117E0F80161918F01FC
:1025B00041E00E94C80784E7F801608141E00E9481
:1025C000C80785E707E413E0F80161918F0141E056
:1025D0000E94C80786E7F801608141E00E94C807B1
:1025E00087E707EB15E0F80161918F0141E00E9458
:1025F000C80788E7F801608141E00E94C807809120
:10260000DA018C3030F080E866EC41E00E94C807C7
:1026100003C08AE08093BA011092650310926603AA
:1026200010926703109268031092790310921106BA
:102630001092A2061092C5061092C40681E0809303
:102640008A02EEE5F6E08081806480831092A40324
:102650001F910F9108951F93CF93DF93182F85310A
:1026600009F48DC08631B0F48A3009F456C08B303D
:1026700040F48830B1F1893008F041C0833031F541
:1026800028C08C3009F465C08C3008F454C0823105
:10269000E9F46DC08C3209F4A4C08D3248F4803264
:1026A00009F489C08B3209F494C0863179F475C07D
:1026B000843309F4B2C0853318F4833339F49FC0EE
:1026C0008C3309F4B8C0823509F4C3C042E150E04C
:1026D000C7C0EBE4F6E080818061808342E150E096
:1026E000BFC0E9E4F6E080818160808384EF91E0FF
:1026F000909324068093230642E150E0B1C0E9E4C0
:10270000F6E080818260808384EF91E090932806D8
:102710008093270642E150E0A3C0E9E4F6E080811F
:102720008460808384EF91E090932C0680932B0645
:1027300042E150E095C0E9E4F6E080818860808362
:1027400084EF91E09093300680932F0642E150E0B1
:1027500087C0E9E4F6E080818061808384EF91E0C6
:10276000909334068093330642E150E079C0EBE465
:10277000F6E080818160808342E150E071C0E9E44D
:10278000F6E080818062808384EF91E09093380648
:102790008093370642E150E063C0E9E4F6E08081CF
:1027A0008064808384EF91E090933C0680933B06A5
:1027B00042E150E055C0E9E4F6E080818068808322
:1027C00084EF91E09093400680933F0642E150E011
:1027D00047C0EBE4F6E080818260808342E150E014
:1027E0003FC0EAE4F6E080818160808384EF91E07D
:1027F000909326068093250642E150E031C0EAE43A
:10280000F6E080818260808384EF91E090932A06D5
:102810008093290642E150E023C0EAE4F6E080819B
:102820008460808384EF91E090932E0680932D0640
:1028300042E150E015C0EAE4F6E0808188608083E0
:1028400084EF91E0909332068093310642E150E0AC
:1028500007C0EBE4F6E080818460808342E150E0D1
:10286000C6EFD1E0A0E3B7E067EF73E09A012F5F16
:102870003F4FFE01E40FF51F8081FE01E20FF31FC1
:102880008083FD01E40FF51F8081FD01E20FF31F3E
:102890008083CA01880F991FFB01E80FF91F80810F
:1028A0009181220F331FFB01E20FF31F918380837D
:1028B000415050408FEF4F3F5807C1F61093F6013B
:1028C00080910C02809330078091A9079091AA070C
:1028D0009093F8038093F703E8E6F4E08081826048
:1028E00080831092AC031092DA01DF91CF911F9197
:1028F000089588E080938B03EAE8F3E080818064A8
:10290000808308958130E9F58091A10780FF06C09A
:102910008091F30380628093F30305C08091F303F9
:102920008F7D8093F3038091A10781FF06C0809182
:10293000F30380618093F30305C08091F3038F7EDE
:102940008093F3038091A10782FF06C08091A507C1
:1029500081608093A50705C08091A5078E7F809335
:10296000A5078091A10783FF06C0809119028860A6
:102970008093190215C080911902877F80931902F4
:102980000FC080911902877F809319028091A5075B
:102990008E7F8093A5078091F3038F7C8093F30350
:1029A000EBEAF3E08081806C8083EAEDF2E08081E5
:1029B0008360808308950F931F938091620388231F
:1029C0000CF0BCC28091F50280FFB8C28091A603D2
:1029D000863389F480E10E942B138091450388346B
:1029E00009F4A7C286E080932704EAEDF2E0808133
:1029F000806280839EC2809145038C3B09F061C058
:102A00008091D4028C3019F40E94791443C08091D3
:102A1000620382FF0AC080915A04883330F0E4EDEB
:102A2000F5E080818061808335C087E18093450334
:102A3000EBEAF3E0808180618083E2E7F3E080816C
:102A40008E7F8460808384E10E942B138EE18093CB
:102A500006078CE390E09093E2048093E104EDEAB2
:102A6000F3E080818460808381E08093AF03809174
:102A70003F0381FD07C0EFE3F3E08460808381E0E2
:102A80008093CD0283E080932704EAEDF2E0808119
:102A900080628083EBEAF3E0808180648083EEE2F1
:102AA000F2E080818B7E808310926C00E8E6F0E09B
:102AB00080818D7F8083EAEDF2E080818F7B80834F
:102AC00038C2809145038A3771F589E680934503C2
:102AD000ABEAB3E09C91E2E7F3E080818E7F846013
:102AE000808390659C9310929A0310929903EDEA6B
:102AF000F3E080818460808381E08093AF038091E4
:102B00003F0381FD07C0EFE3F3E08460808381E051
:102B10008093CD0283E080932704EAEDF2E0808188
:102B20008062808306C280914503883409F06FC0BB
:102B300080911F0490912004892B09F05BC0809143
:102B4000A6038C3909F056C0E8E6F4E080818F775F
:102B5000808380910907843028F080918A0388233C
:102B60000CF4E7C180910907853151F482E3809329
:102B70000907609109078AE541E00E94C807D9C1A9
:102B800080910907853351F486E1809309076091AC
:102B900009078AE541E00E94C807CBC18091090777
:102BA0008F3071F48091FD0583FD0AC086E4809327
:102BB0000907609109078AE541E00E94C807B9C189
:102BC00080910907883451F480E18093090760916E
:102BD00009078AE541E00E94C807ABC18091090757
:102BE0008F5F80930907609109078AE541E00E94A1
:102BF000C8079FC18091FD0582FF9BC186E080933D
:102C00002704EAEDF2E080818062808392C18091A6
:102C100045038C3509F051C080918A0380FD41C085
:102C200085EE80934503ABEAB3E09C91E2E7F3E0E5
:102C3000808181608B7F808390659C93EDEFF5E0D0
:102C400080818F7B80838091F3038E7F8093F30359
:102C5000AAEDB2E09C91892F82608C93EAE8F3E0C0
:102C600080818D7F80831092710310927003109287
:102C70004A0710924907EEE2F2E080818461808386
:102C800088E080936C00E8E6F0E0808182608083D9
:102C90008EE18093060782E08093270492669C93DE
:102CA00048C186E30E942B1386E080932704EAED57
:102CB000F2E08081806280833CC180914503853E43
:102CC00009F04CC087E1809345030BEA13E0F8015B
:102CD000808180618083E2E7F3E080818E7F846081
:102CE000808384E10E942B138EE180930607F80114
:102CF000808180648083EEE2F2E080818B7E80833D
:102D000010926C00E8E6F0E080818D7F8083EAED30
:102D1000F2E080818F7B8083EDEAF3E020818CE319
:102D200090E09093E2048093E1042560208381E0A9
:102D30008093AF0380913F0381FD07C0EFE3F3E091
:102D40008460808381E08093CD0283E080932704B8
:102D5000EAEDF2E0808180628083EBC080914503E0
:102D60008E3A49F48AE080938B03EAE8F3E08081AD
:102D700080648083DEC08091A6038C3909F0D9C0BD
:102D800080910C028E3109F4D4C080918A0380FDB9
:102D9000C8C08091B9058C32B9F480914503833263
:102DA00011F40E9472118AE780934503EBEAF3E085
:102DB00080818061808382E080932704EAEDF2E0E5
:102DC00080818062808377C080914503873109F0DC
:102DD0004AC08091AD0380FF46C085EE80934503D5
:102DE000ABEAB3E09C91E2E7F3E0808181608B7F06
:102DF000808390659C93EDEFF5E080818F7B8083ED
:102E00008091F3038E7F8093F303AAEDB2E09C914F
:102E1000892F82608C93EAE8F3E080818D7F808344
:102E2000109271031092700310924A071092490792
:102E3000EEE2F2E080818461808388E080936C0020
:102E4000E8E6F0E08081826080838EE1809306076F
:102E5000EDEAF3E080818E7F808382E08093270417
:102E600092669C9328C0809145038C3511F4809321
:102E7000050680914503833211F40E9472118CEB98
:102E800080934503EBEAF3E080818061808382E0F8
:102E900080932704EAEDF2E08081806280838EE1F6
:102EA00080930607EDEAF3E080818B7F80831092A8
:102EB000530510925205E2E7F3E0808181608B7F39
:102EC0008083EBEAF3E08081806480830AE813E08A
:102ED000F8018081877F8083EEE2F2E0808180616B
:102EE000808388E080936C00E8E6F0E08081826077
:102EF0008083EAEDF2E080818064808310928B030E
:102F0000E1EAF7E08081887F808381E00E9482147B
:102F1000F80180818F7B808310929A03109299032D
:102F200008C086E080932704EAEDF2E080818062A9
:102F30008083E2E6F3E080818B7F8083E2E6F3E04A
:102F400080818F7780831F910F91089581E0809316
:102F5000D8028AE0809348070895282F8091300492
:102F6000909131048852934228F0E4EDF5E080819D
:102F7000826080838091D8028823B1F52038A1F542
:102F800080918E038E3180F580918A03882364F1CD
:102F90008091120782FF28C085FD26C08091E5053B
:102FA00081FD22C08091FA058C38C1F48091D10452
:102FB0008431A1F4809195038C3881F4149B0EC068
:102FC0008091AB0383FD0AC08091D40581FD06C0CA
:102FD000E2EDF5E08081886480830895E2EDF5E01C
:102FE0008081877B80830895E2EDF5E08081877B97
:102FF000808308958038D1F58091D1048E3481F199
:10300000809195038C3861F58091D40584FD28C0AA
:103010008091110290911202892BE1F48091E104D8
:103020009091E204892BB1F48091C501882391F439
:1030300080918A03882374F08091120785FD0AC06D
:103040008091E50581FD06C0E2EDF5E080818061BB
:10305000808311C0E2EDF5E080818F7E80830BC01C
:10306000E2EDF5E080818F7E808305C0E2EDF5E042
:1030700080818F7E8083809145038C3B09F0F8C06E
:103080008091D4028A3008F0F3C0809111029091AF
:103090001202892B09F0ECC080918A0388230CF47A
:1030A000E1C08091120785FDDDC08FEF80934A0556
:1030B000809359078091AD0381FD04C08091D405B0
:1030C00084FF06C0E8ECF5E080818F778083089567
:1030D00080917E0485FF2BC080912204909123046F
:1030E0008639910530F090915A0480914A059817DD
:1030F00030F0E8ECF5E080818F778083089580914F
:103100002204909123048C52914060F490915A04CF
:1031100080915907891730F0E8ECF5E080818068EC
:1031200080830895109223041092220408958091C0
:103130008E038E3120F41092E8041092E7048091FF
:10314000E7049091E8048559924008F18091A20724
:10315000823560F490915A0480915907891730F0B4
:10316000E8ECF5E080818068808308958091A20773
:10317000853538F490915A0480914A05981708F4DF
:1031800094C0E8ECF5E080818F778083089580918A
:103190008E0290918F0281359105D8F080918E0238
:1031A00090918F022091CA053091CB0580559040B7
:1031B0008217930771F480912206882351F480913D
:1031C000A2078F3430F084E690E09093E604809379
:1031D000E50480918E038E3190F4809130049091BB
:1031E00031048D5D954038F08FEF9FEF9093E604AA
:1031F0008093E50404C01092E6041092E5048091E7
:10320000E5049091E604892B31F0E8ECF5E080814B
:103210008F778083089580918E038E3110F490E033
:1032200001C091E58091A207981760F090915A042F
:1032300080915907891730F0E8ECF5E080818068CB
:10324000808308958091A207853530F490915A04C7
:1032500080914A05981748F1E8ECF5E080818F7776
:1032600080830895E8ECF5E080818068808308958C
:10327000E8ECF5E080818068808380911102909174
:103280001202892B91F080918A03882324F0809187
:10329000120785FF0AC08CE390E09093120280939E
:1032A00011021092E2041092E104089580917204D8
:1032B000803490F180914503873121F0809145035E
:1032C0008C3571F48091AD0384FD04C0EDEAF3E028
:1032D00080628083EDEAF3E08081806180830895DD
:1032E00080913503853608F4A2C0EDEAF3E08081D1
:1032F0008F7E808380915D078F7B80935D078091B7
:103300005D07886380935D07E5EEF5E0808180626C
:103310008083109235030895809172048032F0F119
:1033200080912E0284FF03C085E08093FA02EEE2D2
:10333000F2E080818F7E808380914503873121F088
:10334000809145038C3571F48091AD0384FD04C0F8
:10335000EDEAF3E080628083EDEAF3E08081806152
:103360008083089580913503853608F460C0EDEAC6
:10337000F3E080818F7E808380915D078F798093D9
:103380005D0780915D07886180935D07E5EEF5E05C
:103390008081806280831092350308958091E702D6
:1033A0009091E8028A3A910568F08091E702909145
:1033B000E8028F55914030F4EEE2F2E080818F7E9A
:1033C000808305C0EEE2F2E080818061808380919D
:1033D0004503873121F0809145038C3571F480914C
:1033E000AD0384FD04C0EDEAF3E080628083EDEA82
:1033F000F3E0808180618083089580913503853674
:10340000B0F0EDEAF3E080818F7E808380915D07EC
:103410008F7880935D0780915D07886080935D075A
:10342000E5EEF5E080818062808310923503089597
:10343000CF93DF93DC014FE35EE360E071E0C4EB28
:10344000D5E0573010F0569508C06F5F6A30E1F054
:103450004D37D1F04423C1F0572F842F90E0880FCF
:10346000991F9E01280F391FF901859194918A17A0
:103470009B0710F4450FE5CFF90185919491A817AA
:10348000B90710F4451BDDCF842FDF91CF9108954C
:10349000CF93DF93DC014FE35EE360E071E0C8EBC4
:1034A000D4E0573010F0569508C06F5F6A30E1F0F5
:1034B0004D37D1F04423C1F0572F842F90E0880F6F
:1034C000991F9E01280F391FF901859194918A1740
:1034D0009B0710F4450FE5CFF90185919491A8174A
:1034E000B90710F4451BDDCF842FDF91CF910895EC
:1034F0000F931F93CF93DF9380E00E94270E2FEF4F
:1035000033E08901081B190BC8010E94181A809327
:103510005A0460915A0482E241E00E94C807209157
:103520005A048091310390913203A0913303B091FA
:103530003403820F911DA11DB11D8093310390931F
:103540003203A0933303B09334038091E30490914A
:10355000E40401969093E4048093E30490915A0468
:1035600080916704891720F480915A04809367043E
:1035700090915A048091A406981720F480915A04DF
:103580008093A4068091110290911202892BA9F0D8
:103590008091BB058C3308F048C08091B0079091B2
:1035A000B107800F911F9093B1078093B00780916E
:1035B000BB058F5F8093BB0538C08091B0079091A9
:1035C000B107892B91F18091B0079091B10760917B
:1035D000BB0570E00E94836F862F972F9093B107F1
:1035E0008093B0078091B0079091B1078C3E910510
:1035F00030F0EDEAF3E080818260808310C080913A
:10360000B0079091B107833D910548F080918E03FA
:103610008E3129F4EEE7F4E080818062808310929D
:10362000B1071092B0071092BB050A321105B0F431
:103630008091D1048E3471F080EF90E09093F70286
:103640008093F602809194038F5F8093940388E0C7
:103650000E942B138EE48093D10419C022E0033B17
:103660001207A8F08091D1048E3471F080EF90E0C1
:103670009093F7028093F602809194038F5F80937A
:10368000940389E00E942B138EE48093D10481E09F
:103690000E94270E2FEF33E0E901C81BD90BCE01A2
:1036A0000E94481A8093A2076091A20783E241E03A
:1036B0000E94C8072091A2078091B9039091BA0394
:1036C000A091BB03B091BC03820F911DA11DB11D40
:1036D0008093B9039093BA03A093BB03B093BC0348
:1036E0008091DB029091DC0201969093DC02809342
:1036F000DB029091A2078091D105891720F4809177
:10370000A2078093D1059091A20780914B0398174F
:1037100020F48091A20780934B03CA32D105B0F404
:1037200080919503883571F080EF90E09093F702D7
:103730008093F602809194038F5F809394038AE0D4
:103740000E942B1388E58093950319C082E0C33B48
:10375000D807A8F080919503883571F080EF90E04C
:103760009093F7028093F602809194038F5F809389
:1037700094038BE00E942B1388E58093950380913E
:103780000C02803108F476C080910C028E3109F46D
:1037900071C08091A2072091C2013091C301280F0E
:1037A000311D3093C3012093C20180914103909158
:1037B00042038F5F9F4F49F08091410390914203F4
:1037C000019690934203809341038091410390912D
:1037D00042038837910559F48091C2019091C30149
:1037E00068E770E00E94836F6093970343C0809105
:1037F000410390914203805D924029F41092C301ED
:103800001092C20137C080914103909142038854C5
:10381000934081F58091C2019091C30168E770E007
:103820000E94836F6093FF059091FF05809197033D
:103830008917C0F48091FF052091970390E0821BC7
:1038400091090B974CF4EBEAF3E080818860808368
:103850008CE30E942B130EC0EBEAF3E08081877F9C
:10386000808308C0EBEAF3E08081886080838CE38A
:103870000E942B138091D104843129F08091D104CE
:10388000863309F06DC080915B0790915C07081743
:103890001907A0F184E00E942B138EE48093D104D9
:1038A0008CE291E09093F7028093F602809194036A
:1038B0008F5F8093940380919403863021F485E197
:1038C0000E942B131BC080919403843180F080915F
:1038D0008E038E3160F48091E50581FD0FC0E5EE29
:1038E000F5E08260808383E00E942B1307C0809103
:1038F0009403883218F086E10E942B138091D10442
:10390000843119F580915F069091600680179107C8
:10391000D8F586E38093D104809194038F5F8093E0
:10392000940380919403843178F180918E038E31D9
:1039300058F58091E50581FD27C0E5EEF5E0826050
:10394000808383E00E942B131FC080919F0390917E
:10395000A00308171907C0F484E18093D10414C0B0
:103960008091D1048E3481F48091F6029091F70217
:10397000892B51F480919F039091A0030817190798
:1039800018F484E18093D104809195038C38D1F5AB
:1039900082E0C835D80708F44AC085E00E942B139E
:1039A00089E38093950380EF90E09093F7028093F2
:1039B000F602809194038F5F809394038091940327
:1039C000863021F485E10E942B1331C0809194034D
:1039D000843180F080918E038E3160F48091E50512
:1039E00081FD25C0E5EEF5E08260808383E00E94E2
:1039F0002B131DC0809194038832C8F086E10E9489
:103A00002B1315C080919503893321F08091950384
:103A1000883569F422E0C835D20748F48091F6026F
:103A20009091F702892B19F48CE880939503CE01CD
:103A30000E94481A8093BF058091FA058C3811F5D1
:103A40008091300490913104885B9B4038F48AE483
:103A500092E090932A048093290406C08AE492E0BD
:103A600090932A04809329048091290490912A0438
:103A7000C817D90718F4CF5FDF4F31F588E5809379
:103A8000FA0522C08091FA058835F1F4809130045E
:103A900090913104885B9B4038F482E492E09093EB
:103AA000A6058093A50506C082E492E09093A60542
:103AB0008093A5058091A5059091A6058C179D077B
:103AC00018F08CE88093FA05DF91CF911F910F9148
:103AD00008950F931F9396B19695917080915E060D
:103AE0008695869586958170981709F446C08091D1
:103AF00025028F5F8093250296B1EEE5F6E0990FDF
:103B0000990F98708081877F892B80831092550749
:103B1000109254078091EF018A3F28F48091EF01C1
:103B20008F5F8093EF018091EF018D3308F41EC108
:103B30008091A6038633D9F4809145038E3A41F4EF
:103B400086E180938B03EAE8F3E0808180648083E0
:103B50008CE98093A6036091A6038FE141E00E9467
:103B6000960782E0809361038EE180930607E2E18D
:103B7000F7E080818F7D8083F9C080915407909118
:103B80005507845F914048F4809154079091550700
:103B90000196909355078093540780915407909114
:103BA0005507869738F0E2E1F7E0808180628083F4
:103BB0001092EF01809154079091550784519140E4
:103BC00008F4D4C08091A603863309F4CFC0809155
:103BD0008A02813051F482E080938A02EEE5F6E0B9
:103BE0008081806480831092A40386E38093A6037F
:103BF0006091A6038FE141E00E949607E5EEF5E0B3
:103C0000808180688E7F80831092F6031092A007D7
:103C100010925706EEE7F4E080818E7F80838091DA
:103C2000F3038B7F8093F303EAEDF2E080818260FF
:103C3000808380915E0684FD04C0EEE5F6E08F7D12
:103C400080831092D8041092D7041092DA05109253
:103C5000D9051092410410924004809145038C3B99
:103C600029F58091D4028C3049F485E080938B0350
:103C7000EAE8F3E080818064808371C081E10E9482
:103C80002B1387E180934503ABEAB3E09C91E2E715
:103C9000F3E080818E7F8460808390659C938CE3C9
:103CA00090E09093E2048093E10459C08091450331
:103CB0008A3779F489E680934503ABEAB3E09C91B7
:103CC000E2E7F3E080818E7F8460808390659C933F
:103CD00046C080914503853EB1F587E18093450359
:103CE0000BEA13E0F801808180618083E2E7F3E072
:103CF00080818E7F8460808384E10E942B138EE11B
:103D000080930607F801808180648083EEE2F2E010
:103D100080818B7E808310926C00E8E6F0E08081E9
:103D20008D7F8083EAEDF2E080818F7B8083EDEAF6
:103D3000F3E08081816080838CE390E09093E204E3
:103D40008093E1040CC0809145038E3A41F486E0F3
:103D500080938B03EAE8F3E0808180648083809124
:103D6000F50280FF03C086E9809306071F910F913B
:103D700008950F931F9380912C04882309F0FBC0B2
:103D80001D99A3C08091700390917103885E934048
:103D900048F48091700390917103019690937103A0
:103DA000809370038091700390917103069720F0C7
:103DB00010924A0710924907809170039091710305
:103DC0008E55914009F0D7C08091AB0381FF04C0AC
:103DD0008091CE05813550F480914503853E09F0F0
:103DE00064C08091C101882309F05FC08CE5809395
:103DF00045030BEA13E0F801808180618083109213
:103E00004A071092490781E00E942B13E2E7F3E092
:103E100080818E7F84608083F801808180648083CC
:103E20008091F30381608093F303EAEDF2E08081F7
:103E3000826080838091FD0586FD05C0EDEAF3E098
:103E4000808180688083EDEFF5E08081806C8083E5
:103E500010924E06EEE2F2E080818B7E808310921B
:103E60006C00E8E6F0E080818D7F8083EAEDF2E08F
:103E700080818F7B80838CE390E09093E204809339
:103E8000E104EDEAF3E080818460808381E0809347
:103E9000AF0380913F0381FD6EC0EFE3F3E08460E8
:103EA000808381E08093CD0266C0EBEAF3E08081FD
:103EB000826080838DE591E090937103809370031D
:103EC00010924A071092490756C080914907909175
:103ED0004A07885E934048F48091490790914A07C9
:103EE000019690934A0780934907809149079091E2
:103EF0004A070697D8F010927103109270038091D0
:103F00004503853E99F48CEB80934503EBEAF3E09F
:103F1000808180618083EDEAF3E080818B7F808304
:103F200010925305109252051092C1018091AB037B
:103F300081FF21C08091CE05883220F08091CE058E
:103F4000893220F08091CE058135A8F0EBEAF3E0CC
:103F50009081892F8D7F808392FF06C0E8ECF5E089
:103F600080818F7D808305C0E8ECF5E080818062F0
:103F700080831092CE051F910F910895AF92BF924A
:103F8000CF92DF92EF92FF920F931F9387E00E94F0
:103F9000270E9093740380937303209173033091E1
:103FA0007403E0906B03F0906C0300916D0310912B
:103FB0006E036FEF73E0621B730B80E090E00E9472
:103FC000CD6EA80197010E94D56D60936B0370932D
:103FD0006C0380936D0390936E038091B2058F5FA5
:103FE0008093B2058091B205843608F450C1609187
:103FF0006B0370916C0380916D0390916E0320E0D0
:1040000030E048EC52E40E94396E0E94A16E709339
:1040100089036093880380E090E0A0E0B0E08093A3
:104020006B0390936C03A0936D03B0936E03109297
:10403000B205209188033091890382E490E0289FA3
:10404000B001299F700D389F700D112480E090E021
:104050000E94CD6E5B016C0120E030E049E453E446
:104060000E94396E0E94A16E7093E1026093E0029B
:104070002091E0023091E10289EC90E0289FB001AC
:10408000299F700D389F700D112480E090E00E94F0
:10409000CD6E7B018C01C601B501A80197010E947C
:1040A0005B6F1816ACF4C601B501A80197010E9418
:1040B000D46D0E94A16E66367105F0F08091E00229
:1040C0009091E10201969093E1028093E00214C086
:1040D000C601B501A80197010E94D46D0E94A16E8E
:1040E0006636710548F08091E0029091E1020197F7
:1040F0009093E1028093E00284E200EE12E0F80186
:1041000061918F0141E00E94C80785E2F80160815A
:1041100041E00E94C8078091E0029091E102863F51
:104120009105C0F0809182028031A1F48091E0027B
:104130009091E1028D50914010F021E00CC08091EF
:10414000E0029091E10203979093C9068093C8061C
:1041500021E001C020E080918A0388230CF445C04F
:104160008091540790915507899708F03EC080913F
:1041700061038823D1F58091E0029091E102843AB5
:10418000910548F08091E0029091E1028D509140BC
:1041900010F4222331F180919603882351F080910D
:1041A000E0029091E1028D52914018F4222309F42B
:1041B0006EC0EAE8F3E08081806880838091E0024D
:1041C0009091E102843A910520F48FE00E942B1334
:1041D00003C08EE00E942B131092640410926304BB
:1041E00056C084E08093960352C08091E002909183
:1041F000E102873A910508F446C08091E00290916F
:10420000E1028A50914008F03EC08091540790919D
:1042100055078997C0F52223B1F52091E00230912E
:10422000E1028091C8069091C9062817390758F510
:1042300080916304909164048051974248F4809186
:1042400063049091640401969093640480936304E2
:1042500080916304909164048897C9F484E080930A
:104260009603EAE8F3E080818F7780838CE390E027
:104270009093E2048093E1048AE091E09093C90670
:104280008093C80604C010926404109263041F91C6
:104290000F91FF90EF90DF90CF90BF90AF90089577
:1042A000FC018FEFEF3FF80769F185E0E03AF8078E
:1042B00040F0CF01805A954060EA75E00E94836F1C
:1042C000FC018091B9058C3229F4309719F4E0EAA9
:1042D000F5E003C0EC33F10540F0CF016CE370E092
:1042E0000E94836F6093670702C010926707209156
:1042F000670784EC9FEF289F202D11242E0F209319
:10430000C20505C08FEF809367078093C205EAED71
:10431000F2E080818861808308951F9380910C0270
:104320008E3129F41092F5011092F4019BC2809114
:104330004503833241F0809145038E3A21F080910C
:10434000680486FF8FC2EDEFF5E080818F7B80836C
:10435000EEE7F4E08081867F808380910C022EE07E
:10436000829FC00111249093B3078093B2071092EB
:10437000F5011092F4011092D4026091D40288E009
:1043800041E00E94C80741E050E060EB76E0809198
:10439000B2079091B307840F951F880F991FFB01F7
:1043A000E80FF91F859194912091F4013091F50166
:1043B000820F931F9093F5018093F4014E5F5F4F3E
:1043C0004F30510521F72091F4013091F501809192
:1043D000B2079091B3070D96880F991F40EB56E0F6
:1043E000FA01E80FF91F85919491281B390B30933E
:1043F000F5012093F4012091F4013091F5018091B1
:10440000B2079091B3070B96880F991FFA01E80F36
:10441000F91F85919491281B390B3093F501209356
:10442000F401EBEAF3E08081806280838091D4051F
:104430008823C4F480910C02E8E8F9E0E80FF11D4C
:10444000E49180914A0290914B0220915E07309155
:104450005F07821B930B8E0F911D90934B028093ED
:104460004A020DC080910C02E8E8F9E0E80FF11D66
:10447000E4918E2F90E090934B0280934A028091BA
:104480000C02E8E8F9E0E80FF11DE4918E2F90E0CE
:1044900090935F0780935E0780914A0290914B0250
:1044A0008E9730F0EEE7F4E080818064808305C071
:1044B000EEE7F4E080818F7B808380918B038330F3
:1044C00039F08091D40588231CF08FEF8093A107E9
:1044D00080910C028F3081F4809128029091290202
:1044E00090934B0280934A0280914A0290914B0232
:1044F00090935F0780935E0780914A0290914B02F0
:104500000E94502180918B03833009F422C1809155
:10451000D40588230CF41DC180910C0223E0829FF6
:10452000C001112442EA59E0FA01E80FF91FE491B1
:10453000E093F40380910C02829FC0011124019644
:10454000FA01E80FF91FE491E0934C0280914C02CC
:10455000809343058091F403882331F480917203A2
:104560008F7E8093720305C0809172038061809377
:104570007203EBEAF3E080818064808360914305FD
:1045800088E40E940A0A8091F403882329F4E1EA6E
:10459000F7E080818D7F80838091F303887780931B
:1045A000F303EAEDF2E080818260808310923803A9
:1045B000109237038EE18093440580938E0320E0B0
:1045C00030E0A2EAB1E06CEA71E0A901FD01E20F7E
:1045D000F31F908180910C02981749F484E090E0D9
:1045E00090933803809337032093440510C0FB0158
:1045F000E40FF51F908180910C02981719F4209315
:104600008E0305C02F5F3F4F2A303105F1F68091B0
:1046100044058E3158F4E1EAF7E0808181608083BF
:104620008091F3038F7B8093F30319C080918E03F5
:104630008E3158F4E1EAF7E08081816080838091D7
:10464000F30380648093F3030AC0E1EAF7E080811A
:104650008E7F80838091F3038F7B8093F30380911F
:10466000F403882331F4809172038F7E8093720368
:1046700005C080917203806180937203EBEAF3E0DE
:104680008081806480838091F303887F8093F3032B
:10469000EAEDF2E0808182608083E0910C0283E0A9
:1046A000E89FF0011124EC55F64FE491E0935A078E
:1046B00080915A078823D1F082E08093BC058093D3
:1046C000E602809119028F7D809319028091A507DF
:1046D00086608093A507EBEAF3E0808180688083A1
:1046E000EAEDF2E080818160808307C01092BC0512
:1046F000E1EAF7E080818B7F808380915D0787709E
:1047000080935D0780915D0780935D07A5EEB5E01E
:104710009C919062EDEAF3E080818F7E808310921D
:104720009E039F7B9C9383E080935E04809119029B
:10473000866180931902809119028E7B8093190201
:10474000EBEAF3E080818068808381E00E9482143C
:104750000AC0809119028E7F80931902EBEAF3E080
:1047600080818068808380910C02813061F080912B
:104770000C02882341F080910C02803121F080915D
:104780000C02813121F481E08093C60402C01092B2
:10479000C60480910C0223E0829FC001112401967F
:1047A000880F991F20E93BE0F901E80FF91F859177
:1047B000949190935C0780935B0780910C0246E094
:1047C000849FC00111240496F901E80FF91F859117
:1047D00094919093A00380939F0380910C02849FF7
:1047E000C0011124F901E80FF91F8591949190936C
:1047F000600680935F06109260078091D40588233D
:1048000024F01092CF011092CE0110929403E5EEA5
:10481000F5E08081887F80831092F6031092A007D4
:1048200010924D058091110290911202CC9730F4B4
:104830008CE390E090931202809311021092E204B4
:104840001092E1041092BB051092B1071092B007CC
:10485000EDEAF3E080818D7F8083EEE7F4E08081F4
:104860008F7D808381E00E948214E4EDF5E08081F9
:104870008F7780831F9108951F938091F502909107
:10488000AB03892780FF81C08AEF80931606809151
:10489000F50280FD52C0809145038C3BA1F08091D0
:1048A0004503873181F0809145038A3761F080911B
:1048B0004503893641F0809145038C3521F0809184
:1048C0004503853E49F48091D4028C3028F483E17D
:1048D0000E942B130E9465128CE98093A6036091BD
:1048E000A6038FE141E00E94C8078091C9028F5F53
:1048F0008093C9021092060712E010938B03EAE836
:10490000F3E080818064808380E00E94821483E0F1
:1049100080930C02EBEAF3E0808180628083109345
:10492000B40780910C028093D602E4EDF5E080811B
:104930008E7F80830E948D211FC010920706EAEDB2
:10494000F2E0808184608083E2E7F3E080818A7F07
:104950008083EBEAF3E08081806480838EE1809342
:10496000060793E090930C0280910C028093D6028C
:104970009093B4070E948D21EBEAF3E09091F50249
:10498000917080818E7F892B80831F910895AF92D3
:10499000BF92CF92DF92EF92FF920F931F931092EC
:1049A0003104109230048CE8809395030F2EF4E1CB
:1049B000FF2EF02DF092D1048093FA051092F501AC
:1049C0001092F40110926E0410926D048FE00DE6C7
:1049D00014E0F80161918F0141E00E94C80780E175
:1049E000F801608141E00E94C8071092EA04109229
:1049F000E90410928F0210928E021092CB05109251
:104A0000CA05109216071092150710929F07109270
:104A10009E0710927D0410927C041092D005109293
:104A2000CF051092B6031092B50310922304109292
:104A300022041092E8041092E70410924D041092A0
:104A40004C041092E6041092E5041092DE021092DB
:104A5000DD02109269061092680610923E041092D0
:104A60003D041092CA0210927103109270031092CA
:104A70004A0710924907F0922C041092C10110923B
:104A8000530710922502AAE8B3E09C91109280048B
:104A900010927F041092F1011092F00110924D05D6
:104AA0001092F6031092A007E5EEF5E080811092D7
:104AB000620610926106109257061092B305847F29
:104AC0008083EEE5F6E080818D7F808310929103F4
:104AD00010923E0510923D0581E08093C003109234
:104AE0005105109250051092D7051092760310923E
:104AF00075031092C4021092C3021092990710928B
:104B0000980710924C0710924B071092890210924E
:104B1000880210929B031092E8021092E702109212
:104B200060071092720410924A0310921B021092B6
:104B30008403109248061092A70510922004109248
:104B40001F0410926506109264068AE0809348075D
:104B5000F0920D060DEF15E0F801808181608083F1
:104B600010926E0510926D05E8E6F4E08081837C7A
:104B70008083957F9C93EEE2F2E080818B7E808340
:104B800010926C00E8E6F0E080818D7F8083EAED92
:104B9000F2E080818F7B808380E29EE4909319060F
:104BA0008093180688EC90E090939B0780939A0777
:104BB0001092CE050F2EFBEAEF2EF3E0FF2EF02D24
:104BC000F70180818D7F80831092B1061092D00210
:104BD0001092510310929803109283031092FE05D5
:104BE0008AE090E0909329028093280288E78093DE
:104BF000B9051092CF011092CE0180917203877F88
:104C0000809372030E948D211092FA020F2EF0E021
:104C1000AF2EF0E0BF2EF0E0CF2EF0E0DF2EF02D33
:104C2000A0926B03B0926C03C0926D03D0926E039E
:104C30001092B205F80180818F7B8083AEE7B4E0EB
:104C40009C91E2E7F3E080818A7F8083F7015081C5
:104C5000506410924E041092DA011092470610929E
:104C60003F051092460310923D021092DA04109212
:104C7000B60510928D03E6E6F5E08081877F80839C
:104C8000109204061092C4011092AF071092AE0762
:104C900010924205109241051092130610924C0694
:104CA000967B9C93EFE3F3E080818E7D808310926E
:104CB00064041092630410921C02E2E1F7E0408168
:104CC00010926706109266061092D6041092D504D0
:104CD00010927B0410927A041092EC051092EB056E
:104CE00010924F0210920B0210920A0220ED37E050
:104CF0003093820320938103109240031092C501E8
:104D000010920B0710920A0710922C0710922B0793
:104D100082EE94E090931F0680931E0610929C03EF
:104D20001092C5041092D1021092B3031092BC04E9
:104D300010926A04109269041092110710923F04B5
:104D400088E99AE39093A1068093A0069093460782
:104D5000809345071092DD041092F7021092F6023C
:104D60001092F902309382032093810310929303EF
:104D70008AE091E09093C9068093C8064C72408304
:104D8000109258061092B20310928304109282047B
:104D9000A0920D02B0920E02C0920F02D0921002A9
:104DA00010924203109241031092C3011092C2016B
:104DB000109297031092FF05577FF7015083E4ED9F
:104DC000F5E080811092CF021092CE02109238034B
:104DD000109237031092C8011092C7011092110669
:104DE0001092A206817C80831092B9011092B801C2
:104DF000109227021092260210922106109220068D
:104E00001F910F91FF90EF90DF90CF90BF90AF90E8
:104E100008950F931F938091620381FF85C0809155
:104E200045038C3B21F48091D4028C3021F0809199
:104E300045038E3A19F40E94791471C080910C02D6
:104E40008F3009F06CC080914503833229F0809146
:104E500045038E3A09F063C080912802909129029F
:104E6000803A910539F48AE090E09093290280938A
:104E7000280219C08091280290912902CC9750F005
:104E80008091280290912902449690932902809360
:104E9000280209C080912802909129020A969093D5
:104EA000290280932802E4EDF5E080818068808308
:104EB0000E948D218091B9058C3261F588E780933D
:104EC000B9051092CF011092CE0180917203877FB5
:104ED000809372038091CE019091CF016CE370E0DA
:104EE0000E94836F609358078091CE019091CF010B
:104EF0006CE370E00E94836F8093F3016091580728
:104F000080E441E00E94C8076091F30181E441E040
:104F10000E94C807EBEAF3E0808180648083E2E6C8
:104F2000F3E080818D7F80838091620382FF66C081
:104F3000809145038C3B21F48091D4028C3021F088
:104F4000809145038E3A41F40E947914E2E6F3E041
:104F500080818B7F80834DC08091F30386FD1FC0CD
:104F60008091F30380648093F303EAEDF2E08081A3
:104F700082608083809144058E3178F5809144056C
:104F8000ECEAF1E0E80FF11D808180930C02809142
:104F9000440580938E038EE1809344051EC080916A
:104FA000F3038F7B8093F303EAEDF2E0808182606C
:104FB000808380918E038E3180F480918E03E2EAAB
:104FC000F1E0E80FF11D808180930C0280918E0347
:104FD000809344058EE180938E03E8E6F4E08081BF
:104FE00080648083E4EDF5E08081806880830E94A6
:104FF0008D21E2E6F3E080818B7F808380916203E4
:1050000083FF13C0809145038C3B21F48091D4022F
:105010008C3021F0809145038E3A11F40E9479146E
:10502000E2E6F3E08081877F80838091620384FFE2
:10503000CEC0809145038C3B21F48091D4028C300A
:1050400021F0809145038E3A19F40E947914BAC078
:1050500080914503833209F0B5C080915A078823B7
:1050600009F4B0C080914A0290914B02805A954059
:1050700008F0A8C0809119028F7D80931902809159
:10508000A507897F8093A5078091BC05813009F52C
:1050900082E08093BC058091A50786608093A50778
:1050A00020915A0780914A0290914B02820F911DE4
:1050B00090934B0280934A0220915A0780912A02D2
:1050C00090912B02820F911D90932B0280932A02C4
:1050D00056C08091BC05823031F583E08093BC05D9
:1050E0008091A50786608093A50780911902806250
:1050F0008093190220915A0780914A0290914B02A5
:10510000820F911D90934B0280934A0220915A077F
:1051100080912A0290912B02820F911D90932B0275
:1051200080932A022CC08091BC05833041F581E038
:105130008093BC058091A50782608093A50740916C
:105140005A0720914A0230914B02842F90E0880F39
:10515000991F281B390B30934B0220934A02409130
:105160005A0720912A0230912B02842F90E0880F59
:10517000991F281B390B30932B0220932A02809110
:105180004A0290914B020E9450218091BC0580936D
:10519000E60280E280930706AAEDB2E09C91892F97
:1051A00084608C938091BC058093F201EEE7F4E07B
:1051B000808184608083EBEAF3E080818068808373
:1051C00095609C93E2E6F3E080818F7E80838091FE
:1051D000620385FF6EC0809145038C3B21F4809172
:1051E000D4028C3021F0809145038E3A19F40E944C
:1051F00079145AC080911902897E8093190281E244
:1052000080930706EAEDF2E08081846080838091DC
:105210005E04882389F481E080935E048091190202
:105220008061809319028EE18093F201EEE7F4E051
:1052300080818460808333C080915E04813089F4F2
:1052400082E080935E04809119028261809319024A
:105250008CE38093F201EEE7F4E080818460808348
:105260001EC080915E04823089F483E080935E04E6
:105270008091190286618093190288E78093F20178
:10528000EEE7F4E080818460808309C010925E04C0
:105290001092F201EEE7F4E0808184608083EBEA13
:1052A000F3E0808180688083E2E6F3E080818F7D97
:1052B00080838091620386FFABC1809145038C3B64
:1052C00021F48091D4028C3021F0809145038E3AF4
:1052D00019F40E94791497C180914503833229F013
:1052E000809145038E3A09F08EC18091B9058837C7
:1052F00009F045C08091CC02882309F029C18CE2D5
:105300008093B90580914A0290914B024E9790F498
:1053100080914A0290914B022EE130E0A901481B96
:10532000590B5093CF014093CE0130934B02209301
:105330004A020EC120914A0230914B022E313105B2
:1053400038F0C9014E976EE170E00E94836F9C01B6
:105350008EE190E0821B930B9093CF018093CE015E
:105360002091CE013091CF0180914A0290914B0261
:10537000820F931F90934B0280934A02E9C0809161
:105380004A0290914B028856914008F053C0809198
:105390004A0290914B026EE170E00E94836F892B6C
:1053A00099F48091CE019091CF014E969093CF01C8
:1053B0008093CE0180914A0290914B024E96909339
:1053C0004B0280934A02C4C040914A0250914B0262
:1053D0004E31510538F0CA014E976EE170E00E94DF
:1053E000836FAC0180914A0290914B022091CE01D3
:1053F0003091CF01821B930B90934B0280934A0212
:105400008091CE019091CF014E96841B950B909385
:10541000CF018093CE012091CE013091CF018091B8
:105420004A0290914B02820F931F90934B028093FC
:105430004A028EC080914A0290914B02805A954058
:1054400008F053C080914A0290914B026CE370E0E7
:105450000E94836F892B99F48091CE019091CF01A6
:10546000CC969093CF018093CE0180914A02909187
:105470004B02CC9690934B0280934A0269C04091B4
:105480004A0250914B024C33510538F0CA01CC9777
:105490006CE370E00E94836FAC0180914A029091AE
:1054A0004B022091CE013091CF01821B930B909340
:1054B0004B0280934A028091CE019091CF01CC960D
:1054C000841B950B9093CF018093CE012091CE0148
:1054D0003091CF0180914A0290914B02820F931F2D
:1054E00090934B0280934A0233C080914A0290917C
:1054F0004B022091CE013091CF01821B930B9093F0
:105500004B0280934A0288E78093B9050E948D215F
:105510008091CE019091CF016CE370E00E94836F87
:10552000609358078091CE019091CF016CE370E0B9
:105530000E94836F8093F3016091580780E441E0FB
:105540000E94C8076091F30181E441E00E94C8070E
:105550008091B9058837A9F480917203877F809381
:105560007203EBEAF3E080818064808388E660E088
:1055700041E00E94C80789E660E041E00E94C80758
:1055800019C080917203886080937203EBEAF3E0A4
:1055900080818064808388E60EEC11E0F8016191DF
:1055A0008F0141E00E94C80789E6F801608141E06F
:1055B0000E94C8078091CE019091CF016CE370E00A
:1055C0000E94836F609358078091CE019091CF0124
:1055D0006CE370E00E94836F8093F3016091580741
:1055E00080E441E00E94C8076091F30181E441E05A
:1055F0000E94C80780914A0290914B020E9450215C
:105600008AEF8093CC02E2E6F3E080818F7B808397
:105610001F910F9108958091C904882309F459C4FA
:105620008091C904982F907C8091C904282F2F73F2
:10563000992309F002C12A3108F07EC08091450308
:10564000883409F479C0293119F41092550302C045
:10565000209355038091B203813009F069C0809195
:105660004A0290914B022091CE013091CF01821BD2
:10567000930B90934B0280934A0280915503309193
:105680008C032CE3829FC0011124830F911D909302
:10569000CF018093CE0120914A0230914B0280913C
:1056A000CE019091CF01820F931F8556954060F0F7
:1056B00020914A0230914B0284E695E0821B930BC5
:1056C0009093CF018093CE012091CE013091CF01F4
:1056D00080914A0290914B02820F931F90934B024C
:1056E00080934A028CE28093B9051092B2038091B4
:1056F000CE019091CF016CE370E00E94836F6093C4
:1057000058078091CE019091CF016CE370E00E9428
:10571000836F8093F3016091580780E441E00E9419
:10572000C8076091F30181E441E00E94C80760C0AE
:1057300082E08093B2035CC02B31A9F480914503D1
:10574000883489F4E4EDF5E0808180628083E2EDC5
:10575000F5E080818F7D808388EE9DEF9093B90185
:105760008093B80145C02C3151F4809145038834B1
:1057700031F4E4EDF5E080818F7D808339C0809144
:105780004A0290914B022091CE013091CF01821BB1
:10579000930B90934B0280934A021092CF01109288
:1057A000CE0188E78093B9051092B2031092630688
:1057B0008091CE019091CF016CE370E00E94836FE5
:1057C000609358078091CE019091CF016CE370E017
:1057D0000E94836F8093F3016091580780E441E059
:1057E0000E94C8076091F30181E441E00E94C8076C
:1057F00080914503883409F46AC38091B9058837DC
:1058000059F480917203877F80937203EBEAF3E08F
:105810008081806480830AC0809172038860809355
:105820007203EBEAF3E080818064808380914A0216
:1058300090914B020E9450214AC3903409F000C15C
:1058400080914503883409F4FBC080910C028F30AD
:1058500009F078C0222309F421E08AE0289FC001E2
:1058600011249093290280932802E4EDF5E08081D1
:10587000806880830E948D218091B9058C3261F50A
:1058800088E78093B9051092CF011092CE018091E4
:105890007203877F809372038091CE019091CF0134
:1058A0006CE370E00E94836F609358078091CE0193
:1058B0009091CF016CE370E00E94836F8093F301BD
:1058C0006091580780E441E00E94C8076091F301AD
:1058D00081E441E00E94C807EBEAF3E08081806444
:1058E0008083F5C28091430586958093430580911E
:1058F0004A0290914B020A9790934B0280934A027E
:1059000080911E0290911F020A9790931F0280932C
:105910001E02809143058823B1F4309343058091A2
:105920004A0290914B02CC9690934B0280934A028C
:1059300080911E0290911F02CC9690931F0280933B
:105940001E0201C030E280914305821759F6809112
:105950004A0290914B020E94502182E280930706F6
:10596000EAEDF2E08081846080838091430581309C
:1059700049F480EA8093F201EEE7F4E080818460EC
:10598000808340C080914305823049F48CE8809345
:10599000F201EEE7F4E080818460808333C080917F
:1059A0004305843049F488E78093F201EEE7F4E0A0
:1059B00080818460808326C080914305883049F4CB
:1059C00084E68093F201EEE7F4E0808184608083D6
:1059D00019C080914305803149F480E58093F2013C
:1059E000EEE7F4E08081846080830CC08091430501
:1059F000803241F48CE38093F201EEE7F4E08081A1
:105A0000846080839091430580914C02981759F0EF
:105A10008091F30380688093F303EAEDF2E08081E4
:105A20008260808354C28091F3038F778093F30365
:105A3000EAEDF2E08081826080831092510347C2D8
:105A4000903809F0E9C180914503883409F4E4C134
:105A5000243008F0D2C02093BC05809119028F7DBC
:105A6000809319028091A507897F8093A507809173
:105A7000BC05823061F58091A50786608093A507FB
:105A800010922B0210922A028091E602813069F472
:105A900020915A0780914A0290914B02820F911DEA
:105AA00090934B0280934A0284C08091E602833037
:105AB00009F07FC080914A0290914B0220915A07D1
:105AC000821B910990934B0280934A0272C080918D
:105AD000BC058330B1F58091A50786608093A5074A
