:100000000C94E21F0C94FF1F0C94FF1F0C94FF1F15
:100010000C949A3A0C94FF1F0C94FF1F0C94FF1F32
:100020000C94FF1F0C94E65C0C94FF1F0C94FF1FB4
:100030000C94FF1F0C94FF1F0C94FF1F0C94FF1FC8
:100040000C94FF1F0C94FF1F0C94FF1F0C94FF1FB8
:100050000C9499210C94FF1F0C941B240C94FF1FEB
:100060000C94FF1F0C94FF1F0C94FF1F0C94FF1F98
:100070000C94E4240C94FF1F0C94132908004400F2
:10008000240022011201920C920C12012201240080
:1000900044000800000000000000E00F20082008D5
:1000A0006A08CA0F1200640008007000F007080C0C
:1000B000E40BF20BF90A7D0A650A490A520AE40BBD
:1000C000080CF007FC0F220021002200FC0F200783
:1000D00090089008E00FFF0F210821082108DE0793
:1000E000FF0F10081008E007FE07010801080108CB
:1000F0000606E007100810082004FE070148016802
:1001000001080606E007104810282004FF0F010828
:1001100001080108FE07E00710081008FF0FFF0F95
:10012000210821082108E00790089008E004FF0F4B
:100130002100210021001000FE0F11000000FE0729
:10014000010801084108C607E02710481048F03FA1
:10015000F00709080A0889089007E227144814489C
:10016000F23FFF0F200020002000FF0FFF0F1000C4
:100170001000E00FFF0FF00FFD0FF40F0004000858
:100180000008FF070040F43FFF0F2000D8000603DF
:10019000010CFF0F800040012002100CFF0F00082F
:1001A00000080008FF070008FF0F06007800800124
:1001B00078000600FF0FF00F10001000E00F100095
:1001C0001000E00FFF0F0C00F0000003FF0FF00F16
:1001D00010001000E00FFE07010801080108FE07EB
:1001E000E00710081008E007F807050804080508EC
:1001F000F807E40710081008E407FF0F21002100AA
:1002000021001E00F07F10081008E007FE0701081B
:1002100001080118FE27E00710081008E07FFF0F13
:100220002100210061009E0FF00F100010001E063B
:10023000210821084108860760049008100920065B
:100240001E062128211841088607600490281019ED
:10025000200601000100FF0F010001001000FE0751
:100260001008FF07000800080008FF07F007000853
:100270000008F00FFD07000800080008FD07F4075C
:1002800000080008F40F7F008007000880077F0047
:1002900070008003000C800370007F00800700085E
:1002A00080077F008007000880077F0070008003C0
:1002B000000C800370008003000C80037000030CAE
:1002C0009C0360009C03030C10086006800160061C
:1002D000100803001C00E00F1C0003007040802782
:1002E000001880077000010EC10939080708100CBA
:1002F000900B7008F00F8A0089008A00F00FF00F51
:10030000890088008900F00FF00F880089008A00BA
:10031000F00FF00F8A0089008800F00FF20F8900BB
:100320008A008900F00FF00F4A0045004A00F00FE4
:10033000F80F8A0889088A08F90F88088808890848
:10034000F80F89088A088808F80F8A088908880839
:10035000F0070A0809080A08F007F00709080A0860
:100360000808F007F00708080A080908F007F0076E
:100370000A0809080A08F1070200F90F0200010043
:10038000F80F01000100FA0FFA0F01000200F91F37
:1003900002000100F807020801080208F807F80740
:1003A000010802080008F807F80700080208010819
:1003B000F807F807020801080208F907FC0F100205
:1003C0001002E001F80720012001C0002407920874
:1003D0009208E40F220790089008E20F2007920885
:1003E0009408E00F200794089208E00F2407920871
:1003F0009408E20F220795089508E20FE407920897
:100400009208E404E20790089008E204E0079208EA
:100410009408E004E00794089208E004E4079208D6
:100420009408E204E20794089408E2040400F20F3E
:1004300004000200F00F02000200F40FF40F0200AB
:100440000400F20F04000200E40712081208E40797
:10045000E00712081408E007E00714081208E00794
:10046000E40712081408E207F40702080208F40F70
:10047000F00702080408F00FF00704080208F00F64
:10048000F40702080408F20FF20705080508F20F46
:10049000300649088A0809091006620494081209FE
:1004A00020060C007100800F71000C00F22700483C
:1004B0000048F23F0C007000820F71000C00F02722
:1004C00004480248F03FFA0F1100E2010106F80F5C
:1004D000F40F12001400E20FF00F10001400E20FEE
:1004E0004000FF0F210801080108FE07CA07240881
:1004F0002A08F0072000FF0F10080008000820005D
:10050000FF071008FE070109F1080908FE070400AB
:100510000200FF0F060C810B61081E080606210869
:100520002108DE07C00338020702000F00021F0483
:1005300021082108C107FE0721082108C007010082
:10054000010FE1001F00DE0721082108DE073E0041
:1005500041084108FE07FE070109F1080908FE07E6
:10056000000004000200FF0F00000000060C810BD9
:1005700061081E080000060621082108DE07C003E6
:1005800038020702000F000200001F0421082108A2
:10059000C1070000FE0721082108C0070000010074
:1005A000010FE1001F000000DE0721082108DE071F
:1005B00000003E0041084108FE07FC030204010858
:1005C00001080204FC03000EC00138000700070008
:1005D0003800C001000E000C000C002C001C802D07
:1005E000801D040003000300000003003006200209
:1005F0004001800040012002800080008000F00760
:100600008000800080000000000000010001000167
:10061000000100010001200220022002200220022D
:100620002002000800080008000800080008000870
:100630000008FF0B02000100810B41003E00FE0795
:100640000108790885087E040200050C0203C00039
:1006500030000C04030A0004070E09099108610820
:1006600091080909070E070E0909910C610E910CFA
:100670000909070EDE0721082108DE070004000B28
:10068000F803080208021001E00040004000A0004A
:10069000100108020802F8034000A000100108023F
:1006A0004000E000F001F803F80308021001A00088
:1006B0004000F803F001E00040008000400020000E
:1006C00010002000400080008000C000E000F0002A
:1006D000E000C000800010002000400080004000CA
:1006E00020001000100030007000F000700030009A
:1006F0001000080104020204F909020404020801BE
:100700004000E0005001480240004000400040002E
:1007100048025001E0004000000100020004FF0F09
:10072000000400020001080004000200FF0F0200A4
:10073000040008008001600610080810081004205A
:10074000042008100810100860068001E007100857
:100750000810081008100810081008101008E0070A
:10076000C003200410081008100810082004C0035B
:10077000200020046006E003F801FE01F801E00318
:10078000600620042000F8034000400048025001A9
:10079000E00040000000F803400040004802500123
:1007A000E00040000000F803F80340004000480269
:1007B0005001E00040000100FF0F010001000100B6
:1007C000FF0F01001000F00F100010001000F00FDC
:1007D0001000030C0D0B91086108010801080108C5
:1007E000900090009000FE0790009000FE0790009F
:1007F00090009000F0000801FF0F0801F000FC07D6
:10080000420842084208FC070606010801080108E0
:10081000FE076000800100060008FE0701000100DD
:10082000E00710081008E00710080040FE3F010034
:100830002108DE077E048103010081037E04E00FAE
:10084000580046004100FF0F210821082108200719
:1008500090089008E00790089008E004FF0F010856
:100860000108FF0F60009E07010801089E07600055
:10087000E00710081008E00790089008E004FE0761
:10088000010801080108FF0F210821082108F83795
:10089000040C840B74080C08FB070008C003200636
:1008A000A0056004C003100030064808FE3F080998
:1008B000100680074008F03F400880048008F00FD1
:1008C00088080808100838054005800F40053805DD
:1008D000F0070A0809080A083006F007090809089D
:1008E00008083006F007080809080A083006F0076B
:1008F0000A08090808083006F20709080A08090862
:100900003006F00709080A0809083006E40712084B
:1009100014082004E407100810082404E007120853
:1009200014082004E007140812082004E407120841
:1009300014082204E207140812082004F80F0A0819
:1009400009080A08F007F80F090808080908F0075D
:10095000F80F080809080A08F007F80F0A0809083C
:100960000808F007FA0F09080A080908F007F80F45
:100970000A0809080A08F007820741084208F80F28
:10098000810740084108F80F800741084208F80F26
:10099000800742084108F80F820741084208F90F12
:1009A000820741084208F80FF00F8800884088202D
:1009B000F00F200790089048E02FF80F884888280B
:1009C0008808E00790489028E004090C0A0BCA0840
:1009D0003908120C940B72084000FF0F210801081F
:1009E0000108FE07CA0724082A08F0070010FE0FB6
:1009F0000100210821082108DE07F20F140012006F
:100A00000600090009000600080810042002400141
:100A1000800080004001200210040808FC3F0240D2
:100A2000042008101008200440028001FF0F010874
:100A3000010811082108410821081108FF0F0400CE
:100A400002000100FE0F02080208C20FC20FC20F0F
:100A5000C20FC20F02080208FE0F600494081209B8
:100A60002006F20F14001200E00F080C0A0BC90850
:100A70003808100C940B7208080C0A0BC8083808C8
:100A8000100C940B7008F00F89008A008900F00F99
:100A9000220794089408E20F01000140FF2F010093
:100AA00001001000FE471028FD0F440844084508C7
:100AB00004000400FC0F440044204410800FFC0F8D
:100AC000040005000500F003480444084408080435
:100AD000380644084408840818070408FC0F040872
:100AE0000508FC0F0508000400080408FC070400C2
:100AF0000008FC070400FC0F400840088007FC0FBA
:100B000040004000FC0F4008400880070400FC0F34
:100B1000440044004400800FFC0F4000A100190372
:100B2000040C3C08C1040203C1003C00FC0F000897
:100B300000380008FC0FF00F480044004800F00F98
:100B4000FC0F4408440844088407FC0F4408440888
:100B50004408B807FC0F040004000400003CFC0B30
:100B600004080408FC3FFC0F44084408440800182B
:100B700000061801E000001FE00018010006001840
:100B80000804440844084408B807FC0F0006E001C4
:100B90001800FC0FFC0F0106E2011900FC0FFC0F0E
:100BA0004000A0001803040C0008FC070400040027
:100BB000FC0FFC0F08007000800170000800FC0FA3
:100BC000FC0F400040004000FC0FF8070408040838
:100BD0000408F807FC0F040004000400FC0FFC0FDD
:100BE0004400440044003800F807040804080408DE
:100BF000180604000400FC0F040004003C08C004B4
:100C00000003C0003C00F0030804FC0F0804F003DC
:100C10000C0C3003C00030030C0CFC0F0008000863
:100C2000FC0F00383C0040004000FC0FFC0F0008A7
:100C3000FC0F0008FC0FFC0F0008FC0F0008FC0F65
:100C400000380400FC0F8008800880080007FC0FB3
:100C50008008800800070000FC0F080444084408CE
:100C60004804F003FC0FC000F80704080408F80764
:100C7000380C4403C4004400FC0FC00728092009B5
:100C80002809C0052000F80F200120210011000EC6
:100C9000E00F2800240022008003400520092009DD
:100CA00040044004A008200940062008E80F00087E
:100CB0002808E00F08082020E81F0008E0072000AF
:100CC0002000E00F000900090006E00F000100010C
:100CD000E00F0009000900062000F80F20012001A4
:100CE0000001000EE00F0801840242042008E043E6
:100CF000042C0810040CE003F00F00080038000872
:100D0000F00F4006200920092009C00FF00F280825
:100D100028082008C007E00F200920092009C00684
:100D2000E00F200020002000001CE00B200820081D
:100D3000E01FC007200920092009C005600F8000BE
:100D4000E00F8000600F4004200920092009C00640
:100D5000E00F000200018000E00FE00F0402080134
:100D60008400E00FE00F000180024004200800082A
:100D7000E00720002000E00FE00F400080000001AD
:100D800080004000E00FE00F000100010001E00FD3
:100D9000C007200820082008C007E00F200020001E
:100DA0002000E00FE07F200820082008C007800313
:100DB000400420082008400420002000E00F20000C
:100DC0002000E043002C0010000CE003C0072008C6
:100DD000F83F2008C0072008C0060001C006200810
:100DE000E00F00080008E00F0038E00000010001FB
:100DF000E00FE00F0008E00F0008E00FE00F000830
:100E0000E00F0008E00F00382000E00F00090009A3
:100E100000090006E00F0009000900060000E00FCD
:100E2000E00F00090009000900064004200920091C
:100E300040058003E00F0001C00720082008C0071C
:100E4000C008200520032001E00F06038607C60F17
:100E50000603060306030603FE03FE0304050A0059
:100E60000E050600140508001C05080024050A00EC
:100E70002E050800360508003E0508004605080056
:100E80004E05080056050A0060050A006A050A00BA
:100E900074050A007E050A0088050A0092050A000A
:100EA0009C050A00A6050A00B0050A000606040013
:100EB000BA050600C0050600C6050800CE050800F4
:100EC000D6050400DA050400DE050400E20504008E
:100ED000E6050600EC0502005C080400600804005A
:100EE000640806006A0806002206100032060200A6
:100EF00034060A003E060A0048061000EE050A0005
:100F0000F8050E000A060C0016060C0074060C000C
:100F100098060800A0060A00AA060800B206080003
:100F2000BA060E00C8060E00D6060E00E4060E0035
:100F3000F2060E0000070C000C070C0018070E004C
:100F400026070E008607120098071000A8070E005B
:100F5000E007140012080E00A8080A00B2080A00F0
:100F6000BC080A00C6080A00000A0800080A0A00AD
:100F7000120A0A001C0A10002C0A1800440A160063
:100F8000C4000A00CE000800D6000A00E0000800F5
:100F9000E8000A00F2000800FA000A000401080054
:100FA0000C010A00160108001E01080026010800B5
:100FB0002E010800360108003E010A004801080021
:100FC00050010A005A01080062010A006C01080081
:100FD0007401020076010200780102007A01020029
:100FE0007C0108008401040088010A0092010A00C3
:100FF0009C010800A4010400A8010E00B6010E0027
:10100000C4010A00CE010800D6010A00E001080070
:10101000E8010A00F2010800FA010A0004020800CF
:101020000C020A00160208001E020A00280206002E
:101030002E020A003802080040020A004A02080094
:1010400052020A005C02060062020A006C020800FA
:1010500074020A007E02080086020A0090020A005A
:101060009A021200AC021200BE020A00C8020A0074
:10107000D2020A00DC020A00E6020800EE020600C4
:10108000F4020A00FE020A0008030A0012030A0022
:101090001C030A0026030A00300308003803080076
:1010A000400308004803080050030A005A030A00DE
:1010B00064030A006E030A00780306007E0306003C
:1010C00084030400880304008C03080094030A00CE
:1010D0009E030A00A8030A00B2030A00BC0308002A
:1010E000C4030800CC030800D4030800DC03080094
:1010F000E4030800EC030800F4030800FC03080004
:10110000040408000C040800140408001C0408006F
:10111000240408002C0406003204060038040400ED
:101120003C0404004004080048040800500408007F
:1011300058040800600408006804080070040800EF
:101140007804080080040800880408005A0A08008F
:1011500090040A009A040800A2040A00AC040800E3
:10116000B4040A00BE040800C6040A00D004080043
:10117000D8040800E0040C00EC040800F4040A00A1
:10118000FE040600D0080A00DA080A00E4080A0093
:10119000EE080A00F8080A0002090A000C09080013
:1011A000140908001C090800240908002C0908007B
:1011B000340908003C090A0046090A0050090A00DF
:1011C0005A090A0064090A006E090A007809080031
:1011D000800908008809080090090800980908009B
:1011E000A0090800A8090A00B2090800BA09080005
:1011F000C2090800CA090800D2090600D8090C0073
:10120000E4090800EC090E00FA090600F4070A00D8
:10121000FE070A0008080A0070080E007E08100089
:101220008E080C009A080E003E0810004E080E00B2
:1012300020080A002A080A0034080A00620A080086
:101240006A0A0800720A0600780A0800800A060086
:10125000860A0A00900A0800980A0A00A20A0600F4
:10126000AC0018007C00180094001800A80A0800C0
:10127000B00A0E00BE0A0800C60A0A00D00A0A0018
:10128000DA0A0600E00A0600E60A0A00F00A0E0082
:10129000FE0A0E000C0B0C00180B0A00220B0A00B1
:1012A0002C0B0A00360B0A00400B0A004A0B0A00FE
:1012B000540B08005C0B0A00660B08006E0B120052
:1012C000800B0A008A0B0A00940B0A009E0B0A008E
:1012D000A80B0A00B20B0E00C00B0A00CA0B0A00D2
:1012E000D40B0A00DE0B0A00E80B0A00F20B0A001E
:1012F000FC0B0A00060C0A00100C0A001A0C0A006B
:10130000240C08002C0C0A00360C0C00420C0C00BB
:101310004E0C0C005A0C0A00640C0C00700C0A00F5
:101320007A0C0A00840C0C00900C0800980C0A003F
:10133000A20C0800AA0C0600B00C0600B60C0400B3
:10134000BA0C1000CA0C0E00D80C0C00E40C0A00F9
:10135000EE0C0A00F80C0A00020D0A000C0D0A003F
:10136000160D0A00200D0800280D0A00320D0A0093
:101370003C0D0A00460D0A00500D0A005A0D0A00E5
:10138000640D0A006E0D0A00780D0E00860D0A002D
:10139000900D0A009A0D0A00A40D0A00AE0D0A0075
:1013A000B80D0A00C20D0A00CC0D0A00D60D0A00C5
:1013B000E00D0A00EA0D0800F20D0A00FC0D0C0019
:1013C000080E0C00140E0C00200E0A002A0E0A0053
:1013D000340E0C00400E0A004A0E12001400630086
:1013E0006C007A0057007E006A0066007E00640090
:1013F000750054006A007A0054007A0060006400AE
:1014000014007D007A007E00140063007C007400EC
:101410007C0066007C005A007C00140051006C00C7
:1014200066004A007000140063007C0074007C00B9
:1014300066007C005A007C006F004A0068007C0057
:10144000640066007C00140051006C0066004A00D5
:101450007000140063007C0074007C0066007C0057
:101460005A007C0014002900140053006400760028
:101470007A0074004A00140063007C0074007C0051
:1014800079004A0088005400660054006800540047
:1014900087004A0068004A006A0014006F00740068
:1014A0006C00580074004A00680066004A0074002E
:1014B0005E005B004A00760076004A007600570026
:1014C0006E00680066005400640014000300000011
:1014D0001C0067006C0052004A0063004A00740060
:1014E00068004A0085007E006A0066007E001400E5
:1014F0005B004A0080004A0066004A006A00520011
:101500005E00740068004A0085006C00740058009A
:101510004A006A0057006E006800660054006400CC
:101520006F0074006C00580074004A0068001400DA
:101530004C0060007A007A00600063004A0070008E
:101540005E0014006700540074005C004A004C0008
:101550004A0063004A0070004A006A005E0086008C
:101560006C00740014004F006C004E007C0064009E
:1015700014006400600066006000520060001E00FD
:1015800014004C004A00780066004A0052005E00D9
:10159000490050005E00640063004A0070004A0089
:1015A00066005E00750054007600140086007E0020
:1015B000640076005400640014004A006600500085
:1015C0004A00640063007C0074007C007A007C00A8
:1015D00086006C007400570054004E0060006400E8
:1015E000680054001400520054008000740054003D
:1015F00052005400140052007C0074004A00640041
:1016000066004A007A005E00660052005E005F00DD
:1016100070007A004A006600140054005200600016
:10162000660052006000490086004A0074006600AF
:101630004A006A004A0068004A00880063007C0093
:1016400074007C007A0068004A00140076005400A0
:1016500080006000860054007600600063005E0039
:1016600074005E0078005E00640014006E006A0082
:10167000660054006800540075005E006400680055
:101680004A0014001E0079004A006A006400140039
:1016900052006C0066007C00490086004A0074001D
:1016A00066004A0074006F004A00740066004A0039
:1016B000640066005E0064001E00140049006600BD
:1016C0007A0014007D0076007A00140001001400F6
:1016D0007D0076007A001400020051006000660070
:1016E0001E00140079007E00740064005000540055
:1016F000490086004A0074005E00140063004A003E
:101700008600520054007A0014002500670054003F
:10171000740064005400880014005B004A004C0010
:1017200054007400660054007600680054001400F1
:1017300085006C00640055004A004C00190014003C
:101740004A0086004A0074005E006A004A001400E5
:1017500052006E006A006900540068006600600074
:1017600069006C00740068004A0066005300640061
:1017700076007A0074004A004B0054006400660052
:101780005400680054008600540014004A006600AB
:101790005E006A0014004A0086004A0074005E0081
:1017A0005B005E00880066005E0014006F0074003D
:1017B0006C00580074004A0068001400490064007E
:1017C0007A006000560014005F0070007A004A0042
:1017D000660085007E006A0066007E0014006300DB
:1017E0007C0074007C007A0068004A007500540098
:1017F000760076006000880063004A004C006600B6
:101800006C0076007C00880014004B004A005A00EF
:1018100066004A006A007A005E001E001400630041
:101820004A0070004A0066005E001E001400490075
:1018300050005E006400140063007C0074007C00B3
:1018400066007C0068001E00140063004A007000FF
:101850004A0066005E00140063007C0074007C0097
:1018600066007C0068001E001400490050005E0005
:1018700064004B004A005A0066004A006A005E009D
:1018800086006C0074001900190019004B004A0012
:101890005A0066004A006A0052005E004B004A008F
:1018A0005A0066004A006A004A0068004A00520076
:1018B0005E00010114005B006C00680054008100B0
:1018C0005C00600088005B006C00680054008100D0
:1018D0005C00600088001400490064007A00600029
:1018E00056001400510054004A0064007A00600061
:1018F000560014005100540080007400540052003F
:1019000054004F004A0068004A0078005E007400EE
:1019100066004A0074005E006A005E0088001400E1
:1019200076006C005A007C0086006C0074005B003E
:101930006C006800540081005C00600088001400A6
:10194000530078006600540078007A00600074004C
:1019500068005400760060006A00600014007500A2
:1019600060006600250014007500600066006000DD
:101970006A0054004E0054006400250075006000A9
:10198000660060006A00600086006C007400190048
:101990001900190075006000660060006A005200BE
:1019A000600075006000660060006A005400680016
:1019B000540052006000610054004A006A00760042
:1019C00051004A00600066008600750086006A00CB
:1019D0007A005C0054007A0060004E00760014002B
:1019E0005D0074006C006A001400510074008600F1
:1019F00014004D007C0070004C006C004A00740024
:101A0000520014005100740086004D006C007A00F2
:101A10007A006C006A0076001400530084007A009B
:101A200074004A00140051007400860055007400D0
:101A3000540076005C0054006A0014007B007000C3
:101A40007900600068005400740014006F00740096
:101A50006C00580074004A0068006800540076006A
:101A600051005400660060004E004A007A005400A5
:101A7000760075005C00600074007A007600140047
:101A8000030000001C00750070006C0074007A00F8
:101A90007600820054004A007400670060008400F1
:101AA00081006C006C006600140073005400560046
:101AB0007400540076005C004B0054005200520049
:101AC00060006A00580075005C00600074007A00D5
:101AD000760014006C0080005400740051006C000B
:101AE0006C00740014006000760014006C0070003C
:101AF00054006A008100540066004E006C006800CB
:101B000054007500820060007A004E005C006000A6
:101B10006A00580014006C00560056004D005C002E
:101B2000600066005200140066006C004E00640005
:101B30001E00140076007A004A0074007A005400F7
:101B400052006B006A006B00560056007F006C006C
:101B500066007C006800540014005C0060005800BF
:101B60005C00140066006C00820051007400860066
:101B700060006A00580053006A00520014007A00A6
:101B8000600068005400140054006A004A004C00D1
:101B9000660054005200140070004A007C00760079
:101BA000540052004D004A006A004E005400660086
:101BB0004D004A006A004E00540066006600540062
:101BC000520069006C007A0014004A005200620062
:101BD0007C0076007A004A004C00660054005100F8
:101BE0007400860060006A0058001400660054000B
:101BF00080005400660049006A007A00600014000A
:101C00002A0014004E00740054004A007600600060
:101C10006A0058007500700060006A0014001E0021
:101C200079004A006A006400140056007C006600D7
:101C30006600750054007A007A0060006A0058005F
:101C400076004B007400600058005C007A006A0067
:101C50005400760076001E0014004B006C007A00E1
:101C60007A006C00680079006C00700014000100BC
:101C700079006C0070001400020065004A006A00E0
:101C800058007C004A00580054001E001400530005
:101C90006A0058006600600076005C0075007A00FB
:101CA0006C00740054001400760054007A007A002E
:101CB00060006A00580076001400250069006C007E
:101CC000140067004A0076007A0054007400140083
:101CD000790074004A006A007600680060007600AF
:101CE000760060006C006A0055004A004E007A00E1
:101CF0006C00740086001400760054007A007A00AC
:101D000060006A00580076007500660060005800A8
:101D10005C007A00140051004A0068007000530013
:101D200084007A0074004A007500820060007A0026
:101D30004E005C0014007A006C00140070004A0031
:101D40007C007600540053006A00520014007A00B0
:101D50006000680054001400760054007A007A0095
:101D600060006A00580081006C006C00660067002B
:101D70004A007400640055004A0076007A0014009E
:101D80006F0074006C00580074004A006800140072
:101D900081006C006C0066006F0074006C007A00BB
:101DA00054004E007A0075006000660054006A001E
:101DB0007A008100600074005400660054007600D0
:101DC000760014004D006C006A006A0054004E005A
:101DD0007A0060006C006A001E0014006B00560060
:101DE00056001E0014006B006A00140075005400B9
:101DF0007A007C0070001E0014006B005600560034
:101E00001400750054007A007C0070001E0014005D
:101E10006B006A004D006C006A006A0054004E00BE
:101E20007A0060006A0058001900190019004D007E
:101E30006C006A006A0054004E007A0054005200A0
:101E400069006C007A0014004D006C006A006A00A2
:101E500054004E007A0054005200140049004E0015
:101E60007A00600080004A007A005400520014009A
:101E7000510054004A004E007A00600080004A0081
:101E80007A0054005200140053006A004A004C00CB
:101E900066005400520085006C007C007400140041
:101EA00066004A007C006A0052007400860014003C
:101EB0006000760014004D006C006C00660060004D
:101EC0006A005800140051006C0082006A00510042
:101ED0005400660054007A00540014005B006C004B
:101EE0006800540081005C006000880014006500F8
:101EF00060006A00640060006A005800250051001C
:101F00005400660054007A0060006A0058005100D6
:101F10005400660054007A0060006A0058001900FE
:101F20001900190051005400660054007A00540052
:101F300052004D006C007C006600520014006A00E4
:101F40006C007A0014004C0054001400670060001C
:101F50006A0060006F00560066005400580054008C
:101F60006600540060004E005C007A0014004B00D4
:101F70007E005800540066007A0074006C004E0029
:101F8000640054006A00140075004E005C00740088
:101F90004A006A0064007A0074006C004E0064001D
:101FA00054006A0063006C004E005C002A001700B9
:101FB0004B007C006A007A008200A30076004E008D
:101FC0005C00540063006C004E005C002A001700A7
:101FD0004B007C006A007A008200A30076004E006D
:101FE0005C005400140075004E005C0074004A0050
:101FF0006A0064007A0074006C004E0064005400B3
:102000006A0014006F0066007C0076001400530024
:1020100084007A0074004A007A0074006C004E005C
:10202000640054006A0049007C00560056007400A9
:10203000600076004E005C0054006A008700540087
:1020400060007A00700074006C00580074004A0050
:1020500068006800540075004E005C006C006A0067
:10206000700074006C00580074004A00680068003A
:102070005B0054006800520054006A001400030022
:1020800000001400680060006A00750070006C00B9
:1020900074007A004C005400640066005400600034
:1020A00052007C006A00580081006C0066006600E7
:1020B0005400140049007C00560056007400600073
:1020C00076004E005C0054006A004B0054007A0019
:1020D0007A00520054004E00640054006A005B0015
:1020E00054006800520054006A00680014004C005C
:1020F000540054006A00520054007A0079007E00B7
:10210000740014006C005600560054006A008100F0
:1021100060006600660064006C006800680054009F
:102120006A0049004C0076004E005C004A006600E0
:102130007A007C006A005800630060006A00520068
:1021400054007400760060004E005C00540074007F
:102150007C006A0058001E006800140058005400FB
:1021600076007A004A0074007A0054007A00540025
:1021700060006A004A007C0076007F006C00660008
:102180007C00680054006A0014005C006C004E0083
:102190005C00140058005400740060006A0058008D
:1021A000790074006C004E0064006A0054006A00FC
:1021B00053006A0052008800540060007A00140046
:1021C0004A0064007A0060008000680014007C000F
:1021D0006A007A00540074004C0074006C004E00D9
:1021E0005C0054006A0049004C004C00740054002C
:1021F0004E005C0054006A0049004C005800540036
:102200004C0074006C004E005C0054006A006900D1
:1022100060004E005C007A001400540060006A0008
:1022200076007A005400660066004C004A00740094
:10223000790074006C004E0064006A007C006A0043
:102240007600580074004A00520063006A00600083
:102250007A007A005400740076004E005C007C0026
:102260007A00880075004E005C00660054007C0017
:102270005200540074006A0014001E0079004A00E5
:102280006A006400140080006C0066006600530061
:1022900060006A0076007A005400660066007C00E8
:1022A0006A00580054006A005B0054006600660033
:1022B000600058006400540060007A001E001400A2
:1022C0007B006A007A00540074007A0054006000B9
:1022D00066006B004C00540074007A0054006000EB
:1022E0006600140001006B004C00540074007A007A
:1022F0005400600066001400020075007000740055
:102300004A004E005C0054001E00140051005400AE
:102310007C007A0076004E005C00530060006A008A
:1023200076007A005400660066007C006A0058005F
:1023300054006A00140076007000540060004E00E3
:102340005C00540074006A001400250081005400F1
:10235000740064007600540060006A0076007A0021
:102360005400660066007C006A00580054006A0051
:102370006500540060004E005C007A0014005600B6
:1023800054007C004E005C007A004B0060007A0034
:102390007A00540014004A006A005C004A0066009B
:1023A0007A0054006A0053006A005200880054000A
:1023B00060007A00540060006A0076007A005400E1
:1023C000660066007C006A00580075004E005C00E4
:1023D0006A00540066006600700074006C005800CB
:1023E00074004A00680068001400530060006A002E
:1023F00075004E005C006A005400660066007000C4
:1024000074006C00580074004A00680068001400F2
:1024100049007C00760081006C0066006600700058
:1024200074006C00580074004A0068006800650081
:102430005400600076005400510074004A005C00B3
:102440007A0066006C007600540014007F0054008F
:1024500074004C0060006A0052007C006A00580062
:102460001E00140049007C00760014005300600038
:102470006A005B006C006800540081005C00600032
:1024800088001400750054007A007C0070001E0063
:10249000810060007400520014007F00540074003A
:1024A0004C007C006A00520054006A0019001900B8
:1024B00019007F00540074004C007C006A00520038
:1024C00054006A00690060004E005C007A0014004D
:1024D0007F00540074004C007C006A0052005400DD
:1024E0006A001400490064007A0060008000600007
:1024F000540074007A001400510054004A00640033
:102500007A00600080006000540074007A001400BB
:10251000600076007A001400490064007A006000D0
:1025200080006000540074007A005D005C0074005C
:10253000540014008200A30076004E005C0054009A
:10254000140064007E005C0066007A0014004A00FB
:102550004C005B006C006800540081005C0060006F
:1025600088002A007F0054007400660060006A0042
:1025700064007C006A005800140065006E0076005C
:102580004E005C0054006A00140065006E00760086
:102590004E005C0054006A00250065006E00760065
:1025A0004E005C0054006A00190019001900580020
:1025B000540066006E0076004E005C007A006300F6
:1025C0006C006A006A007A00540014006A0060001F
:1025D0004E005C007A0014005800540066006E0043
:1025E00076004E005C007A001400820054007400F3
:1025F000520054006A0071007C006C007A00600098
:102600005200600054006A00750086006A007A007B
:102610005C00AB007A00600072007C005400140083
:102620006F007400A8007A001400A4001400730066
:10263000540070004A0076007600540074001400C4
:102640006F007400A8007A001400A40014006F004A
:102650006C0074007A00540074004D006C007A0025
:102660006C006A0014006F007400A8007A00140067
:10267000A40014006F006C0074007A005400740011
:1026800014006F0066007C00760014005300840084
:102690007A0074004A001400750054004E00730064
:1026A0004A00560074004A00AE004E005C00600014
:1026B0007400670060006A007C007A0054007400B7
:1026C000600054005100AB00660060004E004A00FC
:1026D0007A004D005C0054006800600076005400F1
:1026E00076001400030000001C00750070006C00F0
:1026F00074007A00550074004A00AE004E005C0081
:1027000054007C007400140065004A0060006A00F8
:102710005400650060007A005400740060005400AA
:102720004D005C00540068006000760054007600A4
:102730006800540014007A005400740068006000BF
:102740006A00AB0065004A00140070006C00740061
:102750007A0054001400540076007A0014006C00D3
:102760007C008000540074007A0054004B0060002C
:1027700054006A00800054006A007C005400670026
:102780006000760054001400A400140066001A00D3
:102790004A0074007400A8007A007500AB004E0077
:1027A0007C00740060007A00AB00140054006A00E2
:1027B00056004A006A007A0076001E006800540045
:1027C00014005200AB0068004A0074007400AB00B3
:1027D00068004A0074004E005C0054004A00740017
:1027E0007400A8007A007F006C0066007C0068001E
:1027F00054001400AB00660054008000AB001400CD
:1028000056004A0060004C00660054007500AB00A2
:102810004E005C004A00580054005B0054007C00ED
:10282000740054001400520054001400560060005C
:102830006A0014004A004E007A0060008000AB007D
:10284000540068005400140076007C00760070008C
:1028500054006A0052007C0049006A006A007C0053
:1028600066005400740049006A006A007C0066003B
:10287000AB0069006C006A0014004A0062007C0032
:1028800076007A004A004C0066005400690060003F
:10289000800054004A007C001400520054001400D0
:1028A0007600AB004E005C004A005800540049001E
:1028B0006A007A006000560074006C0060007600C8
:1028C00076004A00580054005300760076006C00F1
:1028D00074004A005800540014001E007300AB003E
:1028E00076005400740080006C00600074001400D6
:1028F00070006600540060006A007300AB0058006E
:1029000066004A0058005400760065007C006800AC
:1029100060006A006C00760060007A00AB001E0068
:10292000140014004B004A00760014005B004A00BB
:102930007C007A001400010014005B004A007C0057
:102940007A001400020065004A006A0058007C000A
:1029500054001E001400550074004A006A004E0026
:102960004A00600076006700AB0068006C007400ED
:102970006000760054007400140066005400760075
:10298000140070004A0074004A006800AB007A002E
:10299000740054007600140025007300AB0058004A
:1029A00066004A0058005400760014007C0076004F
:1029B00060006A0054006600AB005800AB00740071
:1029C000540014005C007C0068006000520060004D
:1029D0007A00AB004B004A0076004E007C00660097
:1029E0005400740014008000540074007600140039
:1029F00066001C006C0070007A0060006C006A00C9
:102A000014006F004A007C00760054007300AB0095
:102A1000580066004A005800540014005200540048
:102A2000140066001C005C0054007C00740054001C
:102A30001400520054001400560060006A006F0039
:102A400074006C00580074004A006800680054006C
:102A5000140074004A00700060005200540014001A
:102A60004A004E007A0060008000AB0054006F0006
:102A700074006C00580074004A006800680054003C
:102A8000140074004A0070006000520054001400EA
:102A90004A0074007400A8007A006F0074006C0093
:102AA0007A0054004E007A0060006C006A00140046
:102AB00066004A0060006A0054006F0074006C00F9
:102AC000580074004A0068006800540014004D006B
:102AD0006C007A006C006A001400700066004A0006
:102AE0004E004A00740052001400760054004E005C
:102AF000140076006000660054006A004E0060001A
:102B000054007C0084004D006C006A006A00540090
:102B1000840060006C006A00140075004A006A00BE
:102B2000760014005500600066001E001400490085
:102B300074007400A8007A00140067004A00740052
:102B40004E005C0054004D006C006A0056006000AE
:102B500058007C0074004A007A0060006C006A0033
:102B6000140052005400140066004A0014005B0078
:102B70006C006800540081005C00600088001E004A
:102B80004D006C006A006A005400840060006C0014
:102B90006A00140054006A0014004D006C007C00B0
:102BA000740076001900190019004D006C006A00CD
:102BB0006A0054004E007A00AB0069006C006A00A5
:102BC00014004D006C006A006A0054004E007A0048
:102BD000AB00140049004E007A0060008000AB009A
:102BE00014005100AB0076004A004E007A006000ED
:102BF0008000AB00140049004E007A0060008000A5
:102C0000AB007F006C007A00740054001400650073
:102C100060006A005800540014007300540056000D
:102C200074006C006000520060007A0075007C0047
:102C3000700070007400600068005400740014009C
:102C40006600540014006600600054006A0014001E
:102C50005B006C006800540081005C00600088002C
:102C6000250075007C007000700074005400760030
:102C7000760060006C006A00140051007C001400B3
:102C80006500600054006A0014005B006C0068007E
:102C9000540081005C0060008800250075007C0005
:102CA00070007000740054007600760060006C00C4
:102CB0006A0019001900190075007C00700070008E
:102CC000740060006800AB005D00680070006C007C
:102CD0007600760060004C0066005400140052003C
:102CE0005400140076007C007000700074006000D6
:102CF0006800AB00740051004A00580054006600A0
:102D00006000620064007600750086006A007A0048
:102D10005C0054007A00600076004E005C001400F5
:102D200075007A0074006000620064005200740054
:102D30006C006C005800140063004A0076007A00B2
:102D4000520074006C006C00580063004A007A0066
:102D50006C0054006A0014004D006C006A005600BC
:102D600054004E007A006000540014006F006600AA
:102D70007C0076001400530084007A0074004A003E
:102D80001400520074006C006C0058007F00540066
:102D9000740066007C004E005C007A0054006A00FB
:102DA000790060006800540074005100540066000F
:102DB00060004E004A004A007A007F005400740010
:102DC00066007C004E005C007A0054006A0014002B
:102DD00082006C0066004B00540052005200540008
:102DE0006A0058006C005400520068004A00140049
:102DF00080006C0066007A006C006C00600052007D
:102E0000510054007C00740014006000760014002F
:102E10006C00700054006A00810054006600640079
:102E20006C0068007C0060007A0076004E005C0058
:102E30004A0064005400660054006A0063006000A9
:102E40006A00520054007400760066006C007A003C
:102E50001E0068004A0014005800540076007A00F2
:102E60004A0074007A0060006A005800540076003E
:102E70004E005C004A0064005400660052007C0072
:102E800060007A005800540076004E005C004A0052
:102E900064005400660052007F006C0066007C00F5
:102EA0006800540014005C006C006C0058001400B2
:102EB00066004A004A005800510074006C00580037
:102EC00054006A00530060006A0052007A006000FB
:102ED0006200520076007A0060007000140060000A
:102EE0006A005800540076004E005C004A006400FE
:102EF00054006600520068004A0014005800540054
:102F000070004A007C008800540054007400520095
:102F100049006A006A007C00660054007400540096
:102F20006A00570054004A006A006A007C0066008C
:102F300054005400740052006900600054007A008C
:102F400014004A004A006A0070004A0076004C00F3
:102F50004A004A007400510074006C006C00580074
:102F60006A006000800054004A007C0049006A004A
:102F70007A00600014002A001400640074005400F9
:102F80007C0064004D0054006A007A007400600008
:102F900056007C0058005400740054006A0014006D
:102FA0001E007300540076005400740080006C0012
:102FB00060007400140080006C0066005D006A0010
:102FC00076007A0054006600660060006A005800CF
:102FD00054006A005B005400660052005400740004
:102FE0005C005400600052001E0014006B006A0078
:102FF0005200540074004A004A006A0079006C00D4
:1030000070001400010079006C00700014000200D0
:1030100079004A004A0066001E0014007F00660026
:103020004A004A00680076005D006A0076007A0077
:1030300054006600660060006A00580054006A0090
:1030400014006C007000760066004A004A006A00B6
:103050001400250055004A004C0074006000540024
:103060006400760060006A0076007A005400660012
:10307000660060006A00580054006A006500600045
:103080004E005C007A00140080006C004E005C0072
:103090007A006000580069006C00740068004A0003
:1030A0004A0066006F004A007C008800540053000C
:1030B00060006A0052007A006000620052007600F0
:1030C0007A0060007000140060006A0076007A00E8
:1030D00054006600660060006A00580075006A00CF
:1030E000540066001400700074006C0058007400F6
:1030F0004A00680068004A00140060006A00580036
:10310000540076004E005C004A00640054006600E3
:10311000520075006A0054006600140070007400CC
:103120006C00580074004A00680068004A001400EF
:103130007C0060007A005800540076004E005C006D
:103140004A00640054006600520063004A007A009E
:103150006C0054006A00140064004A0076007A0093
:10316000520074006C006C005800140076007A0065
:1031700060006600510074004A004A005200660078
:103180006C008800540014007F00540074004C0050
:1031900060006A00520060006A0058001E001400BF
:1031A0007C0060007A005800540076004E005C00FD
:1031B0004A006400540066005200140060006A0077
:1031C0005800540076004E005C004A006400540031
:1031D000660052005B006C006800540081005C00D7
:1031E0006000880014004D006C006A00560060000A
:1031F00058007C0074004A007A00600054001E00F1
:103200004B0054008800600058001400680054000F
:103210007A0014007F00540074004C0060006A00C3
:10322000520054006A001900190019007F00540070
:1032300074004C006C006A00520054006A0069007F
:10324000600054007A0014007F00540074004C00A9
:103250006C006A00520054006A00140057005400C9
:103260004A004E007A006000800054005400740050
:103270005200140057005400520054004A004E00FF
:103280007A00600080005400540074005200140062
:1032900060006A0058005400660076004E005C0032
:1032A0004A0064005400660052007B008200140053
:1032B00081004A00760058006C005400520014004F
:1032C00063006C00540066007A0014004A00560047
:1032D0007F005400740082006000620052005400BD
:1032E000740014005200540014005B006C0068006D
:1032F000540081005C0060008800140063006C00D2
:10330000700070005400660060006A0058002500DC
:103310005B006C006800540081005C006000880065
:10332000140063006C0070007000540066006000C0
:103330006A00580054006A0014007F0054007400B2
:1033400082006000620052005400740054006A0061
:1033500025007F005400740082006000620052006B
:103360005400740054006A001900190019007F000D
:103370005400740082006000620052005400740027
:103380005200540063006C006A0014006A00600080
:1033900054007A00140082006C0074005200540043
:1033A0006A0014007F005400740082006000620014
:1033B000520054007400520055004A004E007A003A
:1033C0006C007400860014007900540076007A00C6
:1033D000140067006C005200540014004B005400AD
:1033E00076007A00230080005300680070005400CB
:1033F00074006C007400230080005D004E006C00BF
:103400006A0014004D006C006A007A0074006C00C1
:10341000660014002A0014004B007C00880088001D
:1034200054007400690079004D005300740074006A
:103430006C00740055004900690014006B006900BD
:103440006F007C006800700014006B006900790058
:103450004A006A006400140055007C0066006600A3
:1034600014006C00740014006F007C006800700091
:1034700014005300740074006C00740067006C004A
:103480007A006C007400140073007C006A00140061
:103490004D008100750054006A0076006C007400D5
:1034A000140075005C006C0074007A0014004D007C
:1034B000600074004E007C0060007A006B006300C6
:1034C00069006B007900750079006B006F00750072
:1034D00054006A0076006C00740014006B007000E9
:1034E00054006A0014004D00600074004E007C001F
:1034F00060007A004D006C00680070007400540099
:10350000760076006C00740014006B0069004D00BA
:103510006C006800700074005400760076006C0047
:103520007400140073007B00690014006B006300DA
:1035300067006C007A006C007400140073007C005B
:103540006A0014004D004D008100140053006A0011
:103550004E006C005200540074004B007C007A0056
:103560007A006C006A0014007900540076007A003A
:10357000750054006A0076006C00740014004D0061
:103580006C006A007A0074006C0066007F006C00BA
:1035900066007A004A00580054004D006C00680034
:1035A000700074005400760076006C007400140003
:1035B0004D006C006C00660060006A00580014004A
:1035C00055004900690014006B0069005D006A0045
:1035D0008000540074007A005400740014004B0002
:1035E0006C004A007400520014004D006C006C0026
:1035F000660060006A005800140055004900690028
:1036000014006B0069005300740074006C007400B7
:10361000140067006C005200540051005400680010
:103620006C00140067006C005200540073005400DA
:103630005400520014007500820060007A004E00B1
:103640005C0014006B0069007300540054005200C9
:1036500014007500820060007A004E005C001400C7
:103660005300740074006C00740075007A005400FC
:103670004A00680014006B00690075007A0054006D
:103680004A00680014006B005500550075007A0070
:1036900054004A00680014006F007C00680070004D
:1036A00014006B006900DE13DC130600E413DC1366
:1036B0000C00F0130014101AF0131A14101E381412
:1036C00000140E1A38141A140E1E381468140E182A
:1036D0008014DC1310009014DC132200B214DC13ED
:1036E0000C00BE14DC131400D214DC130800DA142E
:1036F000DC130A00E414DC1324000815DC130C00AE
:103700001415DC130C0020152E150E0C3A1590150F
:103710000A084415DC130E005215DC13140066155C
:10372000DC131A00201580150E109015DC1308000C
:103730009815DC130C00A415AA15060EA415B815CF
:10374000060CC415DC131200D615E4150E10201556
:10375000F4150E1A0E16DC130A000E1618160A0EB1
:103760002616DC1316003C16DC1320005C16DC1356
:103770001C007816DC130E008616DC131200981657
:10378000DC130E00A616BA161408A616C216140CE0
:10379000A616CE16140CDA16DC131600F016DC137F
:1037A0001C000C17DC132A003617DC1320005617F8
:1037B000DC130A006017DC130C006C17DC130C0020
:1037C0007817DC131C00D61594170E0C661DDC133D
:1037D0001000A017BA171A0CA017C6171A0CD21788
:1037E000DC131A00EC17DC130C00D217DC131A00E0
:1037F000F8171A182210F8172A18220CC6183618AB
:103800001020C6185618101C7218DC131A008C18D9
:10381000DC1310009C18DC131600B218DC13140023
:10382000B218E2181410C618F21810100219DC139E
:103830002C002E1958192A0E2E1966192A167C19D1
:10384000DC1318009419DC130E00A219DC13140009
:10385000B619DC130A00C019DC130A00CA19DE19F4
:103860001412CA19F019141A0A1ADE190E120A1AB9
:10387000F0190E1A0A1A181A0E142C1ADC13140056
:10388000401ADC132000601ADC131200721ADC13D9
:103890001400861ADC1314009A1ADC130600A01A0E
:1038A000DC131800B81ADC130E00C61ADC130C0067
:1038B0002015D21A0E0ADC1ADC131800F41ADC13D5
:1038C0000E00021BDC131A001C1BDC131600201553
:1038D000321B0E10421BDC130400461BDC130600D7
:1038E0004C1B581B0C0A4C1B621B0C086A1BDC137C
:1038F0000C00761BDC1320002015961B0E0EA41B5B
:10390000DC130C00B01BDC131200C21BDC131C0008
:10391000DE1BDC131800F61BDC131E00141CDC136A
:103920000C00201CDC131200321CDC131000421CA3
:103930005A1C180C421C661C180A421C701C180ADF
:103940007A1CDC1322009C1CDC132000BC1CDC1342
:103950002C00E81CDC132000081DDC131600601787
:10396000DC130C001E1DDC130A00281DDC131E00D6
:10397000461DDC132000661DDC131000761D421B63
:103980001A04761D461B1A06901DDC131600A61D90
:103990000C000000901DDC131600B21DD81D260A75
:1039A000B21DE21D2608C618EA1D1016C618001E14
:1039B0001014141EDC131A002E1EDC131200401EFD
:1039C000DC131A00B218DC131400B2186E1E14189F
:1039D000C618861E1010961EDC133800CE1EDA1E86
:1039E0000C24FE1EDA1E10240E1FDC131600241FEA
:1039F000DC130E00321FDC131A00B619DC130A00A8
:103A00004C1FDC130800541F6C1F181A541F861F0C
:103A1000181EA41F6C1F201AA41F861F201EA41F7F
:103A20000C20201A2620DC1316003C20DC131A0080
:103A30005620DC131A007020DC131A008A20DC13D5
:103A40001E009A1ADC130600A820DC132200CA20EC
:103A5000DC131400DE20DC130C002015EA200E120B
:103A6000FC20DC1312000E21DC1314002221DC13D5
:103A700016003821DC132000201558210E166E2167
:103A8000DC1306007421DC1306007A2188210E0A5B
:103A90007A2192210E0EA021DC131000B021DC133C
:103AA0001A002015CA210E1CE621DC131200F82191
:103AB000DC1316000E22DC1322003022DC131A0065
:103AC0004A22DC131A006422DC1318007C22DC1367
:103AD00012008E22DC131A00A822C0221812A8227B
:103AE000D2221814A822E6221814FA22DC1320008D
:103AF0001A23DC133200BC1CDC132C004C23DC1317
:103B000024007023DC131A006017DC130C001E1D48
:103B1000DC130A008A23DC131C00A623DC13240018
:103B2000661DDC131000CA23DC132600F023DC130F
:103B300026001624DC1318002E24DC130A00901D26
:103B4000DC131600382462242A0838246A242A0840
:103B5000722462241E0872246A241E089024DC1336
:103B60002200B224DC131200C424DC131E00B2189D
:103B7000DC131400B218F6241418C6180E25101CF5
:103B80002A25DC1328005225782526105225882561
:103B900026129A25DC131400AE25DC131000BE2576
:103BA000DC133800B619DC130A00F625DC1312000A
:103BB00008261E26162008263E26161C5A261E26D5
:103BC0000A205A263E260A1C5A268A260A149E26AF
:103BD000DC131400B226DC131200C426DC130E0022
:103BE000D226DC131800EA26DC130A009A1ADC132A
:103BF0000600F426DC131E001227DC130E0020271B
:103C0000DC131000201530270E144427DC13280085
:103C10006C27DC1312007E27DC131C009A27DC13B0
:103C200022002015BC270E14D027DC130C00DC2743
:103C3000DC130A00E627F2270C0CE627FE270C0E01
:103C40000C28DC130E001A28DC132800201542284B
:103C50000E165828DC130E006628DC130C007228A0
:103C6000DC131A008C28DC132200AE28DC131A00A7
:103C7000C828DC131400DC28DC131E00FA28DC132F
:103C800010000A29222918080A292A29180E0A29A7
:103C90003829180E4629DC1320006629DC1334006D
:103CA000BC1CDC132C009A29DC131C00B629DC1385
:103CB0001E006017DC130C001E1DDC130A00D42943
:103CC000DC1338000C2ADC133200661DDC131000F4
:103CD0003E2ADC1330006E2ADC132C00901DDC130E
:103CE0001600BA2ADC134C00901DDC131600062BBC
:103CF0002C2B260C062B382B260E462B2C2B3A0C65
:103D0000462B382B3A0E802BDC132A00AA2BDC130F
:103D10001000BA2BDC131800B218DC131400B21810
:103D2000E02B1414C618F42B100E022CDC132A00FE
:103D30002C2CDC133600622CDC133A009C2CDC1398
:103D40001C00B82CDC131000C82CDC132E00B61994
:103D5000DC130A00F62CDC131200082D1E2D161899
:103D6000082D362D16144A2D1E2D0C184A2D362DD1
:103D70000C144A2D742D0C188C2DDC131400A02D5E
:103D8000DC130A00AA2DDC1310007020DC131A00CB
:103D9000EA26DC130A009A1ADC130600BA2DDC139B
:103DA0001C00D62DDC131400DE20DC130C002015C3
:103DB000EA2D0E16002EDC131800182EDC130C0052
:103DC000242EDC1318003C2EDC1316002015522E76
:103DD0000E14662EDC1318007E2EDC131A00982EAB
:103DE000A42E0C0A982EAE2E0C0AB82EDC130C0052
:103DF000C42EDC1332002015F62E0E1A102FDC1301
:103E00001200222FDC131600382FDC131E00562F51
:103E1000DC1316006C2FDC131800842FDC131E003B
:103E2000A22FDC131A00BC2FDC131800D42FEC2FA8
:103E30001810D42FFC2F180AD42F0630180A10306F
:103E4000DC1318002830DC132C00BC1CDC132C0005
:103E50005430DC1328007C30DC131A009630DC135D
:103E60000E001E1DDC130A00A430DC130A00AE3065
:103E7000DC132E00661DDC131000DC30DC13360072
:103E80001231DC133800901DDC1316004A31DC13AC
:103E90002A00901DDC13160074319E312A1C7431E7
:103EA000BA312A1AD4319E312C1CD431BA312C1A91
:103EB0000032DC132C002C32DC1312003E32DC13F7
:103EC0001C00B218DC131400B2187232141CC6188D
:103ED0008E32101CAA32DC132600D032DC134000D4
:103EE0001033DC1342005233DC131C006E33DC133E
:103EF00016008433DC133400B83324000000DC33B4
:103F00000C000000E83312000000FA332A00000021
:103F10002434060000002A340A00000034340C0067
:103F2000000040340E0000004E342E0000007C34AF
:103F300018000000943428000000BC340400000085
:103F4000C03406000000C63408000000CE3426004D
:103F50000000F4341A0000000E3522000000303555
:103F60001A0000004A35020000004C350E00000027
:103F70005A351600000070351C0000008C350E000C
:103F800000009A3532000000CC353A0000000636B9
:103F9000140000001A36120000002C361C0000002D
:103FA0004836220000006A36100000007A361200FF
:103FB00000008C361A0000002E1E12000000401E69
:103FC0001A00000011241FBECFEFD0E1DEBFCDBF2D
:103FD00017E0A0E0B1E0E8E5FCEE02C005900D922C
:103FE000A63AB107D9F71DE0A6EAB7E001C01D92D5
:103FF000AD34B107E1F70E94DE6C0C942A760C9484
:104000000000EF92FF920F93DF93CF93CDB7DEB70F
:1040100060970FB6F894DEBF0FBECDBFA82F002368
:1040200009F461C07E010894E11CF11C88E0F701ED
:1040300011928A95E9F729833A834B835C836D83D8
:104040007E83AF83988780E2801BE82FFF27E7FD00
:10405000F0954D815E816F817885181684F01D86FC
:104060001E861F86188A882799278E1B9F0B04C0DF
:1040700076956795579547958A95D2F728C0202F52
:10408000332727FD3095DB01CA01022E04C0B69507
:10409000A795979587950A94D2F78D879E87AF87C6
:1040A000B88B04C0440F551F661F771FEA95D2F7DF
:1040B00089819A81AB81BC8104C0B695A7959795FB
:1040C00087952A95D2F7482B592B6A2B7B2B49874A
:1040D0005A876B877C8729853A854B855C856D85FA
:1040E0007E85AF8598898A2F60960FB6F894DEBFDB
:1040F0000FBECDBFCF91DF910F91FF90EF9008954C
:10410000882359F0109285001092840080E38093F8
:10411000800081E18093810008951092800081E108
:10412000809381005C980895A82F80910F018F3FA4
:1041300049F080910F01813029F08091D9078F7E5D
:104140008093D9078091CB0787FD08C08091D9075C
:1041500084FD04C080E00E9480200895AC3008F007
:10416000C6C080911101A81771F0A093110110929F
:10417000D4078091D9078D7F1092D8071092D70766
:1041800084608093D9078091D5079091D6070197D5
:1041900049F41092D6071092D5078091D907846010
:1041A0008093D90780918400909185008055964432
:1041B000E0F08091D2079091D307969587959093E0
:1041C0008B0080938A008091D2079091D3079093BF
:1041D000870080938600109285001092840080E30F
:1041E0008093800081E1809381002B9A6091D907B0
:1041F00062FF7DC0862F8B7F8093D90780910E014F
:104200003091D4072CE0829FC0011124A80F4A2FBF
:1042100050E0FA01E15DFE4F80813817C9F4109239
:10422000D4078FEF80930F018093100180931101C9
:10423000687B6093D9071092D8071092D70780E067
:104240000E9480208091D9078F7E8093D90708959E
:104250008091D407DA01AA0FBB1FA40FB51FAA0FC4
:10426000BB1FAA0FBB1FFD01E80FF11DEC56FE4F4F
:10427000E081F0E0EE0FFF1FE75EFE4F808191814D
:104280009093D3078093D2078091D407A80FB11DD4
:10429000AA0FBB1FAC54BD4F8D919C919093D60734
:1042A0008093D50780E00E9480208091D207909172
:1042B000D307892BB9F0F8948091D2079091D30756
:1042C0009695879590938B0080938A008091D20772
:1042D0009091D307909387008093860081E00E949D
:1042E000802078948091D4078F5F8093D4070895BD
:1042F0008091BF078093DA0C80913608909137083F
:104300009670282F207285FF04C0963069F483E0F0
:1043100009C0222349F4963011F482E003C09230A0
:1043200019F481E08093DB0C10920A091092F50CCD
:1043300008951F920F920FB60F9211242F933F935F
:104340004F938F939F93EF93FF938091FB0C8E7FFE
:104350008093FB0C809157088E7F809357081092B2
:1043600055081092540820915308922F906890930A
:1043700053088AE08093890894FD08C0206920933F
:1043800053081092400985E78093400990915308A3
:1043900090FD45C291FD08C088EC8093F9089260B9
:1043A000909353081092F808E091F808F0E080919B
:1043B000C600E15FF64F80838091F8088F5F80939D
:1043C000F8088091F808853009F06FC01092F8085D
:1043D00080910F0983FF1DC08091530888608093EE
:1043E000530820E030E0F901E15FF64F90818081D1
:1043F0008295807F92959F70892B80838081909198
:104400004009892780832F5F3F4F2530310559F7B9
:1044100005C080915308877F80935308409110090D
:1044200020911109942F80E030E0822B932B909300
:104430000C0980930B0940910F098091100990910C
:1044400011092091120930911309840F890F820FED
:10445000830F8F3FF1F4909153089160909353082C
:104460008091C1008F7B8093C100892F8D7F8093C5
:10447000530893FD07C080910F0987FF03C09C7FFD
:104480009093530810928908109288081092870818
:1044900005C0809153088C7F809353081092F908CF
:1044A000809153088F77809353082091530820FF01
:1044B000B6C180910F09853009F475C1863078F452
:1044C000823041F1833020F4813009F07CC117C083
:1044D000833009F456C0843009F075C131C083328D
:1044E00009F434C1843220F4873009F06CC167C10B
:1044F000843809F460C1853809F065C15CC18091D8
:104500001109863008F06AC1E0911109F0E0E25724
:10451000FE4F0FC080911109873808F05FC1E0910C
:104520001109F0E0EE0FFF1FEC50FB4F0190F081FE
:10453000E02D80818093010D2F7B209353084EC185
:10454000109252088FEF8093180D87E88093730CB8
:1045500090915208E92FF0E0EE0FFF1FEC50FB4F57
:104560000190F081E02D80818093010D9F5F9093F9
:1045700052088091180D9091010D891B8093180DA0
:10458000DBCF80911109873808F004C180911109AF
:104590008335C1F480911209826080931209E09101
:1045A0001109F0E0EE0FFF1FEC50FB4F0190F0817E
:1045B000E02D9091120980818923808380911209D6
:1045C0008D7F1BC080911109863541F580911209BC
:1045D000886080931209E0911109F0E0EE0FFF1F4F
:1045E000EC50FB4F0190F081E02D909112098081F9
:1045F0008923808380911209877F80931209E0913B
:104600001109F0E0EE0FFF1FEC50FB4F0190F0811D
:10461000E02D909112098081892B96C0809111091B
:10462000813059F480911209807F809392088091A3
:1046300012098F7080939308ADC0809111098F315A
:1046400021F5E091110980911209F0E0EE0FFF1FB2
:10465000EC50FB4F0190F081E02D80838091120996
:10466000863309F097C08091A707873031F4809195
:104670003D088F7780933D0805C0809138088F777B
:10468000809338081092BB0C85C080911109873047
:1046900009F44EC080911109883009F449C0809115
:1046A0001109853829F4809112098091120972C08C
:1046B000809111098A35A1F480915B088834C1F595
:1046C000809112098F30A1F5809100018F3081F126
:1046D0008091BB08843061F58BE18093A20828C0EB
:1046E00080911109803891F4809112098093E20839
:1046F0008091E208863C09F04DC08091D90C882356
:1047000009F048C082E38093D90C44C0809111091C
:104710008F3371F48091F60C90911209892784FFF0
:1047200007C0809134088A60809334081092B007E3
:10473000E091110980911209F0E0EE0FFF1FEC509B
:10474000FB4F0190F081E02D808324C080911109FE
:10475000813568F4E091110980911209F0E0EE0FC3
:10476000FF1FEE5FF94F0190F081E02D8083809173
:104770001109893079F420E030E0F901ED51F74F6B
:104780008081F901E050F74F80832F5F3F4F2A303F
:10479000310599F78AEA8093010D809153088F7B48
:1047A000809353081BC01092400985E7809340090D
:1047B00080914009BFCE2F7B2093530830C08AEAF6
:1047C0008093010D0BC080911601806180931601CA
:1047D000809153088C7F8093530821C09091530897
:1047E00090FF1DC080910F098F78843041F0946054
:1047F000909353088091010D80958093230D8091B3
:10480000010D8093C6008091C10080648093C10037
:10481000809153088E7F8093530810925608FF9121
:10482000EF919F918F914F913F912F910F900FBEDC
:104830000F901F9018951F920F920FB60F92112490
:104840008F939F93EF93FF938091530885FF04C04C
:104850008F7D8093530837C082FF0BC08B7F80937E
:1048600053089091230D9093C60080628093530863
:104870002FC0909152088091730C981720F5909159
:104880005208E92FF0E0EE0FFF1FEC50FB4F0190B4
:10489000F081E02D80818093010D9F5F90935208FD
:1048A0008091180D9091010D891B8093180D8091B6
:1048B000010D8093C6008091520880930A0980916F
:1048C000C100806403C08091C1008F7B8093C100D0
:1048D000FF91EF919F918F910F900FBE0F901F90BE
:1048E0001895CF93DF938091530887FF02C080E033
:1048F00037C0C4EFD4E0ACE6B9E090E020E0E88156
:10490000F981E0818C91E81719F1EC93892F8E528F
:10491000843008F02F5F993431F48091CB078160A7
:104920008093CB0715C09B3431F48091D907816007
:104930008093D9070DC0892F8C54823010F099359F
:1049400039F4809134088860809334081092AF075E
:104950009F5F22961196963891F6822F211181E061
:10496000DF91CF91089510920F09109210091092C3
:10497000110910921209109213091092230D10922E
:10498000F80810925208109240091092F9081092FB
:1049900053081092010D10920C0910920B091092FD
:1049A000730C10920A09109256081092C50089E102
:1049B0008093C40082E28093C00088E98093C100A4
:1049C00086E08093C20008951F920F920FB60F9257
:1049D00011242F933F934F935F936F937F938F9304
:1049E0009F93EF93FF932091FF08922F90689093ED
:1049F000FF088AE08093890894FD08C0206920930D
:104A0000FF081092750C85E78093750C9091FF0854
:104A100090FDFAC391FD08C088EC80933109926043
:104A20009093FF081092160DE091160D8091CE0024
:104A3000F0E0EF5BF64F80838091160D8F5F8093DF
:104A4000160D8091160D853009F043C01092160D99
:104A50006091FF08762F777F50914209409143097A
:104A6000952F80E0242F30E0822B932B9093210D03
:104A70008093200D20914109450F420F80914409F8
:104A8000480F80914509480F4F3FC9F4972F916017
:104A90009093FF088091C9008F7B8093C900892F74
:104AA0008D7F8093FF0827FF03C09C7F9093FF08B2
:104AB00010928908109288081092870803C0647FBA
:104AC0006093FF08109231098091FF088F778093DF
:104AD000FF082091FF0820FF97C38091410983328E
:104AE00009F4F4C08432F0F4843009F454C0853001
:104AF00048F48230E1F1833008F05EC0813009F083
:104B000053C32CC0873009F4FEC0883020F48530B0
:104B100009F04AC3ECC0813209F498C0823209F02E
:104B200043C39DC0843309F4FBC2853350F4823300
:104B300009F4EDC0833308F0FBC0843209F034C3BC
:104B4000A4C0863309F401C3863308F4EDC2843867
:104B500009F4D5C0853809F027C3D1C0E0914309D5
:104B6000E63008F027C3F0E0EE57FE4F0DC0E091AD
:104B70004309E73808F01EC3F0E0EE0FFF1FEC50CA
:104B8000FB4F0190F081E02D80818093FA082F7B0C
:104B90002093FF080FC310924F088FEF8093180DDA
:104BA00087E88093740C90914F08E92FF0E0EE0FA6
:104BB000FF1FEC50FB4F79C0E0914309E33551F4FE
:104BC00090913508809144098D7F9270892B809354
:104BD0003E088BC0E635C9F480918508813059F0D4
:104BE00080918508813439F090913808809144098A
:104BF0008778987706C09091380880914409877E1D
:104C00009871892B8093410870C0E73551F49091D9
:104C10003908809144098C7F9370892B80934208D6
:104C200064C0E43551F490913608809144098F7B3B
:104C30009074892B80933F0858C0E73808F055C01E
:104C4000F0E0EE0FFF1FEC50FB4F49C0E09143092D
:104C5000E63008F0AFC2F0E0E857FE4F95CFE091A4
:104C60004309E13508F0A6C2F0E0EE0FFF1FEE5F4A
:104C7000F94F0190F081E02D80818093FA088091B6
:104C8000FF088F7B8093FF0895C210924F088FEF2B
:104C90008093180D81E58093740C90914F08E92F53
:104CA000F0E0EE0FFF1FEE5FF94F0190F081E02D75
:104CB00080818093FA089F5F90934F088091180D30
:104CC0009091FA08891B8093180D61CFE0914309F8
:104CD000E13558F4F0E0EE0FFF1FEE5FF94F019061
:104CE000F081E02D8091440980838AEAC6CF10923A
:104CF000750C85E78093750C8091750C46CF2F7BE2
:104D00002093FF0881C28AEA8093FA0853C2E09197
:104D10004309ED3308F03CC2F0E0EE0FFF1FEC5505
:104D2000F94F0190F081E02D80818093FA082DC227
:104D3000209143092A3111F02E3059F481E08093FB
:104D4000BC088093BD088093AE082E3011F4809388
:104D5000BE088091AE08813051F42E3141F480912B
:104D60004409823321F41092B40C1092AE08809161
:104D7000380887FF31C180915B08883409F42CC161
:104D80008091A707873009F427C1822F825287318B
:104D900018F02E3109F020C192E09093AE08E22F76
:104DA000F0E0EE0FFF1FEC55F94F0190F081E02D80
:104DB0008CE0E23AF807A1F490914409913108F0AF
:104DC00002C180915A08891709F4FDC0E0911709C2
:104DD000F0E0E758F34F81E083879093C30812C057
:104DE0008CE0E83AF807A1F490914409943008F077
:104DF000EAC0E0911709F0E0E758F34F84E08387B9
:104E00009093C608809117098F5F80931709DBC0C4
:104E10008CE0E53AF80771F4809144098A3108F092
:104E2000D2C0E0911709F0E0E758F34F93878093E1
:104E3000C408E8CF8CE0E63AF80779F49091440989
:104E40009D3308F0C0C0E0911709F0E0E758F34F38
:104E500083E083879093C508D5CF8CE0E43AF807C8
:104E600079F490914409943008F0ADC0E0911709AD
:104E7000F0E0E758F34F85E083879093C708C2CFEF
:104E80008CE0E33AF80779F490914409913108F005
:104E90009AC0E0911709F0E0E758F34F87E0838765
:104EA0009093C908AFCF8CE0E73AF80789F4909166
:104EB0004409892F8150803108F085C0E09117099D
:104EC000F0E0E758F34F86E083879093C8089ACFC5
:104ED0008CE0EB37F807B1F4E0911709F0E0E75800
:104EE000F34F8CE08387809144098093CE088091B2
:104EF00017098F5F809317098091A60888608093B7
:104F0000A60861C08CE0EF3AF80779F49091440963
:104F1000963008F058C0E0911709F0E0E758F34FD9
:104F200089E083879093CB086DCF8CE0EE3AF80749
:104F300079F490914409933008F045C0E091170945
:104F4000F0E0E758F34F8AE083879093CC085ACF7C
:104F50008CE0ED3AF80771F490914409923098F59D
:104F6000E0911709F0E0E758F34F8BE083879093C7
:104F7000CD0848CF8CE0ED3BF80771F490914409DF
:104F8000923008F5E0911709F0E0E758F34F8EE012
:104F900083879093D00836CFE45BFC40A1F49091D6
:104FA0004409923381F4E0911709F0E0E758F34F98
:104FB0008DE083879093CF08809117098F5F80934E
:104FC00017099093B40C809117098E3110F010924C
:104FD000170981E080931A09223208F098C02E3117
:104FE00009F495C0E22FF0E0EE0FFF1FEC55F94FEA
:104FF0000190F081E02D80914409808380914309E4
:10500000873109F04BC080914409882309F07FC0A3
:105010008091E208863C09F07AC080E090E0FC01D3
:10502000E050F74F108201968A309105C1F7109237
:10503000DA0C1092DB0C1092DF0C1092DE0C109246
:10504000E00C1092E10C1092E20C1092E30C109222
:10505000E40C1092E50C1092E60C1092E80C109201
:10506000E70C1092EA0C1092E90C1092EC0C1092E2
:10507000EB0C1092ED0C1092EE0C1092EF0C1092C3
:10508000F00C1092F20C1092F10C1092F40C1092A1
:10509000F30C1092F50C1092E20839C08F31B9F57B
:1050A0008091B108813041F4809144098230E1F46B
:1050B0008BE08093B4082BC08091B108833041F419
:1050C00080914409843011F08B3071F485E011C077
:1050D0008091B1088530D9F08091B1088823B9F06A
:1050E0008091B1088A3099F01092BA081092B908EC
:1050F00086E08093B1081092B3081092B20886E15E
:105100008093B408809134088860809334088AEAD8
:105110008093FA088091FF088F7B8093FF0838C046
:105120008AE180934F0802C010924F088FEF80935E
:10513000180D8DE38093740C90914F08E92FF0E0E7
:10514000EE0FFF1FEC55F94F10C010924F088FEF74
:105150008093180D8AE28093740C90914F08E92F88
:10516000F0E0EE0FFF1FE25EF84F0190F081E02DBE
:1051700080818093FA089F5F90934F088091180D6B
:105180009091FA08891B8093180D2F7B2093FF08BC
:1051900088EC809318011092A9088091AA088823AE
:1051A00049F01092AA0806C08091FF088C7F809376
:1051B000FF082AC09091FF0890FF26C08091410906
:1051C000843081F0843271F0853361F0843351F0A2
:1051D000863341F094609093FF088091FA0880959F
:1051E0008093F7088091FA088093CE008091C900DF
:1051F00080648093C9008091FF088E7F8093FF08B0
:105200001092510810925008FF91EF919F918F9149
:105210007F916F915F914F913F912F910F900FBEB2
:105220000F901F9018951F920F920FB60F92112496
:105230008F939F93EF93FF938091FF0885FF04C0A6
:105240008F7D8093FF0863C082FF0BC08B7F8093AC
:10525000FF089091F7089093CE0080628093FF083A
:105260005BC090914F088091740C981708F04FC064
:105270008091740C873849F490914F08E92FF0E041
:10528000EE0FFF1FEC50FB4F26C08091740C813550
:1052900049F490914F08E92FF0E0EE0FFF1FEE5F09
:1052A000F94F19C08091740C8D3349F490914F08D7
:1052B000E92FF0E0EE0FFF1FEC55F94F0CC0809185
:1052C000740C8A3289F490914F08E92FF0E0EE0FC8
:1052D000FF1FE25EF84F0190F081E02D8081809306
:1052E000FA089F5F90934F088091180D9091FA08EB
:1052F000891B8093180D8091FA088093CE008091CD
:105300004F088093F80C8091C900806403C080919D
:10531000C9008F7B8093C900FF91EF919F918F917E
:105320000F900FBE0F901F90189510924109109288
:1053300042091092430910924409109245091092B3
:10534000F7081092160D10924F081092750C1092DB
:1053500031091092FF081092FA081092210D109254
:10536000200D1092740C1092F80C109251081092AB
:1053700050081092CD0083E38093CC001092C800B7
:1053800088E98093C90086E08093CA000895982F29
:1053900080FF02C0439A01C0439891FF02C0179A50
:1053A00001C0179892FF02C0429A01C0429893FF31
:1053B00002C0169A01C0169894FF02C0419A01C01B
:1053C000419895FF02C0159A01C0159896FF02C03A
:1053D000409A01C0409887FF02C0149A089514981B
:1053E0000895459A469847984598479A0E94C72934
:1053F0004798459A0895459A469A47984598479AF6
:105400000E94C7294798459A08950F931F938AE8E9
:105410000E94F12980E00E94F12984E80E94F1298C
:1054200000E0802F806B0E94F12980E10E94F12929
:1054300080E00E94F12910E080E00E94FB291F5FBC
:10544000183AD1F70F5F093061F71F910F91089556
:10545000EF92FF921F93CF93DF937C018AE80E9423
:10546000F12980E00E94F12984E80E94F12980EB73
:105470000E94F12980E10E94F12980E00E94F12937
:1054800080E491E0E80EF91EE70110E088810E94B7
:10549000FB291F5F2296103AC9F781EB0E94F12980
:1054A00080E10E94F12980E00E94F12910E0F701DB
:1054B00081810E94FB291F5F82E090E0E80EF91EC7
:1054C000103AA9F78FEA0E94F129DF91CF911F913D
:1054D000FF90EF9008952F923F924F925F926F92BC
:1054E0007F928F929F92AF92BF92CF92DF92EF9274
:1054F000FF920F931F93DF93CF9300D000D0CDB7CF
:10550000DEB79C018091A7078A3041F08091A70700
:105510008B3021F08091A7078C3041F42232310585
:1055200008F0D4C1A9014D595E4F63C0273431053D
:1055300008F0CCC12115310519F422E030E051C04A
:105540002130310519F423E030E04BC02230310521
:1055500019F424E030E045C02330310519F425E08A
:1055600030E03FC02430310519F426E030E039C086
:1055700025303105A1F12630310519F425E330E05D
:1055800030C02830310519F42FE030E02AC029302E
:10559000310519F420E030E024C02A30310519F437
:1055A0002CE030E01EC02B303105D9F02C30310515
:1055B00019F421E030E015C02D30310519F42EE04A
:1055C00030E00FC02E30310519F429E030E009C079
:1055D0002F30310509F477C12133310511F426E369
:1055E00030E09091170D87E4989FA0011124420F9D
:1055F000531F80913408816080933408862F90E097
:10560000B8E0AB2EB12CA80EB91E90932E08809353
:105610002D08CA01880F991F840F951F880F991FA5
:10562000FC01EA55F94C45905490FC01E655F94CC3
:1056300085919491882E8694A091DB08B091DC0826
:105640006090D9087090DA080091D3081091D408BE
:105650006091D50870E0E7E42E2EE1E03E2E282F81
:1056600030E0215030403C832B8365C0E72FF0E0D1
:10567000EE0FFF1FE40DF51D05911491F801EE0FDB
:10568000FF1FEE0FFF1FE45AF14FC590D490360173
:10569000F801EE0FFF1FEE0FFF1FE25AF14FA59129
:1056A000B491B695A7957101EA18FB0860E01FC098
:1056B000C701821B930B9A838983220F331F2C0D02
:1056C0003D1DF9018591949129813A81220F331F63
:1056D0002D50364FF9019183808380912D08909150
:1056E0002E08019690932E0880932D08692D262F61
:1056F00030E0962E93942A173B07D0F2872F90E044
:10570000EB81FC818E179F079CF4F701E21BF30BE2
:10571000EE0FFF1FED50F64F11821082692D809120
:105720002D0890912E08019690932E0880932D08B5
:10573000A60EB11C7F5F781508F498CF20912D0834
:1057400030912E08285F3F4F3C832B83CA01880F7E
:10575000991F840F951F880F991FFC01E855F94C7C
:10576000859094909092DE088092DD08FC01E555CA
:10577000F94C85919491282F8093DF08A82EA69448
:1057800070E087E4482E81E0582EE22EFF24089432
:10579000E108F10868C0E72FF0E0EE0FFF1FE80D09
:1057A000F91D25913491F901EE0FFF1FEE0FFF1F38
:1057B000E45AF14FC590D4903601F901EE0FFF1F66
:1057C000EE0FFF1FE25AF14FA591B491B695A79540
:1057D00082014B815C81041B150B60E01DC0180128
:1057E000241A350A440F551F4C0D5D1DFA01859191
:1057F0009491220C331C43EF59E0240E351EF10125
:105800009183808380912D0890912E08019690932A
:105810002E0880932D086B2D462F50E0B62EB394A2
:105820004A175B07E0F2872F90E08E159F059CF4E6
:10583000F801E41BF50BEE0FFF1FED50F64F118240
:1058400010826B2D80912D0890912E0801969093D7
:105850002E0880932D084B815C81460F511D5C837F
:105860004B837F5F89017A1508F495CFB093DC08EC
:10587000A093DB086092D9087092DA081093D408DC
:105880000093D3086093D5088B819C819093D808AE
:105890008093D7087093D60880912D0890912E0898
:1058A000813A910540F080915E08863321F0809125
:1058B0003408846003C0809134088B7F809334085F
:1058C0001092310803C028E030E08BCE0F900F908B
:1058D0000F900F90CF91DF911F910F91FF90EF905C
:1058E000DF90CF90BF90AF909F908F907F906F9000
:1058F0005F904F903F902F900895CF92DF92EF925C
:10590000FF920F931F93CF93DF93809134088160B0
:105910008093340888E08093D20840912A085091FF
:105920002B0820911401E091150160912A087091D3
:105930002B0830E084EC9FEFDC012A9FC0012B9FF5
:10594000900D3A9F900D11248E1B9109840F951F85
:105950002EE830E0AC01429FC001439F900D529F62
:10596000900D11240E94ED756E5F90E02FE331E001
:10597000F0ECCF2EF3E0DF2EE0EEEE2EE7E0FE2E91
:1059800000E31CE0C0E1D8E0A0E9B9E040ED5BE055
:10599000892F8450883940F0F901EE0FFF1FED5038
:1059A000F64F1182108257C0943011F09B3941F4A8
:1059B000F901EE0FFF1FED50F64FD182C0824BC0B0
:1059C000953011F09A3941F4F901EE0FFF1FED50B7
:1059D000F64FF182E0823FC0963011F0993941F4E0
:1059E000F901EE0FFF1FED50F64F1183008333C016
:1059F000973029F4B093640CA093630C2CC09830BA
:105A000029F45093620C4093610C25C0633048F038
:105A10006150F901EE0FFF1FED50F64F51834083A7
:105A20001AC0623049F4F901EE0FFF1FED50F64F36
:105A30005183408361E00FC0F901EE0FFF1F613019
:105A400031F4ED50F64FB183A08360E004C0ED5017
:105A5000F64FD183C0839F5F21503040903A09F0C8
:105A600097CFDF91CF911F910F91FF90EF90DF9033
:105A7000CF900895EF92FF921F93CF93DF932091E1
:105A80003408216020933408685F7F4F880F991F86
:105A9000880F991FFC01E45AF14FC591D491FC0184
:105AA000E25AF14FA591B491B695A79510E047E45D
:105AB00051E0461B570B1EC07A01E81AF90A9C01F7
:105AC000220F331F2C0F3D1FF90185919491EE0C8D
:105AD000FF1C23EF39E0E20EF31EF7019183808370
