:100000000C949F1B0C94BC1B0C94BC1B0C94BC1B31
:100010000C9400360C94BC1B0C94BC1B0C94BC1BA5
:100020000C94BC1B0C94DE3C0C94BC1B0C94BC1BB1
:100030000C94BC1B0C94BC1B0C94BC1B0C94BC1BE4
:100040000C94BC1B0C94BC1B0C94BC1B0C94BC1BD4
:100050000C94D71C0C94BC1B0C946A1F0C94BC1BF6
:100060000C94BC1B0C94BC1B0C94BC1B0C94BC1BB4
:100070000C9433200C94BC1B0C94622408004400A4
:10008000240022011201920C920C12012201240080
:1000900044000800000000000000E00F20082008D5
:1000A0006A08CA0F1200640008007000F007080C0C
:1000B000E40BF20BF90A7D0A650A490A520AE40BBD
:1000C000080CF007FC0F220021002200FC0F200783
:1000D00090089008E00FFF0F210821082108DE0793
:1000E000FF0F10081008E007FE07010801080108CB
:1000F0000606E007100810082004FE070148016802
:1001000001080606E007104810282004FF0F010828
:1001100001080108FE07E00710081008FF0FFF0F95
:10012000210821082108E00790089008E004FF0F4B
:100130002100210021001000FE0F11000000FE0729
:10014000010801084108C607E02710481048F03FA1
:10015000F00709080A0889089007E227144814489C
:10016000F23FFF0F200020002000FF0FFF0F1000C4
:100170001000E00FFF0FF00FFD0FF40F0004000858
:100180000008FF070040F43FFF0F2000D8000603DF
:10019000010CFF0F800040012002100CFF0F00082F
:1001A00000080008FF070008FF0F06007800800124
:1001B00078000600FF0FF00F10001000E00F100095
:1001C0001000E00FFF0F0C00F0000003FF0FF00F16
:1001D00010001000E00FFE07010801080108FE07EB
:1001E000E00710081008E007F807050804080508EC
:1001F000F807E40710081008E407FF0F21002100AA
:1002000021001E00F07F10081008E007FE0701081B
:1002100001080118FE27E00710081008E07FFF0F13
:100220002100210061009E0FF00F100010001E063B
:10023000210821084108860760049008100920065B
:100240001E062128211841088607600490281019ED
:10025000200601000100FF0F010001001000FE0751
:100260001008FF07000800080008FF07F007000853
:100270000008F00FFD07000800080008FD07F4075C
:1002800000080008F40F7F008007000880077F0047
:1002900070008003000C800370007F00800700085E
:1002A00080077F008007000880077F0070008003C0
:1002B000000C800370008003000C80037000030CAE
:1002C0009C0360009C03030C10086006800160061C
:1002D000100803001C00E00F1C0003007040802782
:1002E000001880077000010EC10939080708100CBA
:1002F000900B7008F00F8A0089008A00F00FF00F51
:10030000890088008900F00FF00F880089008A00BA
:10031000F00FF00F8A0089008800F00FF20F8900BB
:100320008A008900F00FF00F4A0045004A00F00FE4
:10033000F80F8A0889088A08F90F88088808890848
:10034000F80F89088A088808F80F8A088908880839
:10035000F0070A0809080A08F007F00709080A0860
:100360000808F007F00708080A080908F007F0076E
:100370000A0809080A08F1070200F90F0200010043
:10038000F80F01000100FA0FFA0F01000200F91F37
:1003900002000100F807020801080208F807F80740
:1003A000010802080008F807F80700080208010819
:1003B000F807F807020801080208F907FC0F100205
:1003C0001002E001F80720012001C0002407920874
:1003D0009208E40F220790089008E20F2007920885
:1003E0009408E00F200794089208E00F2407920871
:1003F0009408E20F220795089508E20FE407920897
:100400009208E404E20790089008E204E0079208EA
:100410009408E004E00794089208E004E4079208D6
:100420009408E204E20794089408E2040400F20F3E
:1004300004000200F00F02000200F40FF40F0200AB
:100440000400F20F04000200E40712081208E40797
:10045000E00712081408E007E00714081208E00794
:10046000E40712081408E207F40702080208F40F70
:10047000F00702080408F00FF00704080208F00F64
:10048000F40702080408F20FF20705080508F20F46
:10049000300649088A0809091006620494081209FE
:1004A00020060C007100800F71000C00F22700483C
:1004B0000048F23F0C007000820F71000C00F02722
:1004C00004480248F03FFA0F1100E2010106F80F5C
:1004D000F40F12001400E20FF00F10001400E20FEE
:1004E0004000FF0F210801080108FE07CA07240881
:1004F0002A08F0072000FF0F10080008000820005D
:10050000FF071008FE070109F1080908FE070400AB
:100510000200FF0F060C810B61081E080606210869
:100520002108DE07C00338020702000F00021F0483
:1005300021082108C107FE0721082108C007010082
:10054000010FE1001F00DE0721082108DE073E0041
:1005500041084108FE07FE070109F1080908FE07E6
:10056000000004000200FF0F00000000060C810BD9
:1005700061081E080000060621082108DE07C003E6
:1005800038020702000F000200001F0421082108A2
:10059000C1070000FE0721082108C0070000010074
:1005A000010FE1001F000000DE0721082108DE071F
:1005B00000003E0041084108FE07FC030204010858
:1005C00001080204FC03000EC00138000700070008
:1005D0003800C001000E000C000C002C001C802D07
:1005E000801D040003000300000003003006200209
:1005F0004001800040012002800080008000F00760
:100600008000800080000000000000010001000167
:10061000000100010001200220022002200220022D
:100620002002000800080008000800080008000870
:100630000008FF0B02000100810B41003E00FE0795
:100640000108790885087E040200050C0203C00039
:1006500030000C04030A0004070E09099108610820
:1006600091080909070E070E0909910C610E910CFA
:100670000909070EDE0721082108DE070004000B28
:10068000F803080208021001E00040004000A0004A
:10069000100108020802F8034000A000100108023F
:1006A0004000E000F001F803F80308021001A00088
:1006B0004000F803F001E00040008000400020000E
:1006C00010002000400080008000C000E000F0002A
:1006D000E000C000800010002000400080004000CA
:1006E00020001000100030007000F000700030009A
:1006F0001000080104020204F909020404020801BE
:100700004000E0005001480240004000400040002E
:1007100048025001E0004000000100020004FF0F09
:10072000000400020001080004000200FF0F0200A4
:10073000040008008001600610080810081004205A
:10074000042008100810100860068001E007100857
:100750000810081008100810081008101008E0070A
:10076000C003200410081008100810082004C0035B
:10077000200020046006E003F801FE01F801E00318
:10078000600620042000F8034000400048025001A9
:10079000E00040000000F803400040004802500123
:1007A000E00040000000F803F80340004000480269
:1007B0005001E00040000100FF0F010001000100B6
:1007C000FF0F01001000F00F100010001000F00FDC
:1007D0001000030C0D0B91086108010801080108C5
:1007E000900090009000FE0790009000FE0790009F
:1007F00090009000F0000801FF0F0801F000FC07D6
:10080000420842084208FC070606010801080108E0
:10081000FE076000800100060008FE0701000100DD
:10082000E00710081008E00710080040FE3F010034
:100830002108DE077E048103010081037E04E00FAE
:10084000580046004100FF0F210821082108200719
:1008500090089008E00790089008E004FF0F010856
:100860000108FF0F60009E07010801089E07600055
:10087000E00710081008E00790089008E004FE0761
:10088000010801080108FF0F210821082108F83795
:10089000040C840B74080C08FB070008C003200636
:1008A000A0056004C003100030064808FE3F080998
:1008B000100680074008F03F400880048008F00FD1
:1008C00088080808100838054005800F40053805DD
:1008D000F0070A0809080A083006F007090809089D
:1008E00008083006F007080809080A083006F0076B
:1008F0000A08090808083006F20709080A08090862
:100900003006F00709080A0809083006E40712084B
:1009100014082004E407100810082404E007120853
:1009200014082004E007140812082004E407120841
:1009300014082204E207140812082004F80F0A0819
:1009400009080A08F007F80F090808080908F0075D
:10095000F80F080809080A08F007F80F0A0809083C
:100960000808F007FA0F09080A080908F007F80F45
:100970000A0809080A08F007820741084208F80F28
:10098000810740084108F80F800741084208F80F26
:10099000800742084108F80F820741084208F90F12
:1009A000820741084208F80FF00F8800884088202D
:1009B000F00F200790089048E02FF80F884888280B
:1009C0008808E00790489028E004090C0A0BCA0840
:1009D0003908120C940B72084000FF0F210801081F
:1009E0000108FE07CA0724082A08F0070010FE0FB6
:1009F0000100210821082108DE07F20F140012006F
:100A00000600090009000600080810042002400141
:100A1000800080004001200210040808FC3F0240D2
:100A2000042008101008200440028001FF0F010874
:100A3000010811082108410821081108FF0F0400CE
:100A400002000100FE0F02080208C20FC20FC20F0F
:100A5000C20FC20F02080208FE0F600494081209B8
:100A60002006F20F14001200E00F080C0A0BC90850
:100A70003808100C940B7208080C0A0BC8083808C8
:100A8000100C940B7008F00F89008A008900F00F99
:100A9000220794089408E20F01000140FF2F010093
:100AA00001001000FE471028FD0F440844084508C7
:100AB00004000400FC0F440044204410800FFC0F8D
:100AC000040005000500F003480444084408080435
:100AD000380644084408840818070408FC0F040872
:100AE0000508FC0F0508000400080408FC070400C2
:100AF0000008FC070400FC0F400840088007FC0FBA
:100B000040004000FC0F4008400880070400FC0F34
:100B1000440044004400800FFC0F4000A100190372
:100B2000040C3C08C1040203C1003C00FC0F000897
:100B300000380008FC0FF00F480044004800F00F98
:100B4000FC0F4408440844088407FC0F4408440888
:100B50004408B807FC0F040004000400003CFC0B30
:100B600004080408FC3FFC0F44084408440800182B
:100B700000061801E000001FE00018010006001840
:100B80000804440844084408B807FC0F0006E001C4
:100B90001800FC0FFC0F0106E2011900FC0FFC0F0E
:100BA0004000A0001803040C0008FC070400040027
:100BB000FC0FFC0F08007000800170000800FC0FA3
:100BC000FC0F400040004000FC0FF8070408040838
:100BD0000408F807FC0F040004000400FC0FFC0FDD
:100BE0004400440044003800F807040804080408DE
:100BF000180604000400FC0F040004003C08C004B4
:100C00000003C0003C00F0030804FC0F0804F003DC
:100C10000C0C3003C00030030C0CFC0F0008000863
:100C2000FC0F00383C0040004000FC0FFC0F0008A7
:100C3000FC0F0008FC0FFC0F0008FC0F0008FC0F65
:100C400000380400FC0F8008800880080007FC0FB3
:100C50008008800800070000FC0F080444084408CE
:100C60004804F003FC0FC000F80704080408F80764
:100C7000380C4403C4004400FC0FC00728092009B5
:100C80002809C0052000F80F200120210011000EC6
:100C9000E00F2800240022008003400520092009DD
:100CA00040044004A008200940062008E80F00087E
:100CB0002808E00F08082020E81F0008E0072000AF
:100CC0002000E00F000900090006E00F000100010C
:100CD000E00F0009000900062000F80F20012001A4
:100CE0000001000EE00F0801840242042008E043E6
:100CF000042C0810040CE003F00F00080038000872
:100D0000F00F4006200920092009C00FF00F280825
:100D100028082008C007E00F200920092009C00684
:100D2000E00F200020002000001CE00B200820081D
:100D3000E01FC007200920092009C005600F8000BE
:100D4000E00F8000600F4004200920092009C00640
:100D5000E00F000200018000E00FE00F0402080134
:100D60008400E00FE00F000180024004200800082A
:100D7000E00720002000E00FE00F400080000001AD
:100D800080004000E00FE00F000100010001E00FD3
:100D9000C007200820082008C007E00F200020001E
:100DA0002000E00FE07F200820082008C007800313
:100DB000400420082008400420002000E00F20000C
:100DC0002000E043002C0010000CE003C0072008C6
:100DD000F83F2008C0072008C0060001C006200810
:100DE000E00F00080008E00F0038E00000010001FB
:100DF000E00FE00F0008E00F0008E00FE00F000830
:100E0000E00F0008E00F00382000E00F00090009A3
:100E100000090006E00F0009000900060000E00FCD
:100E2000E00F00090009000900064004200920091C
:100E300040058003E00F0001C00720082008C0071C
:100E4000C008200520032001E00F06038607C60F17
:100E50000603060306030603FE03FE0304050A0059
:100E60000E050600140508001C05080024050A00EC
:100E70002E050800360508003E0508004605080056
:100E80004E05080056050A0060050A006A050A00BA
:100E900074050A007E050A0088050A0092050A000A
:100EA0009C050A00A6050A00B0050A000606040013
:100EB000BA050600C0050600C6050800CE050800F4
:100EC000D6050400DA050400DE050400E20504008E
:100ED000E6050600EC0502005C080400600804005A
:100EE000640806006A0806002206100032060200A6
:100EF00034060A003E060A0048061000EE050A0005
:100F0000F8050E000A060C0016060C0074060C000C
:100F100098060800A0060A00AA060800B206080003
:100F2000BA060E00C8060E00D6060E00E4060E0035
:100F3000F2060E0000070C000C070C0018070E004C
:100F400026070E008607120098071000A8070E005B
:100F5000E007140012080E00A8080A00B2080A00F0
:100F6000BC080A00C6080A00000A0800080A0A00AD
:100F7000120A0A001C0A10002C0A1800440A160063
:100F8000C4000A00CE000800D6000A00E0000800F5
:100F9000E8000A00F2000800FA000A000401080054
:100FA0000C010A00160108001E01080026010800B5
:100FB0002E010800360108003E010A004801080021
:100FC00050010A005A01080062010A006C01080081
:100FD0007401020076010200780102007A01020029
:100FE0007C0108008401040088010A0092010A00C3
:100FF0009C010800A4010400A8010E00B6010E0027
:10100000C4010A00CE010800D6010A00E001080070
:10101000E8010A00F2010800FA010A0004020800CF
:101020000C020A00160208001E020A00280206002E
:101030002E020A003802080040020A004A02080094
:1010400052020A005C02060062020A006C020800FA
:1010500074020A007E02080086020A0090020A005A
:101060009A021200AC021200BE020A00C8020A0074
:10107000D2020A00DC020A00E6020800EE020600C4
:10108000F4020A00FE020A0008030A0012030A0022
:101090001C030A0026030A00300308003803080076
:1010A000400308004803080050030A005A030A00DE
:1010B00064030A006E030A00780306007E0306003C
:1010C00084030400880304008C03080094030A00CE
:1010D0009E030A00A8030A00B2030A00BC0308002A
:1010E000C4030800CC030800D4030800DC03080094
:1010F000E4030800EC030800F4030800FC03080004
:10110000040408000C040800140408001C0408006F
:10111000240408002C0406003204060038040400ED
:101120003C0404004004080048040800500408007F
:1011300058040800600408006804080070040800EF
:101140007804080080040800880408005A0A08008F
:1011500090040A009A040800A2040A00AC040800E3
:10116000B4040A00BE040800C6040A00D004080043
:10117000D8040800E0040C00EC040800F4040A00A1
:10118000FE040600D0080A00DA080A00E4080A0093
:10119000EE080A00F8080A0002090A000C09080013
:1011A000140908001C090800240908002C0908007B
:1011B000340908003C090A0046090A0050090A00DF
:1011C0005A090A0064090A006E090A007809080031
:1011D000800908008809080090090800980908009B
:1011E000A0090800A8090A00B2090800BA09080005
:1011F000C2090800CA090800D2090600D8090C0073
:10120000E4090800EC090E00FA090600F4070A00D8
:10121000FE070A0008080A0070080E007E08100089
:101220008E080C009A080E003E0810004E080E00B2
:1012300020080A002A080A0034080A00620A080086
:101240006A0A0800720A0600780A0800800A060086
:10125000860A0A00900A0800980A0A00A20A0600F4
:10126000AC0018007C00180094001800A80A0800C0
:10127000B00A0E00BE0A0800C60A0A00D00A0A0018
:10128000DA0A0600E00A0600E60A0A00F00A0E0082
:10129000FE0A0E000C0B0C00180B0A00220B0A00B1
:1012A0002C0B0A00360B0A00400B0A004A0B0A00FE
:1012B000540B08005C0B0A00660B08006E0B120052
:1012C000800B0A008A0B0A00940B0A009E0B0A008E
:1012D000A80B0A00B20B0E00C00B0A00CA0B0A00D2
:1012E000D40B0A00DE0B0A00E80B0A00F20B0A001E
:1012F000FC0B0A00060C0A00100C0A001A0C0A006B
:10130000240C08002C0C0A00360C0C00420C0C00BB
:101310004E0C0C005A0C0A00640C0C00700C0A00F5
:101320007A0C0A00840C0C00900C0800980C0A003F
:10133000A20C0800AA0C0600B00C0600B60C0400B3
:10134000BA0C1000CA0C0E00D80C0C00E40C0A00F9
:10135000EE0C0A00F80C0A00020D0A000C0D0A003F
:10136000160D0A00200D0800280D0A00320D0A0093
:101370003C0D0A00460D0A00500D0A005A0D0A00E5
:10138000640D0A006E0D0A00780D0E00860D0A002D
:10139000900D0A009A0D0A00A40D0A00AE0D0A0075
:1013A000B80D0A00C20D0A00CC0D0A00D60D0A00C5
:1013B000E00D0A00EA0D0800F20D0A00FC0D0C0019
:1013C000080E0C00140E0C00200E0A002A0E0A0053
:1013D000340E0C00400E0A004A0E12001400630086
:1013E0006C007A0057007E006A0066007E00640090
:1013F000750054006A007A0054007A0060006400AE
:1014000014007D007A007E00140063007C007400EC
:101410007C0066007C005A007C00140051006C00C7
:1014200066004A007000140063007C0074007C00B9
:1014300066007C005A007C006F004A0068007C0057
:10144000640066007C00140051006C0066004A00D5
:101450007000140063007C0074007C0066007C0057
:101460005A007C0014002900140053006400760028
:101470007A0074004A00140063007C0074007C0051
:1014800079004A0088005400660054006800540047
:1014900087004A0068004A006A0014006F00740068
:1014A0006C00580074004A00680066004A0074002E
:1014B0005E005B004A00760076004A007600570026
:1014C0006E00680066005400640014000300000011
:1014D0001C0067006C0052004A0063004A00740060
:1014E00068004A0085007E006A0066007E001400E5
:1014F0005B004A0080004A0066004A006A00520011
:101500005E00740068004A0085006C00740058009A
:101510004A006A0057006E006800660054006400CC
:101520006F0074006C00580074004A0068001400DA
:101530004C0060007A007A00600063004A0070008E
:101540005E0014006700540074005C004A004C0008
:101550004A0063004A0070004A006A005E0086008C
:101560006C00740014004F006C004E007C0064009E
:1015700014006400600066006000520060001E00FD
:1015800014004C004A00780066004A0052005E00D9
:10159000490050005E00640063004A0070004A0089
:1015A00066005E00750054007600140086007E0020
:1015B000640076005400640014004A006600500085
:1015C0004A00640063007C0074007C007A007C00A8
:1015D00086006C007400570054004E0060006400E8
:1015E000680054001400520054008000740054003D
:1015F00052005400140052007C0074004A00640041
:1016000066004A007A005E00660052005E005F00DD
:1016100070007A004A006600140054005200600016
:10162000660052006000490086004A0074006600AF
:101630004A006A004A0068004A00880063007C0093
:1016400074007C007A0068004A00140076005400A0
:1016500080006000860054007600600063005E0039
:1016600074005E0078005E00640014006E006A0082
:10167000660054006800540075005E006400680055
:101680004A0014001E0079004A006A006400140039
:1016900052006C0066007C00490086004A0074001D
:1016A00066004A0074006F004A00740066004A0039
:1016B000640066005E0064001E00140049006600BD
:1016C0007A0014007D0076007A00140001001400F6
:1016D0007D0076007A001400020051006000660070
:1016E0001E00140079007E00740064005000540055
:1016F000490086004A0074005E00140063004A003E
:101700008600520054007A0014002500670054003F
:10171000740064005400880014005B004A004C0010
:1017200054007400660054007600680054001400F1
:1017300085006C00640055004A004C00190014003C
:101740004A0086004A0074005E006A004A001400E5
:1017500052006E006A006900540068006600600074
:1017600069006C00740068004A0066005300640061
:1017700076007A0074004A004B0054006400660052
:101780005400680054008600540014004A006600AB
:101790005E006A0014004A0086004A0074005E0081
:1017A0005B005E00880066005E0014006F0074003D
:1017B0006C00580074004A0068001400490064007E
:1017C0007A006000560014005F0070007A004A0042
:1017D000660085007E006A0066007E0014006300DB
:1017E0007C0074007C007A0068004A007500540098
:1017F000760076006000880063004A004C006600B6
:101800006C0076007C00880014004B004A005A00EF
:1018100066004A006A007A005E001E001400630041
:101820004A0070004A0066005E001E001400490075
:1018300050005E006400140063007C0074007C00B3
:1018400066007C0068001E00140063004A007000FF
:101850004A0066005E00140063007C0074007C0097
:1018600066007C0068001E001400490050005E0005
:1018700064004B004A005A0066004A006A005E009D
:1018800086006C0074001900190019004B004A0012
:101890005A0066004A006A0052005E004B004A008F
:1018A0005A0066004A006A004A0068004A00520076
:1018B0005E00010114005B006C00680054008100B0
:1018C0005C00600088005B006C00680054008100D0
:1018D0005C00600088001400490064007A00600029
:1018E00056001400510054004A0064007A00600061
:1018F000560014005100540080007400540052003F
:1019000054004F004A0068004A0078005E007400EE
:1019100066004A0074005E006A005E0088001400E1
:1019200076006C005A007C0086006C0074005B003E
:101930006C006800540081005C00600088001400A6
:10194000530078006600540078007A00600074004C
:1019500068005400760060006A00600014007500A2
:1019600060006600250014007500600066006000DD
:101970006A0054004E0054006400250075006000A9
:10198000660060006A00600086006C007400190048
:101990001900190075006000660060006A005200BE
:1019A000600075006000660060006A005400680016
:1019B000540052006000610054004A006A00760042
:1019C00051004A00600066008600750086006A00CB
:1019D0007A005C0054007A0060004E00760014002B
:1019E0005D0074006C006A001400510074008600F1
:1019F00014004D007C0070004C006C004A00740024
:101A0000520014005100740086004D006C007A00F2
:101A10007A006C006A00760014004D007C007000B3
:101A20004C006C004A007400520014005100740015
:101A3000860014006F0066007C00760014005300DE
:101A400084007A0074004A0014005100740086007B
:101A500055007400540076005C0054006A001400C5
:101A60007B0070007900600068005400740014006E
:101A70006F0074006C00580074004A006800680031
:101A80005400760051005400660060004E004A0089
:101A90007A005400760075005C00600074007A00E3
:101AA00076001400030000001C00750070006C003C
:101AB00074007A007600820054004A0074006700C7
:101AC0006000840081006C006C00660014007300EC
:101AD000540056007400540076005C004B00540023
:101AE0005200520060006A00580075005C006000FF
:101AF00074007A00760014006C00800054007400BA
:101B000051006C006C00740014006000760014003A
:101B10006C00700054006A008100540066004E00A2
:101B20006C00680054007500820060007A004E006E
:101B30005C0060006A00580014006C0056005600FB
:101B40004D005C00600066005200140066006C00EE
:101B50004E0064001E00140076007A004A007400F3
:101B60007A00540052006B006A006B005600560069
:101B70007F006C0066007C006800540014005C006C
:101B8000600058005C00140066006C008200510088
:101B90007400860060006A00580053006A0052001A
:101BA00014007A00600068005400140054006A00B9
:101BB0004A004C00660054005200140070004A00B5
:101BC0007C007600540052004D004A006A004E002E
:101BD000540066004D004A006A004E005400660042
:101BE00066005400520069006C007A0014004A003C
:101BF000520062007C0076007A004A004C006600C9
:101C0000540051007400860060006A0058001400FF
:101C10006600540080005400660049006A007A00A3
:101C2000600014002A0014004E00740054004A00A2
:101C3000760060006A0058007500700060006A005D
:101C400014001E0079004A006A0064001400560067
:101C50007C0066006600750054007A007A0060001F
:101C60006A00580076004B007400600058005C0069
:101C70007A006A005400760076001E0014004B00C3
:101C80006C007A007A006C00680079006C007000CB
:101C90001400010079006C0070001400020065005F
:101CA0004A006A0058007C004A00580054001E0098
:101CB000140053006A0058006600600076005C0063
:101CC00075007A006C007400540014007600540013
:101CD0007A007A0060006A0058007600140025003F
:101CE00069006C00140067004A0076007A00540016
:101CF00074001400790074004A006A0076006800DD
:101D000060007600760060006C006A0055004A00B2
:101D10004E007A006C0074008600140076005400B7
:101D20007A007A0060006A0058007600750066004C
:101D3000600058005C007A00140051004A006800FE
:101D40007000530084007A0074004A00750082001D
:101D500060007A004E005C0014007A006C001400F1
:101D600070004A007C007600540053006A00520064
:101D700014007A00600068005400140076005400DB
:101D80007A007A0060006A00580081006C006C00E4
:101D9000660067004A007400640055004A0076003F
:101DA0007A0014006F0074006C00580074004A0040
:101DB0006800140081006C006C0066006F00740005
:101DC0006C007A0054004E007A00750060006600D6
:101DD00054006A007A0081006000740054006600BC
:101DE00054007600760014004D006C006A006A0012
:101DF00054004E007A0060006C006A001E0014005F
:101E00006B00560056001E0014006B006A001400A0
:101E1000750054007A007C0070001E0014006B00F6
:101E2000560056001400750054007A007C007000C3
:101E30001E0014006B006A004D006C006A006A000E
:101E400054004E007A0060006A0058001900190022
:101E500019004D006C006A006A0054004E007A00C0
:101E60005400520069006C007A0014004D006C00B0
:101E70006A006A0054004E007A00540052001400B8
:101E800049004E007A00600080004A007A00540049
:101E900052001400510054004A004E007A006000C5
:101EA00080004A007A0054005200140053006A0077
:101EB0004A004C0066005400520085006C007C0013
:101EC0007400140066004A007C006A00520074002E
:101ED000860014006000760014004D006C006C0059
:101EE000660060006A005800140051006C00820017
:101EF0006A0051005400660054007A005400140037
:101F00005B006C006800540081005C006000880089
:101F10001400650060006A00640060006A005800F8
:101F2000250051005400660054007A0060006A00E9
:101F3000580051005400660054007A0060006A00A6
:101F4000580019001900190051005400660054008F
:101F50007A00540052004D006C007C006600520074
:101F600014006A006C007A0014004C005400140045
:101F7000670060006A0060006F0056006600540051
:101F8000580054006600540060004E005C007A0067
:101F900014004B007E005800540066007A00740064
:101FA0006C004E00640054006A00140075004E007E
:101FB0005C0074004A006A0064007A0074006C00DF
:101FC0004E00640054006A0063006C004E005C0028
:101FD0002A0017004B007C006A007A008200A300F0
:101FE00076004E005C00540063006C004E005C0004
:101FF0002A0017004B007C006A007A008200A300D0
:1020000076004E005C005400140075004E005C0029
:1020100074004A006A0064007A0074006C004E008C
:10202000640054006A0014006F0066007C007600B3
:102030001400530084007A0074004A007A0074008F
:102040006C004E00640054006A0049007C00560099
:1020500056007400600076004E005C0054006A0078
:102060008700540060007A00700074006C00580013
:1020700074004A0068006800540075004E005C005F
:102080006C006A00700074006C00580074004A0014
:10209000680068005B0054006800520054006A0049
:1020A0001400030000001400680060006A0075005E
:1020B00070006C0074007A004C00540064006600EC
:1020C0005400600052007C006A00580081006C00DF
:1020D000660066005400140049007C00560056005B
:1020E0007400600076004E005C0054006A004B00F3
:1020F00054007A007A00520054004E0064005400EC
:102100006A005B0054006800520054006A006800D6
:1021100014004C00540054006A00520054007A002D
:1021200079007E00740014006C00560056005400C4
:102130006A00810060006600660064006C00680050
:10214000680054006A0049004C0076004E005C00B4
:102150004A0066007A007C006A0058006300600054
:102160006A00520054007400760060004E005C006B
:10217000540074007C006A0058001E0068001400BF
:102180005800540076007A004A0074007A00540027
:102190007A00540060006A004A007C0076007F00EC
:1021A0006C0066007C00680054006A0014005C004B
:1021B0006C004E005C001400580054007400600075
:1021C0006A005800790074006C004E0064006A00D8
:1021D00054006A0053006A005200880054006000F6
:1021E0007A0014004A0064007A00600080006800F1
:1021F00014007C006A007A00540074004C007400E3
:102200006C004E005C0054006A0049004C004C0019
:10221000740054004E005C0054006A0049004C00F9
:10222000580054004C0074006C004E005C005400D8
:102230006A00690060004E005C007A0014005400DF
:1022400060006A0076007A005400660066004C0068
:102250004A007400790074006C004E0064006A004B
:102260007C006A007600580074004A005200630047
:102270006A0060007A007A005400740076004E0014
:102280005C007C007A00880075004E005C006600EF
:1022900054007C005200540074006A0014001E00B8
:1022A00079004A006A006400140080006C00660037
:1022B0006600530060006A0076007A0054006600F1
:1022C00066007C006A00580054006A005B005400FD
:1022D00066006600600058006400540060007A00E8
:1022E0001E0014007B006A007A00540074007A001B
:1022F0005400600066006B004C00540074007A00CB
:10230000540060006600140001006B004C00540093
:1023100074007A005400600066001400020075002A
:10232000700074004A004E005C0054001E0014004F
:10233000510054007C007A0076004E005C0053008F
:1023400060006A0076007A005400660066007C0037
:102350006A00580054006A001400760070005400AF
:1023600060004E005C00540074006A0014002500F8
:1023700081005400740064007600540060006A001C
:1023800076007A005400660066007C006A005800FF
:1023900054006A006500540060004E005C007A0042
:1023A0001400560054007C004E005C007A004B0084
:1023B00060007A007A00540014004A006A005C0051
:1023C0004A0066007A0054006A0053006A00520016
:1023D0008800540060007A00540060006A007600B3
:1023E0007A005400660066007C006A0058007500A0
:1023F0004E005C006A0054006600660070007400C5
:102400006C00580074004A00680068001400530013
:1024100060006A0075004E005C006A0054006600AF
:102420006600700074006C00580074004A00680078
:102430006800140049007C00760081006C00660092
:102440006600700074006C00580074004A00680058
:10245000680065005400600076005400510074006C
:102460004A005C007A0066006C007600540014009C
:102470007F00540074004C0060006A0052007C0031
:102480006A0058001E00140049007C007600140009
:10249000530060006A005B006C006800540081001B
:1024A0005C00600088001400750054007A007C0015
:1024B00070001E00810060007400520014007F0054
:1024C000540074004C007C006A00520054006A0002
:1024D0001900190019007F00540074004C007C00A2
:1024E0006A00520054006A00690060004E005C00FF
:1024F0007A0014007F00540074004C007C006A00D5
:10250000520054006A001400490064007A00600020
:1025100080006000540074007A00140051005400E0
:102520004A0064007A00600080006000540074007B
:102530007A001400600076007A00140049006400FC
:102540007A00600080006000540074007A005D0032
:102550005C007400540014008200A30076004E005A
:102560005C005400140064007E005C0066007A0089
:1025700014004A004C005B006C00680054008100AD
:102580005C00600088002A007F0054007400660030
:1025900060006A0064007C006A0058001400650056
:1025A0006E0076004E005C0054006A001400650066
:1025B0006E0076004E005C0054006A002500650045
:1025C0006E0076004E005C0054006A00190019008D
:1025D00019005800540066006E0076004E005C0042
:1025E0007A0063006C006A006A007A0054001400EC
:1025F0006A0060004E005C007A001400580054002D
:1026000066006E0076004E005C007A0014008200C6
:1026100054007400520054006A0071007C006C0089
:102620007A0060005200600054006A007500860065
:102630006A007A005C00AB007A00600072007C00E7
:10264000540014006F007400A8007A001400A40065
:1026500014007300540070004A00760076005400A5
:10266000740014006F007400A8007A001400A40025
:1026700014006F006C0074007A00540074004D0068
:102680006C007A006C006A0014006F007400A800EF
:102690007A001400A40014006F006C0074007A002B
:1026A0005400740014006F0066007C007600140073
:1026B000530084007A0074004A001400750054002E
:1026C0004E0073004A00560074004A00AE004E00EF
:1026D0005C0060007400670060006A007C007A00A3
:1026E00054007400600054005100AB0066006000AC
:1026F0004E004A007A004D005C0054006800600003
:102700007600540076001400030000001C007500E1
:1027100070006C0074007A00550074004A00AE002E
:102720004E005C0054007C007400140065004A00F8
:1027300060006A005400650060007A005400740074
:10274000600054004D005C0054006800600076009A
:10275000540076006800540014007A00540074009D
:10276000680060006A00AB0065004A001400700059
:102770006C0074007A0054001400540076007A0053
:1027800014006C007C008000540074007A00540037
:102790004B00600054006A00800054006A007C0016
:1027A000540067006000760054001400A400140078
:1027B00066001A004A0074007400A8007A007500D0
:1027C000AB004E007C00740060007A00AB00140087
:1027D00054006A0056004A006A007A0076001E0023
:1027E0006800540014005200AB0068004A007400F6
:1027F0007400AB0068004A0074004E005C00540096
:102800004A0074007400A8007A007F006C00660023
:102810007C00680054001400AB0066005400800087
:10282000AB00140056004A0060004C0066005400E3
:102830007500AB004E005C004A00580054005B007D
:1028400054007C0074005400140052005400140022
:10285000560060006A0014004A004E007A006000D2
:102860008000AB00540068005400140076007C0027
:102870007600700054006A0052007C0049006A0033
:102880006A007C0066005400740049006A006A0017
:102890007C006600AB0069006C006A0014004A000E
:1028A00062007C0076007A004A004C00660054000A
:1028B00069006000800054004A007C00140052004F
:1028C000540014007600AB004E005C004A00580033
:1028D000540049006A007A006000560074006C00E1
:1028E0006000760076004A005800540053007600DD
:1028F00076006C0074004A005800540014001E005A
:102900007300AB0076005400740080006C0060001F
:102910007400140070006600540060006A007300C8
:10292000AB00580066004A0058005400760065006D
:102930007C00680060006A006C00760060007A002D
:10294000AB001E00140014004B004A007600140077
:102950005B004A007C007A001400010014005B0058
:102960004A007C007A001400020065004A006A00F8
:1029700058007C0054001E001400550074004A00EA
:102980006A004E004A00600076006700AB006800F5
:102990006C0074006000760054007400140066003F
:1029A00054007600140070004A0074004A00680069
:1029B000AB007A0074005400760014002500730008
:1029C000AB00580066004A0058005400760014001E
:1029D0007C00760060006A0054006600AB0058007E
:1029E000AB007400540014005C007C0068006000C0
:1029F000520060007A00AB004B004A0076004E00A7
:102A00007C006600540074001400800054007400C0
:102A10007600140066001C006C0070007A006000F4
:102A20006C006A0014006F004A007C0076005400BD
:102A30007300AB00580066004A00580054001400B0
:102A400052005400140066001C005C0054007C001E
:102A5000740054001400520054001400560060002A
:102A60006A006F0074006C00580074004A0068002F
:102A700068005400140074004A00700060005200A6
:102A8000540014004A004E007A0060008000AB0041
:102A900054006F0074006C00580074004A00680015
:102AA00068005400140074004A0070006000520076
:102AB000540014004A0074007400A8007A006F00EB
:102AC00074006C007A0054004E007A0060006C00C4
:102AD0006A00140066004A0060006A0054006F003B
:102AE00074006C00580074004A00680068005400CC
:102AF00014004D006C007A006C006A001400700035
:102B000066004A004E004A0074005200140076002D
:102B100054004E00140076006000660054006A0005
:102B20004E00600054007C0084004D006C006A0080
:102B30006A005400840060006C006A001400750094
:102B40004A006A00760014005500600066001E000E
:102B50001400490074007400A8007A001400670093
:102B60004A0074004E005C0054004D006C006A0086
:102B70005600600058007C0074004A007A00600033
:102B80006C006A00140052005400140066004A00F1
:102B900014005B006C006800540081005C00600061
:102BA00088001E004D006C006A006A00540084001A
:102BB00060006C006A00140054006A0014004D00AC
:102BC0006C007C00740076001900190019004D009B
:102BD0006C006A006A0054004E007A00AB00690085
:102BE0006C006A0014004D006C006A006A0054001A
:102BF0004E007A00AB00140049004E007A006000DD
:102C00008000AB0014005100AB0076004A004E007B
:102C10007A0060008000AB00140049004E007A008A
:102C200060008000AB007F006C007A0074005400EC
:102C30001400650060006A0058005400140073001E
:102C40005400560074006C006000520060007A006E
:102C500075007C0070007000740060006800540013
:102C600074001400660054001400660060005400F4
:102C70006A0014005B006C006800540081005C0076
:102C800060008800250075007C00700070007400F2
:102C900054007600760060006C006A001400510059
:102CA0007C0014006500600054006A0014005B00A2
:102CB0006C006800540081005C0060008800250002
:102CC00075007C007000700074005400760076007F
:102CD00060006C006A0019001900190075007C0082
:102CE00070007000740060006800AB005D00680058
:102CF00070006C007600760060004C0066005400A6
:102D0000140052005400140076007C007000700023
:102D1000740060006800AB00740055004A004E006B
:102D20007A006C007400860014007900540076006C
:102D30007A00140067006C005200540014004B002D
:102D4000540076007A002300800053006800700071
:102D5000540074006C007400230080005D004E007D
:102D60006C006A0014004D006C006A007A00740068
:102D70006C00660014002A0014004B007C008800E0
:102D8000880054007400690079004D0053007400FD
:102D900074006C00740055004900690014006F0055
:102DA0007C0068007000140079004A006A0064002A
:102DB000140055007C006600660014006C0074006E
:102DC00014006F007C0068007000140067006C0045
:102DD0007A006C007400140073007C006A00140018
:102DE0004D008100750054006A0076006C0074008C
:102DF000140075005C006C0074007A0014004D0033
:102E0000600074004E007C0060007A006B0063007C
:102E100069006B007900750079006B006F00750028
:102E200054006A0076006C00740014006B0070009F
:102E300054006A0014004D00600074004E007C00D5
:102E400060007A004D006C0068007000740054004F
:102E5000760076006C00740014004D006C00680071
:102E6000700074005400760076006C00740014004A
:102E700073007B006900140067006C007A006C002E
:102E80007400140073007C006A0014004D004D00B3
:102E90008100140053006A004E006C005200540080
:102EA00074004B007C007A007A006C006A00140009
:102EB0007900540076007A00750054006A007600AC
:102EC0006C00740014004D006C006A007A007400FD
:102ED0006C0066007F006C0066007A004A005800B3
:102EE00054004D006C0068007000740054007600BF
:102EF00076006C00740014004D006C006C006600DD
:102F000060006A0058001400550049006900140070
:102F10005D006A008000540074007A005400740060
:102F200014004B006C004A007400520014004D0065
:102F30006C006C00660060006A00580014005500C8
:102F40004900690014005300740074006C007400A0
:102F5000140067006C0052005400510054006800D7
:102F60006C00140067006C005200540073005400A1
:102F70005400520014007500820060007A004E0078
:102F80005C001400730054005400520014007500DB
:102F9000820060007A004E005C00140075007A0028
:102FA00054004A006800140075007A0054004A007A
:102FB0006800140075007A0054004A00680014008C
:102FC0006F007C00680070001400DE13DC13060044
:102FD000E413DC130C00F0130014101AF0131A148D
:102FE000101E381400140E1A38141A140E1E381439
:102FF00068140E188014DC1310009014DC132200E7
:10300000B214DC130C00BE14DC131400D214DC1355
:103010000800DA14DC130A00E414DC132400081599
:10302000DC130C001415DC130C0020152E150E0CEF
:103030003A1590150A084415DC130E005215DC13DE
:1030400014006615DC131A00201580150E1090155B
:10305000DC1308009815DC130C00A415AA15060E45
:10306000A415B815060CC415DC131200D615E4150A
:103070000E102015F4150E1A0E16DC130A000E168B
:1030800018160A0E2616DC1316003C16DC13200058
:103090005C16DC131C007816DC130E008616DC139D
:1030A00012009816DC130E00A616BA161408A616FF
:1030B000C216140CA616CE16140CDA16DC13160063
:1030C000F016DC131C000C17DC132A003617DC1377
:1030D00020005617DC130A006017DC130C006C1775
:1030E000DC130C007817DC131C00D61594170E0C9B
:1030F0008A1DDC131000A017BA171A0CA017C617E8
:103100001A0CD217DC131A00EC17DC130C00D217C0
:10311000DC131A00F8171A182210F8172A18220CB4
:10312000C61836181020C6185618101C7218DC1352
:103130001A008C18DC1310009C18DC131600B2184F
:10314000DC131400B218E2181410C618F21810108C
:103150000219DC132C002E1958192A0E2E19661983
:103160002A167C19DC1318009419DC130E00A2191E
:10317000DC131400B619DC130A00C019DC130A00B2
:10318000CA19DE191412CA19F019141A0A1ADE190A
:103190000E120A1AF0190E1A0A1A3C1A0E14501AB4
:1031A000DC131400641ADC132000841ADC131200F0
:1031B000961ADC131400AA1ADC131400BE1ADC13CE
:1031C0000600C41ADC131800DC1ADC130E00EA1A1D
:1031D000DC130C002015F61A0E0A001BDC13180075
:1031E000181BDC130E00261BDC131A00401BDC131B
:1031F00016002015561B0E10661BDC1304006A1BFC
:10320000DC130600701B7C1B0C0A701B861B0C0851
:103210008E1BDC130C009A1BDC1320002015BA1B3C
:103220000E0EC81BDC130C00D41BDC131200E61BB3
:10323000DC131C00021CDC1318001A1CDC131E001B
:10324000381CDC130C00441CDC131200561CDC136D
:103250001000661C7E1C180C661C8A1C180A661C52
:10326000941C180A9E1CDC132200C01CDC132000D6
:10327000E01CDC132C000C1DDC1320002C1DDC13C7
:1032800016006017DC130C00421DDC130A004C1DF5
:10329000DC131E006A1DDC1320008A1DDC131000E5
:1032A0009A1D661B1A049A1D6A1B1A06B41DDC13AC
:1032B0001600CA1DDC130C00B41DDC131600D61D4D
:1032C000FC1D260AD61D061E2608C6180E1E101640
:1032D000C618241E1014381EDC131A00521EDC13EC
:1032E0001200641EDC131A00B218DC131400B218AA
:1032F000921E1418C618AA1E1010BA1EDC1338002D
:10330000F21EFE1E0C24221FFE1E1024321FDC1390
:103310001600481FDC130E00561FDC131A00B619E6
:10332000DC130A00701FDC130800781F901F181AA6
:10333000781FAA1F181EC81F901F201AC81FAA1F77
:10334000201EC81F3020201A4A20DC1316006020DF
:10335000DC131A007A20DC131A009420DC131A0004
:10336000AE20DC131E00BE1ADC130600CC20DC13DA
:103370002200EE20DC1314000221DC130C002015C7
:103380000E210E122021DC1312003221DC13140056
:103390004621DC1316005C21DC13200020157C2163
:1033A0000E169221DC1306009821DC1306009E21E4
:1033B000AC210E0A9E21B6210E0EC421DC13100092
:1033C000D421DC131A002015EE210E1C0A22DC1376
:1033D00012001C22DC1316003222DC1322005422BD
:1033E000DC131A006E22DC131A008822DC1318008A
:1033F000A022DC131200B222DC131A00CC22E42239
:103400001812CC22F6221814CC220A2318141E23D8
:10341000DC1320003E23DC133200E01CDC132C0004
:103420007023DC1324009423DC131A006017DC13D0
:103430000C00421DDC130A00AE23DC131C00CA235F
:10344000DC1324008A1DDC131000EE23DC1326009D
:103450001424DC1326003A24DC1318005224DC1355
:103460000A00B41DDC1316005C2486242A085C24A0
:103470008E242A08962486241E0896248E241E084C
:10348000B424DC132200D624DC131200E824DC135D
:103490001E00B218DC131400B2181A251418C6182E
:1034A0003225101C4E25DC13280076259C2526107D
:1034B0007625AC252612BE25DC131400D225DC139C
:1034C0001000E225DC133800B619DC130A001A26B6
:1034D000DC1312002C26422616202C266226161CEF
:1034E0007E2642260A207E2662260A1C7E26AE26DC
:1034F0000A14C226DC131400D626DC131200E826B8
:10350000DC130E00F626DC1318000E27DC130A006D
:10351000BE1ADC1306001827DC131E003627DC1346
:103520000E004427DC131000201554270E146827C2
:10353000DC1328009027DC131200A227DC131C00E8
:10354000BE27DC1322002015E0270E14F427DC131D
:103550000C000028DC130A000A2816280C0C0A2884
:1035600022280C0E3028DC130E003E28DC13280025
:10357000201566280E167C28DC130E008A28DC1322
:103580000C009628DC131A00B028DC132200D22885
:10359000DC131A00EC28DC1314000029DC131E00D5
:1035A0001E29DC1310002E29462918082E294E2921
:1035B000180E2E295C29180E6A29DC1320008A298E
:1035C000DC133400E01CDC132C00BE29DC131C00CF
:1035D000DA29DC131E006017DC130C00421DDC131B
:1035E0000A00F829DC133800302ADC1332008A1D67
:1035F000DC131000622ADC133000922ADC132C004A
:10360000B41DDC131600DE2ADC134C00B41DDC13E1
:1036100016002A2B502B260C2A2B5C2B260E6A2BED
:10362000502B3A0C6A2B5C2B3A0EA42BDC132A008D
:10363000CE2BDC131000DE2BDC131800B218DC13C9
:103640001400B218042C1414C618182C100E262CB2
:10365000DC132A00502CDC133600862CDC133A00D5
:10366000C02CDC131C00DC2CDC131000EC2CDC1355
:103670002E001A2DDC1324003E2DDC130C004A2DE5
:10368000DC1312005C2DDC132A00862DDC130600EF
:103690008C2DDC130A00962D661B08049E2D661BDC
:1036A0000A04A82D8C2D240ACC2DDC131800E42D3F
:1036B000DC1328000C2EDC130400102EDC13060093
:1036C000162EDC1308001E2EDC132600442E661B6B
:1036D00016045A2E0C2E1E04782EDC131A00922E7D
:1036E000DC130200942EDC130E00A22EDC13160055
:1036F000B82EDC131C00D42EDC130E00E22E661B49
:103700002E04102F661B3604462FDC1314005A2F8C
:10371000DC1312006C2F661B1804842F8C2D180AE2
:103720009C2F661B0C04A82F6A1B0C06B42F661B6B
:103730001604521EDC131200641EDC131A0011243E
:103740001FBECFEFD0E1DEBFCDBF17E0A0E0B1E0FC
:10375000E4E4F3EE02C005900D92AA3AB107D9F75E
:103760001DE0AAEAB7E001C01D92A435B107E1F758
:103770000E94C2680C94A0710C940000882359F038
:10378000109285001092840080E38093800081E194
:103790008093810008951092800081E180938100E0
:1037A0005C980895A82F80910F018F3F49F0809178
:1037B0000F01813029F08091DD078F7E8093DD0736
:1037C0008091CF0787FD08C08091DD0784FD04C08C
:1037D00080E00E94BE1B0895AC3008F0C6C0809106
:1037E0001101A81771F0A09311011092D8078091D0
:1037F000DD078D7F1092DC071092DB0784608093D9
:10380000DD078091D9079091DA07019749F410926A
:10381000DA071092D9078091DD0784608093DD0775
:10382000809184009091850080559644E0F08091CD
:10383000D6079091D7079695879590938B008093A4
:103840008A008091D6079091D70790938700809344
:103850008600109285001092840080E3809380009F
:1038600081E1809381002B9A6091DD0762FF7DC02A
:10387000862F8B7F8093DD0780910E013091D807D2
:103880002CE0829FC0011124A80F4A2F50E0FA01BA
:10389000E15DFE4F80813817C9F41092D8078FEF91
:1038A00080930F018093100180931101687B6093D6
:1038B000DD071092DC071092DB0780E00E94BE1B40
:1038C0008091DD078F7E8093DD0708958091D80772
:1038D000DA01AA0FBB1FA40FB51FAA0FBB1FAA0FA7
:1038E000BB1FFD01E80FF11DE856FE4FE081F0E03F
:1038F000EE0FFF1FE75EFE4F808191819093D70707
:103900008093D6078091D807A80FB11DAA0FBB1FBF
:10391000A854BD4F8D919C919093DA078093D9075D
:1039200080E00E94BE1B8091D6079091D707892B1B
:10393000B9F0F8948091D6079091D707969587951E
:1039400090938B0080938A008091D6079091D7073F
:10395000909387008093860081E00E94BE1B78943C
:103960008091D8078F5F8093D80708958091C3070F
:103970008093E00C80913A0890913B089670282F34
:10398000207285FF04C0963069F483E009C02223C9
:1039900049F4963011F482E003C0923019F481E0CA
:1039A0008093E10C10920F091092FB0C08951F9266
:1039B0000F920FB60F9211242F933F934F938F9333
:1039C0009F93EF93FF938091010D8E7F8093010D64
:1039D00080915B088E7F80935B081092590810924B
:1039E000580820915708922F9068909357088AE0C2
:1039F00080938D0894FD08C0206920935708109289
:103A0000450985E7809345099091570890FD56C276
:103A100091FD08C088EC8093FE089260909357084F
:103A20001092FD08E091FD08F0E08091C600EC5E88
:103A3000F64F80838091FD088F5F8093FD08809111
:103A4000FD08853009F06FC01092FD0880911409BF
:103A500083FF1DC08091570888608093570820E03D
:103A600030E0F901EC5EF64F908180818295807F95
:103A700092959F70892B8083808190914509892739
:103A800080832F5F3F4F2530310559F705C0809166
:103A90005708877F80935708409115092091160990
:103AA000942F80E030E0822B932B90931109809328
:103AB00010094091140980911509909116092091DF
:103AC000170930911809840F890F820F830F8F3FD8
:103AD000F1F4909157089160909357088091C1003C
:103AE0008F7B8093C100892F8D7F8093570893FD32
:103AF00007C08091140987FF03C09C7F90935708EB
:103B000010928D0810928C0810928B0805C080913D
:103B100057088C7F809357081092FE0880915708B1
:103B20008F77809357082091570820FFC7C1809155
:103B30001409853009F486C1863078F4823041F169
:103B4000833020F4813009F08DC117C0833009F42F
:103B500056C0843009F086C131C0833209F445C1B2
:103B6000843220F4873009F07DC178C1843809F4AB
:103B700071C1853809F076C16DC180911609863012
:103B800008F07BC1E0911609F0E0EE56FE4F0FC041
:103B900080911609873808F070C1E0911609F0E0AD
:103BA000EE0FFF1FE850FB4F0190F081E02D808168
:103BB0008093080D2F7B209357085FC11092560801
:103BC0008FEF80931F0D87E88093790C90915608B2
:103BD000E92FF0E0EE0FFF1FE850FB4F0190F0815E
:103BE000E02D80818093080D9F5F9093560880910F
:103BF0001F0D9091080D891B80931F0DDBCF8091C5
:103C00001609873808F015C1809116098335C1F46B
:103C100080911709826080931709E0911609F0E0FE
:103C2000EE0FFF1FE850FB4F0190F081E02D9091C7
:103C30001709808189238083809117098D7F1BC09C
:103C400080911609863541F5809117098860809327
:103C50001709E0911609F0E0EE0FFF1FE850FB4F47
:103C60000190F081E02D9091170980818923808354
:103C700080911709877F80931709E0911609F0E07A
:103C8000EE0FFF1FE850FB4F0190F081E02D909167
:103C900017098081892BA7C080911609813059F4BA
:103CA00080911709807F80939608809117098F7003
:103CB00080939708BEC080911609883469F490916A
:103CC000170986E0913021F0815011F09695FACFD6
:103CD00081508093B2087BC0809116098F3121F505
:103CE000E091160980911709F0E0EE0FFF1FE850F0
:103CF000FB4F0190F081E02D80838091170986337E
:103D000009F097C08091AB07873031F4809141086A
:103D10008F778093410805C080913C088F7780930E
:103D20003C081092C10C85C080911609873009F4B7
:103D30004EC080911609883009F449C08091160957
:103D4000853829F4809117098091170972C08091F4
:103D500016098A35A1F480915F088834C1F58091F5
:103D600017098F30A1F5809100018F3081F180918A
:103D7000C008843061F58BE18093A60828C080914B
:103D80001609803891F4809117098093E708809193
:103D9000E708863C09F04DC08091DF0C882309F0CC
:103DA00048C082E38093DF0C44C0809116098F33B2
:103DB00071F48091FC0C90911709892784FF07C04A
:103DC000809138088A60809338081092B407E09197
:103DD000160980911709F0E0EE0FFF1FE850FB4F26
:103DE0000190F081E02D808324C0809116098135F7
:103DF00068F4E091160980911709F0E0EE0FFF1FBB
:103E0000EA5FF94F0190F081E02D808380911609DF
:103E1000893079F420E030E0F901E851F74F8081F2
:103E2000F901EB5FF64F80832F5F3F4F2A3031055A
:103E300099F78AEA8093080D809157088F7B8093C9
:103E400057081BC01092450985E78093450980916A
:103E50004509AECE2F7B2093570830C08AEA809365
:103E6000080D0BC08091160180618093160180912E
:103E700057088C7F8093570821C09091570890FF76
:103E80001DC0809114098F78843041F09460909324
:103E900057088091080D809580932A0D8091080D18
:103EA0008093C6008091C10080648093C10080919E
:103EB00057088E7F8093570810925A08FF91EF9110
:103EC0009F918F914F913F912F910F900FBE0F9027
:103ED0001F9018951F920F920FB60F9211248F9377
:103EE0009F93EF93FF938091570885FF04C08F7DC8
:103EF0008093570837C082FF0BC08B7F8093570891
:103F000090912A0D9093C6008062809357082FC02D
:103F1000909156088091790C981720F59091560849
:103F2000E92FF0E0EE0FFF1FE850FB4F0190F0810A
:103F3000E02D80818093080D9F5F909356088091BB
:103F40001F0D9091080D891B80931F0D8091080D06
:103F50008093C6008091560880930F098091C1001C
:103F6000806403C08091C1008F7B8093C100FF916A
:103F7000EF919F918F910F900FBE0F901F9018950A
:103F8000CF93DF938091570887FF02C080E037C04E
:103F9000C8EFD4E0A2E7B9E090E020E0E881F98141
:103FA000E0818C91E81719F1EC93892F8E528430BF
:103FB00008F02F5F993431F48091CF0781608093AE
:103FC000CF0715C09B3431F48091DD078160809369
:103FD000DD070DC0892F8C54823010F0993539F4EB
:103FE000809138088860809338081092B3079F5FEB
:103FF00022961196963891F6822F211181E0DF9159
:10400000CF91089510921409109215091092160973
:10401000109217091092180910922A0D1092FD089B
:1040200010925608109245091092FE0810925708F7
:104030001092080D10921109109210091092790C2B
:1040400010920F0910925A081092C50089E18093CE
:10405000C40082E28093C00088E98093C10086E0BA
:104060008093C20008951F920F920FB60F921124F1
:104070002F933F934F935F936F937F938F939F9370
:10408000EF93FF9320910409922F90689093040975
:104090008AE080938D0894FD08C02069209304096C
:1040A00010927B0C85E780937B0C9091040990FD26
:1040B000FAC391FD08C088EC809336099260909312
:1040C000040910921D0DE0911D0D8091CE00F0E0CD
:1040D000E95BF64F808380911D0D8F5F80931D0DEE
:1040E00080911D0D853009F043C010921D0D609127
:1040F0000409762F777F5091480940914909952FFF
:1041000080E0242F30E0822B932B9093280D809316
:10411000270D20914709450F420F80914A09480F0A
:1041200080914B09480F4F3FC9F4972F91609093AE
:1041300004098091C9008F7B8093C900892F8D7FEE
:104140008093040927FF03C09C7F90930409109279
:104150008D0810928C0810928B0803C0647F6093C6
:10416000040910923609809104098F77809304091D
:104170002091040920FF97C380914709833209F4F5
:10418000F4C08432F0F4843009F454C0853048F42B
:104190008230E1F1833008F05EC0813009F053C312
:1041A0002CC0873009F4FEC0883020F4853009F037
:1041B0004AC3ECC0813209F498C0823209F043C38B
:1041C0009DC0843309F4FBC2853350F4823309F473
:1041D000EDC0833308F0FBC0843209F034C3A4C0BF
:1041E000863309F401C3863308F4EDC2843809F438
:1041F000D5C0853809F027C3D1C0E0914909E63020
:1042000008F027C3F0E0EA57FE4F0DC0E0914909DE
:10421000E73808F01EC3F0E0EE0FFF1FE850FB4F39
:104220000190F081E02D80818093FF082F7B209307
:1042300004090FC3109253088FEF80931F0D87E876
:1042400080937A0C90915308E92FF0E0EE0FFF1F56
:10425000E850FB4F79C0E0914909E33551F4909162
:10426000390880914A098D7F9270892B809342088A
:104270008BC0E635C9F480918908813059F080916E
:104280008908813439F090913C0880914A098778F7
:10429000987706C090913C0880914A09877E987172
:1042A000892B8093450870C0E73551F490913D0803
:1042B00080914A098C7F9370892B8093460864C053
:1042C000E43551F490913A0880914A098F7B9074BB
:1042D000892B8093430858C0E73808F055C0F0E0B8
:1042E000EE0FFF1FE850FB4F49C0E0914909E6304F
:1042F00008F0AFC2F0E0E457FE4F95CFE0914909D6
:10430000E13508F0A6C2F0E0EE0FFF1FEA5FF94FBB
:104310000190F081E02D80818093FF088091040955
:104320008F7B8093040995C2109253088FEF80937E
:104330001F0D81E580937A0C90915308E92FF0E0EE
:10434000EE0FFF1FEA5FF94F0190F081E02D8081B1
:104350008093FF089F5F9093530880911F0D909169
:10436000FF08891B80931F0D61CFE0914909E1355A
:1043700058F4F0E0EE0FFF1FEA5FF94F0190F08173
:10438000E02D80914A0980838AEAC6CF10927B0C87
:1043900085E780937B0C80917B0C46CF2F7B20930D
:1043A000040981C28AEA8093FF0853C2E091490957
:1043B000ED3308F03CC2F0E0EE0FFF1FE855F94F77
:1043C0000190F081E02D80818093FF082DC2209123
:1043D00049092A3111F02E3059F481E08093C10847
:1043E0008093C2088093B3082E3011F48093C308E1
:1043F0008091B308813051F42E3141F480914A0903
:10440000823321F41092BA0C1092B30880913C08C8
:1044100087FF31C180915F08883409F42CC18091F5
:10442000AB07873009F427C1822F8252873118F0F9
:104430002E3109F020C192E09093B308E22FF0E012
:10444000EE0FFF1FE855F94F0190F081E02D8CE051
:10445000E83AF807A1F490914A09913108F002C1B5
:1044600080915E08891709F4FDC0E0911C09F0E015
:10447000E158F34F81E083879093C80812C08CE025
:10448000EE3AF807A1F490914A09943008F0EAC096
:10449000E0911C09F0E0E158F34F84E083879093AA
:1044A000CB0880911C098F5F80931C09DBC08CE0D6
:1044B000EB3AF80771F480914A098A3108F0D2C0CA
:1044C000E0911C09F0E0E158F34F93878093C9080D
:1044D000E8CF8CE0EC3AF80779F490914A099D33E3
:1044E00008F0C0C0E0911C09F0E0E158F34F83E010
:1044F00083879093CA08D5CF8CE0EA3AF80779F41D
:1045000090914A09943008F0ADC0E0911C09F0E0A8
:10451000E158F34F85E083879093CC08C2CF8CE0BD
:10452000E93AF80779F490914A09913108F09AC074
:10453000E0911C09F0E0E158F34F87E08387909306
:10454000CE08AFCF8CE0ED3AF80789F490914A0994
:10455000892F8150803108F085C0E0911C09F0E07E
:10456000E158F34F86E083879093CD089ACF8CE093
:10457000E138F807B1F4E0911C09F0E0E158F34F9D
:104580008CE0838780914A098093D30880911C092D
:104590008F5F80931C098091AA0888608093AA0885
:1045A00061C08CE0E53BF80779F490914A099530B9
:1045B00008F058C0E0911C09F0E0E158F34F89E0A1
:1045C00083879093D0086DCF8CE0E43BF80779F4B3
:1045D00090914A09933008F045C0E0911C09F0E041
:1045E000E158F34F8AE083879093D1085ACF8CE04B
:1045F000E33BF80771F490914A09923098F5E09105
:104600001C09F0E0E158F34F8BE083879093D208C8
:1046100048CF8CE0E33CF80771F490914A0992305E
:1046200008F5E0911C09F0E0E158F34F8EE0838734
:104630009093D50836CFEA5BFC40A1F490914A09EB
:10464000923381F4E0911C09F0E0E158F34F8DE0E2
:1046500083879093D40880911C098F5F80931C09F5
:104660009093BA0C80911C098E3110F010921C09A5
:1046700081E080931F09223208F098C02E3109F49E
:1046800095C0E22FF0E0EE0FFF1FE855F94F0190C3
:10469000F081E02D80914A0980838091490987311A
:1046A00009F04BC080914A09882309F07FC08091AE
:1046B000E708863C09F07AC080E090E0FC01EB5FFF
:1046C000F64F108201968A309105C1F71092E00CE6
:1046D0001092E10C1092E50C1092E40C1092E60C92
:1046E0001092E70C1092E80C1092E90C1092EA0C70
:1046F0001092EB0C1092EC0C1092EE0C1092ED0C50
:104700001092F00C1092EF0C1092F20C1092F10C2F
:104710001092F30C1092F40C1092F50C1092F60C0F
:104720001092F80C1092F70C1092FA0C1092F90CEF
:104730001092FB0C1092E70839C08F31B9F58091C7
:10474000B608813041F480914A098230E1F48BE06F
:104750008093B9082BC08091B608833041F48091D2
:104760004A09843011F08B3071F485E011C08091DA
:10477000B6088530D9F08091B6088823B9F08091C9
:10478000B6088A3099F01092BF081092BE0886E0F1
:104790008093B6081092B8081092B70886E180930B
:1047A000B908809138088860809338088AEA809335
:1047B000FF08809104098F7B8093040938C08AE147
:1047C0008093530802C0109253088FEF80931F0DFF
:1047D0008DE380937A0C90915308E92FF0E0EE0F6F
:1047E000FF1FE855F94F10C0109253088FEF8093C8
:1047F0001F0D8AE280937A0C90915308E92FF0E024
:10480000EE0FFF1FEE5DF84F0190F081E02D8081EB
:104810008093FF089F5F9093530880911F0D9091A4
:10482000FF08891B80931F0D2F7B2093040988ECC0
:10483000809318011092AD088091AE08882349F04A
:104840001092AE0806C0809104098C7F8093040901
:104850002AC09091040990FF26C0809147098430B6
:1048600081F0843271F0853361F0843351F0863306
:1048700041F09460909304098091FF0880958093A3
:10488000FC088091FF088093CE008091C90080646D
:104890008093C900809104098E7F8093040910924F
:1048A000550810925408FF91EF919F918F917F913D
:1048B0006F915F914F913F912F910F900FBE0F908D
:1048C0001F9018951F920F920FB60F9211248F937D
:1048D0009F93EF93FF938091040985FF04C08F7D20
:1048E0008093040963C082FF0BC08B7F809304090F
:1048F0009091FC089093CE008062809304095BC085
:104900009091530880917A0C981708F04FC08091CD
:104910007A0C873849F490915308E92FF0E0EE0FB4
:10492000FF1FE850FB4F26C080917A0C813549F477
:1049300090915308E92FF0E0EE0FFF1FEA5FF94F67
:1049400019C080917A0C8D3349F490915308E92F66
:10495000F0E0EE0FFF1FE855F94F0CC080917A0C84
:104960008A3289F490915308E92FF0E0EE0FFF1F8F
:10497000EE5DF84F0190F081E02D80818093FF087B
:104980009F5F9093530880911F0D9091FF08891BA2
:1049900080931F0D8091FF088093CE008091530873
:1049A0008093FE0C8091C900806403C08091C9008F
:1049B0008F7B8093C900FF91EF919F918F910F9012
:1049C0000FBE0F901F90189510924709109248093A
:1049D0001092490910924A0910924B091092FC0852
:1049E00010921D0D1092530810927B0C10923609F4
:1049F000109204091092FF081092280D1092270DB2
:104A000010927A0C1092FE0C1092550810925408D5
:104A10001092CD0083E38093CC001092C80088E907
:104A20008093C90086E08093CA000895982F80FF84
:104A300002C0439A01C0439891FF02C0179A01C077
:104A4000179892FF02C0429A01C0429893FF02C099
:104A5000169A01C0169894FF02C0419A01C041986D
:104A600095FF02C0159A01C0159896FF02C0409AA2
:104A700001C0409887FF02C0149A089514980895C1
:104A8000459A469847984598479A0E941625479810
:104A9000459A0895459A469A47984598479A0E949C
:104AA00016254798459A08950F931F938AE80E9408
:104AB000402580E00E94402584E80E94402500E0D7
:104AC000802F806B0E94402580E10E94402580E07D
:104AD0000E94402510E080E00E944A251F5F183A9E
:104AE000D1F70F5F093061F71F910F910895EF9291
:104AF000FF921F93CF93DF937C018AE80E944025A9
:104B000080E00E94402584E80E94402580EB0E94BE
:104B1000402580E10E94402580E00E94402580E4FD
:104B200091E0E80EF91EE70110E088810E944A2515
:104B30001F5F2296103AC9F781EB0E94402580E161
:104B40000E94402580E00E94402510E0F70181810D
:104B50000E944A251F5F82E090E0E80EF91E103A9D
:104B6000A9F78FEA0E944025DF91CF911F91FF9016
:104B7000EF9008952F923F924F925F926F927F92A3
:104B80008F929F92AF92BF92CF92DF92EF92FF925D
:104B90000F931F93DF93CF9300D000D0CDB7DEB734
:104BA0009C018091AB078A3041F08091AB078B303C
:104BB00021F08091AB078C3041F42232310508F0AE
:104BC000D4C1A901445E5E4F63C02734310508F0AB
:104BD000CCC12115310519F422E030E051C021305B
:104BE000310519F423E030E04BC02230310519F4CF
:104BF00024E030E045C02330310519F425E030E0F1
:104C00003FC02430310519F426E030E039C02530AA
:104C10003105A1F12630310519F425E330E030C02B
:104C20002830310519F42FE030E02AC02930310551
:104C300019F420E030E024C02A30310519F42CE0CA
:104C400030E01EC02B303105D9F02C30310519F47D
:104C500021E030E015C02D30310519F42EE030E0B0
:104C60000FC02E30310519F429E030E009C02F3093
:104C7000310509F477C12133310511F426E330E021
:104C800090911E0D87E4989FA0011124420F531F9D
:104C900080913808816080933808862F90E0B8E0D2
:104CA000AB2EB12CA80EB91E909332088093310818
:104CB000CA01880F991F840F951F880F991FFC0147
:104CC000E653F04D45905490FC01E253F04D859130
:104CD0009491882E8694A091E008B091E1086090AC
:104CE000DE087090DF080091D8081091D908609113
:104CF000DA0870E0E7E42E2EE1E03E2E282F30E0C7
:104D0000215030403C832B8365C0E72FF0E0EE0F4D
:104D1000FF1FE40DF51D05911491F801EE0FFF1F23
:104D2000EE0FFF1FE45AF14FC590D4903601F80101
:104D3000EE0FFF1FEE0FFF1FE25AF14FA591B49146
:104D4000B695A7957101EA18FB0860E01FC0C7017E
:104D5000821B930B9A838983220F331F2C0D3D1DD9
:104D6000F9018591949129813A81220F331F2750AF
:104D7000364FF901918380838091310890913208F8
:104D800001969093320880933108692D262F30E0E8
:104D9000962E93942A173B07D0F2872F90E0EB8151
:104DA000FC818E179F079CF4F701E21BF30BEE0FBB
:104DB000FF1FE750F64F11821082692D8091310854
:104DC0009091320801969093320880933108A60E94
:104DD000B11C7F5F781508F498CF2091310830918D
:104DE0003208285F3F4F3C832B83CA01880F991FED
:104DF000840F951F880F991FFC01E453F04D859097
:104E000094909092E3088092E208FC01E153F04D07
:104E100085919491282F8093E408A82EA69470E0A1
:104E200087E4482E81E0582EE22EFF240894E10802
:104E3000F10868C0E72FF0E0EE0FFF1FE80DF91D45
:104E400025913491F901EE0FFF1FEE0FFF1FE45A79
:104E5000F14FC590D4903601F901EE0FFF1FEE0F10
:104E6000FF1FE25AF14FA591B491B695A795820123
:104E70004B815C81041B150B60E01DC01801241AD6
:104E8000350A440F551F4C0D5D1DFA018591949113
:104E9000220C331C49EF59E0240E351EF101918399
:104EA0008083809131089091320801969093320866
:104EB000809331086B2D462F50E0B62EB3944A17DD
:104EC0005B07E0F2872F90E08E159F059CF4F801B8
:104ED000E41BF50BEE0FFF1FE750F64F1182108217
:104EE0006B2D809131089091320801969093320891
:104EF000809331084B815C81460F511D5C834B834D
:104F00007F5F89017A1508F495CFB093E108A093EB
:104F1000E0086092DE087092DF081093D9080093D1
:104F2000D8086093DA088B819C819093DD08809388
:104F3000DC087093DB088091310890913208813A47
:104F4000910540F080916208863321F08091380805
:104F5000846003C0809138088B7F8093380810925A
:104F6000350803C028E030E08BCE0F900F900F90F3
:104F70000F90CF91DF911F910F91FF90EF90DF90F5
:104F8000CF90BF90AF909F908F907F906F905F90E9
:104F90004F903F902F900895CF92DF92EF92FF9223
:104FA0000F931F93CF93DF93809138088160809394
:104FB000380888E08093D70840912E0850912F0838
:104FC00020911401E091150160912E0870912F0835
:104FD00030E084EC9FEFDC012A9FC0012B9F900DF5
:104FE0003A9F900D11248E1B9109840F951F2EE876
:104FF00030E0AC01429FC001439F900D529F900D45
:1050000011240E9463716E5F90E02FE331E0F0ECB9
:10501000CF2EF3E0DF2EE0EEEE2EE7E0FE2E00E3F3
:105020001CE0C0E1D8E0A0E9B9E040ED5BE0892FE9
:105030008450883940F0F901EE0FFF1FE750F64F1A
:105040001182108257C0943011F09B3941F4F9015C
:10505000EE0FFF1FE750F64FD182C0824BC0953054
:1050600011F09A3941F4F901EE0FFF1FE750F64FA6
:10507000F182E0823FC0963011F0993941F4F90194
:10508000EE0FFF1FE750F64F1183008333C09730B8
:1050900029F4B0936A0CA093690C2CC0983029F4C1
:1050A0005093680C4093670C25C0633048F0615002
:1050B000F901EE0FFF1FE750F64F518340831AC0EE
:1050C000623049F4F901EE0FFF1FE750F64F5183AC
:1050D000408361E00FC0F901EE0FFF1F613031F432
:1050E000E750F64FB183A08360E004C0E750F64F6D
:1050F000D183C0839F5F21503040903A09F097CF11
:10510000DF91CF911F910F91FF90EF90DF90CF90A3
:105110000895EF92FF921F93CF93DF932091380869
:10512000216020933808685F7F4F880F991F880F90
:10513000991FFC01E45AF14FC591D491FC01E25A48
:10514000F14FA591B491B695A79510E047E451E0D1
:10515000461B570B1EC07A01E81AF90A9C01220F60
:10516000331F2C0F3D1FF90185919491EE0CFF1C0C
:1051700029EF39E0E20EF31EF701918380838091DD
:10518000310890913208019690933208809331084B
:105190001F5F812F90E08A179B07E8F2E7E4F1E0B8
:1051A000E61BF70BEA1BFB0BEE0FFF1FE750F64F5A
:1051B000118210828091310890913208019690936B
:1051C000320880933108DF91CF911F91FF90EF90CB
:1051D000089580E090E0FC01EE0FFF1FE750F64FCE
:1051E00011821082019621E080349207A1F710927B
:1051F00032081092310810923408109233088091CE
:1052000038088B7F80933808109236080895DF9213
:10521000EF92FF920F931F93CF93DF938C018091B6
:105220003608882319F490EAD92E02C080E9D82ED6
:105230008AE80E94402580E00E94402584E80E9480
:10524000402580EB0E94402580E10E94402580E0BF
:105250000E944025C0E0D0E0B0EAEB2EF12C809116
:10526000330890913408F701E81BF90BEC0FFD1F90
:10527000EE0FFF1FE00FF11F80810E944A2521964B
:10528000CD1568F381EB0E94402580E10E94402506
:1052900080E00E944025C0E0D0E070EAE72EF12CCB
:1052A0008091330890913408F701E81BF90BEC0F5B
:1052B000FD1FEE0FFF1FE00FF11F81810E944A25A5
:1052C0002196CD1568F38FEA0E944025809133081E
:1052D000909134089C012F5F3F4F809590958156A7
:1052E0009F4FDC01AA0FBB1FA00FB11FFC0131961D
:1052F000EE0FFF1FE00FF11F12C08D919C911197CF
:10530000892B49F480819181892B29F030933408CD
:10531000209333080EC02F5F3F4F12973297203AE9
:10532000310558F3203A310521F4109234081092D7
:105330003308DF91CF911F910F91FF90EF90DF9095
:105340000895FF920F931F93F82E8AE80E9440253C
:1053500080E00E94402584E80E94402580EB0E9466
:10536000402580E10E94402580E00E94402500E029
:10537000FF2079F010E08FEF0E944A251F5F183060
:10538000D1F710E080E00E944A251F5F1830D1F766
:105390000EC010E080E00E944A251F5F1830D1F750
:1053A00010E08FEF0E944A251F5F1830D1F70F5F82
:1053B0000A30F1F681EB0E94402580E10E944025F1
:1053C00080E00E94402500E0FF2079F010E08FEFA0
:1053D0000E944A251F5F1830D1F710E080E00E943C
:1053E0004A251F5F1830D1F70EC010E080E00E9400
:1053F0004A251F5F1830D1F710E08FEF0E944A2531
:105400001F5F1830D1F70F5F0A30F1F68FEA0E9464
:1054100040251F910F91FF900895882341F484E265
:105420000E94402581E80E9440258FE409C0813018
:1054300051F485E20E94402581E80E94402583E2E4
:105440000E9440250895823049F484E20E9440255C
:1054500081E80E9440258FE70E94402508954498E6
:10546000449A84EF91E028EC30E0F9013197F1F7AC
:105470000197D9F782EE0E94402580EA0E944025DC
:1054800084EC0E94402586EA0E94402584EA0E941E
:1054900040258DE60E94402580E30E9440258091B2
:1054A0009A080E940D2A87EE0E9440258BE00E94F8
:1054B00040258DE40E94402588E60E94402580E337
:1054C0000E94402585EE0E9440258FE70E944025DE
:1054D0008BEA0E94402582E50E9440258FE20E94CF
:1054E000402587EE0E9440258BE00E9440258FEAF0
:1054F0000E9440250E9454250E94E9280895382FD3
:105500002D982E982F9820E0932F91709295990FB7
:10551000907E85B18F7D892B85B936952E9A2E98F0
:105520002F5F283089F72F9A2F980895289A299A63
:105530002A9A9091CF0797FF4DC08091AB0788239F
:1055400009F448C0809123088330A9F0863069F1BE
:10555000882309F03FC0991F9927991F809124083B
:105560008E7F892B809324088091240880950E9447
:105570007F2A2A98089580911201882359F18091F9
:105580001201843138F5809112018A3018F180912E
:1055900012016AE00E945771E82FF0E0EA56F84FD6
:1055A00080810E947F2A2898089580911201882383
:1055B00089F080911201843168F4809112016AE0CF
:1055C0000E945771E92FF0E0EA56F84F80810E945F
:1055D0007F2A299808951092EA071092E90780918E
:1055E000EB07857F8093EB071092EC071092ED0795
:1055F0001092EE071092EF071092F0071092F10749
:105600001092F2071092F3071092F4071092F50728
:105610001092FC071092FB071092FE071092FD07F4
:10562000109200081092FF071092020810920108D1
:1056300010920408109203081092060810920508B0
:10564000109208081092070810920A081092090890
:1056500010920C0810920B0810920E0810920D0870
:105660001092100810920F08109212081092110850
:105670001092140810921308109216081092150830
:10568000109218081092170810921A081092190810
:1056900010921C0810921B0810921E0810921D08F0
:1056A0001092200810921F081092220810922108D0
:1056B00008958091EB0782FF97C09091F907809140
:1056C000D00787FD03C09E7F09F08EC08091EB0755
:1056D0008B7F8093EB078091CF0783FD16C080916D
:1056E0003C0887FF17C08091FA0781FD0AC082FD40
:1056F00008C084FD06C085FD04C086FD02C087FF8A
:1057000009C08091AA0883FD05C080915F08883494
:1057100009F042C08091CF0787FF2FC08091D20748
:1057200082FF02C081E026C080915F088E3A51F06E
:1057300080915F088C3B71F490917D0880919B086B
:10574000981741F480913C0887FF04C08091FA07C4
:1057500083FD15C08091FA0781608093F9078091DD
:10576000FA0787FF0CC08091AA0883FF08C08091C8
:10577000F90784608093F90702C01092F9079091AD
:10578000DD0793FF02C0977F04C084E080930F0180
:1057900091609093DD0721C089E080930F01809193
:1057A000DD0781608093DD0780913C0887FF02C0A0
:1057B00080E401C084E18093130180913808806205
:1057C0008093380880ED97E090932708809326080F
:1057D000809138088260809338081092FA0780918F
:1057E000AA08877F8093AA0808958091EB0780FD1F
:1057F0000CC0209112093091130980914C099091AD
:105800004D092817390709F4A1C78091EB078E7F4E
:105810008093EB07A0911209B09113098C918093AA
:10582000F607FD018191F0931309E0931209E75007
:10583000FD4029F41497B0931309A09312098091A5
:10584000F6078093F8078091CF0787FD0CC0809101
:10585000F607863009F18091F6078831E9F08091EA
:10586000F6078434C9F08091AB078091AB078A308A
:1058700098F48091F607882379F02091F60790E05C
:1058800080E020FD9F5F8F5F883011F02695F9CF73
:10589000913011F01092F6078091AB07873049F4F0
:1058A0008091B807882329F08091F6078D73809343
:1058B000F6078091C7079091C8078755924048F432
:1058C0008091C7079091C8070A9718F081E08093EC
:1058D000F6078091CF0781FF05C08091F6078170A0
:1058E0008093F6078091D00782FF0DC08091000160
:1058F000863121F48091F607817A03C08091F60702
:1059000081788093F6078091D00787FF09C0809146
:105910000001863029F08091F60781788093F607A0
:105920008091F607882331F48091EB0782FD02C055
:105930001092FA078091F60780FD47C08091FB071F
:1059400080FF43C08091FC0780FF2BC08E7F809337
:10595000FC078091FD079091FE07889750F0809199
:10596000EC0780628093EC078091FA078160809356
:10597000FA078091FD079091FE078052934028F02E
:105980008091EC0784608093EC078091FD079091F3
:10599000FE07805F9A4028F08091EC078860809332
:1059A000EC071092FE071092FD078091FB078E7F97
:1059B0008093FB078AE090E090931408809313088B
:1059C0008091EB078D7F8093EB078091F60781FD37
:1059D0003DC08091FB0781FF39C08091FC0781FFAA
:1059E00026C08D7F8093FC078091FF07909100086F
:1059F000889728F08091ED0780628093ED07809171
:105A0000FF07909100088052934028F08091ED07A5
:105A100084608093ED078091FF0790910008805F7C
:105A20009A4028F08091ED0788608093ED071092EE
:105A300000081092FF078091FB078D7F8093FB0782
:105A400080E991E090931608809315088091F607FD
:105A500082FD3DC08091FB0782FF39C08091FC0729
:105A600082FF26C08B7F8093FC0780910108909174
:105A70000208889728F08091EE0780628093EE07F5
:105A800080910108909102088052934028F0809103
:105A9000EE0784608093EE078091010890910208E0
:105AA000805F9A4028F08091EE0788608093EE072F
:105AB00010920208109201088091FB078B7F80935F
:105AC000FB078AE090E09093180880931708809174
:105AD000F60783FD3DC08091FB0783FF39C08091AD
