:020000020000FC
:0200000009C035
:10001400002401E0102E0FEF0DBF00E10EBF189A6F
:10002400199A119A1DD000E00FBB00E00EBB00919D
:100034006F000DBB04E00CBB06E00CBB0000E199B3
:10004400FECF18E002E021B120FFFDCF33B130270D
:1000540021B120FDFDCF33B91A95A9F70000FFCFD8
:10006400662780E050E8650F60936F000000000091
:1000740034D0403081F15695552331F0052F41306D
:1000840009F40195600FF0CF413011F051E001C047
:100094005FEF650F60936F00000000001ED04030DA
:1000A400D1F0650F60936F000000000016D040305F
:1000B40091F05195550F550F650F60936F00000037
:1000C40000000BD0403039F0882319F08A9560E89D
:1000D400C9CF119AC4CF462F0895332401E0402E8E
:1000E40006E202BE11E0089BFECF0899FECF13BFC3
:1000F40026B720FF02C0310C46BE089BFECF26B7B0
:1001040020FF02C0310C46BE0899FECF26B720FF5F
:1001140002C0310C46BE089BFECF26B720FF02C0AA
:10012400310C46BE0899FECF0A9581F726B720FF09
:1001340002C0310C46BE089BFECF26B720FF02C08A
:10014400310C46BE0899FECF03BE26B720FF04C07B
:100154000894301C217026BF22B611EB26E221162A
:1001640032063CF411EF25E21215230524F440E095
:0A017400089541E008954FEF08954B
:00000001FF
