:100000000C94AF060C94CC060C94CC060C94CC0645
:100010000C94CC060C9444350C94CC060C94CC0671
:100020000C94CC060C9415500C94A3370C94CC066D
:100030000C94CC060C9485360C94CC060C94CC060F
:100040000C94CC060C94CC060C94CC060C94CC06E8
:100050000C948B0A0C94CC060C94F7090C94CC06E7
:100060000C94CC060C94CC060C94CC060C94CC06C8
:100070000C94873A0C94CC060C94AE372A41BE4FB0
:10008000BE4FBE4F314169417041164245429642D2
:100090009E42BE4FBC42E1423243D243F54312443A
:1000A000494450446344C444D644BE4FBE4FBE4F3F
:1000B000BE4FBE4FBE4FBE4F6B44E244EA44FC44C9
:1000C000364579458145BE4FBE4FBE4F8E4593455F
:1000D000B045BE4FBE4FBE4FBE4FBE4FBE4F734426
:1000E000BE4F9644AE44BE4FBE4FBE4FBE4FBE4FF6
:1000F000BE4FBE4FBE4FBE4FBE4FBE4FBE4FBE4F98
:10010000BE4FBE4FBE4F3A438143CB43BE4FBE4F5F
:10011000BE4FBE4FBE4FBE4FBE4FBE4FBE4FBE4F77
:10012000BE4FBE4FBE4FBE4FBE4FBE4FBE4FBE4F67
:10013000BE4FBE4FBE4FBE4FBE4FBE4FBE4FBE4F57
:10014000BE4F4641D74188422443BD453760496090
:100150005B606D607F609160A360B560C760D960CF
:10016000EB60FD600F612161336145615761696139
:100170007B618D619F61AD61BB61C961D761E561E3
:10018000F36101620F621D622B6239624762556240
:10019000636271627F628D629B62A962D842F00ADB
:1001A000050000000580F00A0400000000000000C7
:1001B000000000000000000000000000F00000004F
:1001C0000A40F00A000000000A40F00A00000000A7
:1001D000000000000000000000000000008000009F
:1001E000020000002880F00A7600000000000000F5
:1001F0000000000000000000000000004640F00A7F
:10020000050000000480F00A050000000000000066
:100210000000000000000000000000001E41F00A85
:10022000050000000480F00A050000000000000046
:100230000000000000000000000000003840F00A4C
:10024000050000003880F00A0500000000000000F2
:100250000000000000000000000000007D40F00AE7
:10026000050000000480F00A050000000000000006
:10027000000000000000000000000000D842B80BA1
:10028000050000000580F00A0400000000000000E6
:10029000000000000000000000000000D842B80B81
:1002A000050000000580F00A0400000000000000C6
:1002B000000000000000000000000000D8424006DE
:1002C000050000000580400604000000000000005A
:1002D000000000000000000000000000D842980864
:1002E00005000000058098080400000000000000E0
:1002F0000000000000000000000000007840DC0565
:1003000004000000000000000000000000000000E9
:100310000000000000000000000000009640DE0D1C
:100320000540DC05000000000000000000000000A7
:100330000000000000000000000000009680DE0DBC
:100340000580DC0500000000000000000000000047
:10035000000000000000000000000000D842FC087F
:10036000050000000580FC080400000000000000FB
:10037000000000000000000000000000987A800CDF
:10038000050000000580F00A0400000000000000E5
:100390000000000000000000000000006841B80BF1
:1003A00064441C0C050000000580F00A04000000F5
:1003B0005A421C0C0000000000000000D842540B00
:1003C000050000000580F00A0400000000000000A5
:1003D0000000000000000000000000001E00F00A05
:1003E0000480F00A0000000000000000000000008F
:1003F00000000000000000000000000014000000E9
:100400000540F00A140000000580F00A000000001A
:100410000000000000000000000000008483DE0DEA
:100420000580DC0500000000000000000000000066
:100430000000000000000000000000001E0000009E
:100440000480F00A0000000000000000000000002E
:100450000000000000000000000000006841B80B30
:100460006444B80B050000000580F00A0400000099
:100470005A421C0C000000000000000098BA98BA14
:10048000983A983A0887F0000200D48210000000E1
:1004900000000000000000000200C8851200568223
:1004A0000200000000000000D00700000000000073
:1004B0000000000000000000530057005B005F00D8
:1004C000630066006B006F00730078007C008100A1
:1004D00086008A008F0094009A009F00A400AA0062
:1004E000AF00B500BB00C100C700CD00D300D900EC
:1004F000DF00E600EC00F300F900000106010D0149
:1005000014011A01210128012F0136013C01430188
:100510004A01510157015E0165016C0173017901C6
:10052000800186018D0194019A01A001A701AD010E
:10053000B301BA01C001C601CC01D201D701DD016E
:10054000E301E801EE01F301F801FE0103020802F4
:100550000D02120217021B022002250229022D029F
:10056000320236023A023E02420246024A024D027C
:100570005102540258025B025F0262026502680285
:100580006C026E027102740277027A027C027F02B0
:1005900081028402860289028B028D028F029202FE
:1005A0009402960298029A029C029D029F02A10266
:1005B000A302A402530057005B005F0063006600C3
:1005C0006B006F00730078007C00810086008A0059
:1005D0008F0094009A009F00A400AA00AF00B5000D
:1005E000BB00C100C700CD00D300D900DF00E6008A
:1005F000EC00F300F900000106010D0114011A01DD
:10060000210128012F0136013C0143014A0151011A
:1006100057015E0165016C0173017901800186015A
:100620008D0194019A01A001A701AD01B301BA01A6
:10063000C001C601CC01D201D701DD01E301E8010F
:10064000EE01F301F801FE01030208020D0212029D
:1006500017021B022002250229022D023202360255
:100660003A023E02420246024A024D02510254023E
:1006700058025B025F026202650268026C026E024F
:100680007102740277027A027C027F028102840284
:10069000860289028B028D028F02920294029602D8
:1006A00098029A029C029D029F02A102A302A40248
:1006B0008008CC05200884402008000095093C00F3
:1006C0008149201C8008CC05400884404008000077
:1006D00095093C008149201C8708CC052708944EC9
:1006E0002008000095093C008149201C900834082E
:1006F00050082C4C4008000095093C008149201C02
:100700008708CC054708944E4008000095093C0036
:100710008149201CEB097800EC080807EB087C00F5
:10072000ED08401A814900008908CC054908940366
:100730004A08105995093C008149201CE0092C0108
:10074000E0090000E0090000E0092C01E149201C5B
:100750008008E60240085A354008000095093C0030
:100760008149201C8008CC054008844040080000D6
:1007700095093C008149201C8008CC054008944E16
:100780004008000095093C008149201C8008CC05E8
:100790004008944E4008000095093C008149201C07
:1007A0008008CC05400884404008000095093C00C2
:1007B0008149201C8408DB134408F8254008000008
:1007C0009509F0008149201C8008E6024008623C3F
:1007D0004008000095093C008149201CE008E8FD24
:1007E000E0080000E0080000F5093C00E149201C99
:1007F0008000CC05200084402008000095093C00C2
:100800008149201C8000CC05400084404008000045
:1008100095093C008149201C8700CC0527001C302D
:100820002008000095093C008149201C90043408F0
:100830005004B42D8008000095093C008149201C1B
:100840008700CC0547001C304008000095093C009B
:100850008149201C8000E60240005A354008000013
:1008600095093C008149201C8000CC054000844053
:100870004008000095093C008149201C8000CC05FF
:100880004000944E4008000095093C008149201C1E
:100890008000CC054000944E4008000095093C00C3
:1008A0008149201C8000CC054000844040080000A5
:1008B00095093C008149201C3B4B7C98AF92F00A83
:1008C00032756E69647832FF22325F738223554B32
:1008D000464138100A38100A3F080A3F080A3F0804
:1008E0000A2020003F080A0000003E040A3F040AD4
:1008F0003E080A3E080A3F040A38080A20200A0077
:10090000000038100A38100A3F080A3F080A3F085A
:100910000A3E040A3F040A3E080A3E080A3F040A47
:1009200002000200020002000200020002000200B7
:1009300008000300080003000A0007000A0007007F
:100940002400180024001800020002000200020027
:100950000A0007000A00070002000200020002006D
:1009600003000700030007001E0014001E0014000F
:100970000F000A000F000A000A0007000A00070023
:100980000C0008000C0008001E0014001E001400DB
:10099000030007000300070002000200020002003B
:1009A0000200020002000200020002000200020037
:1009B00008000300080003000A0007000A000700FF
:1009C000240018002400180003000700030007009B
:1009D0001E0014001E0014000F000A000F000A0081
:1009E0000A0007000A0007000C0008000C000800BD
:1009F00002000200020002000200020002000200E7
:100A000008000300080003000700060003000300BD
:100A10002400180024001800020002000200020056
:100A20000A0007000A00070002000200020002009C
:100A300003000700030007001E0014001E0014003E
:100A40000F000A000F000A000A0007000A00070052
:100A50000C0008000C0008001E0014001E0014000A
:100A6000030007000300070002000200020002006A
:100A70000200020002000200020002000200020066
:100A80000800030008000300040006000200030041
:100A900024001800240018000300070003000700CA
:100AA0001E0014001E0014000F000A000F000A00B0
:100AB0000A0007000A0007000C0008000C000800EC
:100AC000B301B3017301B301B3017301D701D701BE
:100AD0009A01D701D7019A01D701D7019A015E0186
:100AE0005E014A01D701D7019A01B301B301730135
:100AF000B301B3017301D701D7019A01D701D7011F
:100B00009A01D701D7019A01D701D7019A01E301D0
:100B1000E3019A01B301B3017301B301B30173019E
:100B2000EE01F8017301EE01F801730103022002E6
:100B30009A01030220029A01030220029A01030291
:100B400017027301030217029A01E301F3019A01EC
:100B5000C601DD019A01170220029A0187059B0454
:100B600001FF7D04960601FFAF12B90800FFA01A2D
:100B7000AA1100FFAF48B93000FF9604AF1201FF81
:100B8000AF22B91500FF64047D1201FF8C0A961094
:100B900001FFB946BE2800FFAF1AB91000FFAF141D
:100BA000B90C00FFAF18B91000FFB95ABE4600FFDC
:100BB0009606AF0F01FF64047D1201FF87059B04B9
:100BC00001FF7D04960601FFAF12B90800FFA01ACD
:100BD000AA1100FFAF48B93000FF8C0A961001FF40
:100BE000B946BE2800FFAF1AB91000FFAF14B90C08
:100BF00000FFAF18B91000FF87059B0401FF7D04BB
:100C0000960601FFAF12B90800FF960F9B0D00FF7B
:100C1000AF48B93000FF9604AF1201FFAF22B915FB
:100C200000FF64047D1201FF8C0A961001FFB94693
:100C3000BE2800FFAF1AB91000FFAF14B90C00FFB7
:100C4000AF18B91000FFB95ABE4600FF9606AF0FA5
:100C500001FF64047D1201FF87059B0401FF7D04F1
:100C6000960601FFAF12B90800FF5A09460D00FFB2
:100C7000AF48B93000FF8C0A961001FFB946BE2874
:100C800000FFAF1AB91000FFAF14B90C00FFAF1886
:100C9000B91000FF000099AADD058F96D1078F8C4F
:100CA000B90B8F8C750E8F8295118C6EA9168C6E78
:100CB00000008FA521038F78B1048A6E09078A642A
:100CC0006109885F810C885AA10F885A0000B2C35D
:100CD0005902ADBEB104ADBE0907ADB461099E961F
:100CE000810C8F6EA10F8F64000099AADD058F968D
:100CF000D1078F8CB90B8F8C750E8F8295118C6EEE
:100D0000A9168C6E00008FA521038F78B1048A6E1E
:100D10000907872D6109872D810C8728A10F872856
:100D20000000B2C35902ADBEB104ADBE0907ADB4F7
:100D300061099E96810C8F6EA10F8F640000FFFFEA
:100D400000FF0000FFFF00FF0000FFFF00FFB414E2
:100D50001400F8110F00D80E0A000000050011243D
:100D60001FBECFEFD0E1DEBFCDBF11E0A0E0B1E00C
:100D7000E2E8FEED02C005900D92A63BB107D9F75F
:100D800017E0A6EBB1E001C01D92A63BB107E1F769
:100D90000E9424690C943F6F0C94000088E781B98D
:100DA00085E184B98CEF87B98AE38AB980E880BF8E
:100DB000089580E185BF88E781B912B81092D10506
:100DC00085E184B915B810922E028CEF87B980EEB8
:100DD00088B98093C7058AE38AB99AE09BB9909352
:100DE00024021092C50029E12093C40082E280937E
:100DF000C00088E18093C10086E08093C2008093A8
:100E0000CD008DE68093CC0080E28093C80088E01E
:100E10008093C9008EE88093CA0080E680937C00AE
:100E200084E880937A0010927B0010928000909367
:100E3000810088E092E59093890080938800109269
:100E40006F0092E09093B00084E08093B100209313
:100E5000B3009093700080E880BF0895909143079D
:100E6000E4E8F4E0E90FF11D808380914307E0E5B9
:100E7000F2E0E80FF11D608380914307E9ECF6E0B2
:100E8000E80FF11D4083809143078F5F80934307F4
:100E900080914307823311F41092430790914307E6
:100EA00080915D04981759F480915D048F5F809361
:100EB0005D0480915D04823311F410925D04089505
:100EC0009091FF05EDE6F6E0E90FF11D808380913A
:100ED000FF05EFEFF2E0E80FF11D60838091FF0561
:100EE0008F5F8093FF058091FF05823311F410928C
:100EF000FF059091FF058091A303981759F4809105
:100F0000A3038F5F8093A3038091A303823311F423
:100F10001092A3030895FF920F931F93FF246894E8
:100F2000F1F8F092610781E48093CA0488EE93E0BF
:100F30009093BE048093BD0484E68093330283E0E3
:100F400090E090932D0280932C0241E04093510752
:100F5000109256071092550788EC90E09093EC01A0
:100F60008093EB011092430710925D041092FF05ED
:100F70001092A3031092B405109206071092510626
:100F80001092CB0210924C071092D50153E050936F
:100F90000C024093B30780910C028093D60210920A
:100FA000DE011092DD016BE977E0FB01208105E6AF
:100FB00015E0F80130811092C106109202061092DD
:100FC000600710920B071092E4028CE390E090937C
:100FD0001202809311021092E1041092E004EAE8F8
:100FE000F3E08081806440938B038E7F8083109236
:100FF000B9061092B80680E480933F058093BD0542
:101000001092C20680E090E0A0E0B0E080938402FD
:1010100090938502A0938602B09387021092C50533
:101020001092C4058FEF9FEF9093D2048093D10468
:101030002570FB0120833973F80130831092640717
:101040001092680510927703ABEAB3E09C919F7011
:101050009C93EAEDF2E08081109215061092C9028D
:1010600080788083109260031092A0071092720320
:10107000109219021092A4071092F30310925C07C9
:1010800050935E0480911902866180931902F09258
:1010900019068091A40786608093A4071092CC0261
:1010A00083E28093450390619C9388E78093B80521
:1010B00010920507109243071092FF051092B40595
:1010C00010925D041092A3031092060780E090E056
:1010D00027E637E0F901E80FF91F10820196833106
:1010E0009105C1F7ECEFF5E08081877F8083109256
:1010F0003503E4EEF5E080818F778083EDEAF3E05D
:1011000030811092CD0210927104109270041092EE
:10111000C8021092C7021092C0041092BF0410922D
:101120003A031092390388E893E190938C028093FC
:101130008B02AFE3B3E02C912B7F22601092E3028D
:101140001092E2021092B3031092BC0410926A044F
:101150001092690410921007822F877F8C9310924F
:101160003F041092AF031092D7041092D60410924D
:10117000D9051092D80510924104109240041092A3
:1011800062041092610442EE54E05093C005409313
:10119000BF058EEE92E09093E1018093E0013A7FEB
:1011A0003860308310920B0210920A0280ED97E0B3
:1011B000909382038093810310929C0310924003CA
:1011C0001092C50110920A07109209071092160694
:1011D00010922B0710922A0750931E0640931D066B
:1011E00010928202809182028093EE0110926C0430
:1011F00010929002EEE7F4E080818F778083EBE23B
:10120000F0E080818061808380818F7D808381E0B8
:101210008093D902EAECF0E08081886080831092AC
:10122000C3041092C20484E5809324041092AE0398
:10123000EAE8F3E080818F7E80831092C5041092EB
:10124000D1021092740310927303109261031092F2
:10125000440527732C9384E893E09093660480936D
:10126000650410922B0210922A0210921F02109213
:101270001E0201E117E0F801208124608CED95E069
:101280009093DE048093DD04277F20838CE9809394
:10129000A6036091A6038FE141E00E9460078EE5FE
:1012A00091E09093BF038093BE038AEA90E090930D
:1012B000260480932504F80180818F7D808310921D
:1012C0008B031092A3071092A207E3EDF5E0808153
:1012D0008E7F80831F910F91FF9008959091B405A8
:1012E000EBEEF4E0E90FF11D80838091B405E1E9B4
:1012F000F2E0E80FF11D60838091B4058F5F809369
:10130000B4058091B405823311F41092B405909124
:10131000B40580910607981759F4809106078F5FEE
:101320008093060780910607823311F41092060716
:10133000089590915106E3E1F2E0E90FF11D8083F9
:1013400080915106EFE8F7E0E80FF11D608380918E
:1013500051068F5F8093510680915106863011F4BB
:1013600010925106909151068091CB02981759F432
:101370008091CB028F5F8093CB028091CB0286302D
:1013800011F41092CB020895982F80919B0781FD54
:101390002DC090931C061092200280911C06809311
:1013A000C60060933603109203074093690680914C
:1013B0001C068093F8029091F80280913603890F01
:1013C0008093F8028091F802840F8093F802809154
:1013D000F80280958093F802EBE9F7E0808182685B
:1013E0008083E1ECF0E080818064808308951F9227
:1013F0000F920FB60F9211248F93AF93BF93EF9379
:10140000FF93809120028F5F8093200280912002C1
:10141000853008F455C010922002A1ECB0E08C9108
:101420008F7B8C9310925906EBE9F7E080818E7FD9
:1014300080838C9180688C9380911C06833081F529
:1014400082E08093CB0480818F7A8083E5E6F5E0AB
:1014500080818F778083809136038A3429F4EBE989
:10146000F7E080818061808380913603803529F4A4
:10147000EBE9F7E0808180648083809136038636D3
:1014800029F4E5E6F5E08081806880838091360369
:101490008736B9F5E5E6F5E080818068808331C064
:1014A00080911C06823021F481E08093CB0429C016
:1014B00080911C06833229F582E08093CB0421C001
:1014C00080912002823071F0833018F4813029F449
:1014D00006C0833051F0843059F080E00BC0809119
:1014E000030708C08091360305C08091690602C0D9
:1014F0008091F8028093C600E1ECF0E08081806486
:101500008083FF91EF91BF91AF918F910F900FBEAC
:101510000F901F9018951F920F920FB60F921124E3
:101520002F933F934F935F936F937F938F939F93EB
:10153000AF93BF93EF93FF932091C6001092810465
:1015400085E090E09093EC018093EB018091590647
:101550008F5F8093590680915906813019F420934A
:101560005806F3C280915906823009F0EEC280918C
:101570005806820F8093DF028091DF028F3F09F0CF
:10158000E4C282E390E09093EC018093EB0110922F
:1015900081048AE08093C404EBE9F7E080818D7FC9
:1015A00080838091CB04813009F058C1809151072C
:1015B000882329F480915A05809302061AC08091ED
:1015C0005107813029F480915B058093600711C039
:1015D00080915107823029F480915C0580930B073C
:1015E00008C080915107833021F480915D0580937C
:1015F000E4028091510790915806EAE5F5E0E80F82
:10160000F11D9083909151068091CB029817A9F01B
:101610008091CB02E3E1F2E0E80FF11D608180915F
:10162000CB02EFE8F7E0E80FF11D408183E00E9474
:10163000C40982E080932F0200C18091DA0285FF05
:101640000AC04091270483E06BE40E94C4098CE047
:1016500080932F02F2C08091AB0384FF0AC04091B7
:10166000450383E067E00E94C40983E080932F0272
:10167000E4C08091AB0385FF0AC04091D60283E0AD
:1016800069E40E94C40984E080932F02D6C080914F
:10169000AB0386FF0AC04091720383E063E50E94BA
:1016A000C40985E080932F02C8C08091AB038823D2
:1016B00054F44091190283E064E50E94C40986E075
:1016C00080932F02BAC08091DA0280FF0AC0409155
:1016D000A40783E065E50E94C40987E080932F0298
:1016E000ACC08091DA0281FF0AC04091F30383E02D
:1016F00066E50E94C40988E080932F029EC0809115
:10170000E40585FF0AC040915C0783E067E50E941D
:10171000C4098DE080932F0290C080917E0482FFE7
:101720000AC04091F20183E069E50E94C40987E1A3
:1017300080932F0282C08091DA0282FF0AC040911A
:10174000060683E06CE40E94C40989E080932F02BE
:1017500074C08091DA0283FF0AC04091660783E07B
:101760006EE40E94C4098AE080932F0266C08091D3
:10177000DA0284FF0AC04091C10583E06FE40E9451
:10178000C4098BE080932F0258C09091FF0580918F
:10179000A3039817A9F08091A303EDE6F6E0E80F04
:1017A000F11D60818091A303EFEFF2E0E80FF11DDE
:1017B000408183E00E94C40985E180932F023DC0EF
:1017C0009091430780915D049817A9F080915D0482
:1017D000E4E8F4E0E80FF11D608180915D04E0E54C
:1017E000F2E0E80FF11D408183E00E94C40981E02E
:1017F00080932F0222C09091B4058091060798171C
:10180000A9F080910607EBEEF4E0E80FF11D60818E
:1018100080910607E1E9F2E0E80FF11D408183E2E3
:101820000E94C40986E180932F0207C0EBE9F7E02C
:1018300080818F77808310922F02EBE9F7E080811F
:101840008160808380912F02882309F47EC18AE021
:1018500090E09093EC018093EB0177C18091580662
:101860008A3A09F06DC1EBE9F7E0808181608083FD
:1018700084FF04C010925B05877E808380919B0764
:1018800086FF0CC0ABE9B7E0982F8F7D8C93EAE51B
:10189000F5E08081817080839F799C9380916505BC
:1018A000882394F4E5E6F5E08F7B808380915706EA
:1018B000882319F410925C0502C010925D05E5E6DC
:1018C000F5E080818F77808380912F02813069F4E9
:1018D00080915D048F5F80935D0480915D0482330D
:1018E00009F02EC110925D042BC180912F02853129
:1018F00069F48091A3038F5F8093A3038091A30376
:10190000823309F01DC11092A3031AC180912F02E6
:10191000863169F4809106078F5F80930607809176
:101920000607823309F00CC11092060709C18091A5
:101930002F02823069F48091CB028F5F8093CB02BB
:101940008091CB02863009F0FBC01092CB02F8C028
:1019500080912F02833089F4EAE6F7E080818F5F7F
:1019600080838081833009F0EBC0EBEAF3E0808173
:101970008F7E808310926A07E3C080912F028430AB
:1019800089F4EBE6F7E080818F5F8083808183308C
:1019900009F0D6C0EBEAF3E080818F7D808310925E
:1019A0006B07CEC080912F02853089F4ECE6F7E01A
:1019B00080818F5F80838081833009F0C1C0EBEA32
:1019C000F3E080818F7B808310926C07B9C0809197
:1019D0002F02863089F4EDE6F7E080818F5F808307
:1019E0008081833009F0ACC0EBEAF3E080818F772F
:1019F000808310926D07A4C080912F02873089F4F4
:101A0000EEE6F7E080818F5F80838081833009F08C
:101A100097C0EAEDF2E080818E7F808310926E079E
:101A20008FC080912F02883089F4EFE6F7E0808143
:101A30008F5F80838081833009F082C0EAEDF2E01D
:101A400080818D7F808310926F077AC080912F02F2
:101A50008D3089F4E4E7F7E080818F5F80838081B7
:101A6000833009F06DC0E4EEF5E080818F7D8083E6
:101A70001092740765C080912F02873189F4EEE7D8
:101A8000F7E080818F5F80838081833009F058C0C8
:101A9000EEE7F4E080818B7F808310927E0750C058
:101AA00080912F02893089F4E0E7F7E080818F5F31
:101AB00080838081833009F043C0EAEDF2E08081C9
:101AC0008B7F8083109270073BC080912F028A30F9
:101AD00081F4E1E7F7E080818F5F8083808183304C
:101AE00079F5EAEDF2E08081877F808310927107BB
:101AF00027C080912F028B3081F4E2E7F7E08081EC
:101B00008F5F808380818330D9F4EAEDF2E08081B9
:101B10008F7E80831092720713C080912F028C30C9
:101B200079F4E3E7F7E080818F5F80838081833001
:101B300039F4EAEDF2E080818F7D808310927307A3
:101B4000EBE9F7E080818F778083FF91EF91BF9180
:101B5000AF919F918F917F916F915F914F913F9145
:101B60002F910F900FBE0F901F9018951F93CF933A
:101B7000DF938330A1F1843028F48130D1F08230BA
:101B800018F50CC0853009F440C0853098F18630D6
:101B900009F446C0873009F059C04DC080E68093F3
:101BA0007C0010E0A0E0B0E06FEF73E020E030E0F8
:101BB00057C081E680937C0010E0A0E0B0E06FEFBA
:101BC00073E020E030E04CC082E680937C0010E0BF
:101BD000A0E0B0E06FEF73E020E030E041C083E6CA
:101BE00080937C0010E0A0E0B0E06FEF73E020E0B5
:101BF00030E036C084E680937C0010E0A0E0B0E0E6
:101C00006FEF73E020E030E02BC085E680937C002E
:101C100010E0A0E0B0E06FEF73E020E030E020C023
:101C200086E680937C0010E0A0E0B0E06FEF73E008
:101C300020E030E015C087E680937C0010E0A0E053
:101C4000B0E06FEF73E020E030E00AC080E6809300
:101C50007C0010E0A0E0B0E06FEF73E020E030E047
:101C6000EAE7F0E0C8E7D0E080818064808380818B
:101C7000806C8083808186FDFDCF8081806480833D
:101C8000808186FDFDCF88819981AC010024440FBD
:101C9000551F001C440F551F001C452F502D8081DF
:101CA0008F738083240F351FA417B50708F4DA015A
:101CB0004617570708F4BA011F5F1A30A9F6261B0A
:101CC000370B2A1B3B0B369527953695279536956E
:101CD0002795822F932FDF91CF911F910895DF9346
:101CE000CF9300D0CDB7DEB78330E1F0843028F455
:101CF000813081F0823090F409C08530D9F0853090
:101D0000A8F08630D9F0873009F51CC080E68093B2
:101D10007C001FC081E680937C001BC082E680931C
:101D20007C0017C083E680937C0013C084E6809318
:101D30007C000FC085E680937C000BC086E6809314
:101D40007C0007C087E680937C0003C080E6809318
:101D50007C006FEF30E090E040E050E0EAE7F0E038
:101D6000A9E7B0E08081806480838081806C80837B
:101D7000808186FDFDCF808180648083808186FDA7
:101D8000FDCF2C9180818F738083420F511D92175C
:101D900008F4922F261708F4622F3F5F3A3011F7AC
:101DA000892F90E0860F911D9A01281B390BC901DC
:101DB0009695879596958795969587950F900F9010
:101DC000CF91DF910895DF92EF92FF920F931F93CF
:101DD000CF93DF9380918A0384FD61C080910C02D0
:101DE00036E0839FC00111244CE55BE0FA01E80F67
:101DF000F91FF49080910C02839FC0011124019679
:101E0000FA01E80FF91FE4916AE0E69F80011124CE
:101E100080910C02839FC00111240496FA01E80FFF
:101E2000F91FE491DE2ED694D694D694D694809160
:101E30000C0223E0829FC00111240196880F991F94
:101E4000FA01E80FF91F249180910C02839FC001D1
:101E500011240396FA01E80FF91FE491E69FD001DF
:101E6000112480910C02839FC00111240496480F15
:101E7000591FFA0144910F2EFFE0EF2EF02DE422BE
:101E800080916903C82FDD27C7FDD0958091590542
:101E9000682F772767FD70954F2D522F60C0809176
:101EA0000C0236E0839FC001112448EF5BE0FA0189
:101EB000E80FF91FF49080910C02839FC001112458
:101EC0000196FA01E80FF91FE4916AE0E69F8001AC
:101ED000112480910C02839FC00111240496FA0101
:101EE000E80FF91FE491DE2ED694D694D694D694BA
:101EF00080910C0223E0829FC00111240196880F7B
:101F0000991FFA01E80FF91F249180910C02839F19
:101F1000C00111240396FA01E80FF91FE491E69F2E
:101F2000D001112480910C02839FC00111240496DA
:101F3000480F591FFA0144910F2EFFE0EF2EF02DAC
:101F4000E42280916903C82FDD27C7FDD0958091D9
:101F50005905682F772767FD70954F2D522F809177
:101F60002E0284FD46C18091FA02882309F041C106
:101F700080914A03481700F58091C3029091C402F2
:101F8000885E9D4F48F48091C3029091C4020196EF
:101F90009093C4028093C3022091C3023091C40283
:101FA000CB01800F911F8217930788F4E8E6F4E0D5
:101FB0008081846080830BC0DD2049F41092C402CC
:101FC0001092C302E8E6F4E080818B7F80838091E9
:101FD0004A03581700F58091750390917603885E47
:101FE0009D4F48F4809175039091760301969093EC
:101FF0007603809375032091750330917603CE01AB
:102000008A0F9B1F8217930788F4E8E6F4E080812B
:10201000886080830BC0EE2049F410927603109202
:102020007503E8E6F4E08081877F8083809168040F
:1020300082FF22C083FF20C080910C02E8E8F1E01B
:10204000E80FF11D8081882374F481E08093A60558
:1020500080910C02E8E8F1E0E80FF11D80818F77B4
:102060008093470609C01092A6051092470680E4A7
:1020700080935F07809372048091C604882361F582
:1020800028E63BE0F901849180932C073196E49196
:102090004AE0E49FC00111249093BF018093BE01E8
:1020A000F9013296E491E0930707F9013396E49140
:1020B000E49FA001112450937604409375042C5F93
:1020C0003F4FF9012491822F82958F708093D70121
:1020D0002F70209350062BC02CE53BE0F901849132
:1020E00080932C073196E4914AE0E49FC0011124CB
:1020F0009093BF018093BE01F9013296E491E09381
:102100000707F9013396E491E49FA001112450934D
:102110007604409375042C5F3F4FF9012491822F80
:1021200082958F708093D7012F70209350069091E5
:102130004A0380912C07891718F580914A079091DE
:102140004B07885E9D4F48F480914A0790914B075A
:10215000019690934B0780934A078091BE0190911E
:10216000BF0120914A0730914B07860F971F8217B6
:10217000930770F4E8E6F4E080818061808308C012
:102180008091D701882321F410924B0710924A07BF
:1021900090914A0380910707891718F58091970756
:1021A00090919807885E9D4F48F480919707909191
:1021B00098070196909398078093970780917504EC
:1021C0009091760420919707309198078C0F9D1F6E
:1021D0008217930770F4E8E6F4E0808180628083E0
:1021E00008C080915006882321F41092980710921D
:1021F0009707DF91CF911F910F91FF90EF90DF90A4
:102200000895EF92FF920F931F9380918A0282307C
:1022100021F01092C4061092C30610928A02EDE5D6
:10222000F6E08081806480831092A4038EE703EC43
:1022300016E0F80161918F0141E00E9460078FE78D
:10224000F801608141E00E946007809110068823B8
:1022500001F130E046E157E0FA01E30FF11D208182
:102260008091310390913203A0913303B0913403F4
:10227000820F911DA11DB11D8093310390933203F4
:10228000A0933303B09334033F5F80911006381757
:1022900018F3609131037091320380913303909170
:1022A00034032091100630E040E050E00E94076FB8
:1022B0002093E7056091E7058CE641E00E94600706
:1022C0000F2EF5E6EF2EF3E0FF2EF02D89E7F70154
:1022D00061918F0141E00E9460078AE7F801608107
:1022E00041E00E9460078BE7F701628141E00E94B4
:1022F00060078EE703EC16E0F80161918F0141E081
:102300000E9460078FE7F801608141E00E9460074A
:10231000109231031092320310923303109234035F
:102320001092E3041092E204109267048FEF8093FE
:10233000A3061092B9031092BA031092BB03109235
:10234000BC031092DC021092DB021092D005809345
:102350004B031092FD061092FE061092FF0610929B
:10236000000710925C0410925B0410921307109205
:1023700012078FEF9FEF90934803809347031092CB
:10238000E7011092E8011092E9011092EA0110921F
:1023900001061092000620E030E0A6EFB1E06FE207
:1023A00077E047EF53E0FD01E20FF31F1082FB01DE
:1023B000E20FF31F1082C901880F991FFA01E80F7D
:1023C000F91F118210822F5F3F4F2431310559F7D9
:1023D000E8E6F4E08081826080831092AC031F9174
:1023E0000F91FF90EF9008950F931F938AE600E3FB
:1023F00014E0F80161918F0141E00E9460078BE6D3
:10240000F801608141E00E946007609131037091A2
:10241000320380913303909134032091E204309190
:10242000E30440E050E00E94076F20930D076091A5
:1024300067048DE641E00E9460076091A3068EE686
:1024400041E00E94600760910D078FE641E00E9425
:1024500060076091B9037091BA038091BB039091BA
:10246000BC032091DB023091DC0240E050E00E948E
:10247000076F209362056091D00580E741E00E94DC
:10248000600760914B0381E741E00E946007609123
:10249000620582E741E00E9460076091FD0670914D
:1024A000FE068091FF069091000720915B04309119
:1024B0005C0440E050E00E94076F3093B705209322
:1024C000B60583E702E117E0F80161918F0141E071
:1024D0000E94600784E7F801608141E00E94600784
:1024E00085E707E413E0F80161918F0141E00E9464
:1024F000600786E7F801608141E00E94600787E796
:1025000006EB15E0F80161918F0141E00E94600740
:1025100088E7F801608141E00E9460078091DA015C
:102520008C3030F080E866EC41E00E94600703C028
:102530008AE08093BA0110926503109266031092AC
:10254000670310926803109279031092100610929C
:10255000A1061092C4061092C30681E080938A02FD
:10256000EDE5F6E08081806480831092A4031F91E2
:102570000F9108951F93CF93DF93182F853109F49E
:102580008DC08631B0F48A3009F456C08B3040F4E7
:102590008830B1F1893008F041C0833031F528C06E
:1025A0008C3009F465C08C3008F454C08231E9F4F1
:1025B0006DC08C3209F4A4C08D3248F4803209F425
:1025C00089C08B3209F494C0863179F475C08433A4
:1025D00009F4B2C0853318F4833339F49FC08C33C7
:1025E00009F4B8C0823509F4C3C042E150E0C7C065
:1025F000EAE4F6E080818061808342E150E0BFC080
:10260000E8E4F6E080818160808384EF91E090933C
:1026100023068093220642E150E0B1C0E8E4F6E0F0
:1026200080818260808384EF91E09093270680937D
:10263000260642E150E0A3C0E8E4F6E08081846031
:10264000808384EF91E090932B0680932A0642E1E9
:1026500050E095C0E8E4F6E080818860808384EFF4
:1026600091E090932F0680932E0642E150E087C0C0
:10267000E8E4F6E080818061808384EF91E09093CC
:1026800033068093320642E150E079C0EAE4F6E096
:1026900080818160808342E150E071C0E8E4F6E02F
:1026A00080818062808384EF91E0909337068093ED
:1026B000360642E150E063C0E8E4F6E080818064E1
:1026C000808384EF91E090933B0680933A0642E149
:1026D00050E055C0E8E4F6E080818068808384EFB4
:1026E00091E090933F0680933E0642E150E047C060
:1026F000EAE4F6E080818260808342E150E03FC0FE
:10270000E9E4F6E080818160808384EF91E090933A
:1027100025068093240642E150E031C0E9E4F6E06A
:1027200080818260808384EF91E09093290680937A
:10273000280642E150E023C0E9E4F6E080818460AD
:10274000808384EF91E090932D0680932C0642E1E4
:1027500050E015C0E9E4F6E080818860808384EF72
:1027600091E0909331068093300642E150E007C03B
:10277000EAE4F6E080818460808342E150E0C6EFC5
:10278000D1E0AFE2B7E067EF73E09A012F5F3F4F10
:10279000FE01E40FF51F8081FE01E20FF31F80832D
:1027A000FD01E40FF51F8081FD01E20FF31F80831F
:1027B000CA01880F991FFB01E80FF91F80819181E1
:1027C000220F331FFB01E20FF31F918380834150DF
:1027D00050408FEF4F3F5807C1F61093F60180919C
:1027E0000C0280932F078091A8079091A9079093DE
:1027F000F8038093F703E8E6F4E080818260808349
:102800001092AC031092DA01DF91CF911F910895DD
:1028100088E080938B03EAE8F3E080818064808322
:1028200008958130E9F58091A00780FF06C080916E
:10283000F30380628093F30305C08091F3038F7DDF
:102840008093F3038091A00781FF06C08091F3037A
:1028500080618093F30305C08091F3038F7E8093A2
:10286000F3038091A00782FF06C08091A4078160D6
:102870008093A40705C08091A4078E7F8093A4074E
:102880008091A00783FF06C0809119028860809321
:10289000190215C080911902877F809319020FC019
:1028A00080911902877F809319028091A4078E7FFF
:1028B0008093A4078091F3038F7C8093F303EBEA6A
:1028C000F3E08081806C8083EAEDF2E080818360B8
:1028D000808308950F931F938091620388230CF0E7
:1028E000BCC28091F50280FFB8C28091A6038633F6
:1028F00089F480E10E94BA1280914503883409F47A
:10290000A7C286E080932704EAEDF2E0808180622E
:1029100080839EC2809145038C3B09F061C0809109
:10292000D402883019F40E94081443C080916203D5
:1029300082FF0AC080915A04883330F0E3EDF5E05D
:1029400080818061808335C087E180934503EBEA15
:10295000F3E0808180618083E2E7F3E080818E7F15
:102960008460808384E10E94BA128EE1809305071F
:102970008CE390E09093E1048093E004EDEAF3E0CF
:1029800080818460808381E08093AF0380913F03E6
:1029900081FD07C0EFE3F3E08460808381E08093F2
:1029A000CD0283E080932704EAEDF2E0808180622B
:1029B0008083EBEAF3E0808180648083EEE2F2E0E2
:1029C00080818B7E808310926C00E8E6F0E080814D
:1029D0008D7F8083EAEDF2E080818F7B808338C237
:1029E000809145038A3771F589E680934503ABEA08
:1029F000B3E09C91E2E7F3E080818E7F8460808386
:102A000090659C9310929A0310929903EDEAF3E07B
:102A100080818460808381E08093AF0380913F0355
:102A200081FD07C0EFE3F3E08460808381E0809361
:102A3000CD0283E080932704EAEDF2E0808180629A
:102A4000808306C280914503883409F06FC080916D
:102A50001F0490912004892B09F05BC08091A6038C
:102A60008C3909F056C0E8E6F4E080818F778083E6
:102A700080910807843028F080918A0388230CF421
:102A8000E7C180910807853151F482E380930807FC
:102A9000609108078AE541E00E946007D9C18091F2
:102AA0000807853351F486E1809308076091080791
:102AB0008AE541E00E946007CBC1809108078F3012
:102AC00071F48091FC0583FD0AC086E480930807B9
:102AD000609108078AE541E00E946007B9C18091D2
:102AE0000807883451F480E1809308076091080753
:102AF0008AE541E00E946007ABC1809108078F5FC3
:102B000080930807609108078AE541E00E9460070A
:102B10009FC18091FC0582FF9BC186E080932704C2
:102B2000EAEDF2E080818062808392C1809145036A
:102B30008C3509F051C080918A0380FD41C085EE3B
:102B400080934503ABEAB3E09C91E2E7F3E0808138
:102B500081608B7F808390659C93ECEFF5E08081B2
:102B60008F7B80838091F3038E7F8093F303AAEDA4
:102B7000B2E09C91892F82608C93EAE8F3E0808137
:102B80008D7F808310927103109270031092490719
:102B900010924807EEE2F2E080818461808388E051
:102BA00080936C00E8E6F0E08081826080838EE1B3
:102BB0008093050782E08093270492669C9348C126
:102BC00086E30E94BA1286E080932704EAEDF2E0E1
:102BD0008081806280833CC180914503853E09F0FD
:102BE0004CC087E1809345030BEA13E0F801808134
:102BF00080618083E2E7F3E080818E7F8460808360
:102C000084E10E94BA128EE180930507F801808169
:102C100080648083EEE2F2E080818B7E808310927C
:102C20006C00E8E6F0E080818D7F8083EAEDF2E0E1
:102C300080818F7B8083EDEAF3E020818CE390E05C
:102C40009093E1048093E0042560208381E08093E9
:102C5000AF0380913F0381FD07C0EFE3F3E08460A1
:102C6000808381E08093CD0283E080932704EAEDA6
:102C7000F2E0808180628083EBC0809145038E3AD0
:102C800049F48AE080938B03EAE8F3E08081806472
:102C90008083DEC08091A6038C3909F0D9C0809171
:102CA0000C028E3109F4D4C080918A0380FDC8C023
:102CB0008091B8058C32B9F480914503833211F4C8
:102CC0000E9401118AE780934503EBEAF3E08081DB
:102CD0008061808382E080932704EAEDF2E08081C6
:102CE0008062808377C080914503873109F04AC0B4
:102CF0008091AD0380FF46C085EE80934503ABEA2B
:102D0000B3E09C91E2E7F3E0808181608B7F808378
:102D100090659C93ECEFF5E080818F7B80838091C0
:102D2000F3038E7F8093F303AAEDB2E09C91892F89
:102D300082608C93EAE8F3E080818D7F808310923B
:102D40007103109270031092490710924807EEE247
:102D5000F2E080818461808388E080936C00E8E603
:102D6000F0E08081826080838EE180930507EDEA48
:102D7000F3E080818E7F808382E0809327049266D7
:102D80009C9328C0809145038C3511F480930406F0
:102D900080914503833211F40E9401118CEB8093E2
:102DA0004503EBEAF3E080818061808382E08093D9
:102DB0002704EAEDF2E08081806280838EE18093D7
:102DC0000507EDEAF3E080818B7F80831092520546
:102DD00010925105E2E7F3E0808181608B7F808370
:102DE000EBEAF3E08081806480830AE813E0F80175
:102DF0008081877F8083EEE2F2E080818061808342
:102E000088E080936C00E8E6F0E080818260808357
:102E1000EAEDF2E080818064808310928B03E0EA27
:102E2000F7E08081887F808381E00E941114F8019F
:102E300080818F7B808310929A031092990308C03F
:102E400086E080932704EAEDF2E08081806280834F
:102E5000E2E6F3E080818B7F8083E2E6F3E080812D
:102E60008F7780831F910F91089581E08093D8021E
:102E70008AE0809347070895282F8091300490912D
:102E800031048852934228F0E3EDF5E080818260BE
:102E900080838091D8028823B1F52038A1F58091F4
:102EA0008E038E3180F580918A03882364F18091AE
:102EB000110782FF28C085FD26C08091E40581FDB1
:102EC00022C08091F9058C38C1F48091D0048431FE
:102ED000A1F4809195038C3881F4149B0EC08091ED
:102EE000AB0383FD0AC08091D30581FD06C0E1EDEF
:102EF000F5E08081886480830895E1EDF5E08081CC
:102F0000877B80830895E1EDF5E08081877B808376
:102F100008958038D1F58091D0048E3481F180916C
:102F200095038C3861F58091D30584FD28C080918C
:102F3000110290911202892BE1F48091E0049091AA
:102F4000E104892BB1F48091C501882391F480912B
:102F50008A03882374F08091110785FD0AC080914F
:102F6000E40581FD06C0E1EDF5E0808180618083AC
:102F700011C0E1EDF5E080818F7E80830BC0E1ED33
:102F8000F5E080818F7E808305C0E1EDF5E08081F2
:102F90008F7E8083809145038C3B09F0F8C080913F
:102FA000D402863008F0F3C0809111029091120291
:102FB000892B09F0ECC080918A0388230CF4E1C0CE
:102FC0008091110785FDDDC08FEF809349058093C7
:102FD00058078091AD0381FD04C08091D30584FF23
:102FE00006C0E7ECF5E080818F77808308958091BB
:102FF0007E0485FF2BC080912204909123048639A2
:10300000910530F090915A0480914905981730F05D
:10301000E7ECF5E080818F7780830895809122042A
:10302000909123048C52914060F490915A048091C5
:103030005807891730F0E7ECF5E0808180688083DD
:1030400008951092230410922204089580918E0313
:103050008E3120F41092E7041092E6048091E60489
:103060009091E7048559924008F18091A10782353B
:1030700060F490915A0480915807891730F0E7EC7A
:10308000F5E080818068808308958091A10785356F
:1030900038F490915A0480914905981708F494C027
:1030A000E7ECF5E080818F778083089580918E0230
:1030B00090918F0281359105D8F080918E02909188
:1030C0008F022091C9053091CA0580559040821722
:1030D000930771F480912106882351F48091A10710
:1030E0008F3430F084E690E09093E5048093E4041C
:1030F00080918E038E3190F4809130049091310450
:103100008D5D954038F08FEF9FEF9093E5048093AD
:10311000E40404C01092E5041092E4048091E404F5
:103120009091E504892B31F0E7ECF5E080818F7711
:103130008083089580918E038E3110F490E001C059
:1031400091E58091A107981760F090915A048091C1
:103150005807891730F0E7ECF5E0808180688083BC
:1031600008958091A107853530F490915A0480919B
:103170004905981748F1E7ECF5E080818F77808367
:103180000895E7ECF5E08081806880830895E7EC9E
:10319000F5E0808180688083809111029091120215
:1031A000892B91F080918A03882324F08091110764
:1031B00085FF0AC08CE390E0909312028093110285
:1031C0001092E1041092E00408958091720480341A
:1031D00090F180914503873121F0809145038C3532
:1031E00071F48091AD0384FD04C0EDEAF3E08062E8
:1031F0008083EDEAF3E0808180618083089580918F
:103200003503853608F4A2C0EDEAF3E080818F7EB5
:10321000808380915C078F7B80935C0780915C0743
:10322000886380935C07E4EEF5E0808180628083B0
:10323000109235030895809172048032F0F18091EC
:103240002E0284FF03C085E08093FA02EEE2F2E0F2
:1032500080818F7E808380914503873121F080912A
:1032600045038C3571F48091AD0384FD04C0EDEA13
:10327000F3E080628083EDEAF3E080818061808307
:10328000089580913503853608F460C0EDEAF3E0D7
:1032900080818F7E808380915C078F7980935C072B
:1032A00080915C07886180935C07E4EEF5E08081A3
:1032B000806280831092350308958091E702909197
:1032C000E8028A3A910568F08091E7029091E8025D
:1032D0008F55914030F4EEE2F2E080818F7E808362
:1032E00005C0EEE2F2E08081806180838091450339
:1032F000873121F0809145038C3571F48091AD03C5
:1033000084FD04C0EDEAF3E080628083EDEAF3E03F
:103310008081806180830895809135038536B0F087
:10332000EDEAF3E080818F7E808380915C078F7867
:1033300080935C0780915C07886080935C07E4EE73
:10334000F5E0808180628083109235030895CF93E9
:10335000DF93DC014FE35EE360E071E0C4EBD5E0B6
:10336000573010F0569508C06F5F6A30E1F04D3766
:10337000D1F04423C1F0572F842F90E0880F991F7C
:103380009E01280F391FF901859194918A179B0797
:1033900010F4450FE5CFF90185919491A817B9076D
:1033A00010F4451BDDCF842FDF91CF910895CF938B
:1033B000DF93DC015EE360E04FE371E0C8EBD4E053
:1033C000573010F0569508C06F5F6A30E1F04D3706
:1033D000D1F04423C1F0572F842F90E0880F991F1C
:1033E0009E01280F391FF901859194918A179B0737
:1033F00010F4450FE5CFF90185919491A817B9070D
:1034000010F4451BDDCF842FDF91CF9108950F93EA
:103410001F93CF93DF9380E00E94B60D2FEF33E030
:103420008901081B190BC8010E94A71980935A042F
:1034300060915A0482E241E00E94600720915A04A0
:103440008091310390913203A0913303B091340302
:10345000820F911DA11DB11D809331039093320302
:10346000A0933303B09334038091E2049091E3047A
:1034700001969093E3048093E20490915A04809122
:103480006704891720F480915A048093670490910F
:103490005A048091A306981720F480915A048093CF
:1034A000A3068091110290911202892BA9F08091BC
:1034B000BA058C3308F048C08091AF079091B007EF
:1034C000800F911F9093B0078093AF078091BA054A
:1034D0008F5F8093BA0538C08091AF079091B00795
:1034E000892B91F18091AF079091B0076091BA0557
:1034F00070E00E94F36E862F972F9093B007809311
:10350000AF078091AF079091B0078C3E910530F0E6
:10351000EDEAF3E080818260808310C08091AF0784
:103520009091B007833D910548F080918E038E31D4
:1035300029F4EEE7F4E08081806280831092B00786
:103540001092AF071092BA050A321105B0F48091BB
:10355000D0048E3471F080EF90E09093F702809366
:10356000F602809194038F5F8093940388E00E9419
:10357000BA128EE48093D00419C022E0033B1207F4
:10358000A8F08091D0048E3471F080EF90E0909399
:10359000F7028093F602809194038F5F80939403E7
:1035A00089E00E94BA128EE48093D00481E00E94E8
:1035B000B60D2FEF33E0E901C81BD90BCE010E94F5
:1035C000D7198093A1076091A10783E241E00E948F
:1035D00060072091A1078091B9039091BA03A0914F
:1035E000BB03B091BC03820F911DA11DB11D80933F
:1035F000B9039093BA03A093BB03B093BC0380912B
:10360000DB029091DC0201969093DC028093DB0256
:103610009091A1078091D005891720F48091A1078E
:103620008093D0059091A10780914B03981720F4C7
:103630008091A10780934B03CA32D105B0F48091E9
:103640009503883571F080EF90E09093F7028093B6
:10365000F602809194038F5F809394038AE00E9426
:10366000BA1288E58093950319C082E0C33BD8075E
:10367000A8F080919503883571F080EF90E09093E9
:10368000F7028093F602809194038F5F80939403F6
:103690008BE00E94BA1288E5809395038091A10780
:1036A0002091C2013091C301280F311D3093C30115
:1036B0002093C20180914103909142038F5F9F4FFD
:1036C00049F0809141039091420301969093420307
:1036D0008093410380914103909142038837910583
:1036E00059F48091C2019091C30168E770E00E9493
:1036F000F36E6093970343C080914103909142031E
:10370000805D924029F41092C3011092C20137C02B
:1037100080914103909142038854934081F58091B8
:10372000C2019091C30168E770E00E94F36E60935C
:10373000FE059091FE05809197038917C0F4809152
:10374000FE052091970390E0821B91090B974CF4A2
:10375000EBEAF3E08081886080838CE30E94BA12F8
:103760000EC0EBEAF3E08081877F808308C0EBEA3C
:10377000F3E08081886080838CE30E94BA1280919C
:10378000D004843129F08091D004863309F06DC0D3
:1037900080915A0790915B0708171907A0F184E000
:1037A0000E94BA128EE48093D0048CE291E0909350
:1037B000F7028093F602809194038F5F80939403C5
:1037C00080919403863021F485E10E94BA121BC0D7
:1037D00080919403843180F080918E038E3160F467
:1037E0008091E40581FD0FC0E4EEF5E08260808306
:1037F00083E00E94BA1207C080919403883218F0C7
:1038000086E10E94BA128091D004843119F580912A
:103810005E0690915F0680179107D8F586E3809346
:10382000D004809194038F5F8093940380919403DC
:10383000843178F180918E038E3158F58091E405C2
:1038400081FD27C0E4EEF5E08260808383E00E9482
:10385000BA121FC080919F039091A0030817190707
:10386000C0F484E18093D00414C08091D0048E34DD
:1038700081F48091F6029091F702892B51F48091A6
:103880009F039091A0030817190718F484E180930F
:10389000D004809195038C38D1F582E0C835D807E3
:1038A00008F44AC085E00E94BA1289E38093950328
:1038B00080EF90E09093F7028093F602809194035A
:1038C0008F5F8093940380919403863021F485E187
:1038D0000E94BA1231C080919403843180F08091AB
:1038E0008E038E3160F48091E40581FD25C0E4EE05
:1038F000F5E08260808383E00E94BA121DC080914F
:1039000094038832C8F086E10E94BA1215C08091F3
:103910009503893321F080919503883569F422E07D
:10392000C835D20748F48091F6029091F702892BAE
:1039300019F48CE880939503CE010E94D7198093E7
:10394000BE058091F9058C3811F580913004909175
:103950003104885B9B4038F48AE492E090932A0417
:103960008093290406C08AE492E090932A0480930D
:1039700029048091290490912A04C817D90718F4C2
:10398000CF5FDF4F31F588E58093F90522C0809144
:10399000F9058835F1F48091300490913104885B09
:1039A0009B4038F482E492E09093A5058093A405AF
:1039B00006C082E492E09093A5058093A4058091CF
:1039C000A4059091A5058C179D0718F08CE88093AD
:1039D000F905DF91CF911F910F9108950F931F93D8
:1039E00096B19695917080915D068695869586959F
:1039F0008170981709F446C0809125028F5F8093EB
:103A0000250296B1EDE5F6E0990F990F9870808147
:103A1000877F892B808310925407109253078091DF
:103A2000EF018A3F28F48091EF018F5F8093EF01CF
:103A30008091EF018D3308F41EC18091A603863377
:103A4000D9F4809145038E3A41F486E180938B034B
:103A5000EAE8F3E08081806480838CE98093A603A8
:103A60006091A6038FE141E00E942E0782E08093DF
:103A700061038EE180930507E1E1F7E080818F7DAE
:103A80008083F9C08091530790915407845F9140DF
:103A900048F48091530790915407019690935407EE
:103AA000809353078091530790915407869738F07D
:103AB000E1E1F7E08081806280831092EF018091E4
:103AC0005307909154078451914008F4D4C08091D9
:103AD000A603863309F4CFC080918A02813051F465
:103AE00082E080938A02EDE5F6E080818064808345
:103AF0001092A40386E38093A6036091A6038FE14E
:103B000041E00E942E07E4EEF5E0808180688E7F20
:103B100080831092F60310929F0710925606EEE7EC
:103B2000F4E080818E7F80838091F3038B7F80938C
:103B3000F303EAEDF2E080818260808380915D068C
:103B400084FD04C0EDE5F6E08F7D80831092D704FC
:103B50001092D6041092D9051092D8051092410403
:103B600010924004809145038C3B29F58091D4024A
:103B7000883049F485E080938B03EAE8F3E08081A4
:103B80008064808371C081E10E94BA1287E18093D2
:103B90004503ABEAB3E09C91E2E7F3E080818E7FDE
:103BA0008460808390659C938CE390E09093E10423
:103BB0008093E00459C0809145038A3779F489E6FF
:103BC00080934503ABEAB3E09C91E2E7F3E08081A8
:103BD0008E7F8460808390659C9346C0809145036E
:103BE000853EB1F587E1809345030BEA13E0F801C8
:103BF000808180618083E2E7F3E080818E7F846052
:103C0000808384E10E94BA128EE180930507F80157
:103C1000808180648083EEE2F2E080818B7E80830D
:103C200010926C00E8E6F0E080818D7F8083EAED01
:103C3000F2E080818F7B8083EDEAF3E08081816018
:103C400080838CE390E09093E1048093E0040CC0C7
:103C5000809145038E3A41F486E080938B03EAE835
:103C6000F3E08081806480838091F50280FF03C04F
:103C700086E9809305071F910F9108950F931F9375
:103C800080912C04882309F0FBC01D99A3C080916A
:103C9000700390917103885E934048F480917003A3
:103CA00090917103019690937103809370038091BA
:103CB000700390917103069720F0109249071092BB
:103CC000480780917003909171038E55914009F0DF
:103CD000D7C08091AB0381FF04C08091CD058135B1
:103CE00050F480914503853E09F064C08091C10184
:103CF000882309F05FC08CE5809345030BEA13E04D
:103D0000F8018081806180831092490710924807F2
:103D100081E00E94BA12E2E7F3E080818E7F846046
:103D20008083F8018081806480838091F3038160C7
:103D30008093F303EAEDF2E08081826080838091DA
:103D4000FC0586FD05C0EDEAF3E080818068808394
:103D5000ECEFF5E08081806C808310924D06EEE2FE
:103D6000F2E080818B7E808310926C00E8E6F0E0C8
:103D700080818D7F8083EAEDF2E080818F7B80837C
:103D80008CE390E09093E1048093E004EDEAF3E0AB
:103D900080818460808381E08093AF0380913F03C2
:103DA00081FD6EC0EFE3F3E08460808381E0809367
:103DB000CD0266C0EBEAF3E08081826080838DE50E
:103DC00091E09093710380937003109249071092D1
:103DD000480756C08091480790914907885E9340F4
:103DE00048F48091480790914907019690934907BC
:103DF0008093480780914807909149070697D8F02B
:103E0000109271031092700380914503853E99F4DE
:103E10008CEB80934503EBEAF3E080818061808343
:103E2000EDEAF3E080818B7F80831092520510923F
:103E300051051092C1018091AB0381FF21C0809197
:103E4000CD05883220F08091CD05893220F0809117
:103E5000CD058135A8F0EBEAF3E09081892F8D7FC5
:103E6000808392FF06C0E7ECF5E080818F7D808340
:103E700005C0E7ECF5E08081806280831092CD057B
:103E80001F910F910895AF92BF92CF92DF92EF9260
:103E9000FF920F931F9387E00E94B60D90937403D7
:103EA000809373032091730330917403E0906B034C
:103EB000F0906C0300916D0310916E036FEF73E04F
:103EC000621B730B80E090E00E943D6EA801970199
:103ED0000E94456D60936B0370936C0380936D0338
:103EE00090936E038091B1058F5F8093B1058091AF
:103EF000B105843608F450C160916B0370916C0376
:103F000080916D0390916E0320E030E048EC52E424
:103F10000E94A96D0E94116E7093890360938803BB
:103F200080E090E0A0E0B0E080936B0390936C039E
:103F3000A0936D03B0936E031092B1052091880396
:103F40003091890382E490E0289FB001299F700D91
:103F5000389F700D112480E090E00E943D6E5B015F
:103F60006C0120E030E049E453E40E94A96D0E9416
:103F7000116E7093E1026093E0022091E0023091B3
:103F8000E10289EC90E0289FB001299F700D389FD5
:103F9000700D112480E090E00E943D6E7B018C0149
:103FA000C601B501A80197010E94CB6E1816ACF4AA
:103FB000C601B501A80197010E94446D0E94116ECF
:103FC00066367105F0F08091E0029091E102019671
:103FD0009093E1028093E00214C0C601B501A801EC
:103FE00097010E94446D0E94116E6636710548F07B
:103FF0008091E0029091E10201979093E102809319
:10400000E00284E200EE12E0F80161918F0141E0EC
:104010000E94600785E2F801608141E00E9460072C
:104020008091E0029091E102863F9105C0F080917D
:1040300082028031A1F48091E0029091E1028D50E2
:10404000914010F021E00CC08091E0029091E102DB
:1040500003979093C8068093C70621E001C020E033
:1040600080918A0388230CF445C080915307909176
:104070005407899708F03EC0809161038823D1F5E9
:104080008091E0029091E102843A910548F080919C
:10409000E0029091E1028D50914010F4222331F121
:1040A00080919603882351F08091E0029091E10283
:1040B0008D52914018F4222309F46EC0EAE8F3E02F
:1040C0008081806880838091E0029091E102843A4F
:1040D000910520F48FE00E94BA1203C08EE00E9486
:1040E000BA12109264041092630456C084E0809364
:1040F000960352C08091E0029091E102873A9105C7
:1041000008F446C08091E0029091E1028A5091400B
:1041100008F03EC080915307909154078997C0F5ED
:104120002223B1F52091E0023091E1028091C7068F
:104130009091C8062817390758F58091630490912B
:1041400064048051974248F4809163049091640420
:10415000019690936404809363048091630490912A
:1041600064048897C9F484E080939603EAE8F3E056
:1041700080818F7780838CE390E09093E10480933B
:10418000E0048AE091E09093C8068093C70604C0DB
:1041900010926404109263041F910F91FF90EF90AE
:1041A000DF90CF90BF90AF900895FC018FEFEF3F6D
:1041B000F80769F185E0E03AF80740F0CF01805A4E
:1041C000954060EA75E00E94F36EFC018091B805AD
:1041D0008C3229F4309719F4E0EAF5E003C0EC33AF
:1041E000F10540F0CF016CE370E00E94F36E609344
:1041F000660702C0109266072091660784EC9FEF65
:10420000289F202D11242E0F2093C10505C08FEF6C
:10421000809366078093C105EAEDF2E080818861B2
:10422000808308951F9380910C028E3129F410929F
:10423000F5011092F4019BC280914503833241F055
:10424000809145038E3A21F08091680486FF8FC2E9
:10425000ECEFF5E080818D7A8083EEE7F4E08081F9
:10426000867F808380910C022AE0829FC001112406
:104270009093B2078093B1071092F5011092F40168
:104280001092D4026091D40288E041E00E9460075D
:1042900041E050E060EB76E08091B1079091B20789
:1042A000840F951F880F991FFB01E80FF91F859157
:1042B00094912091F4013091F501820F931F909316
:1042C000F5018093F4014E5F5F4F4B30510521F7AC
:1042D0002091F4013091F5018091B1079091B207DE
:1042E0000996880F991F40EB56E0FA01E80FF91F75
:1042F00085919491281B390B3093F5012093F4019B
:104300002091F4013091F5018091B1079091B207AD
:104310000796880F991FFA01E80FF91F859194916C
:10432000281B390B3093F5012093F401EBEAF3E0FD
:104330008081806280838091D3058823C4F480913A
:104340000C02E8EBF8E0E80FF11DE49180914A02DD
:1043500090914B0220915D0730915E07821B930B79
:104360008E0F911D90934B0280934A020DC0809155
:104370000C02E8EBF8E0E80FF11DE4918E2F90E0DD
:1043800090934B0280934A0280910C02E8EBF8E094
:10439000E80FF11DE4918E2F90E090935E078093DB
:1043A0005D0780914A0290914B028E9730F0EEE7C4
:1043B000F4E080818064808305C0EEE7F4E08081D2
:1043C0008F7B808380918B03833039F08091D3057C
:1043D00088231CF08FEF8093A00780910C028F3010
:1043E00081F4809128029091290290934B0280934E
:1043F0004A0280914A0290914B0290935E0780930B
:104400005D0780914A0290914B020E94D5208091D5
:104410008B03833009F422C18091D30588230CF4E7
:104420001DC180910C0223E0829FC001112442ED46
:1044300058E0FA01E80FF91FE491E093F40380914A
:104440000C02829FC00111240196FA01E80FF91FA6
:10445000E491E0934C0280914C028093420580915C
:10446000F403882331F4809172038F7E809372036A
:1044700005C080917203806180937203EBEAF3E0E0
:104480008081806480836091420588E40E9499095C
:104490008091F403882329F4E0EAF7E080818D7F9E
:1044A00080838091F30388778093F303EAEDF2E051
:1044B00080818260808310923803109237038EE1EE
:1044C0008093430580938E0320E030E0A2EAB1E0C0
:1044D0006CEA71E0A901FD01E20FF31F9081809168
:1044E0000C02981749F484E090E09093380380938D
:1044F00037032093430510C0FB01E40FF51F9081A3
:1045000080910C02981719F420938E0305C02F5F39
:104510003F4F2A303105F1F6809143058E3158F432
:10452000E0EAF7E08081816080838091F3038F7BF4
:104530008093F30319C080918E038E3158F4E0EA22
:10454000F7E08081816080838091F30380648093B1
:10455000F3030AC0E0EAF7E080818E7F80838091D8
:10456000F3038F7B8093F3038091F403882331F46A
:10457000809172038F7E8093720305C080917203D5
:10458000806180937203EBEAF3E080818064808332
:104590008091F303887F8093F303EAEDF2E080815A
:1045A00082608083E0910C0283E0E89FF001112497
:1045B000EC52F74FE491E093590780915907882313
:1045C000D1F082E08093BB058093E60280911902CE
:1045D0008F7D809319028091A40786608093A40741
:1045E000EBEAF3E0808180688083EAEDF2E080818D
:1045F0008160808307C01092BB05E0EAF7E080810C
:104600008B7F808380915C07877080935C078091AB
:104610005C0780935C07A4EEB5E09C919062EDEAA4
:10462000F3E080818F7E808310929E039F7B9C931A
:1046300083E080935E048091190286618093190261
:10464000809119028E7B80931902EBEAF3E080815E
:104650008068808381E00E9411140AC08091190251
:104660008E7F80931902EBEAF3E08081806880837B
:1046700080910C02813061F080910C02882341F01E
:1046800080910C02803121F080910C02813121F463
:1046900081E08093C60402C01092C60480910C028F
:1046A00023E0829FC00111240196880F991F20ECFE
:1046B0003AE0F901E80FF91F8591949190935B0717
:1046C00080935A0780910C0246E0849FC001112418
:1046D0000496F901E80FF91F859194919093A00336
:1046E00080939F0380910C02849FC0011124F901E3
:1046F000E80FF91F8591949190935F0680935E0671
:1047000010925F078091D305882324F01092CF0187
:104710001092CE0110929403E4EEF5E08081887F40
:1047200080831092F60310929F0710924C0580919F
:10473000110290911202CC9730F48CE390E09093A8
:104740001202809311021092E1041092E004109280
:10475000BA051092B0071092AF07EDEAF3E080813E
:104760008D7F8083EEE7F4E080818F7D808381E020
:104770000E941114E3EDF5E080818F7780831F9113
:1047800008951F938091F5029091AB03892780FFD4
:1047900078C08AEF809315068091F50280FD49C0AC
:1047A000809145038C3BA1F080914503873181F0D6
:1047B000809145038A3761F080914503893641F045
:1047C000809145038C3521F080914503853E49F465
:1047D0008091D402883028F483E10E94BA120E94AA
:1047E000F4118091C9028F5F8093C902109205076E
:1047F00012E010938B03EAE8F3E080818064808309
:1048000080E00E94111483E080930C02EBEAF3E055
:104810008081806280831093B30780910C02809323
:10482000D602E3EDF5E080818E7F80830E94122125
:104830001FC010920606EAEDF2E08081846080835A
:10484000E2E7F3E080818A7F8083EBEAF3E0808116
:10485000806480838EE18093050793E090930C023F
:1048600080910C028093D6029093B3070E9412218C
:10487000EBEAF3E09091F502917080818E7F892BB5
:1048800080831F910895AF92BF92CF92DF92EF92F3
:10489000FF920F931F9310923104109230048CE812
:1048A000809395030F2EF4E1FF2EF02DF092D004AB
:1048B0008093F9051092F5011092F40110926E04A4
:1048C00010926D048FE00DE614E0F80161918F0104
:1048D00041E00E94600780E1F801608141E00E94B0
:1048E00060071092E9041092E80410928F0210926F
:1048F0008E021092CA051092C905109215071092E7
:10490000140710929E0710929D0710927D0410923A
:104910007C041092CF051092CE051092B60310922F
:10492000B50310922304109222041092E70410920F
:10493000E60410924D0410924C041092E50410927B
:10494000E4041092DE021092DD02109268061092CA
:10495000670610923E0410923D041092CA02109213
:104960007103109270031092490710924807F09259
:104970002C041092C1011092520710922502AAE84D
:10498000B3E09C911092800410927F041092F10188
:104990001092F00110924C051092F60310929F07AE
:1049A000E4EEF5E0808110926106109260061092AC
:1049B00056061092B205847F8083EDE5F6E0808193
:1049C0008D7F80831092910310923D0510923C05DB
:1049D00081E08093C0031092500510924F05109211
:1049E000D60510927603109275031092C4021092AD
:1049F000C302109298071092970710924B071092DB
:104A00004A07109289021092880210929B0310921A
:104A1000E8021092E70210925F071092720410925F
:104A20004A0310921B0210928403109247061092C0
:104A3000A6051092200410921F0410926406109292
:104A400063068AE080934707F0920C060CEF15E0AE
:104A5000F80180818160808310926D0510926C0551
:104A6000E8E6F4E08081837C8083957F9C93EEE28E
:104A7000F2E080818B7E808310926C00E8E6F0E0AB
:104A800080818D7F8083EAEDF2E080818F7B80835F
:104A900080E29EE4909318068093170688EC90E0DD
:104AA00090939A07809399071092CD050F2EFBEAF9
:104AB000EF2EF3E0FF2EF02DF70180818D7F8083B4
:104AC0001092B0061092D0021092510310929803E7
:104AD000109283031092FD058AE090E090932902E2
:104AE0008093280288E78093B8051092CF01109236
:104AF000CE0180917203877F809372030E941221FE
:104B00001092FA020F2EF0E0AF2EF0E0BF2EF0E090
:104B1000CF2EF0E0DF2EF02DA0926B03B0926C034D
:104B2000C0926D03D0926E031092B105F80180819E
:104B30008D7A8083AEE7B4E09C91E2E7F3E0808178
:104B40008A7F8083F7015081506410924E04109246
:104B5000DA011092460610923E051092460310921A
:104B60003D021092D9041092B50510928D03E5E62E
:104B7000F5E08081877F8083109203061092C40144
:104B80001092AE071092AD071092410510924005A9
:104B90001092120610924B06967B9C93EFE3F3E083
:104BA00080818E7D80831092640410926304109241
:104BB0001C02E1E1F7E04081109266061092650662
:104BC0001092D5041092D40410927B0410927A04AF
:104BD0001092EB051092EA0510924F0210920B0210
:104BE00010920A0220ED37E0309382032093810374
:104BF000109240031092C50110920A071092090703
:104C000010922B0710922A0782EE94E090931E06D2
:104C100080931D0610929C031092C5041092D1023D
:104C20001092B3031092BC0410926A0410926904AB
:104C30001092100710923F0488E99AE39093A0061F
:104C400080939F0690934507809344071092DC045D
:104C50001092F7021092F6021092F902309382033A
:104C600020938103109293038AE091E09093C80609
:104C70008093C7064C724083109257061092B2037D
:104C80001092830410928204A0920D02B0920E0240
:104C9000C0920F02D0921002109242031092410370
:104CA0001092C3011092C201109297031092FE0558
:104CB000577FF7015083E3EDF5E080811092CF023A
:104CC0001092CE0210923803109237031092C8014E
:104CD0001092C701109210061092A106817C808369
:104CE0001092B9011092B801109227021092260278
:104CF0001092200610921F061F910F91FF90EF90C7
:104D0000DF90CF90BF90AF9008950F931F93809145
:104D1000620381FF85C0809145038C3B21F4809123
:104D2000D402883021F0809145038E3A19F40E9414
:104D3000081471C080910C028F3009F06CC0809112
:104D40004503833229F0809145038E3A09F063C010
:104D50008091280290912902803A910539F48AE0E5
:104D600090E0909329028093280219C08091280234
:104D700090912902CC9750F08091280290912902BD
:104D80004496909329028093280209C080912802BA
:104D9000909129020A969093290280932802E3EDCC
:104DA000F5E08081806880830E9412218091B8059F
:104DB0008C3261F588E78093B8051092CF0110928C
:104DC000CE0180917203877F809372038091CE0120
:104DD0009091CF016CE370E00E94F36E60935707EF
:104DE0008091CE019091CF016CE370E00E94F36E50
:104DF0008093F3016091570780E441E00E946007CF
:104E00006091F30181E441E00E946007EBEAF3E086
:104E1000808180648083E2E6F3E080818D7F8083FF
:104E20008091620382FF66C0809145038C3B21F430
:104E30008091D402883021F0809145038E3A41F46C
:104E40000E940814E2E6F3E080818B7F80834DC0EE
:104E50008091F30386FD1FC08091F30380648093EB
:104E6000F303EAEDF2E08081826080838091430564
:104E70008E3178F580914305ECEAF1E0E80FF11D01
:104E8000808180930C028091430580938E038EE194
:104E9000809343051EC08091F3038F7B8093F303BF
:104EA000EAEDF2E080818260808380918E038E3112
:104EB00080F480918E03E2EAF1E0E80FF11D808139
:104EC00080930C0280918E03809343058EE1809342
:104ED0008E03E8E6F4E0808180648083E3EDF5E012
:104EE0008081806880830E941221E2E6F3E0808165
:104EF0008B7F80838091620383FF13C08091450381
:104F00008C3B21F48091D402883021F080914503BC
:104F10008E3A11F40E940814E2E6F3E08081877F64
:104F200080838091620384FFCEC0809145038C3BD7
:104F300021F48091D402883021F0809145038E3A8B
:104F400019F40E940814BAC080914503833209F015
:104F5000B5C080915907882309F4B0C080914A02F6
:104F600090914B02805A954008F0A8C08091190298
:104F70008F7D809319028091A407897F8093A40775
:104F80008091BB05813009F582E08093BB0580915B
:104F9000A40786608093A4072091590780914A0254
:104FA00090914B02820F911D90934B0280934A0285
:104FB0002091590780912A0290912B02820F911D16
:104FC00090932B0280932A0256C08091BB058230B9
:104FD00031F583E08093BB058091A40786608093C0
:104FE000A4078091190280628093190220915907C9
:104FF00080914A0290914B02820F911D90934B0237
:1050000080934A022091590780912A0290912B02A5
:10501000820F911D90932B0280932A022CC08091C5
:10502000BB05833041F581E08093BB058091A407E7
:1050300082608093A4074091590720914A023091E1
:105040004B02842F90E0880F991F281B390B309357
:105050004B0220934A024091590720912A02309135
:105060002B02842F90E0880F991F281B390B309357
:105070002B0220932A0280914A0290914B020E94B7
:10508000D5208091BB058093E60280E280930606DE
:10509000AAEDB2E09C91892F84608C938091BB052E
:1050A0008093F201EEE7F4E0808184608083EBEA94
:1050B000F3E080818068808395609C93E2E6F3E072
:1050C00080818F7E80838091620385FF6EC0809196
:1050D00045038C3B21F48091D402883021F08091EB
:1050E00045038E3A19F40E9408145AC0809119029F
:1050F000897E8093190281E280930606EAEDF2E050
:1051000080818460808380915E04882389F481E0BB
:1051100080935E04809119028061809319028EE170
:105120008093F201EEE7F4E080818460808333C0F5
:1051300080915E04813089F482E080935E048091E6
:1051400019028261809319028CE38093F201EEE7E9
:10515000F4E08081846080831EC080915E04823090
:1051600089F483E080935E048091190286618093C4
:10517000190288E78093F201EEE7F4E08081846011
:10518000808309C010925E041092F201EEE7F4E011
:10519000808184608083EBEAF3E080818068808393
:1051A000E2E6F3E080818F7D80838091620386FF59
:1051B000ABC1809145038C3B21F48091D4028830AF
:1051C00021F0809145038E3A19F40E94081497C18A
:1051D00080914503833229F0809145038E3A09F08E
:1051E0008EC18091B805883709F045C08091CC0206
:1051F000882309F029C18CE28093B80580914A0286
:1052000090914B024E9790F480914A0290914B02FC
:105210002EE130E0A901481B590B5093CF01409378
:10522000CE0130934B0220934A020EC120914A02D4
:1052300030914B022E31310538F0C9014E976EE1A5
:1052400070E00E94F36E9C018EE190E0821B930B54
:105250009093CF018093CE012091CE013091CF0168
:1052600080914A0290914B02820F931F90934B02C0
:1052700080934A02E9C080914A0290914B0288567D
:10528000914008F053C080914A0290914B026EE128
:1052900070E00E94F36E892B99F48091CE01909179
:1052A000CF014E969093CF018093CE0180914A0218
:1052B00090914B024E9690934B0280934A02C4C049
:1052C00040914A0250914B024E31510538F0CA01CB
:1052D0004E976EE170E00E94F36EAC0180914A023D
:1052E00090914B022091CE013091CF01821B930B04
:1052F00090934B0280934A028091CE019091CF010E
:105300004E96841B950B9093CF018093CE012091F4
:10531000CE013091CF0180914A0290914B02820FD1
:10532000931F90934B0280934A028EC080914A0251
:1053300090914B02805A954008F053C080914A02E8
:1053400090914B026CE370E00E94F36E892B99F40C
:105350008091CE019091CF01CC969093CF01809314
:10536000CE0180914A0290914B02CC9690934B02D1
:1053700080934A0269C040914A0250914B024C33DB
:10538000510538F0CA01CC976CE370E00E94F36ECF
:10539000AC0180914A0290914B022091CE01309154
:1053A000CF01821B930B90934B0280934A02809112
:1053B000CE019091CF01CC96841B950B9093CF0199
:1053C0008093CE012091CE013091CF0180914A028D
:1053D00090914B02820F931F90934B0280934A024D
:1053E00033C080914A0290914B022091CE013091BE
:1053F000CF01821B930B90934B0280934A0288E764
:105400008093B8050E9412218091CE019091CF0126
:105410006CE370E00E94F36E609357078091CE01B9
:105420009091CF016CE370E00E94F36E8093F301E2
:105430006091570780E441E00E9460076091F301AA
:1054400081E441E00E9460078091B8058837A9F4A3
:1054500080917203877F80937203EBEAF3E080818F
:105460008064808388E660E041E00E94600789E60E
:1054700060E041E00E94600719C08091720388607B
:1054800080937203EBEAF3E080818064808388E696
:105490000EEC11E0F80161918F0141E00E9460077C
:1054A00089E6F801608141E00E9460078091CE01A9
:1054B0009091CF016CE370E00E94F36E6093570708
:1054C0008091CE019091CF016CE370E00E94F36E69
:1054D0008093F3016091570780E441E00E946007E8
:1054E0006091F30181E441E00E94600780914A02EB
:1054F00090914B020E94D5208AEF8093CC02E2E685
:10550000F3E080818F7B80831F910F9108958091BC
:10551000C904882309F459C48091C904982F907C48
:105520008091C904282F2F73992309F002C12A31D1
:1055300008F07EC080914503883409F479C0293190
:1055400019F41092550302C0209355038091B203C1
:10555000813009F069C080914A0290914B022091FC
:10556000CE013091CF01821B930B90934B0280931D
:105570004A028091550330918C032CE3829FC00135
:105580001124830F911D9093CF018093CE01209120
:105590004A0230914B028091CE019091CF01820F4F
:1055A000931F8556954060F020914A0230914B023E
:1055B00084E695E0821B930B9093CF018093CE01FC
:1055C0002091CE013091CF0180914A0290914B02FF
:1055D000820F931F90934B0280934A028CE2809338
:1055E000B8051092B2038091CE019091CF016CE387
:1055F00070E00E94F36E609357078091CE01909106
:10560000CF016CE370E00E94F36E8093F301609130
:10561000570780E441E00E9460076091F30181E454
:1056200041E00E94600760C082E08093B2035CC0EA
:105630002B31A9F480914503883489F4E3EDF5E03A
:10564000808180628083E1EDF5E080818F7D8083C1
:1056500088EE9DEF9093B9018093B80145C02C313D
:1056600051F480914503883431F4E3EDF5E0808115
:105670008F7D808339C080914A0290914B022091A6
:10568000CE013091CF01821B930B90934B028093FC
:105690004A021092CF011092CE0188E78093B8059C
:1056A0001092B203109262068091CE019091CF01C8
:1056B0006CE370E00E94F36E609357078091CE0117
:1056C0009091CF016CE370E00E94F36E8093F30140
:1056D0006091570780E441E00E9460076091F30108
:1056E00081E441E00E94600780914503883409F419
:1056F0006AC38091B805883759F480917203877F17
:1057000080937203EBEAF3E08081806480830AC0B7
:1057100080917203886080937203EBEAF3E08081EA
:105720008064808380914A0290914B020E94D52030
:105730004AC3903409F000C180914503883409F4CC
:10574000FBC080910C028F3009F078C0222309F44D
:1057500021E08AE0289FC0011124909329028093C0
:105760002802E3EDF5E08081806880830E941221A9
:105770008091B8058C3261F588E78093B805109266
:10578000CF011092CE0180917203877F80937203C4
:105790008091CE019091CF016CE370E00E94F36E96
:1057A000609357078091CE019091CF016CE370E038
:1057B0000E94F36E8093F3016091570780E441E00B
:1057C0000E9460076091F30181E441E00E9460075C
:1057D000EBEAF3E0808180648083F5C2809142052A
:1057E00086958093420580914A0290914B020A97D8
:1057F00090934B0280934A0280911E0290911F0267
:105800000A9790931F0280931E028091420588237D
:10581000B1F43093420580914A0290914B02CC96AC
:1058200090934B0280934A0280911E0290911F0236
:10583000CC9690931F0280931E0201C030E28091AB
:105840004205821759F680914A0290914B020E94BC
:10585000D52082E280930606EAEDF2E08081846042
:10586000808380914205813049F480EA8093F2017F
:10587000EEE7F4E080818460808340C0809142053F
:10588000823049F48CE88093F201EEE7F4E0808105
:105890008460808333C080914205843049F488E776
:1058A0008093F201EEE7F4E080818460808326C07B
:1058B00080914205883049F484E68093F201EEE756
:1058C000F4E080818460808319C08091420580313A
:1058D00049F480E58093F201EEE7F4E08081846092
:1058E00080830CC080914205803241F48CE3809328
:1058F000F201EEE7F4E080818460808390914205BC
:1059000080914C02981759F08091F303806880933E
:10591000F303EAEDF2E080818260808354C28091DB
:10592000F3038F778093F303EAEDF2E080818260E6
:1059300080831092510347C2903809F0E9C18091E9
:105940004503883409F4E4C1243008F0D2C0209320
:10595000BB05809119028F7D809319028091A40765
:10596000897F8093A4078091BB05823061F5809187
:10597000A40786608093A40710922B0210922A023B
:105980008091E602813069F42091590780914A02A2
:1059900090914B02820F911D90934B0280934A028B
:1059A00084C08091E602833009F07FC080914A0272
:1059B00090914B0220915907821B910990934B02C1
:1059C00080934A0272C08091BB058330B1F580910B
:1059D000A40786608093A407809119028062809357
:1059E00019028091E602813081F48091590720915B
:1059F0004A0230914B0290E0880F991F820F931F4B
:105A000090934B0280934A0210C08091E60282304C
:105A100061F42091590780914A0290914B02820FC4
:105A2000911D90934B0280934A028091590790E018
:105A300090932B0280932A0238C08091BB0581305D
:105A4000A1F58091A40782608093A4078091E6026B
:105A5000833089F44091590720914A0230914B02DA
:105A6000842F90E0880F991F281B390B30934B022D
:105A700020934A0210C08091E602823061F4809146
:105A80004A0290914B0220915907821B91099093F1
:105A90004B0280934A028091590790E0909581953E
:105AA0009F4F90932B0280932A0280914A029091FB
:105AB0004B020E94D5208091BB058093E60280E2D4
:105AC00080930606AAEDB2E09C91892F84608C93A6
:105AD0008091BB058093F201EEE7F4E08081846061
